:10000000104A002035C8010001CA011001CA0110C0
:1000100001CA011001CA011001CA011001CA011070
:1000200001CA011001CA011001CA011001CA011060
:0C00300001CA011001CA01103FCA0110F2
:10003C00E0B50821ADF800100190042100F00FF894
:10004C0008B100200EBD02980EBD00B583B008218A
:10005C00ADF800100190052100F001F807BDADF8D6
:10006C00021000A801490968084700006807002031
:10007C0080B50820ADF80000102009490968ADF8DA
:10008C00020000A8884702BD80B501208DF8000051
:10009C00FFF7EEFF9DF800000028FBD101BD00002A
:1000AC006807002050F8041B61B150F8042BD307EB
:1000BC0044BFA9F101039A180023091F42F8043B1D
:1000CC00FAD1EFE770470000002216F067B9000084
:1000DC0070470000EFF3108072B67047EFF310809A
:1000EC0062B670470138FDD17047704701207047E8
:100100003C0000000000000000000000340100007E
:1001100000000000000000000100000000000000DE
:1001200000000000000000000000000001000000CE
:0C013000000000000800000000000000BB
:10013C003400000000000000000000006801000016
:10014C0000000000000000000100000000000000A2
:10015C00010000000000000000000000080000008A
:04016C00000000008F
:1001700030000000000000000000000098010000B6
:10018000040000000000000001000000FFFFFFFF6E
:10019000FF00000001000000080000000000000057
:1001A0002C0000000000000000000000C40100005E
:1001B000040000000000000001000000FFFFFFFF3E
:0C01C000FFFFFFFF08000000000000002F
:1001CC0034050000E401000099A1011095A701106D
:1001DC00A5C2011009B2011045B8011000000000C1
:0801EC00000000002E000000DD
:1001F40028000000000000000000000014020000BD
:100204000000000000000000FFFFFFFF00000000EE
:080214000800000000000000DA
:10021C00300500003002000069C201106DC10110F0
:10022C001FC2011095BA0110000000000000000070
:04023C00300000008E
:10024000300500005402000075C20110A9B601106B
:100250009DBF011049B60110000000000000000021
:040260003100000069
:1002640024000000000000000000000080020000E4
:100274000000000000000000000000000800000072
:040284000000000076
:10028800240000000000000000000000A40200009C
:10029800000000000000000000000000080000004E
:0402A8000000000052
:1002AC00240000000000000000000000C802000054
:1002BC000000000001000000000000000800000029
:0402CC00000000002E
:1002D000000000009407002004000000000000005F
:1002E000000000002000000070010000300000004D
:1002F0001C0200009C070020040000000000000019
:10030000000000000C000000300400001800000095
:1003100040020000A40700200400000000000000CC
:100320000000000024000000480400001800000045
:1003300000000000AC0700200400000000000000E6
:100340000000000010000000A00100002C000000D0
:10035000CC010000B40700200400000000000000F1
:1003600000000000200000006402000024000000E3
:10037000FFFFFFFFBC07002004000000000000009A
:100380000000000028000000880200002400000097
:10039000FFFFFFFFC4070020040000000000000072
:1003A00000000000580000003C0100003400000084
:1003B000FFFFFFFFCC07002004000000000000004A
:1003C00000000000100000006004000018000000A1
:1003D000FFFFFFFFD4070020040000000000000022
:1003E000000000001C000000AC020000240000001F
:1003F000FFFFFFFFDC0700200400000000000000FA
:100400000000000038000000F40100002800000097
:10041000FFFFFFFFE40700200400000000000000D1
:100420000000000054000000000100003C0000003B
:100430001800000000000000000000004004000060
:080440000800000000000000AC
:100448001800000000000000000000005804000030
:08045800080000000000000094
:100460001800000000000000000000007004000000
:0804700008000000000000007C
:0804780001000000A0C8010012
:040480000000000078
:040484000100000073
:0404880000000C0064
:04048C0000000D005F
:040490003200000036
:040494000100000063
:040498003007002009
:04049C00000200005A
:0404A0000000000058
:0404A40001CA011078
:0404A8000000000050
:0404AC00000000004C
:0404B0000800000040
:0404B4000000200024
:0404B80028060020F2
:0404BC00010000003B
:0404C00048070020C9
:0404C400080000002C
:0404C8000000000030
:0404CC00000000002C
:0404D0000000000028
:0404D4000000000024
:0404D8000000000020
:0404DC00010000001B
:0404E0006006002092
:0404E400060000000E
:0404E800010000000F
:0404EC0010050020D7
:0404F0000000000008
:0404F4000000000004
:0404F80000020000FE
:0404FC0000000000FC
:020500000000F9
:020502002A00CD
:020504000100F4
:020506002500CE
:020508003000C1
:02050A003100BE
:02050C002E00BF
:02050E000100EA
:0105100001E9
:0105110000E9
:080514000400000060C80100B2
:08051C000000000000000000D7
:0405240000000100D2
:0405280000000300CC
:04052C0087C401106F
:04053000380500008A
:040534003805000086
:0405380000000000BF
:04053C00800000003B
:040540008000000037
:0405440000000000B3
:040548004807002040
:04054C00F782010031
:040550002000000087
:040554004CC801008E
:040558005CC601007C
:04055C000DC30110BA
:04056000BD7A01005F
:04056400BF7A010059
:0405680099C801101D
:04056C009BC8011017
:040570000000000087
:04057400110500006D
:0405780098C4010022
:04057C00B0C4010006
:0405800080C4010032
:0205840008006D
:0205860009006A
:02058800010070
:02058A0000006F
:01058C00016D
:040590000000000067
:040594000000000063
:04059800000000005F
:04059C00000000005B
:0405A000A17901003C
:0405A400E5790100F4
:0405A800897801004D
:0405AC00137A0100BD
:0405B000F1780100DD
:0405B400A578010025
:0405B8003179010094
:0405BC00557A01006B
:0405C000758201003F
:0405C400738401003B
:0405C8007784010033
:0405CC000800000023
:0405D0002400000003
:0405D400180000000B
:0405D80028000000F7
:0405DC0020000000FB
:0405E0003C000000DB
:0405E4000C00000007
:0405E80034000000DB
:1005EC00DFF800F0F93A0110DFF800F0C93A011019
:1005FC00DFF8C82C808913880021984208D25268F1
:10060C000C2303FB00200F220078104218BF01219D
:10061C000846704710B5DFF8A42C838952680C2467
:10062C00012904FB032402D1408860800DE00229DB
:10063C0007D141886180001D00F055F828B9207061
:10064C0003E0011D201D00F047F8207840F08000E9
:10065C002070BDE810400AF0B6B8F8B500F032F9D9
:10066C00A0810020217809B30025DFF8506C19E037
:10067C0071680C2202FB05170F223978114210D138
:10068C0020783870211D60887880381D00F024F89F
:10069C00A581387840F0800038700AF094F83588DD
:1006AC0001206D1C3188ADB28D42E1D3F2BD38B55D
:1006BC00DFF8084C208068B10C2101FB00F5A8B2D2
:1006CC00FFF7B6FC606030B1AAB2BDE8384000213B
:1006DC000DF099BB606031BD002918BFFFF780BFDA
:1006EC0008220DF090BB002140B10022135C0BB12D
:1006FC0001210822521CD2B2082AF7DB08467047A7
:10070C00024601208A4206D022B100291CBF1046A5
:10071C00FFF76ABF002070471FB50C460021ADF8EB
:10072C0002008DF8001000A800F055F801A9204631
:10073C00FFF7D2FF2046FFF7D6FF04B010BD1FB560
:10074C000C4600218DF80010014601A8FFF7C4FFEC
:10075C0000A800F06CF8BDF80200208004F0BAFA92
:10076C0014BF0120002004B010BD38B50546FFF7BA
:10077C003FFF0446012C0BD100F025F82A780178B4
:10078C0082F0FF02114041F0800101700AF01BF869
:10079C00204632BD38B505460024287888B1284655
:1007AC00FFF726FF0446012C0BD100F00CF829783A
:1007BC0002780A4205D141F08001114301700AF020
:1007CC0002F8204632BDDFF8F40AA98940680C22F1
:1007DC0002FB01007047F8B5044600F077F8628818
:1007EC0000204FF6FE718A42A1811FD00025DFF850
:1007FC00CC6A17E00C21726869430F278B5C3B4273
:10080C000FD08F1861887A8891420AD1381DFFF772
:10081C006AFF012802D1391D00F059F8A581012089
:10082C0035886D1C3188ADB28D42E3D3F2BD2DE914
:10083C00F04100F047F86080A0814FF00008201DC7
:10084C00FFF751FF01281BD10026DFF8707A13E067
:10085C000C20796870430F23425C1A420BD0451868
:10086C00291D201DFFF7C0FE28B16888A681608075
:10087C004FF001083E88761C3888B6B28642E7D322
:10088C004046BDE8F08170B500F01CF8608000F0C7
:10089C001DF82046FFF7ACFE0546012D10D1DFF800
:1008AC001C0AA18940680C2202FB0106708860803A
:1008BC00301DFFF718FF012802D1311D00F007F899
:1008CC00284670BD04464FF6FE7070470021201D6F
:1008DC0002E72DE9F041044688B04FF6FE75A5817C
:1008EC0000268DF80060211D01A8FFF7F5FE00A879
:1008FC00FFF79DFF002701284FF0010808D1BDF834
:10090C000C006188A081BDF8020088423DD000AE89
:10091C008DF810706088ADF8120004A8FFF75BFF2B
:10092C00012808BF04AF3EB1B089A0810121204647
:10093C00FFF770FE4FB30BE0C7B1B889A081381D2B
:10094C00FFF7D1FE012807D12046FFF786FE80462F
:10095C007D800221384606E0201DFFF7C4FE0128E9
:10096C0013D103212046FFF755FE0EE06088A84204
:10097C0007D1201DFFF7B7FE012818BF4FF0000864
:10098C0003D12046FFF769FE80462046FFF702FFA1
:10099C00404602F008BE0020DFF8201900E0401CA1
:1009AC000A8880B2904209D24A680C2303FB0022C9
:1009BC000F2312781A42F2D10020704701207047A1
:1009CC0070B582B000F049F80DE068680C2101FBAD
:1009DC000406009600F02BF80DF019FE10B93078D3
:1009EC00C0433070641CA4B228888442EDD373BD1C
:1009FC0030B585B000F031F812E068680C2101FBCD
:100A0C00040001780A060AD511F07F01017002D1A9
:100A1C0000F03AF801A800F009F80DF0C9FD641CCB
:100A2C002888A4B28442E8D305B030BD00900C23D2
:100A3C00002221460120704738B500F00EF806E080
:100A4C0000230C22214601200DF06AFD641C28882D
:100A5C00A4B28442F4D3002032BD0024DFF85C58E9
:100A6C00704730B585B000F00FF8FFF7F6FF05E0E2
:100A7C0001A8FFF7DBFF0DF09BFD641C2888A4B2D6
:100A8C008442F5D305B030BD0C22FF2101A80DF036
:100A9C00BAB980B50DF046FEDFF8A00C0FF291113B
:100AAC00C1610FF2C51101620FF2612141620FF2B7
:100ABC007D21816201BD10B5DFF8804C20700021D2
:100ACC00DFF87C0C61700088DFF8781CE08104F1A1
:100ADC008400FFF785FDDFF8700C0078A070DFF85C
:100AEC00200DA06110BD2DE9F04F0D46280485B0F6
:100AFC00DFF8486C4CD530780DF044FA5FEA000B07
:100B0C0043D00BF114040BF10209A07A002804BFA6
:100B1C00E089132815D1B9F800A0F06B002702E08A
:100B2C00FFF793FA404660B102884168524505D1FF
:100B3C00002F884614BF7960F163F1E70746084639
:100B4C00F1E7617F484600F01DFBD8B99BF8000027
:100B5C00012812D1607903900BF1100320680290E8
:100B6C00494699F811000190207900900BF11C0076
:100B7C00B9F80A200EF087FF04E0022804BF58469B
:100B8C0001F0F7FD58460DF08FF985F400401DE09B
:100B9C00E80706D5F06A010018BF804785F0010010
:100BAC0014E0A80704D50120F07085F002000DE0D8
:100BBC0028070AD500F09FFA20B930640821307854
:100BCC000FF088FC85F0080000E0002005B0BDE8BF
:100BDC00F08F38B504466068007D1030C0B20DF05F
:100BEC0051F9050022D0022028700020687020885E
:100BFC006881A07828736068007D287205F1100068
:100C0C0068606068007810F0200118BF01216972DB
:100C1C006068027D016968680DF0DDF82946BDE861
:100C2C003440DFF8180B00780DF04DB931BD0000E1
:100C3C0038B50C4611461A460DF055FE050011D07C
:100C4C0021460DF011FE68B1214628460DF01DFE1F
:100C5C0030B96C8828460DF000FE20460DF0DFFE02
:100C6C00002032BDB42032BD2DE9FE4381460D4635
:100C7C00B3264FF00008002700E07F1CDFF8000DC2
:100C8C000078FFB287423ED238460DF076FF040062
:100C9C00F3D0607940445FFA80F8C145EDDA182250
:100CAC00002128460DF0AFF86179A9EB080008186F
:100CBC00C0B204EB4000C088688105F026FA0146FA
:100CCC002846FFF78DFC6078012802D128756088D2
:100CDC0013E0608800A90DF0D4FE78B19DF80800EF
:100CEC0028759DF80800032805D100A905F10C0012
:100CFC00FFF776FC02E0BDF80000A881207828728E
:100D0C0000262079A8753046BDE8FE83428913077A
:100D1C000BD5920708D5427B062A18BFE92903D0C8
:100D2C00CD2918BFF02900D164E170472DE9FD4FA2
:100D3C000E46F188F07884B00DF037FE5FEA0008BB
:100D4C004FF0000B72D0317DC0B207F043F80400B5
:100D5C006CD0F188F07800220DF040FE0546F0785A
:100D6C006071D946F088E080B07D608184F808B06D
:100D7C00327D3169E0680DF02EF81398608214987A
:100D8C002075DDF844A034E068880DF08DFE788085
:100D9C00287938713178490603D5B97941F00201C7
:100DAC00B971BBF1000F01BF7988DFF8442CD28AEE
:100DBC00914214D1B07000200390CDF804A0129889
:100DCC00059B0499029000200090DFF8240C828C83
:100DDC00304601F0CCFEB87940F00500B87109F14D
:100DEC000107F188F078FAB20DF0F8FD05465FFACC
:100DFC0087F97DB1C1450DDA04EBC90000F1160786
:100E0C000020387068780128BED138704FF0010B83
:100E1C006888BCE7204606F0F2FF0094109A9DF813
:100E2C0018105346304600F013F80FE0F0788DF8A8
:100E3C000300B8F1000FB07D8DF804000CBFB92091
:100E4C0010208DF8050000A801F08CFE07F07DBB8A
:100E5C002DE9FF4F87B0149C204606F08DFF054608
:100E6C00204606F0A0FF002D804600F0B9804FF020
:100E7C00000A04E040F00800B0710AF1010A5FFAC0
:100E8C008AFA207C824580F0A780EDB2002D00F01C
:100E9C00A38004EBCA0000F11606B079C007ECD4AD
:100EAC0030784FF0000998B9708802F01DF878B1CD
:100EBC000079012818BF03280AD1B0795FFA88F8A5
:100ECC0040F08000B8F1000FB0714FF00109D4D0A0
:100EDC009DF828004FF0000B082708B14FF0200BAD
:100EEC000C22002100A80CF08EFF3078C0B1DFF886
:100EFC00000B90F86800012809D17088ADF800004B
:100F0C004BF0080BFF2041F20807307111E00799F4
:100F1C00708888804BF00C0B0C274FF6FF7006E0A6
:100F2C009DF8200010B14BF0400B0A277088ADF8EB
:100F3C00000007988DF802B0007D00F054F801F025
:100F4C003BFC9DF81400B8BB0398407D707103986E
:100F5C00C7829DF824104176307828B1DFF8900ACA
:100F6C00039990F8680008770398618920F8281F86
:100F7C00618A4180217D01710399607981F83A0081
:100F8C000399307981F83B0007990398C98820F8B8
:100F9C003E1F0799098941800799497DC1720799BC
:100FAC0003988988818707990A7D0969406C0CF040
:100FBC0012FF00A801F068FCB07940F00100B0719C
:100FCC009DF8141000297FF455AFB9F1000F18BF2C
:100FDC00A8F101086D1E50E70021204600F04CF8E6
:100FEC000BB0BDE8F08F8DF8040001208DF80500E2
:100FFC0000A87047F0B5044689B0207B0F4606F078
:10100C004DFF060023D065691FBB217B042206F02F
:10101C005BFFE5B1A888ADF80E00E888ADF81000CC
:10102C00287A8DF81C00F068069000208DF81D00C1
:10103C002068006A00788209287800F0200300F00C
:10104C00400108BF0422009602A8FFF701FF09B077
:10105C00F0BD217B082206F037FF0028D9D0002DE7
:10106C00F5D001977189C9B2009103794288017852
:10107C00A8780EF0EAFCCDE77CB501220123002410
:10108C0002E00023641CE4B2057CAC420BDA00EBFA
:10109C00C4052D7FEE07F4D50C263542F1D06D0733
:1010AC00F0D50022EEE7047A7CB90BB901290CD1FA
:1010BC000121017241798DF8031040898DF80400EB
:1010CC008DF8052000A801F04DFD73BD0121D3E77B
:1010DC00DFF868160B7820B10022CA700221024694
:1010EC0003E00120C870022102E018460FF0C7B9D6
:1010FC0018460FF0EFB92DE9F843DFF8F408DFF8E4
:10110C003C66807B00250024F76B00074FF001093B
:10111C0020D40FF086FA316C421ADFF8481B0B888A
:10112C009A4238BF01202BD3DFF8381D0978B2FB67
:10113C00F3F81FFA88F8414534BF89465FFA88F9FD
:10114C0003FB182189B2401A306403E03846FEF7DD
:10115C007CFF47469FB1F8788145B4BFA0EB0900EE
:10116C000020F870F978786829B9002C804614BFF3
:10117C006060F063EAE73C466D1C0746EAE7A8B2FC
:10118C00BDE8F283F8B5DFF8B445027AE56B0E469C
:10119C00022A294646D1078800E0496859B10888D7
:1011AC00B84204BF8878B042F7D1DFF8B80C0078A9
:1011BC00C8700120F2BD002035B1012001E0401CB7
:1011CC000D4669680029FAD1DFF8001D098880B244
:1011DC00884227D20820FEF72BFF18B307808670B1
:1011EC00DFF8801CDFF808680978C17000214160C5
:1011FC00E16B09B1686006E0E063B07B000702D4E4
:10120C000FF00FFA2064B07B00070BD52078082173
:10121C000FF076F930B9DFF84C0A028820780821F3
:10122C000FF03CF90020F2BDDFF8101508710FF239
:10123C00910008630FF26D2048630FF2F54088634C
:10124C00704738B504000D4608BFFEF71DFFDFF8E8
:10125C00F80C016811B9046004E00146C868002864
:10126C00FBD1CC600020E060A57131BD10B5DFF87A
:10127C00D83C1B6800E0DB684BB1DC79844201BFD1
:10128C009C888C429C799442F5D1184610BD002064
:10129C0010BD10B5DFF8B01C0C68A04203D1E46897
:1012AC000C6006E00C4624B1E1688142FAD1C168B9
:1012BC00E160FEF7CAFE204610BD0000B4460020D7
:1012CC00FEB50646307A002818BF01280BD03088AE
:1012DC0005F0E6FA38B9307A032806D101A9304670
:1012EC0000F050FE20B90220FEBD3088ADF804009D
:1012FC00708A443080B2FEF79BFE04005DD044221D
:10130C0000210CF080FDB07ADFF8305400A90EF00B
:10131C0006FE04F134079DF80000B87101219DF818
:10132C00010078712046FFF78CFF2422314604F12E
:10133C0010000CF050FD04F14400F860708A388104
:10134C00728A7169F8680CF046FDBDF80400A08043
:10135C006878E071401C68700FF063F92080FF2002
:10136C0097F905108840F870F878B87003F0BAFD5A
:10137C00307E10F0010118BF01218DF8091002A870
:10138C000EF089FD801E38703978388990FBF1F0A9
:10139C0020723978388990FBF1F201FB120010B100
:1013AC00207A401C20720121208D40F008002085FD
:1013BC0028790CF0A9FE0020FEBD1020FEBD70B5F2
:1013CC0004460FF02EF9208004F12A03DFF8001DEB
:1013DC00987B097888425AD2197BFF2903D1401C8B
:1013EC009873587B1873D97A1A7B002001E0401C43
:1013FC00C0B2DD7BA8420BDA82F0FF0525FA00F6BD
:10140C00F507F4D54118012505FA00F010431873BF
:10141C009D7A588AC9B205FB110292B2AA420ED328
:10142C00187BFF282A460CD0187C6080208D91B93F
:10143C0040F020002085207A1871206C14E0FF20E9
:10144C001873DFF82408DFF88C5C00792D7868437A
:10145C0064256843E9E74FF6DF752840208519714C
:10146C00206C9D7A05FB01006062D2B2E079D870E5
:10147C006284DFF8640C0268100002D008469047C2
:10148C0070B904F11000BDE8704000F0EFBB1978A2
:10149C00A07EE9220EF0C6FA2046BDE87040F8E6C0
:1014AC0070BD0000F8B504461646607D0122FFF7BA
:1014BC00DDFE050036D0002E01BFE07D05F12A06C9
:1014CC00F17A88422ED1AF1CF37BBA79217E1818A1
:1014DC0090420ADBFF2908D13178387E00220EF0C9
:1014EC00A1FA2846BDE8F240D3E6FF290BD1FF2034
:1014FC0098403073307BF17B7073F07A0818F0727F
:10150C000020B07302E07173207E30730FF089F805
:10151C0028800121307C3880BDE8F4408748007970
:10152C000CF0F2BDF1BD2DE9F047044682B0A07875
:10153C00884691469A460EF092FC05005FD01C201E
:10154C00FEF776FD070059D01C2200210CF05BFC45
:10155C00A07800A90EF0E3FC9DF80100387502217B
:10156C003846FFF76EFEB8F8000097F91410B880F3
:10157C00607DF871FF208840787468680078387452
:10158C00207DB874E17D4843303080B20CF07AFC99
:10159C000500BD612ED01A202870AE1C002068708A
:1015AC0030804146E0887080A81D0EF0A8FCE078E1
:1015BC007073DFF8B406808CF08105F11C00618B30
:1015CC00018261893182A178B174217BF17499F81F
:1015DC000010317599F80110717599F80210B175F8
:1015EC0086F817A00A99016005F13001C160A17D50
:1015FC00017203E03846FFF74CFE00273846BDE881
:10160C00F6872DE9F04788460546DFF8CC0AEC7DD5
:10161C0001680027080082B091469A4604D0204603
:10162C008847002840F08280B8F80010687D0222BC
:10163C00FFF71CFE060012D16878C00776D50A9811
:10164C00009053464A4641462846FFF76CFF060079
:10165C006CD03A483472012100790CF055FD307A87
:10166C00401E8442307C08BF0127FF284BD068788D
:10167C00F17CC007307D48BF0024421894424FF0E3
:10168C00FF0904DB4118F17409FA00F07074B069B9
:10169C00B37C806A2A7D296903FB04000CF09BFB58
:1016AC00307D727C94FBF0F1012300FB114C03FAAA
:1016BC000CF31A437274AFB100FB1140401C09FAD1
:1016CC0000F010437074B169B07C2A7D04FB0020DB
:1016DC00C884707CFF2805D1307C0CF0F4FB86F8B4
:1016EC00109010E00EF09DFF3080DFF8E819C04834
:1016FC00097800794843DFF8D819097801FB000014
:10170C00642148437080F07C317D0918491E8C425D
:10171C001CBF717CFF2900D047B1E8752946707C4D
:10172C002876B8F80000BDE8FC4709E2BDE8F3876D
:10173C000146DFF8600C00790CF0C5BBBC02002040
:10174C00120800206C4600202A080020F8B50C4630
:10175C002004DFF8405C1BD4E0074FD5DFF8E80726
:10176C0006680EF05EFF4FF6FF7180B20A461FE06E
:10177C003078012809D17069009006F11002F37CD1
:10178C00B11C06F11C00FFF73CFF30460CF08CFB43
:10179C0028790CF0F7FB0600EAD184F40040F2BD86
:1017AC00A7EB0C039342F668BCBFA7EB0C0292B2FA
:1017BC00DEB133887788C31A1FFA83FCBC45EFDB94
:1017CC00B079022809D1307CFF281CBFB0690CF01D
:1017DC006BFB3046FFF75DFD02E03046FFF7EFFD97
:1017EC00287901210CF090FC05E08A4203D028797D
:1017FC0001210EF044FE84F00100F2BD0020F2BD88
:10180C006446002070B50D460446298800F02AF87D
:10181C0008B1B82070BD00F096F8DFF87C1B097891
:10182C00884201D3B22070BD1820FEF701FC0600DF
:10183C0001D1102070BD0020306034711222294675
:10184C00B01D0CF0C8FADFF8480C016811B906603D
:10185C0004E0014608680028FBD10E6000F09FF8F8
:10186C00002070BDDFF8282C126842B11379834236
:10187C0012BFFF28D3888B42F6D1901D70470020F1
:10188C00704710B5DFF8082C1468FE290CBF012333
:10189C00002303E0914208BF012324683CB1E28895
:1018AC008242FAD12279002BF4D0104610BDFE20D2
:1018BC0010BD10B50022DFF8D83B07E01C7984423C
:1018CC0004D1DC88D2B221F81240521C1B68002BC8
:1018DC00F4D1D0B210BD38B5DFF8B43B1A6800248F
:1018EC0001E0144612688AB11579854204BFD58887
:1018FC008D42F6D11068002C0CBF18602060104689
:10190C00FEF7A3FB00F04BF8012032BD002032BDE6
:10191C00F8B5DFF87C5B04462868002603E007680E
:10192C00FEF793FB384658B102790168A24204D104
:10193C00002E0CBF29603160F1E706460846F2E73D
:10194C00BDE8F1402BE00020DFF8441B00E0401C18
:10195C0009680029FBD1C0B2704710B5DFF8380A0E
:10196C00007814214843811C002289B242200CF0DB
:10197C0002FE040018BF00F005F8204610BD000060
:10198C007CC5010080B50020ADF8000000F001F826
:10199C0001BD00AB0222002142200CF032BE10B57A
:1019AC0086B00020ADF80000DFF8E40A046818E007
:1019BC0020798DF804001222A11D0DF106000CF007
:1019CC000AFABDF8000014225043811C01AB89B205
:1019DC0042200CF016FEBDF80000401CADF80000D3
:1019EC002468002CE4D1FFF7D4FF06B010BD000032
:1019FC009C41002030B587B000AB02220021422070
:101A0C000CF04CFE0024C8B9002512E014206843E9
:101A1C00811C01AB142289B242200CF03FFE38B974
:101A2C009DF804000DF10601FFF7ECFE00B9641CF3
:101A3C006D1CBDF80000ADB28542E7D3A0B207B073
:101A4C0030BD10B500228A70CA700023027F0A755F
:101A5C00826A4B738B80838D4B83C3894B8112F8C5
:101A6C00013B0B7003F00304032C65DA002C18BF48
:101A7C00022C33D103F00C040C2C08D0DB065CBF19
:101A8C0012F8013B8B70082C08BF012300D00023F7
:101A9C000C2C0B7306D11378547803EB04238B8036
:101AAC00921C0AE0437903F00303012B05D10B7858
:101ABC0043F00C030B7043898B800B78DB060DD441
:101ACC001378547803EB0423CB8012F8023F54783C
:101ADC0003EB04230B819378CB70D21C12F8013BDF
:101AEC004B750B781B0618D512F8013B4B70FC2478
:101AFC00234221D103F00304032C1DD003242342E1
:101B0C000DD012F8013BCB750B7803F00303022BBD
:101B1C0005D112F8013B0B7601E000234B700A61F2
:101B2C000B7D9A1A836A9A180A75037F9B1A4B735A
:101B3C00D2B2007F904202D200204873087510BDCB
:101B4C0070B50C4686B00546207800F00C010206F4
:101B5C0048BF41F0800141F0020600F00301012969
:101B6C0008BF46F01006800648BF46F020060C223F
:101B7C00002100A80CF047F98DF8026060788DF810
:101B8C000300ADF80050FFF730FA00F015FE9DF899
:101B9C001400E8B90399012048760399A07881F8DC
:101BAC003A000399E07881F83B000398E18820F82B
:101BBC003E1F21894180617DC1720399207E81F88D
:101BCC004C000399E07D81F84B0000A800F05CFE0E
:101BDC0006B070BD02460020537B042B00D070472A
:101BEC0030B5137CDBB95269CAB113780324234294
:101BFC0001BF4B68547B5D7DAC4210D15489098880
:101C0C008C4202BF9188DC88A14208D191789A78E5
:101C1C0091421DBF197801F00C010429012030BD3F
:101C2C001CB50346084603224178114208D0DFF860
:101C3C0064174C6B210013D000221946A04713BD2A
:101C4C000190ADF8003000A9DFF8340C03F024FE4D
:101C5C0030B10621417300210068407B02F093FBF8
:101C6C0013BD0000160800209C4100202DE9F04116
:101C7C000446DFF82007E57AC07886B008B9BA20A8
:101C8C00EDE000F093FC01278DF805700026207E16
:101C9C00400709D59DF8020040F040008DF8020085
:101CAC00207E000758BF0327208BC10648BF47F092
:101CBC004007000710D59DF8020040F0C0008DF8D9
:101CCC000200217E9DF8030089064CBF40F0010004
:101CDC0040F002008DF80300208B217ADFF8A48BF2
:101CEC0000F4C070B0F5C07F08BF47F0080751B9C9
:101CFC00B8F81600ADF800009DF8020040F00400A2
:101D0C008DF8020031E09DF802200F2942F0080303
:101D1C0047F0040006D18DF8023007462188ADF853
:101D2C00001022E0022902D100F086FE1DE00329FA
:101D3C0004D100A9204600F025F916E0012914D1A0
:101D4C0098F8681039B18DF8023047F4805700F0DC
:101D5C0073FEFF2508E042F00C018DF802100746D7
:101D6C004FF6FD71ADF800102688207EC0071DD5FA
:101D7C009DF802000C2108420BD120880BF0AEFC20
:101D8C0008B9BB206BE09DF8020040F020008DF8F4
:101D9C000200207EC00709D59DF8020000F00C015E
:101DAC00042904BF40F020008DF80200608A8DF8F1
:101DBC00040000A800F000FD9DF8140000284CD190
:101DCC000398C782E17E41760399207F8876207A3A
:101DDC00012803D1039998F8680008770398A17E2D
:101DEC0020F8281F218B4180E17F0171208B00F4AA
:101DFC00C070B0F5C07F05D10398417D94F82000E8
:101E0C0006F077F80399A07A81F83A00039880F8E5
:101E1C003B50039820F83C6FE1894180218A8180F6
:101E2C00A17E81730399A07F81F84B000399607F99
:101E3C0081F849000398628A6169406C0BF0CBFF12
:101E4C00207E400606D5DFF8AC0A016808001CBFEE
:101E5C0000A8884700A800F017FD9DF8140006B0F4
:101E6C00BDE8F0812C08002010B50078632420B167
:101E7C0005200EF04FFEC0F15604DFF8080A007B77
:101E8C0020B10EF047FE201AA0F10E04E0B210BDF6
:101E9C0013B511461A46DFF8603A1C68230008D0C7
:101EAC0001AB00930123A04708B1002016BDB2205E
:101EBC0016BDB62016BD38B5DFF8F848E469250024
:101ECC0001D0A04732BDB62032BD0000180800205A
:101EDC0038B50346B5200C46A12B1546DFF8D418AF
:101EEC0006D0A22B0ED0A32B04D0AB2B12D032BD1C
:101EFC00C88905E0DFF8041A09680A000FD0884782
:101F0C0028800BE00A6A110009D029462046BDE85A
:101F1C003840104789692846FEF762FB002032BD25
:101F2C00014680B5B520A129DFF8883802D0AB294D
:101F3C0003D002BD1088D88103E098691146FEF7E2
:101F4C004FFB002002BD00000047002038B50C46B6
:101F5C00DFF83019CA8A0125824206D104F0D5F87F
:101F6C0001462046FEF73CFB0AE0498B814203D137
:101F7C00204604F0DBF803E02146FEF7CDFB0546D6
:101F8C00284632BD70B504460D4604F0BEF8014635
:101F9C002046FEF729FB012618B104F0B8FD288075
:101FAC0004E029462046FEF7CAFB0646304670BDC3
:101FBC0010B504460E20FEF73BF8A8B104F1380129
:101FCC000A7802704A7842708A788270CA78C27035
:101FDC00CA8882800A89C2808A7A02728A7C0273D9
:101FEC0062884281497C417310BD10B50C4682B0A9
:101FFC00217F052904D104F10801FFF7A7FF38B3AD
:10200C0000A904F108000BF091FBBDF80000E8B149
:10201C002078012815D1BDF80010DFF8180B0C2220
:10202C0002FB0100DFF8201B0818A169026891422D
:10203C0005D3BDF800206282491C016004E0A22097
:10204C0016BDBDF800006082002016BDA12016BD93
:10205C00C82016BD38B505460C4600206082A06924
:10206C0010F1010F32D0207C012810D1DFF81418A8
:10207C00CA7AB320002A04BF91F84110012926D155
:10208C00207D0EF041FC6082F0B1002032BD48B9D9
:10209C002846FFF7AAFFD0B16168097803221142E4
:1020AC0006D132BD022809D12846FFF79EFF70B138
:1020BC0021462846BDE834400BF095BC032803D1DB
:1020CC002846BDE8344090E7A12032BDA32032BDA4
:1020DC002808002029080020044700203EB50446AB
:1020EC0000202569688201A92088FFF72FFF90B393
:1020FC0000A901A80BF01AFBBDF8000058B3BDF8FD
:10210C000020DFF8301ADFF8003B0C2000FB021235
:10211C009A1800232B74BDF800306B821368AB61E6
:10212C004FF47A7513685B1C13604FF47A72B3FB2F
:10213C00F2F205FB123272B9BDF8002000FB02105E
:10214C00DFF8C81A01220A544FF40061DFF8C00A04
:10215C0000780BF0D9FF206900F108012088FFF707
:10216C00F5FE2069418AD1B98A4DA9690830FEF77C
:10217C003BFA48B903F0C9FF0146A869FEF734FAE7
:10218C0010B900F0D9FC50B1216920880BF074FC17
:10219C0010B121690020488200202169087425694A
:1021AC00688A30BBDFF8DC06C17A002904BF90F8DE
:1021BC004100012818D13A230DF10202012100201F
:1021CC0005F07FFC70B9012028749DF80200287579
:1021DC003A206882DFF8200B0168A9610168491C6C
:1021EC00016001E0002068822069408A08B9A120C2
:1021FC00207537BD10B504462020FDF719FF0028C7
:10220C00206132D02046FFF769FF2069418A39B33B
:10221C00017C012902D10E2101770FE0A16841B99F
:10222C005C4989690830FEF7DFF910B900F084FCCD
:10223C0008B10D2000E0052021690877A1782069FC
:10224C0001F0030101290EBF0521DFF83816097BC7
:10225C004170206940780EF05DFC2169487710BD13
:10226C00FDF7F3FE0020206110BD1020207510BD7D
:10227C00F8B505460E462020FDF7DAFE040040D0E6
:10228C00DFF80076708BF98A88420CBF022001209F
:10229C002070717B3069401A6060707BA0702046A2
:1022AC000EF0D3F9307800F0030001280CBF0520A4
:1022BC00387B607060780EF02DFC6077217F306980
:1022CC0008183061217F307D401A617F401A3075CB
:1022DC00E07021462846FFF7BDFE0546207802280F
:1022EC0006D103F012FF014604F10800FEF778F95D
:1022FC001DB920460EF0FCF905462046FDF7A5FE5B
:10230C0000E010252846F2BD10B50446E06810F830
:10231C00381F01F00301012902BF21690A7C002A40
:10232C0002BFC0680278052A06D14078012816BF82
:10233C000628022003200874002021690870E06838
:10234C00216990F848008870E068216990F8420093
:10235C00C870E06821690069486003F0D6FE014648
:10236C0020690830FEF73CF920690EF0C1F92075A0
:10237C0010BD01207047DFF8980ADFF8981A016049
:10238C00DFF8941A4160DFF8941A8160DFF8081BBB
:10239C00C1607047BC0200207DC5010070B5C268E9
:1023AC0092F83810126911F0030418BF022C02F8CD
:1023BC00011B39D111F00C0318BF082B01F01005CB
:1023CC0004D0042B07D1022C00D18DB9C66896F825
:1023DC003B6002F8016B0C2B08D1C668B68F02F873
:1023EC00016BC668B68F360A02F8016B022C00D15D
:1023FC00D5B9C468E48F02F8014BC468E48F240A91
:10240C0000F048F800F046F8240A002B18BF082BFF
:10241C0002F8014B03D00C2B18BF042B04D1C3685A
:10242C0093F83A3002F8013B0326C36803F12A04FF
:10243C0001F00203E57B354208BF002B02D1257861
:10244C002D0603D5E47F02F8014B08E0DFF8645356
:10245C006E78E6776C7802F8014B641C6C70090698
:10246C0014D5C16891F8391002F8011B0325C16815
:10247C0011F8394F2C421EBF897C02F8011B002B2E
:10248C0004D0C06890F84C0002F8010B70BD00003D
:10249C000847002002F8014BC468B4F8404070476C
:1024AC0030B50268917801F003030124002B18BFAA
:1024BC00022B20D111F00C050BD0082D08BF0224E3
:1024CC000BD0042D06D1022B01D1CB0607D4062448
:1024DC0010E002240C2D08BFA41C022B01D1CB064A
:1024EC0009D4241D002D18BF082D03D00C2D18BFA6
:1024FC00042D00D1641C0B0604710CD503795B1CF4
:10250C0003710324D278224205D05A1C0271890728
:10251C0044BF511C01710179491C017130BD006926
:10252C00002818BFFDF791BD704730B587B0044641
:10253C0001208DF814002046FFF730FF206908B108
:10254C0000F0BCF9207D28BB00F030F801208DF89C
:10255C000200A0680088ADF80000E068007D09303A
:10256C00FEF741FD00F028F99DF8140090B903988E
:10257C00456C0E202870A0684168681CFEF730F886
:10258C00E068027D016905F109000BF024FC00A84C
:10259C0000F07AF9E06808B1FDF757FD2046FFF727
:1025AC00BEFF9DF81400207507B030BD0C22002131
:1025BC0000A80BF028BC10B504468CB06089ADF8AF
:1025CC000000606840788DF802006068801C019003
:1025DC009DF80200042805D16068123002906068F2
:1025EC001A300CE0012818BF06280AD16068807CDC
:1025FC008DF8030060681330029060681B30039004
:10260C0008E0002002906068123003906068807EC1
:10261C008DF81000029850B1FEF765F8012806D12C
:10262C0003F073FD01460298FDF7DEFF18B100A818
:10263C0000F0F0FA41E000A80BF087F801283CD13B
:10264C00029805A9FFF79EFC012836D1BDF81400AD
:10265C00608100206072DFF8180B007828B1606888
:10266C000078052808BF012000D0002020730C2220
:10267C00002106A80BF0C7FB6089ADF81800207A82
:10268C008DF81C0001208DF81A00207B8DF81D00A0
:10269C00607A012804BF21208DF81A0006A800F0EA
:1026AC008BF89DF82C0040B90998227A6168406C2F
:1026BC000BF091FB06A800F0E7F80CB010BD00B5CC
:1026CC0083B04189ADF800104068401C019000A80F
:1026DC0000F0C3FA07BD80B54189ADF80010406821
:1026EC0040788DF8020000A800F0CFFA01BD30B59B
:1026FC00054683B068680178052906D0072908D0FB
:10270C0009290AD00E290CD037BD2846FFF753FFF4
:10271C0037BD2846FFF7D3FF37BD2846FFF7DBFF51
:10272C0037BD00F1090401A9401CFFF72BFC01285F
:10273C001ED150208DF80000287A09388DF8010040
:10274C0000208DF8020000A800F0ACFE05000FD0B0
:10275C00BDF8040068802146207885F8380005F122
:10276C001000027900680BF036FB284600F06EFE74
:10277C0037BDDFF8A01ADFF8A02A097812781143C8
:10278C0004BF417A002905D141680978062918BF90
:10279C0007290DD0017B39B94168097805291CBF7F
:1027AC004FF49A700CF048BDDFF8A81B0968084775
:1027BC0070470000BC02002010B584B004460194A0
:1027CC000020E060019908610199087501A8FFF7E4
:1027DC0067FE01982B490088C98A884211D001985C
:1027EC00807880060DD5DFF828160198096888478F
:1027FC000198006928B901980199807800F0DF00F0
:10280C008870207D00283AD150208DF800009DF86A
:10281C000810207908188DF8010060798DF80200F5
:10282C00206938B1027F407F9DF801108018401854
:10283C008DF8010000A800F035FED8B12188418048
:10284C00012200F110014A7200F13802A3781370D2
:10285C00E37853702379937209689DF808301374E8
:10286C005918D160216919B1D368097FC918D16091
:10287C00E0601FBD2046FFF752FE102020751FBDE3
:10288C00E11B00009C41002010B50446207D88B956
:10289C002046FFF783FD206908B100F00FF8E068CF
:1028AC00217D19B900F0D2FD207503E0FDF7CDFBB9
:1028BC000020E0602046BDE8104030E6DFF85015FF
:1028CC0049682046084738B50D46DFF8F01AC98A22
:1028DC000446688B884205D020460AF0FFFE08B9F2
:1028EC00012032BD29462046BDE83840DFF82025BE
:1028FC00D268104710470020B8440020BC44002088
:10290C0030B587B000F0FDF8A078042829D122203A
:10291C008DF804009DF8140000285FD100F08CF8AD
:10292C0001208DF80200A07B8DF805002069029033
:10293C00607B012804BF21208DF8020000F0A3F871
:10294C009DF81400002849D10398456C0520287087
:10295C00A0786870616891B11022A81C0BF03BFA4A
:10296C0011E0012814BF06282320D1D0022814BF5F
:10297C0003281B20CCD0B3208DF814002EE010229D
:10298C00A81C0BF040FAA0781235012812BF0628BB
:10299C00E07805F8010BA1682846FDF79DFEA078AC
:1029AC0004281CBF0128062805F1080204D10021C7
:1029BC00AB20FFF78DFA01E0207B1070208803F02C
:1029CC006FFF10B103990420C8822069002800A869
:1029DC0002D0FFF7AAFD01E0FFF756FF9DF81400A7
:1029EC0007B030BD30B587B000F04FF800F024F8D8
:1029FC000C2000F08FF8607A002814BF21200120F1
:102A0C0000F03FF89DF8140080B90398456C06203F
:102A1C002870681C6168FDF7E3FD60886872608847
:102A2C00000AA872207AE87200F069F8207A08B1DE
:102A3C009DF8140007B030BD2088ADF80000704739
:102A4C0010B586B000F021F8FFF7F6FF092000F072
:102A5C0061F8207A01280CBF2120012000F011F828
:102A6C009DF8140048B90398406C072100F8011B2D
:102A7C006168FDF7B5FD00F042F89DF8140006B052
:102A8C0010BD8DF8020000A896E604460C22002129
:102A9C0000A80BF0B8B910B586B000F032F8607829
:102AAC00012818BF042822D102208DF804009DF8BB
:102ABC001400D8B92078ADF8000021208DF8020060
:102ACC00FEF793FAFFF778FE9DF8140070B903989F
:102ADC00406C08210170617841706178022903D142
:102AEC006168801CFDF77CFD00F009F8C5E7022841
:102AFC0008BF0A20D9D0B3208DF81400F6E700A83F
:102B0C00C2E6044600208DF814000C22002100A817
:102B1C000BF079B98DF8040001208DF80500704791
:102B2C0080B5FFF728FCDFF82C18DFF8080B0860DD
:102B3C0001BD000044440020DFF8FC0A8069082233
:102B4C00FF210BF0CCBC0000F8E7FFFF406940B15F
:102B5C00427803231A4204D10A46017B80780CF098
:102B6C0061BF704742790179C0780CF05BBF2DE9E9
:102B7C00F04105468846287D383017461E46C0B2BF
:102B8C000BF080F904003DD0012020701C22294656
:102B9C0004F11C000BF01FF90A224146A01C0BF09B
:102BAC001AF9A78130782074B078A07470786074AA
:102BBC000798E0740020E06208986061069820761F
:102BCC006889E08109986076287D30B104F138007D
:102BDC00E0622A7D29690BF0FEF8617FDFF8580A64
:102BEC00032211420AD0816B080020461CBFBDE8AD
:102BFC00F0410847BDE8F0410BF056B92146BDE85D
:102C0C00F0413FE0BDE8F081F4E7FFFFFCE7FFFF98
:102C1C006804002038B5044620200BF033F9050079
:102C2C0016D004202870102220886880A078287183
:102C3C00E0786871A81D00F00DF8E16805F1160048
:102C4C00FDF74AFD207CA8772946607CE87715E0E3
:102C5C0031BD281D61680BF0BEB838B504460C2098
:102C6C000BF010F9050007D00620287008222088E8
:102C7C006880FFF7EEFF00E031BD2946BDE8344027
:102C8C00DFF8A80A00780BF01EB910B50446062030
:102C9C000BF0F8F868B10821017021884180A17807
:102CAC0001710146DFF8840A0078BDE810400BF092
:102CBC000AB910BDDFF8780A0078242101FB00F274
:102CCC00FF21DFF8700A0BF09EB830B5002200230C
:102CDC00242509E0DFF85C4A05FB0344247984428F
:102CEC0024BFA142521C5B1CDFF8444A2478A34247
:102CFC00F0DBD0B230BD0000984600202DE9F04347
:102D0C008046DFF82C0A85B05FEA01090478164684
:102D1C0004D0484600F0EBF8050044D100202422F2
:102D2C0000E0401CC0B2A04207D2DFF8081A02FB38
:102D3C0000152979FF29F4D100E00025002D60D081
:102D4C00DFF8140B078857B1032E18BF042E06D1D9
:102D5C0004210320FFF7B9FFE11B88420CDADFF8EE
:102D6C00FC0A078857B1012E18BF022E06D100F0BD
:102D7C0057F8E11B884201DB002048E000F0BEF967
:102D8C00ADF80280494601A8FDF7A6FC00A8FDF7A6
:102D9C00A0FDBDF80C0068800020A87106F04AF96F
:102DAC00404604F04EFC002016B1052EB8BF04209E
:102DBC00A5F800802E71687104F0A6FB2872012022
:102DCC006872AA20A87200202882E871E872E86074
:102DDC009EB1032E11DADFF84C0BDFF8301C0078B3
:102DEC0000280FBF086851F820003C214843E861D7
:102DFC00A861012085F8200003E06FF00100E86174
:102E0C00A86100F0CAF8A04200F09DFA284672E1D1
:102E1C000846002001220000152300007F2300003B
:102E2C000221012051E77FB504460D46284600F0EB
:102E3C005EF8002600281CBF0188A14228D0017929
:102E4C00052925DA048091B1032910DADFF8D41AA8
:102E5C00DFF8B82B097800290FBF116852F8211040
:102E6C003C225143C161816180F8206003E06FF026
:102E7C000101C1618161C66000F040F9ADF802400A
:102E8C00294601A8FDF728FC00A8FDF722FD012624
:102E9C00304604B070BD00007D22000080B500F00B
:102EAC0023F800281CBF0079002803D0052801DA7C
:102EBC00012002BD002002BD80B500F015F80028ED
:102ECC001CBF0079002803D0032801DA012002BDC1
:102EDC00002002BD80B500F007F818B1007908B9E0
:102EEC00012002BD002002BD0146002000E00021AF
:102EFC00F0B504460D464FF6F870854285B000DB00
:102F0C001CB3002708E04FF6FF70854202D03088D2
:102F1C00854218D07F1CFFB202F0FBF9874214DA0D
:102F2C0000F047FA01FB07063079FF28F2D0002C9D
:102F3C00E9D000F01FF90028ECD001A92046FDF7DC
:102F4C0053FB0028E6D0304600E0002005B0F0BD71
:102F5C0030B585B0FFF7CBFF002405000DD000F095
:102F6C00CDF801246888ADF80C0000A8FDF7FDFB36
:102F7C002422FF2128460AF046FF00F00EF8DFF865
:102F8C00B0170978884205D2DFF8AC160120887199
:102F9C0003F052FA204605B030BD0421002094E61F
:102FAC00F0B5DFF88C27DFF88C57137824244FF614
:102FBC00FE72904208BF002619D0002600E03E4663
:102FCC009E4214DA771C664306EB050CFFB29CF8A4
:102FDC0004C0BCF1FF0FF2D0765B8642EFD13E46C7
:102FEC0005E0012818BF03280DD0761CF6B29E42CE
:102FFC000BDA04FB06F7781900290079F1D00028C8
:10300C00F3D00528F1DA785BF0BD1046F0BD012154
:10301C00C6E72DE9F04104460421FFF702FF050045
:10302C0013D0680080B2FDF703F806000BD04FF602
:10303C00FE7837464046FFF7EAFF404518BF27F8B1
:10304C00020BF8D102E0002500E00026257001F00B
:10305C0064BB002201E0401E521CDFF8D416097834
:10306C00D2B28A420CD2DFF8CC16242303FB021115
:10307C000B79052BF0DA80B20028ECD108467047AA
:10308C00002070472DE9F04385B00024DFF84C8B0D
:10309C00DFF8A0661AE01C20684300EB080930F842
:1030AC000810B85B81421CBFBDF80200814205D0FC
:1030BC0009F1020101A8FDF797FA10B1484604F096
:1030CC00ECFA6D1C04F088FCE5DB641C00F04AF89B
:1030DC0011DA242000FB04F74FF6FF71B85B88422D
:1030EC00F3D000F00BF8B819408800F0A5F90028CF
:1030FC00EBD00025E6E705B0BDE8F08301208DF8A4
:10310C00000070477FB50024DFF8D45A07E0B0699F
:10311C0010F1020F02D0F069401EF061641C00F047
:10312C0021F81EDA00F045F901FB0406307900287D
:10313C00F4D00328F2DAF0690028E8D128780128C5
:10314C0007D1DFF8F404826F100002D0B169308827
:10315C00904700F00FF80028E0D001A8FFF7F8FE28
:10316C00DCE77FBDDFF8C8050078844270470000BB
:10317C002647002001208DF800007088ADF80C0067
:10318C0000A8FDF780BB80B5FFF7AEFE48B1017912
:10319C0031B1032904DA8169C161012180F8201061
:1031AC00012002BD38B5DFF89054E96E04460800E2
:1031BC001CBFA86F002817D0D5F88000A0B160887C
:1031CC00884788B906F056F80FBF096851F82000F7
:1031DC003C21414360889047012805D16088D5F88F
:1031EC008010BDE83440084731BD10B5002406E01E
:1031FC0000231022214603200BF092F9641C00F0EE
:10320C0003F8F5D3002010BDDFF824050078E4B2F4
:10321C00844270472D0800202847002010B586B046
:10322C001022FF2101A80AF0EEFD002408E001A8FD
:10323C00009010230022214603200BF0B9F9641CE6
:10324C00FFF7E2FFF3D306B010BD2DE9F047DFF82E
:10325C00BC97DFF8DC04D9F8006090F800A0DFF828
:10326C005C818AB0002700246FF0010519E0CA6167
:10327C008A61002281F820204FF6FF7188420FD01E
:10328C000121ADF820008DF8141005A8FDF7FBFA0C
:10329C007F1C28B1B8F82410BDF8040004F0D1F953
:1032AC00641C544546DA01A8009010230022E1B2B8
:1032BC0003200BF0ACF90028F2D100F07AF801FBF6
:1032CC000401BDF804000880BDF8060048809DF894
:1032DC0008200A719DF809204A719DF80A208A710C
:1032EC009DF80B20CA71DFF84C2B1278521C02EBA4
:1032FC00D27252100A7201224A72AA228A720022D7
:10330C000A82CA72CA60049A12F1010FAFD10A790B
:10331C006AB1032A0BDADFF80C26127812B9CE61E7
:10332C008E61A6E759F822203C235A439FE7CD61D2
:10333C008D61A1E7FFF731FE504500F004F8F8B2BB
:10334C000AB0BDE8F08703D3DFF8801B002088713A
:10335C0003F072B80C47002010B586B0002423E0AF
:10336C0000F027F801FB040010230188ADF80410CD
:10337C0000224188ADF8061001798DF808104179CA
:10338C008DF8091081798DF80A10C1798DF80B1020
:10339C00017D8DF80C10E1B280690490641C01A8C9
:1033AC00009003200BF004F9FFF7DCFED8DB06B02D
:1033BC0010BDDFF880032421704700009C410020E1
:1033CC00F0B5054685B0FFF72BFD2870287878B34B
:1033DC000C214843FCF72CFE04002AD0254600267D
:1033EC0004E028460BF06EF80546761C01F091FFC0
:1033FC0086421EDAFFF7DDFF01FB0607387901284C
:10340C0018BF0228F1D1FFF779FE788800F014F884
:10341C0020B101A92846FDF7E3F8054697F82000EE
:10342C0000281DBFB869F969411A4FF0FF31D8E780
:10343C000024204605B0F0BDADF80C0000A8FDF747
:10344C0022BA7D49DFF8880AC864704738B504464B
:10345C00DFF8800A017C082918BF042908D02178DC
:10346C0001F00301012902BF21690978062913D152
:10347C0061884FF6FE7291420ED00088814204BFE3
:10348C00207F002803D0204602F0ECFA02E0204610
:10349C0002F0D7FB054600E0C2252046FCF7D5FD1F
:1034AC00284632BD38B5044620786178081880B2B9
:1034BC00FCF7BEFD050013D0227800210AF0A3FC16
:1034CC004FF6FE70688003F022FBA880207840192C
:1034DC0028616078287502F02DFE6875A078287632
:1034EC00284632BD70B5DFF8F049054694F8260041
:1034FC00042814BF0828C22088B00E4614D004F14A
:10350C0028000560867100F011F801208DF8040088
:10351C00009500208DF807008DF80560022084F8D6
:10352C00260000A80DF0A6FB08B070BD1C220021DF
:10353C0000A80AF068BC30B5DFF89C590446686FE7
:10354C0087B0F0B90820FCF773FD6867B8B1216843
:10355C0001601C2221790171696F60794871696F72
:10356C00A0798871FFF7E3FF2068009020798DF82F
:10357C00050060798DF8040000F018F802E01020C6
:10358C0000E0012007B030BD10B5DFF84C49606F8A
:10359C0018B1FCF75AFD0020606701F06FFFBDE821
:1035AC00104003F081BD08B0BDE8F08100208DF81B
:1035BC00070000A80DF05EBB80B5DFF81029D071B4
:1035CC008021107A0CF086FF00F00EF8002002BD6E
:1035DC00DFF8F808C079002818BF00F005B880B5EE
:1035EC0008F0ACFABDE8014010B5DFF8E0486179AD
:1035FC00E07928B909B107F01AF80020607112E0DF
:10360C00012918BF07F013F801206071E079FF2839
:10361C0009D00021E1714FF47A7101FB00F2207A9C
:10362C0080210CF02CFF611DBDE8104041200DF0F5
:10363C0000BB0000FB260000BC0200200A464FF62F
:10364C00FE71F8B502F06DFF90F8260008280D46C3
:10365C00164628D12046FFF74AFC08B1C520F2BD1A
:10366C004FF6FE77BD4208D106F0020005F0D4F803
:10367C000546BD4201D1C720F2BDB10706F00800D6
:10368C0004D500280CBF0322042203E0002814BF39
:10369C000222012221462846FFF730FB08B1002008
:1036AC00F2BD1020F2BDC220F2BDF0B50F46DFF81E
:1036BC002818012689B0044681F826601C220021B6
:1036CC0001A80AF0A0FB0025032001948DF80970D5
:1036DC008DF808008DF80B50344218BF6D1C760025
:1036EC00FAD100A95A200DF095FA9DF80000EDB220
:1036FC0068434FF4904148434FF47A71B0FBF1F4B6
:10370C00DFF8040BDFF8C457008828824FF480617F
:10371C00287A0CF0DFFE287A22464FF480610CF0F8
:10372C00AEFE01A80DF0A6FA09B0F0BD68040020A9
:10373C0014C50100A82C0020012200E000222DE974
:10374C00F843DFF8949709F10E060C469046F18A7F
:10375C000546224601F061FE070008BFCA2079D059
:10376C00388901F0B7FA08BFC32073D03189884279
:10377C0008BFC2206ED03888F18A814218BFF0820F
:10378C00F08A03F096FFF87A401C89F83800294635
:10379C0009F13900FCF724FF02208DF8010000A884
:1037AC0003F055F805004ED02869062101703178D8
:1037BC0041700120A87702F0A8FC68620120A8766D
:1037CC004020E8823889688085F818802846FFF701
:1037DC003DFE5FEA000838D10920307609F11A0164
:1037EC003889DFF8E85BB081B07AA04218BFB472B8
:1037FC004B200DF01EFA09F1240150200DF019FA9E
:10380C0009F11801E1200DF014FA09F11601532009
:10381C000DF00FFADFF8F009DFF8B04601882182CD
:10382C0001212A880280207A0CF038FE207A4FF48D
:10383C0080610CF04FFE28888200207A4FF4806162
:10384C000CF01DFE01E04FF01008DFF8841B002087
:10385C0008704046BDE8F2831EC501001CC501007E
:10386C002DE9F241DFF8705605F10E068046307EE8
:10387C00042814BF0828C22087B014461F4649D01C
:10388C00BDF8380001F026FA08BFC32042D0FFF77C
:10389C004DFE0320307607A950200DF0CAF90EA971
:1038AC004B200DF0C6F9BDF81C00F082B4724146F5
:1038BC00BDF83800B081377005F13900FCF790FE87
:1038CC0007F0CE0040F080008DF81A008DF80B4008
:1038DC0005F12D010F98401C85F8380002208DF859
:1038EC001600BDF83800ADF80E00BDF81C00ADF8A0
:1038FC00180001F0F7FA0F20F07754200DF099F929
:10390C000F20B07705F12C0147200DF092F900A89B
:10391C000DF09EF947E6DFF8C00580F82F2001F086
:10392C0071BC00002608002030B5044689B06079CF
:10393C008DF80C00002520798DF80E0001208DF8F3
:10394C000F00206810B1FCF7CEFE78B98DF80D5041
:10395C0002F0DBFB0290DFF8700B017B04290CBF3B
:10396C0000884FF6FD70ADF804000EE0206800A949
:10397C00FCF7E5FEA07968B901208DF80D00BDF8C3
:10398C000000ADF804002068029001A802F07AFE55
:10399C00054613E0BDF80000ADF8100001208DF8CD
:1039AC001A0060798DF81B008DF81C500DF1120077
:1039BC002168FCF715FE04A806F0B4FE284609B0F1
:1039CC0030BDDFF8141510B5044691F82610002010
:1039DC00082918BF042984B015D14FF6FD70ADF835
:1039EC00000002F092FB019000208DF80900607835
:1039FC008DF8080020788DF80A0000208DF80B0057
:103A0C0000A802F03FFE04B010BD00003CC5010050
:103A1C00F8B5DFF8B83ADFF8C0E41E78DFF8003C00
:103A2C0014460022002587284FF6FE7712D08B28EB
:103A3C0025D0982808D09C2809D09D2812D09E28E3
:103A4C0035D19EF826003BE09EF8120038E003F0DA
:103A5C00E0FD35E0084603F001FEC12588B31C22C9
:103A6C0001461FE0002005E01988B94218BF521C1E
:103A7C000833401CC0B2B042F6D3227021E0C125FD
:103A8C00002002E0521C0833401CC0B2B04218D2D5
:103A9C00B3F800C0BC45F6D05FFA82FC8C45F1D17E
:103AAC000822194620460AF096F9002509E0A0F1F3
:103ABC0081011E2928BFC92503D2704410F8810C3E
:103ACC0020702846F2BD00B583B0009000208DF820
:103ADC0005008DF806008DF8041000A8FFF72BFDEB
:103AEC000EBDF8B504462568002D75D0DFF8DC63F3
:103AFC00726A100002D0217928469047687B022810
:103B0C0038D1A87A800735D52079E9281CBFCD2873
:103B1C00F0282FD0A87C00060CD5A87E50B1A87335
:103B2C002868008802F0BCFE48B94FF498700BF07E
:103B3C0083FB04E0DFF8EC0A0078401CA8732079C2
:103B4C0050B9002704E04FF49B700BF075FB7F1C01
:103B5C006079FFB28742F6D3A87B401EA873A87683
:103B6C00202104206873DFF8C00A00882881307A8D
:103B7C000AF0CAFA687B022818BF06282CD1A87A4A
:103B8C00C00729D521792846FEF7E0FF68894FF652
:103B9C00FE71084068812868008802F081FE0028C8
:103BAC00207912D170B940F22F100BF045FB002593
:103BBC006079EDB285420FD24FF49B700BF03CFB59
:103BCC006D1CF5E740F2311002E028B940F22D10DF
:103BDC00BDE8F2400BF030BBF1BD000028390020ED
:103BEC00250800202DE9F04F9BB08B46804692466D
:103BFC0005A9FDF726FF9DF82100002600270028C7
:103C0C0004BF9DF82800002809D09DF81400400638
:103C1C0008F1040406D5E08802F042FE10B140F22F
:103C2C00351064E09DF81400AB4D00F00C00042836
:103C3C009DF814000CBF4FF00109B146800616D553
:103C4C000127B9F1000F12D12189EA8A608D9142C6
:103C5C0005D100060BD5E088ADF82E1002E0000669
:103C6C0005D4084605A9FEF72EFE00283DD1618D2E
:103C7C00080612D49DF8140040060ED59DF81500C8
:103C8C000322104209D19DF8140000F00C020C2AFA
:103C9C001EBF00F00C00082801269DF8140000F04F
:103CAC000300022804D1208905A9FDF7B9FF9CE087
:103CBC00012812D12EB1080603D4208905A9FDF7DD
:103CCC003FFF05A80D902089ADF83000A0788DF845
:103CDC0032000CA8FCF77DFF87E00028FCD1E87AC5
:103CEC00012804BFA078002804D14FF49A700BF07F
:103CFC00A3FA7AE002208DF864002089ADF85C000C
:103D0C0008F1300094F82A1009063CD502218DF8F0
:103D1C004010E188ADF838109DF817108DF842105E
:103D2C009DF816108DF84310A98CADF84410BDF811
:103D3C001A10ADF84610BDF81C10ADF848109DF8DF
:103D4C002810ADF84A1009991391618DADF85010F7
:103D5C00A1898DF8521021788DF85310A17B8DF824
:103D6C0054109DF829108DF855109DF82B108DF8D6
:103D7C00561001788DF8571080788DF858000EA8E1
:103D8C00FDF774FF31E0B9F1000F1CD0A1898DF85B
:103D9C002A104E49D1F828805FEA080125D0BDF8D9
:103DAC005C10EA8A914220D1007804903346608DF1
:103DBC000390CDF808A001975A462078009005A9E9
:103DCC0017A8C04711E01EB1208905A9FDF7B8FE60
:103DDC00A07B0390CDF808A001975B46E07B009098
:103DEC0017A9AA8C05A8FEF7C2FE1BB0BDE8F08F80
:103DFC0006F0F8BB06F04CBC10B537490446887B7E
:103E0C0080070FD5A07A01281EBF2088498B8842D5
:103E1C001CBFE17A012905D0FFF74EF810B12088BC
:103E2C0001F0FEFD2046BDE8104006F099BC06F0FE
:103E3C00C5BC000026C5010010B5012904460BD1F4
:103E4C00002104F0B6FFDFF8E80702782046BDE851
:103E5C001040002104F0A4B810BD06F052BCDFF8ED
:103E6C00D43710B51B681C0084B005D08DF8000049
:103E7C000191029200A898471FBD06F0A2BC38B56C
:103E8C00124C154D2072002085F82600DFF8A8078B
:103E9C000068400406D4DFF8A407006810B10121C3
:103EAC0080F82A100AF0D2FE0020E065606503F06D
:103EBC0053FBFEF7FFFE04F030F80AF0D7FE0020AB
:103ECC006867BDE831400CF045BF0000BC02002023
:103EDC0001500000B24100209C4100202DE9F0432C
:103EEC00DFF84857287A0C4621048FB01CD50AF00D
:103EFC0049F8050015D000200FF26C2100E0401CA1
:103F0C00C0B2024611F83230FF2B07D02E78B342E4
:103F1C00F5D101EBC201284649688847284609F0CB
:103F2C00C3FF84F400401CE1A1040BD501F056FD45
:103F3C00050004D000F0F4FB284609F0B5FF84F42A
:103F4C0000500EE1A10640F19E8020210CF0D8FA21
:103F5C00A96D084308BF01260BD00CF062FBA96DBC
:103F6C00002621B1884234BF4FF0FF36461A76083E
:103F7C0058D000F029F907460DF114082FE001F094
:103F8C008FFE01AA4FF0FF308DF802003868C17F18
:103F9C00006A01F0A5FF01281BD1788A40F080004F
:103FAC00A8F81E00B97B8DF83410B97A090706D52C
:103FBC0040F48070A8F81E000DA9387B88707869D1
:103FCC0010B1007BADF81400002200A901A8FFF786
:103FDC0009FE06207873387B01F08CFB4F460FB33B
:103FEC0000220421384601F028FC81463889B04271
:103FFC002CBF801B0020388138890028EED1B87B7B
:10400C0001280AD1B87A4007B9D406207873B721B1
:10401C003868407B00F0B7F9E0E70028AFD1012009
:10402C007873DBE701F0C4FA00220121002001F0D3
:10403C0004FC18B1287A20210AF066F800F0C4F8C4
:10404C00E8B1078903E001898F4288BF0F4600223F
:10405C00042101F0F2FB0028F5D1B6B2287ABE4259
:10406C0002D2BF1BBFB227B920210AF04DF80020A5
:10407C0005E07A0020210CF002FA0CF0D2FAA865C7
:10408C0084F020006DE0E00604D504F00DFB84F014
:10409C00100066E0600604D504F05DFF84F040007B
:1040AC005FE0200604D5FFF793FA84F0800058E017
:1040BC00E00504D503F03DF884F4807051E0200550
:1040CC0016D503F0FBFFDFF8640C007801280CD147
:1040DC00DFF85C0C007840B14FF47A7101FB00F210
:1040EC00287A4FF400610CF0D9F984F4006038E0C0
:1040FC00E00408D5A87A18B10020A87203F0DEFFFE
:10410C0084F480502DE0600416D5A86E010010D008
:10411C00DFF8201C097801290BD18047686F01005A
:10412C0018BF8047287A4FF47A724FF480410CF014
:10413C00B5F984F4804014E0A00504D502F0C0FF6A
:10414C0084F400700DE060050AD502F08AFA0121B2
:10415C00DFF8E40B808CFFF74BFE84F4806000E00A
:10416C0000200FB0BDE8F08301000000494D0000B5
:10417C0006000000A7530000080000002D530000AB
:10418C000B000000A554000010000000D7910000A7
:10419C0002000000F94E000005000000E350000092
:1041AC0007000000A74F00000C000000DD440000D9
:1041BC000D0000002D47000064000000B13100002C
:1041CC00FF0000000000000000220421002001F08C
:1041DC0034BB00B587B0182200F079FF00F004F86A
:1041EC000CF07FFD07B000BD02208DF80800DFF851
:1041FC00480B418B808CADF80A00ADF80010002004
:10420C008DF8140000A870470C08002010B50C00A5
:10421C008EB012D0014600AA204601F061FE9DF836
:10422C00060050B19DF81C309DF80120214600205D
:10423C000CF067FC08B1A42000E000200EB010BD0B
:10424C002DE9F04104468EB06189DFF8EC5A48063E
:10425C004FF6FE784FF6FF765DD5206800F0F1F949
:10426C0008B1304603E020680088404574D02168CE
:10427C00088002F015FB014620684A1E9241D20FBD
:10428C00DFF8581CC2810968DFF8AC2312685304AC
:10429C0064D457208DF80000722300A843706F235C
:1042AC00837001736E238DF80330027467230371DE
:1042BC004323437168238DF8063069238DF807304A
:1042CC00702303720B0E8DF809300B0C83720B0AE2
:1042DC00110E41738DF80B30110C817305A8110A66
:1042EC008DF80F102422002109F08DFD02208DF88D
:1042FC001C00ADF814600021A88CADF81E00022043
:10430C008DF8200011208DF8330000A80D9005A821
:10431C000CF0EEFC26E0A87B80071DD52068026A15
:10432C0013795279C9044CBF40210021009103EB51
:10433C000227228B00884346B9B203F0E2FEBFB2DB
:10434C00B8421CBF218B88428FD120680188002382
:10435C000222384602F00BFCCD2505E0DFF8901C5C
:10436C000CF0C6FC050005D02068407B294600F007
:10437C000AF820B91CB10121204601F041F9284668
:10438C000EB0BDE8F08138B504460D46142009F096
:10439C0079FD60B10C21017084700021817345702E
:1043AC00014601F0A4F909F08EFD002032BD204633
:1043BC0001F052FA38B106214173007B04F0F4FE8F
:1043CC00204601F097F9102032BD00000E080020A5
:1043DC0067040020F8B504461646002030800D46D0
:1043EC00A06A00781F4602F029FA38B1608902F001
:1043FC0057FA022802D16089308000E00027A16AB8
:10440C00DFF834090978491E0A2956D8DFE801F08B
:10441C00060C1A1F1130553B3F474D0032462946BA
:10442C00204603F033FF3EE02946204604F00EF808
:10443C0047E0608902F034FA00283ED1204604F0AF
:10444C0091FB3EE03946204602F0B8FB2BE0217F81
:10445C00022932D11FB96189C08A814231D1DFF87A
:10446C00680C007820B32146384602F052F91AE065
:10447C006189C08A814204BF207F02281DD1204659
:10448C0002F052F81DE0204602F0A4FF19E0618909
:10449C00C08A814211D1204602F041FC11E0214634
:1044AC00384602F0A1FC07460BE000F071FF00D08B
:1044BC0006E0204602F0C6FC03E0D3200AF0BCFE66
:1044CC0000273846F2BD0000B641002020C501008F
:1044DC0070B5044690B0A07801F0BEF905002FD05D
:1044EC006078DFF8FC69E8736078F12818BFCD2894
:1044FC0004D01A281CBFE928E12855D16889000589
:10450C0022D5052068736078E92811D0B06F0100BE
:10451C0018BF8047F06F58B1B07B800708D528686A
:10452C004189008803F0DAF810B16178F26F904796
:10453C00687B022801D106206873A07801F0DAF8B4
:10454C0001F036F810B070BD0021284601F058F883
:10455C0050B3B07B800720D52968086AE8B1C97FC1
:10456C0003AA01F0BDFC6378E92B01D100F06CF8D3
:10457C002968BDF8160008809DF81100BDF81810C8
:10458C000028BDF8160014BF4022002203F01CFEC8
:10459C0018B1688940F0200068816A89617828899F
:1045AC000AF0C9FB2881AEE760788DF80800019508
:1045BC00A07B8DF80900287C002801A80CD1FFF7FE
:1045CC0090FA9DF8080048B900F03AF860B9B06F5D
:1045DC00010009D0804701E002F0F2F89DF80830A4
:1045EC00E92B01D100F030F8B07B8007A0D5687BB7
:1045FC0002280DD1A87A40070AD500F021F828B975
:10460C0029684FF6FF700880052095E7032093E793
:10461C006078E9288CD1284602F084FC88E70000F9
:10462C00E83A00202808002010080020BC020020D6
:10463C0031C5010040440020941200500446002073
:10464C002868008802F02CB9286801210091418962
:10465C00E27B008801F088BD2DE9F041851C002625
:10466C00E978002491B12989FF20FDF7FBF8082691
:10467C0020B1E87840F001002C26E870E87800F0D2
:10468C000300012844D146F0110641E000F1240852
:10469C00E87EDFF86C7BB0B1E97F002918BFFF29F9
:1046AC0009D128893988884208BF222630D0387C25
:1046BC0004282DD105E0D8F80020A87F04F00FFBCA
:1046CC0030BB012424E0288902F0EAF8022828896A
:1046DC00398808BF0126884208BF46F0020636B169
:1046EC00297800290CBF46F0200646F0400602F05F
:1046FC00D7F80128287808BF46F0010640B1D8F851
:10470C000400007802F09AF8012818BF06F0FE06A3
:10471C00B00702D40CB946F080063046BDE8F081F3
:10472C002DE9F14F94B04FF6FE70ADF8100005AACC
:10473C001498061D3179306801F0D2FB4FF0000857
:10474C000028C1465FD00DF11507012079780229A8
:10475C00F978A8BF00200229BDF81E10A8BF0020C0
:10476C004FF6F87291421CBF4FF6F97291424AD043
:10477C004FF6FA7291421CBF4FF6FB72914242D037
:10478C00DFF8981B0291029AB978D27991423AD10A
:10479C00002838D00EAC308B20810DF11E05708CAA
:1047AC00A880787938B1AB7C9DF815203168012050
:1047BC000CF0A7F9B8B905A8FFF74EFF8246787937
:1047CC0098B90298007800281CBF0AF02200222811
:1047DC000BD00AF04200422805D160680078062808
:1047EC0018BF072801D0CF2067E01AF040008DF8E1
:1047FC0004001ED00298C07880076068007803D54A
:10480C00401E0A2809D957E0032818BF042804D0F1
:10481C0007281CBF0A280C284ED160680178032990
:10482C0004BF40780D2804D005A802F085F90128B2
:10483C0045D0DFF8CC09039003991498C98900F18D
:10484C003A0BB08E884208D1CDF800809BF800203E
:10485C00718E308B002301F087FC787910B3718E48
:10486C00308B02F03BFF009050B330689DF8151070
:10487C0008180099407BC978814204D00099C8700F
:10488C000099C1F8048030689DF815201018042197
:10489C00401C09F0C8FA0099496888420FD3009966
:1048AC00401C48600298C078800708D5607B00B334
:1048BC006888FEF701FBB8B9D3200AF0BDFCEFE124
:1048CC00DFF8740490F86C000128EBD16068007874
:1048DC00062803D19DF804000028E3D1A8884FF6E0
:1048EC00FF718842EBD0D6E03068417801F0DF01EF
:1048FC004170287A38B130688179491E81713068ED
:10490C008079287208B90AF07F0A5FEA0A7021D50B
:10491C005FEA4A704FF4805806D5387900F0E3000E
:10492C00387140EAD00011E05FEACA600FD53879DF
:10493C00C0F3820121B1072904D0491EC9B209B9BB
:10494C000AF07F0A00F0E30040EA81003871316818
:10495C00387908720398007C042818BF09282FD1D5
:10496C000399BDF81E000988884208D001F098FF11
:10497C0002281EBF387900F00300012803D1787893
:10498C0010B900F090F98BE160680078042804BF3E
:10499C00A97C022904D105A9002001F0BAFE7FE10F
:1049AC00072804BFA97C042903D105A801F028FE1F
:1049BC0076E10328FCD1002105A802F0FFF86FE195
:1049CC000AF008008DF800001AF0610043D05FEA8D
:1049DC00CA7028D5318B05A804F0E5FA08BB01F0A4
:1049EC00A9FB8146287A002802BF6888318B88424F
:1049FC0019D0318B4A4605A804F022FB60B19DF812
:104A0C000000002814BF4FF6FF70BDF81E00ADF873
:104A1C00100048F0040806E00AF0DF0A4FF0000925
:104A2C0001E00AF09F0A5FEA8A6001D500F03BF9C9
:104A3C005FEA4A600ED5318B4B4604AA05A8FFF7F6
:104A4C00C9FC5FEA000905D060680078012801D133
:104A5C0048F01008CBE07878012802BF616809782B
:104A6C00052902D100F030F91AE1012802BF606873
:104A7C000078032806D1BDF81E00FEF71DFA08B118
:104A8C0000F022F9287A58B97878012802BF6068BA
:104A9C000078032803D0149905A800F01FF9FFE053
:104AAC0000F099FD0028FAD1E87C88B3EC7DDDF8A4
:104ABC0038B0A87D5A46214604F011F928B348F0C5
:104ACC00400944B9BDF81E00ADF81000FEF70CFA11
:104ADC00002819D117E05946204604F0FBF8ADF830
:104AEC0010000820F97901B11020B97909B108300A
:104AFC00C0B2397909B1401CC0B2401C3168C0B297
:104B0C00425C521E4254C8466EE000230B2257E012
:104B1C00BDF81E00ADF81000F878002804BF9DF811
:104B2C000000002852D1787801281CD0BDF8100064
:104B3C00002104F02CFC20B14079012818BF022878
:104B4C0011D0B18EBDF8100002F0C8FD28B18078EC
:104B5C0002F0F6FE08B1082805DB6888FEF7ACF910
:104B6C0060B30420F8700023BDF81E10F8780DF126
:104B7C00310204F095FC30B13068017801F03F014E
:104B8C0048F020080170E87C40B1BDF81E100DA85B
:104B9C0001F084F9ADF8100048F04008787801284D
:104BAC0005D06988BDF81E00002204F0B5F89DF808
:104BBC000000002814BF402200220DE00023022236
:104BCC00BDF81E10688801F0D2FF69E09DF8000066
:104BDC000028C8D04023C7E76988BDF81E0003F041
:104BEC00F3FA08B148F0200801F0A4FA8146BDF8A8
:104BFC00100000F06FF8DFF8940B007808BF4FF04E
:104C0C000009012825D1318B4FF6FF70814220D04D
:104C1C00BDF81E004FF6F97290421ADA688881428C
:104C2C0017D0FEF761F9A0B10179012918BF02294B
:104C3C000FD101218DF800104088ADF80C0000A8B0
:104C4C00FBF721FE28B101A8FEF782F908B105F0A7
:104C5C0067FE5FEA0A6023D5B9F1000F20D03079E6
:104C6C00FBF7E6F904001BD03279316809F0B3F890
:104C7C007878BDF810108DF84800CDF8048000202D
:104C8C001390CDF8009012A8039000200290337975
:104C9C00328B204601F00AF810B12046FBF7D5F90B
:104CAC0015B0BDE8F08F9BF800008DF8000000A94E
:104CBC009BF801008DF801009BF802008DF80200B2
:104CCC0005A8F26AFEF78EBF318B002304AA05A853
:104CDC00FFF780BB4FF6FE718842704738B50D4622
:104CEC00044612496089097839B11349C98A884246
:104CFC0004BFBDE8314003F0E1B9002104F047FBEB
:104D0C0000281EBF80791821084208D0E88C00903A
:104D1C00AB8B627F6189A08904F004FC31BD618991
:104D2C00A089BDE83840002203F08ABC1E07002091
:104D3C001F070020254700209C4100202DE9F0474B
:104D4C00044686B0A01CFEF7D2F8DFF89CAB667860
:104D5C0005460127A11C00F0D8FA02208DF8160098
:104D6C004FF6FE7900F0BEF84FF001089AF80500F6
:104D7C00ADF81490002808BF002D03D116B94FF0E0
:104D8C00C30871E0564890F82600082818BF4FF069
:104D9C00C20868D1A07A810704D5000754BF032745
:104DAC00042702E0000748BF022715B3287904281E
:104DBC0018BF032803D1042F18BF032F07D00228D4
:104DCC0018BF01280DD1022F18BF012F07D1288839
:104DDC0001F0E3FD68B92888ADF8140009E0022859
:104DEC0001D0012801D101F027FBA01CFEF7B0F87F
:104DFC000025BDF81400484513D1FBF7CCFD80B954
:104E0C0046B1BAF814A0504601F0C7FD10B9ADF880
:104E1C0014A006E0A07A00F0020003F0FDFCADF84F
:104E2C001400BDF81400484508BF4FF0C7081AD04D
:104E3C00A27A3346A11CFEF7DDFFA0B9BDF8140021
:104E4C003A46A11CFDF75AFF05000AD0022E03D1E9
:104E5C00687940F00800687100208DF816008046D3
:104E6C0001E0ADF814901EB900A80BF0F8FE04E0B8
:104E7C003246394600A801F083FB01469DB146B18C
:104E8C00687940F040006871022E04BF40F02000A9
:104E9C006871A07A400603D5687940F0800068718B
:104EAC00A879401CA87151EA080013D0B8F1000F82
:104EBC0041F2010018BF414600D109B109F03AFF97
:104ECC0015B1A01CFEF744F8BDF81400484518BFF6
:104EDC0001F0B2FA06B0BDE8F087000018130050DC
:104EEC009C41002000208DF80800704770B5DFF859
:104EFC00A05A05F10E040646207E03281CBF01288B
:104F0C00092884B048D17178002939D1022009F0E0
:104F1C0011FF70882081B11C53200BF08AFE207E7B
:104F2C0009281CBFE08A02F0C4FBFEF7E7F800A9D1
:104F3C0042200BF07EFE0420207601A94A200BF0C3
:104F4C0069FE01A905F11C00FBF74AFBDFF8080B11
:104F5C0001780B2902D10621017003E0E08A0021BF
:104F6C00FEF746FFA089FFF7B5FE03D0002201A98A
:104F7C00FDF7C4FE207801F037FA0BF05AFE09E079
:104F8C0041F2030009F0D6FE7178E08AFEF730FF9B
:104F9C000020207600F072FA7FBDDFF8F419DFF8FC
:104FAC0048394A6FA2B991F82610012904D0052975
:104FBC0006D0062908D00BE0D96C0A0017D0084798
:104FCC00596C0A0013D00847996C0A000FD0084797
:104FDC00002A19BF91790129407805F0CBB9022933
:104FEC0008BF02F029B8596E0A0018BF084770476D
:104FFC00194200002DE9F043DFF8EC58DFF89089F6
:10500C000446287A83B04FF480610BF063FA01A94F
:10501C0050200BF0FFFD102008F034FF060008F1C3
:10502C0016074FF6FF7908D0607830B9F8894845F3
:10503C001CBFBDF80410814215D0EA2060703946BF
:10504C0053200BF0F6FD08F11A014B200BF0F1FD8B
:10505C0008F1240150200BF0ECFD08F11801E120BF
:10506C000BF0E7FD6EB302203070F88948451CBF89
:10507C00BDF8041081421CD1BDF80400F8813946FA
:10508C0053200BF0C7FD3888708008F11A014B20B3
:10509C000BF0C0FD08F11801E1200BF0BBFD002066
:1050AC0000900023DFF8B4090278F989B88801F080
:1050BC005BF860787070314603203874287A08F0F9
:1050CC0002FFBDE8F7830000240800201C22002109
:1050DC0000A808F098BE30B505468DB06C68297CE8
:1050EC00686908AA00F027FA9DF82000002807D16B
:1050FC00287C0B285BDB207A022804BF207BFF284E
:10510C007AD1DFF88C0800F12405A9782A6D0229E0
:10511C0018BF062910D012B19379012B15D008298C
:10512C0018BF042968D19DF822106489002A3FD049
:10513C009279022A3CD159E03AB900200090627C65
:10514C0061892088002301F00FF82088ADF8080051
:10515C0008226089ADF80A000DF12701A07B8DF8BB
:10516C000C00A089C00B8DF80D009DF824008DF863
:10517C000E009DF826008DF80F009DF821008DF88B
:10518C0011009DF822008DF81000607C8DF8120043
:10519C009DF825008DF813009DF832008DF8140051
:1051AC000DF1150008F017FE02A805F083F923E0B5
:1051BC002A88A24220D1012905D00DF127013930CE
:1051CC00FBF712FAC0B900F092FA4FF400710BF031
:1051DC0097F988B968680090A87AFDF79BFC0220C3
:1051EC008DF8060000A8FEF7A6F918B9204601F0C4
:1051FC0007FF01E0FEF7C8F90DB030BD000000005C
:10520C00B24100202DE9F04190B0DFF8844701F065
:10521C00A2FF04F12405E61CA878082806D000F0AB
:10522C0078F8B07030700120E860286124220021E9
:10523C0006A808F0E8FD287DDFF8AC76411E894110
:10524C00C90F0F208DF822108DF80000787200A97C
:10525C0046200BF0EEFC00208DF8040004F139011F
:10526C00DFF82C0C00788DF8050007F18C08F07B2A
:10527C008DF8060000208DF807008DF808008DF8D9
:10528C000A00287D0F28A8BF0F208DF8090000F018
:10529C003CF80322FF210DF1130008F0B4FD94F843
:1052AC0072007A7A8DF81600414601A800F018F9C0
:1052BC00414645200BF0BDFC01F0BEF8287A8DF874
:1052CC00200004F11601687A8DF82100707D8DF8AC
:1052DC001E002888ADF81C0000208DF82400E87A08
:1052EC008DF8230000208DF838008DF82D00532008
:1052FC000BF09FFC04F11A014B200BF09AFC06A852
:10530C000BF0DCFC10B0BDE8F0810DF10B00FBF7ED
:10531C0067B9DFF8800B007870470000A7410020C8
:10532C0038B5DFF86C16407801F1160410B1002086
:10533C00207431BD08202074DFF8AC5591F838008A
:10534C0060B9296D08001CBF00208847E189052041
:10535C0009F0F0FCE08902F0ACF90AE0002005F05D
:10536C0027F92188062009F0E5FCA188042009F022
:10537C00E1FCA86E58B100F00BF808D1287ABDE812
:10538C0038404FF47A724FF480410BF087B831BD3E
:10539C00DFF8040B00780128704730B5054687B05C
:1053AC00A81CFDF7A4FD040035D02079012818BFF6
:1053BC00022803D0032818BF04282CD1A91CFFF7FE
:1053CC00A4FF2088ADF8140001208DF81600FFF71B
:1053DC0089FD00A80BF047FC0146072009F0AAFC48
:1053EC00607900F0FE0060710120607202F08CF8B0
:1053FC002072FFF7CDFF02BFDFF8F00B0078022818
:10540C0009D12079012818BF022804D1A069E061D4
:10541C00012084F8200007B030BD2DE9FC410D4679
:10542C0090460FF2480104460CC900A821460CC056
:10543C0000A8FBF7D9F8002700B90127DFF8A8046A
:10544C00466D06E0214606F10C00FBF7CDF830B9AD
:10545C00B6693EB1002FF5D13088A842F8D1B078AA
:10546C004045F5D13046BDE8F6810000FFFFFFFF57
:10547C00FFFFFFFFDFF87004406D704738B5DFF8B1
:10548C006844606D002803E08569FAF7DEFD2800AA
:10549C00FAD10020606531BD38B50446207D032863
:1054AC0004D104F10C00FDF722FD04E0022816D112
:1054BC00A089FDF719FD050011D0607870B1F128B5
:1054CC0012BFE128A879012805D100F0B5FF04F13D
:1054DC000C00FDF73DFDA87908B1401EA87131BD47
:1054EC0070B50446154620780870CE1C607848705C
:1054FC00A27840EA02104870E0788870227940EA7D
:10550C0082008870627940EAC2008870A27940EA11
:10551C00C21088700822E11D304608F05CFC083689
:10552C00032204F10F01304608F055FC0F2DA4BFE7
:10553C00A07CF07070BD70B50646144616F8010BD1
:10554C0020700D46307800F00F006070082216F8BD
:10555C00010B0009A070307800F00300E070307887
:10556C00C0F3800020713078C0F3C300607116F86E
:10557C00010BC009A0713146E01D08F02CFC083667
:10558C000322314604F10F0008F025FC0F2DACBFAF
:10559C00F0780020A07470BD0100DFF8B80B18BFC4
:1055AC000121017070470068DFF8AC1B0BF0A0BB49
:1055BC00DFF8A00B007800B1704780B50022012104
:1055CC0000F03BF930B1016800291CBFBDE8024076
:1055DC00FEF736BE01BD80B5042000F020F9DFF8DF
:1055EC007C1B0978814207D3FF2000F018F9DFF803
:1055FC00701B0978814201D2012002BD002002BD3E
:10560C002DE9F04107468846387B00F025F9002447
:10561C000546012625BB7A89397B386800F0B8F835
:10562C00050061D02C810124387C2874788A68822A
:10563C0007F1100001F06CF968614FF67F41388B6F
:10564C002883B87EA87668890840688141074FBFD7
:10565C0040F08000DFF80C1B097840EAC11068812B
:10566C006889C109B8F1000F01F0070112D00222BC
:10567C006A732A68927B520703D5DFF81423128AC7
:10568C002A8119B34FF67F421040491E40EAC110DF
:10569C0068811BE009B9002618E0810605D508F0E1
:1056AC00E0FB00F07F005F3008E0C00605D508F095
:1056BC00D8FB00F00F000A3000E0012028812021E7
:1056CC000420687300F013F808F01EFD6CB12A89F1
:1056DC00697B284600F06FF838B1686908B1FAF7B1
:1056EC00B4FC2846FAF7B1FC0026FFF716B87E4842
:1056FC00007A70473EB500F0AFF8002490B3417BC0
:10570C0006292FD101684489097A8DF8081001689F
:10571C000988ADF8001000F0E9F8200521D5BDF896
:10572C000010002000F020F8D8B9994CA18C00A8EA
:10573C000BF017FB002100200CE0286801884FF6C5
:10574C00FF7291420DD0A18C0BF009FB1A2808D0E6
:10575C000021284600F008F80500EED100200BF0DF
:10576C0002FB012420463EBD18B9DFF8F402C06DDF
:10577C0000E0406840B142891205FAD500291EBFED
:10578C00026812888A42F4D1704700002347002037
:10579C0070B504460D4616461C20FAF749FC48B174
:1057AC00002141730573468101818173C1730460CB
:1057BC004161416070BD70B504000D4616462CD099
:1057CC00012D284607D100F02AF8DFF8181C0978BB
:1057DC0081420DD208E0042D08D100F020F8DFF84A
:1057EC007C190978814203D2112070BD022D14D18D
:1057FC0000206060657326813B48C16D31B100E0CB
:10580C0011464A68002AFBD14C6000E0C465007A5E
:10581C00202108F079FC002070BDC12070BD324AF7
:10582C00D26D002105E0537B5268834214BFFF28E0
:10583C00491C002AF7D1C8B2704710B92A48C06D6C
:10584C0000E0406838B1437B8B42FAD11AB103684F
:10585C009B7B5B07F5D470472349C96D00E0496811
:10586C0021B10A7B8242FAD108467047002070476A
:10587C007B49C96D00E0496861B10A6813888342AD
:10588C00F9D1126A1378527803EB0222D205F2D4C2
:10589C000846704700207047F8B5044600262000E3
:1058AC000D460AD06E48C76D00E07F682FB12946BF
:1058BC003846A0470128F8D13E463046F2BD0020BC
:1058CC00704710B56649CA6D1346002401E01C46AA
:1058DC005B683BB18342FAD15868934201D1C865E9
:1058EC0010BD606010BD0000BC02002010B50400AB
:1058FC0011D0FFF7E6FF2068006AFAF7A6FB2068D4
:10590C00FAF7A3FB606908B1FAF79FFB2046BDE8E4
:10591C001040FAF79ABB10BD38B50168504A098897
:10592C00D26D0023002409E0557B052D01BF641CBA
:10593C0015682D888D42526808BF5B1C002AF3D174
:10594C00DFF8382C12491278DBB293423FBFDFF8F4
:10595C00AC2C1278E4B294422CBF01220A8A028148
:10596C004FF6FF7305224273428942F40062428172
:10597C00006802889A4204D0898C0BF0F0F91A283E
