:10000000104A00208DAF010001CA011001CA011081
:1000100001CA011001CA011001CA011001CA011070
:1000200001CA011001CA011001CA011001CA011060
:0C00300001CA011001CA01103FCA0110F2
:10003C00E0B50821ADF800100190042100F00FF894
:10004C0008B100200EBD02980EBD00B583B008218A
:10005C00ADF800100190052100F001F807BDADF8D6
:10006C00021000A801490968084700006007002039
:10007C0080B50820ADF80000102009490968ADF8DA
:10008C00020000A8884702BD80B501208DF8000051
:10009C00FFF7EEFF9DF800000028FBD101BD00002A
:1000AC006007002050F8041B61B150F8042BD307F3
:1000BC0044BFA9F101039A180023091F42F8043B1D
:1000CC00FAD1EFE770470000002214F001BD0000E8
:1000DC000448016841F001010160416841F00301ED
:0E00EC00416070478047024070470120704716
:100100003C0000000000000000000000340100007E
:1001100000000000000000000100000000000000DE
:1001200000000000000000000000000001000000CE
:0C013000000000000800000000000000BB
:10013C003400000000000000000000006801000016
:10014C0000000000000000000100000000000000A2
:10015C00010000000000000000000000080000008A
:04016C00000000008F
:1001700030000000000000000000000098010000B6
:10018000040000000000000001000000FFFFFFFF6E
:10019000FF00000001000000080000000000000057
:1001A0002C0000000000000000000000C40100005E
:1001B000040000000000000001000000FFFFFFFF3E
:0C01C000FFFFFFFF08000000000000002F
:1001CC0034050000E401000099A1011095A701106D
:1001DC00A5C2011009B2011045B8011000000000C1
:0801EC00000000002E000000DD
:1001F40028000000000000000000000014020000BD
:100204000000000000000000FFFFFFFF00000000EE
:080214000800000000000000DA
:10021C00300500003002000069C201106DC10110F0
:10022C001FC2011095BA0110000000000000000070
:04023C00300000008E
:10024000300500005402000075C20110A9B601106B
:100250009DBF011049B60110000000000000000021
:040260003100000069
:1002640024000000000000000000000080020000E4
:100274000000000000000000000000000800000072
:040284000000000076
:10028800240000000000000000000000A40200009C
:10029800000000000000000000000000080000004E
:0402A8000000000052
:1002AC00240000000000000000000000C802000054
:1002BC000000000001000000000000000800000029
:0402CC00000000002E
:1002D000000000008C070020040000000000000067
:1002E000000000002000000070010000300000004D
:1002F0001C02000094070020040000000000000021
:10030000000000000C000000300400001800000095
:10031000400200009C0700200400000000000000D4
:100320000000000024000000480400001800000045
:1003300000000000A40700200400000000000000EE
:100340000000000010000000A00100002C000000D0
:10035000CC010000AC0700200400000000000000F9
:1003600000000000200000006402000024000000E3
:10037000FFFFFFFFB40700200400000000000000A2
:100380000000000028000000880200002400000097
:10039000FFFFFFFFBC07002004000000000000007A
:1003A00000000000580000003C0100003400000084
:1003B000FFFFFFFFC4070020040000000000000052
:1003C00000000000100000006004000018000000A1
:1003D000FFFFFFFFCC07002004000000000000002A
:1003E000000000001C000000AC020000240000001F
:1003F000FFFFFFFFD4070020040000000000000002
:100400000000000038000000F40100002800000097
:10041000FFFFFFFFDC0700200400000000000000D9
:100420000000000054000000000100003C0000003B
:100430001800000000000000000000004004000060
:080440000800000000000000AC
:100448001800000000000000000000005804000030
:08045800080000000000000094
:100460001800000000000000000000007004000000
:0804700008000000000000007C
:0804780001000000F8AF0100D3
:040480000000000078
:040484000100000073
:0404880000000C0064
:04048C0000000D005F
:040490003200000036
:040494000100000063
:040498002807002011
:04049C00000200005A
:0404A0000000000058
:0404A40001CA011078
:0404A8000000000050
:0404AC00000000004C
:0404B0000800000040
:0404B4000000200024
:0404B80020060020FA
:0404BC00010000003B
:0404C00040070020D1
:0404C400080000002C
:0404C8000000000030
:0404CC00000000002C
:0404D0000000000028
:0404D4000000000024
:0404D8000000000020
:0404DC00010000001B
:0404E000580600209A
:0404E400060000000E
:0404E800010000000F
:0404EC0008050020DF
:0404F0000000000008
:0404F4000000000004
:0404F80000020000FE
:0404FC0000000000FC
:020500000000F9
:020502002A00CD
:020504000100F4
:020506002500CE
:020508003000C1
:02050A003100BE
:02050C002E00BF
:02050E000100EA
:0105100001E9
:0105110000E9
:0805140004000000B8AF010073
:08051C000000000000000000D7
:0405240000000100D2
:0405280000000300CC
:04052C0087C401106F
:04053000380500008A
:040534003805000086
:0405380000000000BF
:04053C00800000003B
:040540008000000037
:0405440000000000B3
:040548004007002048
:04054C00E76401005F
:040550002000000087
:04055400A4AF01004F
:04055800B4AD01003D
:04055C000DC30110BA
:04056000AD5C01008D
:04056400AF5C010087
:0405680099C801101D
:04056C009BC8011017
:040570000000000087
:04057400110500006D
:04057800E4AB0100EF
:04057C00FCAB0100D3
:04058000CCAB0100FF
:0205840008006D
:0205860009006A
:02058800010070
:02058A0000006F
:01058C00016D
:040590000000000067
:040594000000000063
:04059800000000005F
:04059C00000000005B
:0405A000915B01006A
:0405A400D55B010022
:0405A800795A01007B
:0405AC00035C0100EB
:0405B000E15A01000B
:0405B400955A010053
:0405B800215B0100C2
:0405BC00455C010099
:0405C000656401006D
:0405C4006366010069
:0405C8006766010061
:0405CC000800000023
:0405D0002400000003
:0405D400180000000B
:0405D80028000000F7
:0405DC0020000000FB
:0405E0003C000000DB
:0405E4000C00000007
:0405E80034000000DB
:1005EC00DFF800F0F93A0110DFF800F0C93A011019
:1005FC00DFF8C82C808913880021984208D25268F1
:10060C000C2303FB00200F220078104218BF01219D
:10061C000846704710B5DFF8A42C838952680C2467
:10062C00012904FB032402D1408860800DE00229DB
:10063C0007D141886180001D00F055F828B9207061
:10064C0003E0011D201D00F047F8207840F08000E9
:10065C002070BDE8104009F000BAF8B500F026F99A
:10066C00A0810020217809B30025DFF8506C19E037
:10067C0071680C2202FB05170F223978114210D138
:10068C0020783870211D60887880381D00F024F89F
:10069C00A581387840F08000387009F0DEF9358893
:1006AC0001206D1C3188ADB28D42E1D3F2BD38B55D
:1006BC00DFF8084C208068B10C2101FB00F5A8B2D2
:1006CC00FFF7B6FC606030B1AAB2BDE8384000213B
:1006DC000CF089BA606031BD002918BFFFF780BFEC
:1006EC0008220CF080BA002140B10022135C0BB13F
:1006FC0001210822521CD2B2082AF7DB08467047A7
:10070C001FB50C460021ADF802008DF8001000A8B2
:10071C0000F055F801A92046FFF7DEFF2046FFF751
:10072C00E2FF04B010BD1FB50C4600218DF800107F
:10073C00014601A8FFF7D0FF00A800F06CF8BDF847
:10074C000200208003F030FF14BF0120002004B011
:10075C0010BD38B50546FFF74BFF0446012C0BD1F5
:10076C0000F025F82A78017882F0FF02114041F060
:10077C008001017009F071F9204632BD38B505468B
:10078C000024287888B12846FFF732FF0446012C54
:10079C000BD100F00CF8297802780A4205D141F00F
:1007AC0080011143017009F058F9204632BDDFF881
:1007BC000C0BA98940680C2202FB01007047F8B5AC
:1007CC00044600F077F8628800204FF6FE718A42EA
:1007DC00A1811FD00025DFF8E46A17E00C217268B4
:1007EC0069430F278B5C3B420FD08F1861887A8846
:1007FC0091420AD1381DFFF776FF012802D1391D2D
:10080C0000F059F8A581012035886D1C3188ADB2F6
:10081C008D42E3D3F2BD2DE9F04100F047F8608042
:10082C00A0814FF00008201DFFF75DFF01281BD1B0
:10083C000026DFF8887A13E00C20796870430F23C8
:10084C00425C1A420BD04518291D201DFFF7CCFE27
:10085C0028B16888A68160804FF001083E88761C1C
:10086C003888B6B28642E7D34046BDE8F08170B511
:10087C0000F01CF8608000F01DF82046FFF7B8FE71
:10088C000546012D10D1DFF8340AA18940680C22ED
:10089C0002FB010670886080301DFFF724FF0128E1
:1008AC0002D1311D00F007F8284670BD04464FF602
:1008BC00FE7070470021201D0EE72DE9F041044623
:1008CC0088B04FF6FE75A58100268DF80060211DBD
:1008DC0001A8FFF701FF00A8FFF79DFF00270128E3
:1008EC004FF0010808D1BDF80C006188A081BDF85B
:1008FC00020088423DD000AE8DF810706088ADF8D3
:10090C00120004A8FFF75BFF012808BF04AF3EB13B
:10091C00B089A08101212046FFF77CFE4FB30BE08C
:10092C00C7B1B889A081381DFFF7DDFE012807D1BA
:10093C002046FFF792FE80467D800221384606E075
:10094C00201DFFF7D0FE012813D103212046FFF70D
:10095C0061FE0EE06088A84207D1201DFFF7C3FEA0
:10096C00012818BF4FF0000803D12046FFF775FE91
:10097C0080462046FFF702FF404602F04BBB0020AA
:10098C00DFF8381900E0401C0A8880B2904209D286
:10099C004A680C2303FB00220F2312781A42F2D16F
:1009AC00002070470120704770B582B000F049F804
:1009BC000DE068680C2101FB0406009600F02BF892
:1009CC000CF007FD10B93078C0433070641CA4B231
:1009DC0028888442EDD373BD30B585B000F031F872
:1009EC0012E068680C2101FB040001780A060AD5A4
:1009FC0011F07F01017002D100F03AF801A800F06B
:100A0C0009F80CF0B7FC641C2888A4B28442E8D323
:100A1C0005B030BD00900C23002221460120704708
:100A2C0038B500F00EF806E000230C222146012018
:100A3C000CF058FC641C2888A4B28442F4D3002027
:100A4C0032BD0024DFF87458704730B585B000F023
:100A5C000FF8FFF7F6FF05E001A8FFF7DBFF0CF03E
:100A6C0089FC641C2888A4B28442F5D305B030BD3F
:100A7C000C22FF2101A80CF0B6B880B50CF034FDA7
:100A8C00DFF8B80C0FF2A911C1610FF2DD11016290
:100A9C000FF2792141620FF29521816201BD10B5EF
:100AAC00DFF8984C20700021DFF8940C61700088FE
:100ABC00DFF8901CE08104F18400FFF791FDDFF872
:100ACC00880C0078A070DFF8380DA06110BD2DE9FE
:100ADC00F04F0D46280485B0DFF8606C4CD53078AB
:100AEC000CF040F95FEA000B43D00BF114040BF14E
:100AFC000209A07A002804BFE089132815D1B9F89F
:100B0C0000A0F06B002702E0FFF79FFA404660B1AF
:100B1C0002884168524505D1002F884614BF796080
:100B2C00F163F1E707460846F1E7617F484600F0BC
:100B3C0029FBD8B99BF80000012812D160790390E9
:100B4C000BF1100320680290494699F811000190AE
:100B5C00207900900BF11C00B9F80A200DF053FE1F
:100B6C0004E0022804BF584601F042FB58460CF042
:100B7C008BF885F400401DE0E80706D5F06A01000B
:100B8C0018BF804785F0010014E0A80704D50120A8
:100B9C00F07085F002000DE028070AD500F0ABFAE2
:100BAC0020B93064082130780EF054FB85F0080031
:100BBC0000E0002005B0BDE8F08FDFF8802B137843
:100BCC0018B1D162024601218FE2D06201218FE27D
:100BDC0038B504466068007D1030C0B20CF042F8A5
:100BEC00050022D0022028700020687020886881BF
:100BFC00A07828736068007D287205F11000686089
:100C0C006068007810F0200118BF012169726068DB
:100C1C00027D016968680BF0CEFF2946BDE83440BF
:100C2C00DFF8180B00780CF03EB831BD0000000066
:100C3C0038B50C4611461A460CF037FD050011D09C
:100C4C0021460CF0F3FC68B1214628460CF0FFFC61
:100C5C0030B96C8828460CF0E2FC20460CF0C1FD43
:100C6C00002032BDB42032BD2DE9FE4381460D4635
:100C7C00B3264FF00008002700E07F1CDFF8000DC2
:100C8C000078FFB287423ED238460CF058FE040082
:100C9C00F3D0607940445FFA80F8C145EDDA182250
:100CAC00002128460BF09FFF6179A9EB080008187A
:100CBC00C0B204EB4000C088688104F094FE014689
:100CCC002846FFF78DFC6078012802D128756088D2
:100CDC0013E0608800A90CF0B6FD78B19DF808000F
:100CEC0028759DF80800032805D100A905F10C0012
:100CFC00FFF776FC02E0BDF80000A881207828728E
:100D0C0000262079A8753046BDE8FE83428913077A
:100D1C000BD5920708D5427B062A18BFE92903D0C8
:100D2C00CD2918BFF02900D164E170472DE9FD4FA2
:100D3C000E46F188F07884B00CF019FD5FEA0008DB
:100D4C004FF0000B72D0317DC0B206F0A1FC040054
:100D5C006CD0F188F07800220CF022FD0546F0787A
:100D6C006071D946F088E080B07D608184F808B06D
:100D7C00327D3169E0680BF01EFF13986082149885
:100D8C002075DDF844A034E068880CF06FFD7880A5
:100D9C00287938713178490603D5B97941F00201C7
:100DAC00B971BBF1000F01BF7988DFF8442CD28AEE
:100DBC00914214D1B07000200390CDF804A0129889
:100DCC00059B0499029000200090DFF8240C828C83
:100DDC00304601F005FCB87940F00500B87109F116
:100DEC000107F188F078FAB20CF0DAFC05465FFAEC
:100DFC0087F97DB1C1450DDA04EBC90000F1160786
:100E0C000020387068780128BED138704FF0010B83
:100E1C006888BCE7204606F050FC0094109A9DF8B8
:100E2C0018105346304600F013F80FE0F0788DF8A8
:100E3C000300B8F1000FB07D8DF804000CBFB92091
:100E4C0010208DF8050000A801F0C5FB06F0DBBFF3
:100E5C002DE9FF4F87B0149C204606F0EBFB0546AE
:100E6C00204606F0FEFB002D804600F0B9804FF0C6
:100E7C00000A04E040F00800B0710AF1010A5FFAC0
:100E8C008AFA207C824580F0A780EDB2002D00F01C
:100E9C00A38004EBCA0000F11606B079C007ECD4AD
:100EAC0030784FF0000998B9708801F001FD78B1E5
:100EBC000079012818BF03280AD1B0795FFA88F8A5
:100ECC0040F08000B8F1000FB0714FF00109D4D0A0
:100EDC009DF828004FF0000B082708B14FF0200BAD
:100EEC000C22002100A80BF07EFE3078C0B1DFF898
:100EFC00000B90F86800012809D17088ADF800004B
:100F0C004BF0080BFF2041F20807307111E00799F4
:100F1C00708888804BF00C0B0C274FF6FF7006E0A6
:100F2C009DF8200010B14BF0400B0A277088ADF8EB
:100F3C00000007988DF802B0007D00F054F801F025
:100F4C007BF99DF81400B8BB0398407D7071039831
:100F5C00C7829DF824104176307828B1DFF8900ACA
:100F6C00039990F8680008770398618920F8281F86
:100F7C00618A4180217D01710399607981F83A0081
:100F8C000399307981F83B0007990398C98820F8B8
:100F9C003E1F0799098941800799497DC1720799BC
:100FAC0003988988818707990A7D0969406C0BF041
:100FBC0002FE00A801F0A8F9B07940F00100B07170
:100FCC009DF8141000297FF455AFB9F1000F18BF2C
:100FDC00A8F101086D1E50E70021204600F04CF8E6
:100FEC000BB0BDE8F08F8DF8040001208DF80500E2
:100FFC0000A87047F0B5044689B0207B0F4606F078
:10100C00ABFB060023D065691FBB217B042206F0D5
:10101C00B9FBE5B1A888ADF80E00E888ADF8100072
:10102C00287A8DF81C00F068069000208DF81D00C1
:10103C002068006A00788209287800F0200300F00C
:10104C00400108BF0422009602A8FFF701FF09B077
:10105C00F0BD217B082206F095FB0028D9D0002D8D
:10106C00F5D001977189C9B2009103794288017852
:10107C00A8780DF0AAFBCDE77CB501220123002452
:10108C0002E00023641CE4B2057CAC420BDA00EBFA
:10109C00C4052D7FEE07F4D50C263542F1D06D0733
:1010AC00F0D50022EEE7047A7CB90BB901290CD1FA
:1010BC000121017241798DF8031040898DF80400EB
:1010CC008DF8052000A801F086FA73BD0121D3E745
:1010DC00DFF868160B7820B10022CA700221024694
:1010EC0003E00120C870022102E018460EF087B818
:1010FC0018460EF0AFB82DE9F843DFF8F408DFF826
:10110C003C66807B00250024F76B00074FF001093B
:10111C0020D40EF046F9316C421ADFF8481B0B88CC
:10112C009A4238BF01202BD3DFF8381D0978B2FB67
:10113C00F3F81FFA88F8414534BF89465FFA88F9FD
:10114C0003FB182189B2401A306403E03846FEF7DD
:10115C007CFF47469FB1F8788145B4BFA0EB0900EE
:10116C000020F870F978786829B9002C804614BFF3
:10117C006060F063EAE73C466D1C0746EAE7A8B2FC
:10118C00BDE8F283F8B5DFF8B445027AE56B0E469C
:10119C00022A294646D1078800E0496859B10888D7
:1011AC00B84204BF8878B042F7D1DFF8B80C0078A9
:1011BC00C8700120F2BD002035B1012001E0401CB7
:1011CC000D4669680029FAD1DFF8001D098880B244
:1011DC00884227D20820FEF72BFF18B307808670B1
:1011EC00DFF8801CDFF808680978C17000214160C5
:1011FC00E16B09B1686006E0E063B07B000702D4E4
:10120C000EF0CFF82064B07B00070BD520780821B6
:10121C000EF036F830B9DFF84C0A02882078082135
:10122C000DF0FCFF0020F2BDDFF8101508710FF275
:10123C00910008630FF26D2048630FF2F54088634C
:10124C00704738B504000D4608BFFEF71DFFDFF8E8
:10125C00D00C016811B9046004E00146C86800288C
:10126C00FBD1CC600020E060A57131BD10B5DFF87A
:10127C00B03C1B6800E0DB684BB1DC79844201BFF9
:10128C009C888C429C799442F5D1184610BD002064
:10129C0010BD10B5DFF8881C0C68A04203D1E468BF
:1012AC000C6006E00C4624B1E1688142FAD1C168B9
:1012BC00E160FEF7CAFE204610BD0000A4460020E7
:1012CC00FEB50646307A002818BF01280BD03088AE
:1012DC0004F054FF38B9307A032806D101A93046FE
:1012EC0000F020FE20B90220FEBD3088ADF80400CD
:1012FC00708A443080B2FEF79BFE04005DD044221D
:10130C0000210BF070FCB07ADFF8305400A90DF01E
:10131C00C6FC04F134079DF80000B87101219DF85A
:10132C00010078712046FFF78CFF2422314604F12E
:10133C0010000BF040FC04F14400F860708A388116
:10134C00728A7169F8680BF036FCBDF80400A08055
:10135C006878E071401C68700EF023F82080FF2044
:10136C0097F905108840F870F878B87003F024FAF3
:10137C00307E10F0010118BF01218DF8091002A870
:10138C000DF049FC801E38703978388990FBF1F0EB
:10139C0020723978388990FBF1F201FB120010B100
:1013AC00207A401C20720121208D40F008002085FD
:1013BC0028790BF099FD0020FEBD1020FEBD70B504
:1013CC0004460DF0EEFF208004F12A03DFF8BC1B6D
:1013DC00987B097888425AD2197BFF2903D1401C8B
:1013EC009873587B1873D97A1A7B002001E0401C43
:1013FC00C0B2DD7BA8420BDA82F0FF0525FA00F6BD
:10140C00F507F4D54118012505FA00F010431873BF
:10141C009D7A588AC9B205FB110292B2AA420ED328
:10142C00187BFF282A460CD0187C6080208D91B93F
:10143C0040F020002085207A1871206C14E0FF20E9
:10144C001873DFF82408DFF8485B00792D786843BF
:10145C0064256843E9E74FF6DF752840208519714C
:10146C00206C9D7A05FB01006062D2B2E079D870E5
:10147C006284DFF8200B0268100002D00846904707
:10148C0070B904F11000BDE8704000F0EFBB1978A2
:10149C00A07EE9220DF086F92046BDE87040F8E602
:1014AC0070BD0000F8B504461646607D0122FFF7BA
:1014BC00DDFE050036D0002E01BFE07D05F12A06C9
:1014CC00F17A88422ED1AF1CF37BBA79217E1818A1
:1014DC0090420ADBFF2908D13178387E00220DF0CA
:1014EC0061F92846BDE8F240D3E6FF290BD1FF2075
:1014FC0098403073307BF17B7073F07A0818F0727F
:10150C000020B07302E07173207E30730DF049FF40
:10151C0028800121307C3880BDE8F4408748007970
:10152C000BF0E2BCF1BD2DE9F047044682B0A07887
:10153C00884691469A460DF052FB05005FD01C2060
:10154C00FEF776FD070059D01C2200210BF04BFB57
:10155C00A07800A90DF0A3FB9DF8010038750221BD
:10156C003846FFF76EFEB8F8000097F91410B880F3
:10157C00607DF871FF208840787468680078387452
:10158C00207DB874E17D4843303080B20BF06AFBAB
:10159C000500BD612ED01A202870AE1C002068708A
:1015AC0030804146E0887080A81D0DF068FBE07823
:1015BC007073DFF8B406808CF08105F11C00618B30
:1015CC00018261893182A178B174217BF17499F81F
:1015DC000010317599F80110717599F80210B175F8
:1015EC0086F817A00A99016005F13001C160A17D50
:1015FC00017203E03846FFF74CFE00273846BDE881
:10160C00F6872DE9F04788460546DFF88809EC7D1A
:10161C0001680027080082B091469A4604D0204603
:10162C008847002840F08280B8F80010687D0222BC
:10163C00FFF71CFE060012D16878C00776D50A9811
:10164C00009053464A4641462846FFF76CFF060079
:10165C006CD03A483472012100790BF045FC307A99
:10166C00401E8442307C08BF0127FF284BD068788D
:10167C00F17CC007307D48BF0024421894424FF0E3
:10168C00FF0904DB4118F17409FA00F07074B069B9
:10169C00B37C806A2A7D296903FB04000BF08BFA6A
:1016AC00307D727C94FBF0F1012300FB114C03FAAA
:1016BC000CF31A437274AFB100FB1140401C09FAD1
:1016CC0000F010437074B169B07C2A7D04FB0020DB
:1016DC00C884707CFF2805D1307C0BF0E4FA86F8C6
:1016EC00109010E00DF05DFE3080DFF8A418C048BB
:1016FC00097800794843DFF89418097801FB000059
:10170C00642148437080F07C317D0918491E8C425D
:10171C001CBF717CFF2900D047B1E8752946707C4D
:10172C002876B8F80000BDE8FC4709E2BDE8F3876D
:10173C000146DFF8980800790BF0B5BABC0200201E
:10174C000A0800205C46002023080020F8B50C464F
:10175C002004DFF878581BD4E0074FD5DFF8C0071A
:10176C0006680DF01EFE4FF6FF7180B20A461FE0B0
:10177C003078012809D17069009006F11002F37CD1
:10178C00B11C06F11C00FFF73CFF30460BF07CFA55
:10179C0028790BF0E7FA0600EAD184F40040F2BD98
:1017AC00A7EB0C039342F668BCBFA7EB0C0292B2FA
:1017BC00DEB133887788C31A1FFA83FCBC45EFDB94
:1017CC00B079022809D1307CFF281CBFB0690BF01E
:1017DC005BFA3046FFF75DFD02E03046FFF7EFFDA8
:1017EC00287901210BF080FB05E08A4203D028798F
:1017FC0001210DF004FD84F00100F2BD0020F2BDCA
:10180C005446002070B50D460446298800F02AF88D
:10181C0008B1B82070BD00F096F8DFF8B41709785D
:10182C00884201D3B22070BD1820FEF701FC0600DF
:10183C0001D1102070BD0020306034711222294675
:10184C00B01D0BF0B8F9DFF88008016811B906601B
:10185C0004E0014608680028FBD10E6000F09FF8F8
:10186C00002070BDDFF86028126842B11379834202
:10187C0012BFFF28D3888B42F6D1901D70470020F1
:10188C00704710B5DFF840281468FE290CBF0123FF
:10189C00002303E0914208BF012324683CB1E28895
:1018AC008242FAD12279002BF4D0104610BDFE20D2
:1018BC0010BD10B50022DFF8103807E01C79844207
:1018CC0004D1DC88D2B221F81240521C1B68002BC8
:1018DC00F4D1D0B210BD38B5DFF8EC371A6800245B
:1018EC0001E0144612688AB11579854204BFD58887
:1018FC008D42F6D11068002C0CBF18602060104689
:10190C00FEF7A3FB00F04BF8012032BD002032BDE6
:10191C00F8B5DFF8B45704462868002603E00768DA
:10192C00FEF793FB384658B102790168A24204D104
:10193C00002E0CBF29603160F1E706460846F2E73D
:10194C00BDE8F1402BE00020DFF87C1700E0401CE4
:10195C0009680029FBD1C0B2704710B5DFF87006DA
:10196C00007814214843811C002289B242200BF0DC
:10197C00E4FC040018BF00F005F8204610BD000080
:10198C00C4AC010080B50020ADF8000000F001F8F7
:10199C0001BD00AB0222002142200BF014BD10B59A
:1019AC0086B00020ADF80000DFF81C07046818E0D2
:1019BC0020798DF804001222A11D0DF106000BF008
:1019CC00FAF8BDF8000014225043811C01AB89B217
:1019DC0042200BF0F8FCBDF80000401CADF80000F4
:1019EC002468002CE4D1FFF7D4FF06B010BD000032
:1019FC009441002030B587B000AB02220021422078
:101A0C000BF02EFD0024C8B9002512E01420684309
:101A1C00811C01AB142289B242200BF021FD38B994
:101A2C009DF804000DF10601FFF7ECFE00B9641CF3
:101A3C006D1CBDF80000ADB28542E7D3A0B207B073
:101A4C0030BD10B500228A70CA700023027F0A755F
:101A5C00826A4B738B80838D4B83C3894B8112F8C5
:101A6C00013B0B7003F00304032C65DA002C18BF48
:101A7C00022C33D103F00C040C2C08D0DB065CBF19
:101A8C0012F8013B8B70082C08BF012300D00023F7
:101A9C000C2C0B7306D11378547803EB04238B8036
:101AAC00921C0AE0437903F00303012B05D10B7858
:101ABC0043F00C030B7043898B800B78DB060DD441
:101ACC001378547803EB0423CB8012F8023F54783C
:101ADC0003EB04230B819378CB70D21C12F8013BDF
:101AEC004B750B781B0618D512F8013B4B70FC2478
:101AFC00234221D103F00304032C1DD003242342E1
:101B0C000DD012F8013BCB750B7803F00303022BBD
:101B1C0005D112F8013B0B7601E000234B700A61F2
:101B2C000B7D9A1A836A9A180A75037F9B1A4B735A
:101B3C00D2B2007F904202D200204873087510BDCB
:101B4C0070B50C4686B00546207800F00C010206F4
:101B5C0048BF41F0800141F0020600F00301012969
:101B6C0008BF46F01006800648BF46F020060C223F
:101B7C00002100A80BF037F88DF8026060788DF822
:101B8C000300ADF80050FFF730FA00F055FB9DF85C
:101B9C001400E8B90399012048760399A07881F8DC
:101BAC003A000399E07881F83B000398E18820F82B
:101BBC003E1F21894180617DC1720399207E81F88D
:101BCC004C000399E07D81F84B0000A800F09CFBD1
:101BDC0006B070BD02460020537B042B00D070472A
:101BEC0030B5137CDBB95269CAB113780324234294
:101BFC0001BF4B68547B5D7DAC4210D15489098880
:101C0C008C4202BF9188DC88A14208D191789A78E5
:101C1C0091421DBF197801F00C010429012030BD3F
:101C2C001CB50346084603224178114208D0DFF860
:101C3C009C134C6B210013D000221946A04713BDF6
:101C4C000190ADF8003000A9DFF8B40603F092FA69
:101C5C0030B10621417300210068407B02F001F88D
:101C6C0013BD00000E080020944100202DE9F04126
:101C7C000446DFF85803E57AC07886B008B9BA2074
:101C8C00EDE000F0AFFA01278DF805700026207EFC
:101C9C00400709D59DF8020040F040008DF8020085
:101CAC00207E000758BF0327208BC10648BF47F092
:101CBC004007000710D59DF8020040F0C0008DF8D9
:101CCC000200217E9DF8030089064CBF40F0010004
:101CDC0040F002008DF80300208B217ADFF8248677
:101CEC0000F4C070B0F5C07F08BF47F0080751B9C9
:101CFC00B8F81600ADF800009DF8020040F00400A2
:101D0C008DF8020031E09DF802200F2942F0080303
:101D1C0047F0040006D18DF8023007462188ADF853
:101D2C00001022E0022902D100F0C6FB1DE00329BD
:101D3C0004D100A9204600F0F5F816E0012914D1D1
:101D4C0098F8681039B18DF8023047F4805700F0DC
:101D5C00B3FBFF2508E042F00C018DF8021007469A
:101D6C004FF6FD71ADF800102688207EC0071DD5FA
:101D7C009DF802000C2108420BD120880AF0F2FDDC
:101D8C0008B9BB206BE09DF8020040F020008DF8F4
:101D9C000200207EC00709D59DF8020000F00C015E
:101DAC00042904BF40F020008DF80200608A8DF8F1
:101DBC00040000A800F040FA9DF8140000284CD153
:101DCC000398C782E17E41760399207F8876207A3A
:101DDC00012803D1039998F8680008770398A17E2D
:101DEC0020F8281F218B4180E17F0171208B00F4AA
:101DFC00C070B0F5C07F05D10398417D94F82000E8
:101E0C0005F0D5FC0399A07A81F83A00039880F884
:101E1C003B50039820F83C6FE1894180218A8180F6
:101E2C00A17E81730399A07F81F84B000399607F99
:101E3C0081F849000398628A6169406C0AF0BBFE24
:101E4C00207E400606D5DFF82C05016808001CBF73
:101E5C0000A8884700A800F057FA9DF8140006B0B7
:101E6C00BDE8F0812508002010B50078632420B16E
:101E7C0005200DF014FBC0F15604DFF88804007B3C
:101E8C0020B10DF00CFB201AA0F10E04E0B210BD35
:101E9C0013B511461A46DFF8E0341C68230008D04D
:101EAC0001AB00930123A04708B1002016BDB2205E
:101EBC0016BDB62016BD38B5DFF87843E4692500A9
:101ECC0001D0A04732BDB62032BD00001008002062
:101EDC0038B50346B5200C46A12B1546DFF8541334
:101EEC0006D0A22B0ED0A32B04D0AB2B12D032BD1C
:101EFC00C88905E0DFF8841409680A000FD0884708
:101F0C0028800BE00A6A110009D029462046BDE85A
:101F1C003840104789692846FEF762FB002032BD25
:101F2C00EC46002070B504460D4603F05CFD0146FE
:101F3C002046FEF759FB012618B104F056FA28800A
:101F4C0004E029462046FEF7EEFB0646304670BDFF
:101F5C0010B504460E20FEF76BF8A8B104F1380159
:101F6C000A7802704A7842708A788270CA78C27095
:101F7C00CA8882800A89C2808A7A02728A7C027339
:101F8C0062884281497C417310BD00002108002009
:101F9C0022080020F0460020002101757047012026
:101FAC00704701210175704701207047DFF8280840
:101FBC00DFF828180160DFF828184160DFF82418D2
:101FCC008160DFF89C18C16070470000BC020020E3
:101FDC00C5AC010070B5C26892F83810126911F0E6
:101FEC00030418BF022C02F8011B39D111F00C03A9
:101FFC0018BF082B01F0100504D0042B07D1022CBC
:10200C0000D18DB9C66896F83B6002F8016B0C2BB9
:10201C0008D1C668B68F02F8016BC668B68F360A4F
:10202C0002F8016B022C00D1D5B9C468E48F02F818
:10203C00014BC468E48F240A00F048F800F046F81D
:10204C00240A002B18BF082B02F8014B03D00C2BD1
:10205C0018BF042B04D1C36893F83A3002F8013B43
:10206C000326C36803F12A0401F00203E57B354221
:10207C0008BF002B02D125782D0603D5E47F02F88A
:10208C00014B08E0DFF8AC516E78E6776C7802F81B
:10209C00014B641C6C70090614D5C16891F8391099
:1020AC0002F8011B0325C16811F8394F2C421EBFE1
:1020BC00897C02F8011B002B04D0C06890F84C00FE
:1020CC0002F8010B70BD0000F446002002F8014B31
:1020DC00C468B4F84040704730B50268917801F09C
:1020EC0003030124002B18BF022B20D111F00C0587
:1020FC000BD0082D08BF02240BD0042D06D1022BC7
:10210C0001D1CB0607D4062410E002240C2D08BF05
:10211C00A41C022B01D1CB0609D4241D002D18BF01
:10212C00082D03D00C2D18BF042D00D1641C0B06F8
:10213C0004710CD503795B1C03710324D278224201
:10214C0005D05A1C0271890744BF511C01710179D9
:10215C00491C017130BD0069002818BFFDF775BF1F
:10216C00704730B587B0044601208DF81400204626
:10217C00FFF730FF206908B100F0E0F8207D28BBA4
:10218C0000F030F801208DF80200A0680088ADF84E
:10219C000000E068007D0930FEF725FF00F04CF8E8
:1021AC009DF8140090B90398456C0E202870A06817
:1021BC004168681CFEF714FAE068027D016905F1BC
:1021CC0009000AF0F8FC00A800F09EF8E06808B1DD
:1021DC00FDF73BFF2046FFF7BEFF9DF8140020756E
:1021EC0007B030BD0C22002100A80AF0FCBC7047DF
:1021FC00DFF8E419DFF8E42909781278114304BFF9
:10220C00417A002905D141680978062918BF0729A8
:10221C000DD0017B39B94168097805291CBF4FF4F1
:10222C009A700BF0EBBEDFF8F01A0968084770479C
:10223C0000000000BC02002010B584B004460194DC
:10224C000020E060019908610199087501A8FFF769
:10225C0043FF01982B490088C98A884211D0019804
:10226C00807880060DD5DFF87015019809688847CD
:10227C000198006928B901980199807800F0DF0075
:10228C008870207D00283AD150208DF800009DF8F0
:10229C000810207908188DF8010060798DF802007B
:1022AC00206938B1027F407F9DF8011080184018DA
:1022BC008DF8010000A800F0DDFDD8B12188418027
:1022CC00012200F110014A7200F13802A378137058
:1022DC00E37853702379937209689DF8083013746E
:1022EC005918D160216919B1D368097FC918D16017
:1022FC00E0601FBD2046FFF72EFF102020751FBD8C
:10230C00E11B00009441002010B50446207D88B9E3
:10231C002046FFF75FFE206908B100F00FF8E06877
:10232C00217D19B900F07AFD207503E0FDF78DFED3
:10233C000020E0602046BDE810400CE7DFF8981460
:10234C0049682046084738B50D46DFF8341AC98A63
:10235C000446688B884205D020460AF003FB08B976
:10236C00012032BD29462046BDE83840DFF86824FC
:10237C00D2681047FC460020B4440020B84400202A
:10238C0030B587B000F0E0F8A078042829D12220DD
:10239C008DF804009DF8140000285FD100F08CF833
:1023AC0001208DF80200A07B8DF8050020690290B9
:1023BC00607B012804BF21208DF8020000F086F814
:1023CC009DF81400002849D10398456C052028700D
:1023DC00A0786870616891B11022A81C0AF0EBFB20
:1023EC0011E0012814BF06282320D1D0022814BFE5
:1023FC0003281B20CCD0B3208DF814002EE0102223
:10240C00A81C0AF0F0FBA0781235012812BF062890
:10241C00E07805F8010BA1682846FEF75DF9A07875
:10242C0004281CBF0128062805F1080204D100214C
:10243C00AB20FFF74DFD01E0207B1070208803F0EE
:10244C009DFE10B103990420C8822069002800A8C1
:10245C0002D0FFF786FE01E0FFF756FF9DF814004F
:10246C0007B030BD30B587B000F032F800F024F87A
:10247C000C2000F095F8607A002814BF2120012070
:10248C0000F022F89DF8140080B90398456C0620E2
:10249C002870681C6168FEF7A3F860886872608811
:1024AC00000AA872207AE87200F04CF8207A08B181
:1024BC009DF8140007B030BD2088ADF800007047BF
:1024CC009DF8140006B010BD8DF8020000A8B3E60C
:1024DC0004460C22002100A80AF085BB10B586B07A
:1024EC0000F032F86078012818BF042822D10220AD
:1024FC008DF804009DF81400D8B92078ADF80000D0
:10250C0021208DF80200FEF770FDFFF795FE9DF877
:10251C00140070B90398406C082101706178417007
:10252C006178022903D16168801CFEF759F800F02C
:10253C0009F8C5E7022808BF0A20D9D0B3208DF8C6
:10254C001400F6E700A8DFE6044600208DF814001E
:10255C000C22002100A80AF046BB10B586B0FFF78C
:10256C00B7FFFFF7A9FF022000F01AF8E078012866
:10257C000CBF21200120FFF7A7FF9DF8140070B9B4
:10258C000398406C09210170A1784170208803F0F8
:10259C00F5FD10B103990420C882FFF7D3FF8FE734
:1025AC008DF8040001208DF80500704780B5FFF709
:1025BC00FDFCDFF86417DFF8EC0A086001BD406928
:1025CC0040B1427803231A4204D10A46017B807839
:1025DC000CF0E8B8704742790179C0780CF0E2B899
:1025EC002DE9F04105468846287D383017461E46B1
:1025FC00C0B20AF037FB04003DD0012020701C2231
:10260C00294604F11C000AF0D6FA0A224146A01C05
:10261C000AF0D1FAA78130782074B078A074707861
:10262C0060740798E0740020E06208986061069876
:10263C0020766889E08109986076287D30B104F1B4
:10264C003800E0622A7D29690AF0B5FA617FDFF86B
:10265C00580A032211420AD0816B080020461CBF85
:10266C00BDE8F0410847BDE8F0410AF00DBB21463A
:10267C00BDE8F04101E0BDE8F08100780AF013BB41
:10268C00DFF8980A0078242101FB00F2FF21DFF823
:10269C00900A0AF0A8BA30B500220023242509E0DC
:1026AC00DFF87C4A05FB03442479844224BFA14211
:1026BC00521C5B1CDFF8644A2478A342F0DBD0B2D6
:1026CC0030BD00002DE9F0438046DFF8500A85B09C
:1026DC005FEA01090478164604D0484600F0EBF88E
:1026EC00050044D10020242200E0401CC0B2A042CE
:1026FC0007D2DFF82C1A02FB00152979FF29F4D137
:10270C0000E00025002D60D0DFF8180A078857B1CB
:10271C00032E18BF042E06D104210320FFF7BBFFA4
:10272C00E11B88420CDADFF8000A078857B1012E4A
:10273C0018BF022E06D100F057F8E11B884201DBCE
:10274C00002048E000F0BEF9ADF80280494601A82F
:10275C00FDF7C2FF00A8FEF7B0F8BDF80C006880CA
:10276C000020A87106F0C4F8404604F0D8FB002005
:10277C0016B1052EB8BF0420A5F800802E71687123
:10278C0004F030FB287201206872AA20A872002085
:10279C002882E871E872E8609EB1032E11DADFF846
:1027AC00500ADFF8341B007800280FBF086851F876
:1027BC0020003C214843E861A861012085F82000F5
:1027CC0003E06FF00100E861A86100F0CAF8A042D4
:1027DC0000F09BFA284672E104460020A51F000079
:1027EC00AF1F0000B51F00000221012053E77FB589
:1027FC0004460D46284600F05EF8002600281CBF53
:10280C000188A14228D00179052925DA048091B1EB
:10281C00032910DADFF8D819DFF8BC2A0978002967
:10282C000FBF116852F821103C225143C1618161E4
:10283C0080F8206003E06FF00101C1618161C66026
:10284C0000F040F9ADF80240294601A8FDF744FF1D
:10285C0000A8FEF732F80126304604B070BD000027
:10286C00AB1F000080B500F023F800281CBF0079D6
:10287C00002803D0052801DA012002BD002002BD8A
:10288C0080B500F015F800281CBF0079002803D093
:10289C00032801DA012002BD002002BD80B500F042
:1028AC0007F818B1007908B9012002BD002002BD5B
:1028BC000146002000E00021F0B504460D464FF61D
:1028CC00F870854285B000DB1CB3002708E04FF69A
:1028DC00FF70854202D03088854218D07F1CFFB231
:1028EC0002F0B3F9874214DA00F045FA01FB07064F
:1028FC003079FF28F2D0002CE9D000F01CF9002828
:10290C00ECD001A92046FDF76FFE0028E6D030463A
:10291C0000E0002005B0F0BD30B585B0FFF7CBFF6F
:10292C00002405000DD000F0CDF801246888ADF826
:10293C000C0000A8FDF70DFF2422FF2128460AF009
:10294C0052F900F00EF8DFF8D4170978884205D256
:10295C00DFF854170120887103F0DCF9204605B02C
:10296C0030BD0421002096E6F0B5DFF8B027DFF883
:10297C00B057137824244FF6FE72904208BF0026FD
:10298C0019D0002600E03E469E4214DA771C6643BE
:10299C0006EB050CFFB29CF804C0BCF1FF0FF2D0A3
:1029AC00765B8642EFD13E4605E0012818BF03282E
:1029BC000DD0761CF6B29E420BDA04FB06F77819A2
:1029CC0000290079F1D00028F3D00528F1DA785BE2
:1029DC00F0BD1046F0BD0121C6E72DE9F0410446DB
:1029EC000421FFF702FF050013D0680080B2FDF749
:1029FC001FFB06000BD04FF6FE7837464046FFF71C
:102A0C00EAFF404518BF27F8020BF8D102E0002579
:102A1C0000E00026257001F0EABA002201E0401E19
:102A2C00521CDFF8F8160978D2B28A420CD2DFF8C1
:102A3C00F016242303FB02110B79052BF0DA80B27C
:102A4C000028ECD108467047002070472DE9F04370
:102A5C0085B00024DFF8508ADFF8C4661AE01C2029
:102A6C00684300EB080930F80810B85B81421CBFC2
:102A7C00BDF80200814205D009F1020101A8FDF761
:102A8C00B3FD10B1484604F076FA6D1C04F012FC4C
:102A9C00E5DB641C00F04AF811DA242000FB04F793
:102AAC004FF6FF71B85B8842F3D000F00BF8B81901
:102ABC00408800F0A3F90028EBD00025E6E705B02C
:102ACC00BDE8F08301208DF8000070477FB500242D
:102ADC00DFF8D85907E0B06910F1020F02D0F069A5
:102AEC00401EF061641C00F021F81EDA00F043F97E
:102AFC0001FB040630790028F4D00328F2DAF069DF
:102B0C000028E8D12878012807D1DFF89C05826FCE
:102B1C00100002D0B1693088904700F00CF8002802
:102B2C00E0D001A8FFF7F8FEDCE77FBDDFF8EC058D
:102B3C0000788442704701208DF800007088ADF851
:102B4C000C0000A8FDF793BE80B5FFF7B1FE48B1AD
:102B5C00017931B1032904DA8169C161012180F85D
:102B6C002010012002BD38B5DFF83C55E96E044653
:102B7C0008001CBFA86F002817D0D5F88000A0B1A2
:102B8C006088884788B905F0D3FF0FBF096851F8F2
:102B9C0020003C21414360889047012805D1608882
:102BAC00D5F88010BDE83440084731BD10B500247D
:102BBC0006E000231022214603200AF093FB641C3C
:102BCC0000F003F8F5D3002010BDDFF850050078B5
:102BDC00E4B2844270470000F10700201247002045
:102BEC0010B586B01022FF2101A809F0FCFF0024CB
:102BFC0008E001A8009010230022214603200AF0CF
:102C0C00B9FB641CFFF7E1FFF3D306B010BD2DE94F
:102C1C00F047DFF8C496DFF80405D9F8006090F8A7
:102C2C0000A0DFF85C818AB0002700246FF001055A
:102C3C0019E0CA618A61002281F820204FF6FF71E9
:102C4C0088420FD00121ADF820008DF8141005A892
:102C5C00FDF70DFE7F1C28B1B8F82410BDF8040058
:102C6C0004F05DF9641C544546DA01A80090102369
:102C7C000022E1B203200AF0ACFB0028F2D100F0F4
:102C8C007AF801FB0401BDF804000880BDF80600C9
:102C9C0048809DF808200A719DF809204A719DF81A
:102CAC000A208A719DF80B20CA71DFF8582A127815
:102CBC00521C02EBD27252100A7201224A72AA22E0
:102CCC008A7200220A82CA72CA60049A12F1010F37
:102CDC00AFD10A796AB1032A0BDADFF8142512781E
:102CEC0012B9CE618E61A6E759F822203C235A43D3
:102CFC009FE7CD618D61A1E7FFF733FE504500F0F2
:102D0C0004F8F8B20AB0BDE8F08703D3DFF88C1AE8
:102D1C000020887102F0FEBFF846002010B586B086
:102D2C00002423E000F027F801FB040010230188A5
:102D3C00ADF8041000224188ADF8061001798DF829
:102D4C00081041798DF8091081798DF80A10C17934
:102D5C008DF80B10017D8DF80C10E1B28069049098
:102D6C00641C01A8009003200AF004FBFFF7DEFEB0
:102D7C00D8DB06B010BDDFF8A80324217047000093
:102D8C0094410020F0B5054685B0FFF72DFD287065
:102D9C00287878B30C214843FDF74AF904002AD06F
:102DAC002546002604E028460AF07CFA0546761CE7
:102DBC0001F04BFF86421EDAFFF7DDFF01FB060731
:102DCC003879012818BF0228F1D1FFF77BFE7888EB
:102DDC0000F014F820B101A92846FDF701FC0546C6
:102DEC0097F8200000281DBFB869F969411A4FF007
:102DFC00FF31D8E70024204605B0F0BDADF80C003B
:102E0C0000A8FDF734BDA848DFF894194164DFF839
:102E1C0094198164DFF890190165704738B5044640
:102E2C00DFF88809017C082918BF042908D021780B
:102E3C0001F00301012902BF21690978062913D188
:102E4C0061884FF6FE7291420ED00088814204BF19
:102E5C00207F002803D0204602F072FA02E02046C0
:102E6C0002F05DFB054600E0C2252046FDF7EDF8BB
:102E7C00284632BD38B5044620786178081880B2EF
:102E8C00FDF7D6F8050013D02278002109F0ABFE2F
:102E9C004FF6FE70688003F0A8FAA88020784019DD
:102EAC0028616078287502F0B3FD6875A0782876E3
:102EBC00284632BD70B5DFF8F848054694F8260070
:102ECC00042814BF0828C22088B00E4614D004F180
:102EDC0028000560867100F011F801208DF80400BF
:102EEC00009500208DF807008DF80560022084F80D
:102EFC00260000A80CF07CFB08B070BD1C22002141
:102F0C0000A809F070BE30B5DFF8A4580446686F0D
:102F1C0087B0F0B90820FDF78BF86867B8B1216865
:102F2C0001601C2221790171696F60794871696FA8
:102F3C00A0798871FFF7E3FF2068009020798DF865
:102F4C00050060798DF8040000F067F802E01020AD
:102F5C0000E0012007B030BD10B5DFF85448606FB9
:102F6C0018B1FDF772F80020606701F0F6FEBDE8BD
:102F7C00104003F007BD2DE9F04188B00E460E9CC1
:102F8C00DFF830780F993D780F2C08BF0F2901D04E
:102F9C00022D03D08C4203D2022D01D0C12039E086
:102FAC00DFF80C8808F1280569712A60AB712C7167
:102FBC001099E9714FF6FF71884201BFDFF8840A5E
:102FCC000088884209F03DFE08F11604E0814EB1FC
:102FDC00304604F0D7F9012804D1314608F1390004
:102FEC00FDF7FEFA00202080A08028743878022893
:102FFC0002D10F202871687105202074FFF77EFF25
:10300C0000208DF8040028680090A8798DF8050040
:10301C0000F003F808B0BDE8F08100208DF807003F
:10302C0000A80CF0E5BA80B5DFF87027D0718021CC
:10303C00107A0CF00FF900F00EF8002002BDDFF84A
:10304C005C07C079002818BF00F005B880B507F000
:10305C00BDFEBDE8014010B5DFF840476179E0796D
:10306C0028B909B106F055FC0020607112E0012965
:10307C0018BF06F04EFC01206071E079FF2809D0E2
:10308C000021E1714FF47A7101FB00F2207A80216A
:10309C000CF0B5F8611DBDE8104041200CF087BA6A
:1030AC0000000000FB210000BC0200200A464FF685
:1030BC00FE71F8B502F0A3FE90F8260008280D4624
:1030CC00164628D12046FFF7F6FB08B1C520F2BD05
:1030DC004FF6FE77BD4208D106F0020004F0FAFF6D
:1030EC000546BD4201D1C720F2BDB10706F008006C
:1030FC0004D500280CBF0322042203E0002814BFCF
:10310C000222012221462846FFF7DCFA08B10020F2
:10311C00F2BD1020F2BDC220F2BD000060AC010077
:10312C00A02C00206AAC010068AC01002DE9F24132
:10313C00DFF87C5605F10E068046307E042814BF5D
:10314C000828C22087B014461F4649D0BDF8380065
:10315C0001F02AFA08BFC32042D0FFF7CFFE0320AC
:10316C00307607A950200CF022FA0EA94B200CF057
:10317C001EFABDF81C00F082B4724146BDF838004E
:10318C00B081377005F13900FDF72AFA07F0CE004F
:10319C0040F080008DF81A008DF80B4005F12D01E0
:1031AC000F98401C85F8380002208DF81600BDF8E9
:1031BC003800ADF80E00BDF81C00ADF8180001F099
:1031CC00FBFA0F20F07754200CF0F1F90F20B077B8
:1031DC0005F12C0147200CF0EAF900A80CF0F6F9E7
:1031EC0018E7DFF8CC0580F82F2001F0A7BC000011
:1031FC001F08002030B5044689B060798DF80C00AA
:10320C00002520798DF80E0001208DF80F00206824
:10321C0010B1FDF768FA78B98DF80D5002F0E3FBA8
:10322C000290DFF8780B017B04290CBF00884FF665
:10323C00FD70ADF804000EE0206800A9FDF773FAEC
:10324C00A07968B901208DF80D00BDF80000ADF82B
:10325C0004002068029001A802F082FE054613E0EB
:10326C00BDF80000ADF8100001208DF81A0060794F
:10327C008DF81B008DF81C500DF112002168FDF724
:10328C00AFF904A806F098FB284609B030BDDFF86A
:10329C00201510B5044691F826100020082918BFF7
:1032AC00042984B015D14FF6FD70ADF8000002F082
:1032BC009AFB019000208DF8090060788DF80800C9
:1032CC0020788DF80A0000208DF80B0000A802F081
:1032DC0047FE04B010BD000088AC0100F8B5DFF863
:1032EC00C03ADFF8CCE41E78DFF8083C1446002224
:1032FC00002587284FF6FE7712D08B2825D09828EA
:10330C0008D09C2809D09D2812D09E2835D19EF833
:10331C0026003BE09EF8120038E003F0E8FD35E0B3
:10332C00084603F009FEC12588B31C2201461FE0A4
:10333C00002005E01988B94218BF521C0833401C04
:10334C00C0B2B042F6D3227021E0C125002002E0C9
:10335C00521C0833401CC0B2B04218D2B3F800C0A3
:10336C00BC45F6D05FFA82FC8C45F1D10822194697
:10337C00204609F020FC002509E0A0F181011E295E
:10338C0028BFC92503D2704410F8810C2070284640
:10339C00F2BD00B583B0009000208DF805008DF8CB
:1033AC0006008DF8041000A8FFF7ADFD0EBDF8B5B2
:1033BC0004462568002D75D0DFF8E063726A1000B2
:1033CC0002D0217928469047687B022838D1A87A08
:1033DC00800735D52079E9281CBFCD28F0282FD0BF
:1033EC00A87C00060CD5A87E50B1A873286800886C
:1033FC0002F0C4FE48B94FF498700AF0FFFD04E0E7
:10340C00DFF8F40A0078401CA873207950B9002723
:10341C0004E04FF49B700AF0F1FD7F1C6079FFB261
:10342C008742F6D3A87B401EA873A87620210420DF
:10343C006873DFF8C80A00882881307A09F054FDD7
:10344C00687B022818BF06282CD1A87AC00729D57A
:10345C0021792846FFF7B3F868894FF6FE710840CA
:10346C0068812868008802F089FE0028207912D132
:10347C0070B940F22F100AF0C1FD00256079EDB251
:10348C0085420FD24FF49B700AF0B8FD6D1CF5E726
:10349C0040F2311002E028B940F22D10BDE8F240A4
:1034AC000AF0ACBDF1BD0000203900201E08002040
:1034BC002DE9F04F9BB08B468046924605A9FEF74E
:1034CC00C0FA9DF8210000260027002804BF9DF8B3
:1034DC002800002809D09DF81400400608F10404C7
:1034EC0006D5E08802F04AFE10B140F2351064E0D7
:1034FC009DF81400AE4D00F00C0004289DF814004B
:10350C000CBF4FF00109B146800616D50127B9F161
:10351C00000F12D12189EA8A608D914205D10006F3
:10352C000BD5E088ADF82E1002E0000605D4084655
:10353C0005A9FEF708FF00283DD1618D080612D4BD
:10354C009DF8140040060ED59DF81500032210427C
:10355C0009D19DF8140000F00C020C2A1EBF00F0DB
:10356C000C00082801269DF8140000F00300022826
:10357C0004D1208905A9FEF753FB9CE0012812D148
:10358C002EB1080603D4208905A9FEF7D9FA05A89F
:10359C000D902089ADF83000A0788DF832000CA881
:1035AC00FDF716FB87E00028FCD1E87A012804BF60
:1035BC00A078002804D14FF49A700AF01FFD7AE02D
:1035CC0002208DF864002089ADF85C0008F1300011
:1035DC0094F82A1009063CD502218DF84010E18898
:1035EC00ADF838109DF817108DF842109DF8161094
:1035FC008DF84310A98CADF84410BDF81A10ADF835
:10360C004610BDF81C10ADF848109DF82810ADF808
:10361C004A1009991391618DADF85010A1898DF85C
:10362C00521021788DF85310A17B8DF854109DF811
:10363C0029108DF855109DF82B108DF85610017827
:10364C008DF8571080788DF858000EA8FEF70EFBF9
:10365C0031E0B9F1000F1CD0A1898DF82A104F4927
:10366C00D1F828805FEA080125D0BDF85C10EA8A01
:10367C00914220D1007804903346608D0390CDF8B0
:10368C0008A001975A462078009005A917A8C047B2
:10369C0011E01EB1208905A9FEF752FAA07B039018
:1036AC00CDF808A001975B46E07B009017A9AA8C87
:1036BC0005A8FEF795FF1BB0BDE8F08F06F052B8D9
:1036CC0006F000B906F05AB910B539490446887BA2
:1036DC0080070FD5A07A01281EBF2088498B88420D
:1036EC001CBFE17A012905D0FFF7CAF810B1208878
:1036FC0001F004FE2046BDE8104006F079B906F052
:10370C00A7B9000072AC010010B5012904460BD119
:10371C00002104F0ACFFDFF8EC0702782046BDE88E
:10372C001040002104F09AB810BD06F034B9DFF84F
:10373C00D83710B51B681C0084B005D08DF800007C
:10374C000191029200A898471FBD06F084B938B5C4
:10375C00124C174D2072002085F82600DFF8AC07BC
:10376C000068400406D4DFF8A807006810B10121F6
:10377C0080F82A100AF04CF90020E065606503F02F
:10378C0059FBFEF77DFF04F026F80AF051F90020F2
:10379C006867BDE831400BF09BBF0000BC02002005
:1037AC0099490000D9480000C9360000AA41002000
:1037BC00944100201B0800202DE9F043DFF840570E
:1037CC00287A0C4621048FB01CD509F0CBFA0500E1
:1037DC0015D000200FF2702100E0401CC0B2024650
:1037EC0011F83230FF2B07D02E78B342F5D101EB14
:1037FC00C201284649688847284609F045FA84F4EE
:10380C0000401CE1A1040BD501F056FD050004D0CD
:10381C0000F0F0FB284609F037FA84F400500EE172
:10382C00A10640F19E8020210BF02AFDA96D0843D2
:10383C0008BF01260BD00BF0B4FDA96D002621B1F9
:10384C00884234BF4FF0FF36461A760858D000F045
:10385C002BF907460DF114082FE001F08FFE01AA99
:10386C004FF0FF308DF802003868C17F006A01F01C
:10387C00A5FF01281BD1788A40F08000A8F81E0013
:10388C00B97B8DF83410B97A090706D540F48070ED
:10389C00A8F81E000DA9387B8870786910B1007BE0
:1038AC00ADF81400002200A901A8FFF701FE0620C4
:1038BC007873387B01F08DFB4F460FB30022042147
:1038CC00384601F028FC81463889B0422CBF801B59
:1038DC000020388138890028EED1B87B01280AD124
:1038EC00B87A4007B9D406207873B7213868407B82
:1038FC0000F0B7F9E0E70028AFD101207873DBE7DF
:10390C0001F0C5FA00220121002001F004FC18B1DD
:10391C00287A202109F0E8FA00F0C6F8E8B1078906
:10392C0003E001898F4288BF0F460022042101F079
:10393C00F2FB0028F5D1B6B2287ABE4202D2BF1BE8
:10394C00BFB227B9202109F0CFFA002005E07A0098
:10395C0020210BF054FC0BF024FDA86584F0200012
:10396C006DE0E00604D504F0FDFA84F0100066E08A
:10397C00600604D504F04DFF84F040005FE02006A3
:10398C0004D5FFF75CFB84F0800058E0E00504D51B
:10399C0003F03DF884F4807051E0200516D503F057
:1039AC00EBFFDFF85C0C007801280CD1DFF8540C2D
:1039BC00007840B14FF47A7101FB00F2287A4FF491
:1039CC0000610BF02BFC84F4006038E0E00408D5B7
:1039DC00A87A18B10020A87203F0CEFF84F48050AE
:1039EC002DE0600416D5A86E010010D0DFF8181C6D
:1039FC00097801290BD18047686F010018BF8047F7
:103A0C00287A4FF47A724FF480410BF007FC84F45F
:103A1C00804014E0A00504D502F0C0FF84F40070CF
:103A2C000DE060050AD502F08AFA0121DFF8DC0B03
:103A3C00808CFFF745FE84F4806000E000200FB01E
:103A4C00BDE8F08312080020010000001D460000B4
:103A5C0006000000DF4C000008000000654C000070
:103A6C000B000000834D000010000000938A000042
:103A7C0002000000CD470000050000001D4A0000B8
:103A8C00070000007B4800000C000000B13D000066
:103A9C000D0000000140000064000000732B0000CA
:103AAC00FF0000000000000000220421002001F0B3
:103ABC0032BB00B587B0182200F064FF00F004F8A8
:103ACC000BF0CDFD07B000BD02208DF80800DFF82B
:103ADC003C0B418B808CADF80A00ADF80010002037
:103AEC008DF8140000A8704710B50C008EB012D0E1
:103AFC00014600AA204601F061FE9DF8060050B177
:103B0C009DF81C309DF80120214600200BF0BEFCD6
:103B1C0008B1A42000E000200EB010BD2DE9F0414A
:103B2C0004468EB06189DFF8E45A48064FF6FE78F9
:103B3C004FF6FF765DD5206800F0EDF908B1304600
:103B4C0003E020680088404574D02168088002F0AA
:103B5C0015FB014620684A1E9241D20FDFF8501C1B
:103B6C00C2810968DFF8A4231268530464D4572077
:103B7C008DF80000722300A843706F2383700173CB
:103B8C006E238DF803300274672303714323437152
:103B9C0068238DF8063069238DF807307023037283
:103BAC000B0E8DF809300B0C83720B0A110E41733E
:103BBC008DF80B30110C817305A8110A8DF80F10BC
:103BCC002422002109F00FF802208DF81C00ADF81A
:103BDC0014600021A88CADF81E0002208DF8200086
:103BEC0011208DF8330000A80D9005A80BF03EFDB8
:103BFC0026E0A87B80071DD52068026A13795279CC
:103C0C00C9044CBF40210021009103EB0227228BF9
:103C1C0000884346B9B203F0D2FEBFB2B8421CBF13
:103C2C00218B88428FD120680188002302223846DC
:103C3C0002F00BFCCD2505E0DFF8881C0BF016FD1F
:103C4C00050005D02068407B294600F00AF820B911
:103C5C001CB10121204601F042F928460EB0BDE806
:103C6C00F08138B504460D46142008F0FBFF60B116
:103C7C000C2101708470002181734570014601F0A4
:103C8C00A5F909F010F8002032BD204601F052FAD7
:103C9C0038B106214173007B04F0E4FE204601F0AC
:103CAC0098F9102032BD0000F8B5044616460020E5
:103CBC0030800D46A06A00781F4602F02DFA38B10C
:103CCC00608902F05BFA022802D16089308000E042
:103CDC000027A16ADFF834090978491E0A2956D849
:103CEC00DFE801F0060C1A1F1130553B3F474D0021
:103CFC0032462946204603F027FF3EE0294620465F
:103D0C0004F002F847E0608902F038FA00283ED14E
:103D1C00204604F085FB3EE03946204602F0BCFB11
:103D2C002BE0217F022932D11FB96189C08A8142DF
:103D3C0031D1DFF8940B007820B32146384602F0DD
:103D4C0056F91AE06189C08A814204BF207F02289B
:103D5C001DD1204602F056F81DE0204602F0A8FFC7
:103D6C0019E06189C08A814211D1204602F045FCDC
:103D7C0011E02146384602F0A5FC07460BE000F0A6
:103D8C00A3FF00D006E0204602F0CAFC03E0D320DB
:103D9C000AF034F900273846F2BD0000AE4100208D
:103DAC006CAC010070B5044690B0A07801F0C2F97B
:103DBC0005002FD06078DFF8FC69E8736078F12893
:103DCC0018BFCD2804D01A281CBFE928E12855D1EA
:103DDC006889000522D5052068736078E92811D020
:103DEC00B06F010018BF8047F06F58B1B07B8007EF
:103DFC0008D528684189008803F0DEF810B1617895
:103E0C00F26F9047687B022801D106206873A07876
:103E1C0001F0DFF801F03BF810B070BD002128462E
:103E2C0001F05DF850B3B07B800720D52968086A93
:103E3C00E8B1C97F03AA01F0C1FC6378E92B01D179
:103E4C0000F06CF82968BDF8160008809DF8110088
:103E5C00BDF818100028BDF8160014BF402200222F
:103E6C0003F010FE18B1688940F0200068816A895F
:103E7C006178288909F041FE2881AEE760788DF8D9
:103E8C0008000195A07B8DF80900287C002801A86A
:103E9C000CD1FFF78CFA9DF8080048B900F03AF8FD
:103EAC0060B9B06F010009D0804701E002F0F6F86C
:103EBC009DF80830E92B01D100F030F8B07B800779
:103ECC00A0D5687B02280DD1A87A40070AD500F04E
:103EDC0021F828B929684FF6FF700880052095E76E
:103EEC00032093E76078E9288CD1284602F088FCFF
:103EFC0088E70000E03A0020210800200808002094
:103F0C00BC0200207DAC01003C4400209412005007
:103F1C00004600202868008802F030B9286801218A
:103F2C0000914189E27B008801F08CBD2DE9F041C4
:103F3C00851C0026E978002491B12989FF20FDF722
:103F4C0091FC082620B1E87840F001002C26E8709E
:103F5C00E87800F00300012844D146F0110641E056
:103F6C0000F12408E87EDFF8D07BB0B1E97F0029AE
:103F7C0018BFFF2909D128893988884208BF222611
:103F8C0030D0387C04282DD105E0D8F80020A87F4B
:103F9C0004F003FB30BB012424E0288902F0EEF886
:103FAC0002282889398808BF0126884208BF46F0B4
:103FBC00020636B1297800290CBF46F0200646F0DF
:103FCC00400602F0DBF80128287808BF46F001060D
:103FDC0040B1D8F80400007802F09EF8012818BF10
:103FEC0006F0FE06B00702D40CB946F08006304647
:103FFC00BDE8F0812DE9F14F94B04FF6FE70ADF8AD
:10400C00100005AA1498061D3179306801F0D6FB12
:10401C004FF000080028C1465FD00DF115070120B4
:10402C0079780229F978A8BF00200229BDF81E1062
:10403C00A8BF00204FF6F87291421CBF4FF6F972E0
:10404C0091424AD04FF6FA7291421CBF4FF6FB7266
:10405C00914242D0DFF8FC1B0291029AB978D279D6
:10406C0091423AD1002838D00EAC308B20810DF122
:10407C001E05708CA880787938B1AB7C9DF8152022
:10408C00316801200BF002FAB8B905A8FFF74EFF12
:10409C008246787998B90298007800281CBF0AF0FB
:1040AC00220022280BD00AF04200422805D1606879
:1040BC000078062818BF072801D0CF2067E01AF037
:1040CC0040008DF804001ED00298C078800760680C
:1040DC00007803D5401E0A2809D957E0032818BFD9
:1040EC00042804D007281CBF0A280C284ED160686D
:1040FC000178032904BF40780D2804D005A802F0EC
:10410C0089F9012845D0DFF8300A039003991498F7
:10411C00C98900F13A0BB08E884208D1CDF80080E5
:10412C009BF80020718E308B002301F08BFC78798A
:10413C0010B3718E308B02F03FFF009050B330689B
:10414C009DF8151008180099407BC978814204D05D
:10415C000099C8700099C1F8048030689DF815204A
:10416C0010180421401C08F04EFD00994968884243
:10417C000FD30099401C48600298C078800708D57E
:10418C00607B00B36888FEF77BFBB8B9D32009F0DD
:10419C0035FFEFE1DFF8740490F86C000128EBD1E7
:1041AC0060680078062803D19DF804000028E3D14C
:1041BC00A8884FF6FF718842EBD0D6E03068417882
:1041CC0001F0DF014170287A38B130688179491EDD
:1041DC00817130688079287208B90AF07F0A5FEA29
:1041EC000A7021D55FEA4A704FF4805806D53879A9
:1041FC0000F0E300387140EAD00011E05FEACA60D9
:10420C000FD53879C0F3820121B1072904D0491E9A
:10421C00C9B209B90AF07F0A00F0E30040EA810054
:10422C0038713168387908720398007C042818BFFB
:10423C0009282FD10399BDF81E000988884208D09F
:10424C0001F09CFF02281EBF387900F00300012802
:10425C0003D1787810B900F090F98BE160680078A0
:10426C00042804BFA97C022904D105A9002001F06F
:10427C00BEFE7FE1072804BFA97C042903D105A851
:10428C0001F02CFE76E10328FCD1002105A802F0F8
:10429C0003F96FE10AF008008DF800001AF06100D4
:1042AC0043D05FEACA7028D5318B05A804F0D9FA3F
:1042BC0008BB01F0ADFB8146287A002802BF688854
:1042CC00318B884219D0318B4A4605A804F016FB75
:1042DC0060B19DF80000002814BF4FF6FF70BDF8C8
:1042EC001E00ADF8100048F0040806E00AF0DF0AE2
:1042FC004FF0000901E00AF09F0A5FEA8A6001D5DD
:10430C0000F03BF95FEA4A600ED5318B4B4604AAAC
:10431C0005A8FFF7C9FC5FEA000905D060680078C2
:10432C00012801D148F01008CBE07878012802BFB1
:10433C0061680978052902D100F030F91AE10128E9
:10434C0002BF60680078032806D1BDF81E00FEF796
:10435C0097FA08B100F022F9287A58B97878012830
:10436C0002BF60680078032803D0149905A800F0F8
:10437C001FF9FFE000F09EFD0028FAD1E87C88B31D
:10438C00EC7DDDF838B0A87D5A46214604F005F9DD
:10439C0028B348F0400944B9BDF81E00ADF8100030
:1043AC00FEF786FA002819D117E05946204604F08A
:1043BC00EFF8ADF810000820F97901B11020B979A7
:1043CC0009B10830C0B2397909B1401CC0B2401CE7
:1043DC003168C0B2425C521E4254C8466EE00023A3
:1043EC000B2257E0BDF81E00ADF81000F87800283D
:1043FC0004BF9DF80000002852D1787801281CD009
:10440C00BDF81000002104F020FC20B140790128F7
:10441C0018BF022811D0B18EBDF8100002F0CCFDEF
:10442C0028B1807802F0FAFE08B1082805DB68880C
:10443C00FEF726FA60B30420F8700023BDF81E10B6
:10444C00F8780DF1310204F089FC30B13068017854
:10445C0001F03F0148F020080170E87C40B1BDF844
:10446C001E100DA801F088F9ADF8100048F04008B6
:10447C007878012805D06988BDF81E00002204F068
:10448C00A9F89DF80000002814BF402200220DE07E
:10449C0000230222BDF81E10688801F0D6FF69E0E7
:1044AC009DF800000028C8D04023C7E76988BDF8F4
:1044BC001E0003F0E7FA08B148F0200801F0A8FA52
:1044CC008146BDF8100000F06FF8DFF89C0B007807
:1044DC0008BF4FF00009012825D1318B4FF6FF7032
:1044EC00814220D0BDF81E004FF6F97290421ADAC4
:1044FC006888814217D0FEF7DBF9A0B10179012958
:10450C0018BF02290FD101218DF800104088ADF899
:10451C000C0000A8FCF7ABF928B101A8FEF7FCF9D8
:10452C0008B105F04DFB5FEA0A6023D5B9F1000F25
:10453C0020D03079FBF77CFD04001BD03279316838
:10454C0008F039FB7878BDF810108DF84800CDF8DC
:10455C00048000201390CDF8009012A80390002046
:10456C0002903379328B204601F00EF810B12046C0
:10457C00FBF76BFD15B0BDE8F08F9BF800008DF8D4
:10458C00000000A99BF801008DF801009BF80200C7
:10459C008DF8020005A8F26AFEF78ABF318B002362
:1045AC0004AA05A8FFF780BB4FF6FE71884270473E
:1045BC0038B50D46044612496089097839B113495A
:1045CC00C98A884204BFBDE8314003F0D5B9002147
:1045DC0004F03BFB00281EBF80791821084208D04C
:1045EC00E88C0090AB8B627F6189A08904F0F8FBAA
:1045FC0031BD6189A089BDE83840002203F07EBC42
:10460C0016070020170700201047002094410020B7
:10461C002DE9F047044686B0A01CFEF74CF9DFF8F4
:10462C00A4AB667805460127A11C00F00AFB02200A
:10463C008DF816004FF6FE7900F0BEF84FF0010829
:10464C009AF80500ADF81490002808BF002D03D18E
:10465C0016B94FF0C30871E0564890F826000828A8
:10466C0018BF4FF0C20868D1A07A810704D50007A3
:10467C0054BF0327042702E0000748BF022715B3E5
:10468C002879042818BF032803D1042F18BF032F3F
:10469C0007D0022818BF01280DD1022F18BF012FF7
:1046AC0007D1288801F0E7FD68B92888ADF8140017
:1046BC0009E0022801D0012801D101F02BFBA01C3C
:1046CC00FEF72AF90025BDF81400484513D1FCF774
:1046DC0056F980B946B1BAF814A0504601F0CBFD9A
:1046EC0010B9ADF814A006E0A07A00F0020003F0B7
:1046FC00F1FCADF81400BDF81400484508BF4FF0AC
:10470C00C7081AD0A27A3346A11CFEF7DBFFA0B96A
:10471C00BDF814003A46A11CFDF7D4FF05000AD0E1
:10472C00022E03D1687940F00800687100208DF8E2
:10473C001600804601E0ADF814901EB900A80AF0EE
:10474C004CFF04E03246394600A801F087FB0146D5
:10475C009DB146B1687940F040006871022E04BFEB
:10476C0040F020006871A07A400603D5687940F0CB
:10477C0080006871A879401CA87151EA080013D018
:10478C00B8F1000F41F2010018BF414600D109B148
:10479C0009F0B2F915B1A01CFEF7BEF8BDF8140073
:1047AC00484518BF01F0B6FA06B0BDE8F087000026
:1047BC00181300509441002000208DF80800704719
:1047CC0070B5DFF8A85A05F10E040646207E0328C2
:1047DC001CBF0128092884B048D17178002939D12F
:1047EC00022009F089F970882081B11C53200AF04D
:1047FC00DEFE207E09281CBFE08A02F0C8FBFEF713
:10480C0061F900A942200AF0D2FE0420207601A909
:10481C004A200AF0BDFE01A905F11C00FBF7E0FEE1
:10482C00DFF8100B01780B2902D10621017003E08F
:10483C00E08A0021FEF744FFA089FFF7B5FE03D004
:10484C00002201A9FDF73EFF207801F03BFA0AF0A7
:10485C00AEFE09E041F2030009F04EF97178E08AEE
:10486C00FEF72EFF0020207600F077FA7FBDDFF8F0
:10487C00FC19DFF850394A6FA2B991F826100129BA
:10488C0004D0052906D0062908D00BE0D96C0A0003
:10489C0017D00847596C0A0013D00847996C0A00C6
:1048AC000FD00847002A19BF91790129407804F0EC
:1048BC003EBF022908BF02F02DB8596E0A0018BF7E
:1048CC0008477047F53A00001D0800202DE9F0411B
:1048DC00DFF8644A88B0054620696968DFF8E46847
:1048EC00884320617F21736D8846002220FA02F7ED
:1048FC00FF0712D54FF0000C1F4606E097F802E0B8
:10490C00BF69964508BF0CF1010C002FF6D15FFA78
:10491C008CF78F423CBF39469046521C1B2AE5DB74
:10492C00686858B1206100F02CF86868009001208C
:10493C008DF80400A07D00F063F820E01F4606E02F
:10494C0005F050F9A081398881420CD0776D57B1B0
:10495C00A0893988814202BFB9785FFA88F841454D
:10496C00EED0BF69F3E784F8008000F0E7F830B1CF
:10497C000020A073316D08001CBFC4208847FEF7CF
:10498C0049BB1C22002100A808F02DB9F0B5C06865
:10499C00DFF8D848DFF82C6887B0002104F128052F
:1049AC002A6822FA01F3DB0707D5F37A0F5CBB42C6
:1049BC0003D201238B409A432A60491C1B29EFDB4D
:1049CC00286878B1FFF7DDFF2868009001208DF88A
:1049DC0004008DF80700A87900F012F8062084F87E
:1049EC0026000BE084F82600002141F2040009F0B7
:1049FC0083F8316D08001CBFC420884707B0F0BD98
:104A0C008DF8050000208DF8070000A80AF0F0BD15
:104A1C0030B505468DB06C68297C686908AA00F031
:104A2C00F9F99DF82000002807D1287C0B285BDBC6
:104A3C00207A022804BF207BFF287AD1DFF82C08CB
:104A4C0000F12405A9782A6D022918BF062910D077
:104A5C0012B19379012B15D0082918BF042968D1FC
:104A6C009DF822106489002A3FD09279022A3CD109
:104A7C0059E03AB900200090627C618920880023BB
:104A8C0000F0E0FF2088ADF8080008226089ADF83E
:104A9C000A000DF12701A07B8DF80C00A089C00B3A
:104AAC008DF80D009DF824008DF80E009DF8260061
:104ABC008DF80F009DF821008DF811009DF8220053
:104ACC008DF81000607C8DF812009DF825008DF893
:104ADC0013009DF832008DF814000DF1150008F04C
:104AEC006AF802A804F051FE23E02A88A24220D1E1
:104AFC00012905D00DF127013930FBF775FDC0B93F
:104B0C0000F064FA4FF400710AF0BAFB88B96868D7
:104B1C000090A87AFDF744FD02208DF8060000A84D
:104B2C00FEF7F1F918B9204601F0D8FE01E0FEF7C6
:104B3C0013FA0DB030BD0000AA4100202DE9F04160
:104B4C0090B0DFF8284701F074FF04F12405E61C4F
:104B5C00A878082806D000F078F8B07030700120E2
:104B6C00E86028612422002106A808F03CF8287D82
:104B7C00DFF85076411E8941C90F0F208DF82210A5
:104B8C008DF80000787200A946200AF010FD002074
:104B9C008DF8040004F13901DFF8D00B00788DF8A2
:104BAC00050007F18C08F07B8DF8060000208DF8CD
:104BBC0007008DF808008DF80A00287D0F28A8BF83
:104BCC000F208DF8090000F03CF80322FF210DF1B5
:104BDC00130008F008F894F872007A7A8DF8160031
:104BEC00414601A800F0EBF8414645200AF0DFFCF5
:104BFC0001F090F8287A8DF8200004F11601687AFB
:104C0C008DF82100707D8DF81E002888ADF81C00F1
:104C1C0000208DF82400E87A8DF8230000208DF810
:104C2C0038008DF82D0053200AF0C1FC04F11A0154
:104C3C004B200AF0BCFC06A80AF0FEFC10B0BDE844
:104C4C00F0810DF10B00FBF7CBBCDFF8240B0078E7
:104C5C00704700009F41002038B5DFF810164078EF
:104C6C0001F1160410B10020207431BD082020740D
:104C7C00DFF8505591F8380060B9296D08001CBF59
:104C8C0000208847E189052008F036FFE08902F012
:104C9C007EF90AE0002004F0F7FD2188062008F0D8
:104CAC002BFFA188042008F027FFA86E58B100F054
:104CBC000BF808D1287ABDE838404FF47A724FF4DB
:104CCC0080410AF0ABBA31BDDFF8A80A00780128A0
:104CDC00704730B5054687B0A81CFDF7ECFD040005
:104CEC0035D02079012818BF022803D0032818BF1B
:104CFC0004282CD1A91CFFF7A4FF2088ADF81400C0
:104D0C0001208DF81600FFF757FD00A80AF069FC8A
:104D1C000146072008F0F0FE607900F0FE0060719B
:104D2C000120607202F05EF82072FFF7CDFF02BF27
:104D3C00DFF8940B0078022809D12079012818BFDC
:104D4C00022804D1A069E061012084F8200007B09A
:104D5C0030BDDFF87004406D704738B5DFF864443F
:104D6C00606D002803E08569FBF76FF92800FAD124
:104D7C000020606531BD38B50446207D032804D180
:104D8C0004F10C00FDF797FD04E0022816D1A08970
:104D9C00FDF78EFD050011D0607870B1F12812BFBF
:104DAC00E128A879012805D100F0B4FF04F10C002A
:104DBC00FDF7B2FDA87908B1401EA87131BD70B5E0
:104DCC000446154620780870CE1C60784870A2788E
:104DDC0040EA02104870E0788870227940EA82003C
:104DEC008870627940EAC2008870A27940EAC210E9
:104DFC0088700822E11D304607F0DDFE08360322DC
:104E0C0004F10F01304607F0D6FE0F2DA4BFA07C95
:104E1C00F07070BD70B50646144616F8010B207084
:104E2C000D46307800F00F006070082216F8010B68
:104E3C000009A070307800F00300E0703078C0F307
:104E4C00800020713078C0F3C300607116F8010B3C
:104E5C00C009A0713146E01D07F0ADFE08360322F3
:104E6C00314604F10F0007F0A6FE0F2DACBFF07811
:104E7C000020A07470BD0100DFF8B40B18BF012135
:104E8C00017070470068DFF8AC1B0AF0EFBBDFF86D
:104E9C00A00B007800B1704780B50022012100F012
:104EAC003AF930B1016800291CBFBDE80240FEF799
:104EBC0035BE01BD80B5042000F01FF9DFF8781B6A
:104ECC000978814207D3FF2000F017F9DFF86C1B3B
:104EDC000978814201D2012002BD002002BD2DE9DA
:104EEC00F04107468846387B00F024F9002405463B
:104EFC00012625BB7A89397B386800F0B7F80500A4
:104F0C0061D02C810124387C2874788A688207F15E
:104F1C00100001F06BF968614FF67F41388B2883E4
:104F2C00B87EA87668890840688141074FBF40F079
:104F3C008000DFF80C1B097840EAC1106881688991
:104F4C00C109B8F1000F01F0070112D002226A73F7
:104F5C002A68927B520703D5DFF81023128A2A8124
:104F6C0019B34FF67F421040491E40EAC1106881C8
:104F7C001BE009B9002618E0810605D507F061FE93
:104F8C0000F07F005F3008E0C00605D507F059FE41
:104F9C0000F00F000A3000E00120288120210420BD
:104FAC00687300F013F807F09FFF6CB12A89697BD6
:104FBC00284600F06EF838B1686908B1FBF745F87F
:104FCC002846FBF742F80026FFF711B87D48007A17
:104FDC0070473EB500F0AEF8002490B3417B062933
:104FEC002FD101684489097A8DF808100168098865
:104FFC00ADF8001000F0E8F8200521D5BDF8001040
:10500C00002000F020F8D8B9984CA18C00A80AF028
:10501C0066FB002100200CE0286801884FF6FF7227
:10502C0091420DD0A18C0AF058FB1A2808D000210F
:10503C00284600F008F80500EED100200AF051FBDC
:10504C00012420463EBD18B9DFF8F002C06D00E027
:10505C00406840B142891205FAD500291EBF02688A
:10506C0012888A42F4D170470E47002070B504466E
:10507C000D4616461C20FAF7DBFF48B100214173A0
:10508C000573468101818173C17304604161416084
:10509C0070BD70B504000D4616462CD0012D284667
:1050AC0007D100F02AF8DFF8181C097881420DD2DC
:1050BC0008E0042D08D100F020F8DFF87C190978FD
:1050CC00814203D2112070BD022D14D100206060EA
:1050DC00657326813B48C16D31B100E011464A68C9
:1050EC00002AFBD14C6000E0C465007A202107F057
:1050FC00FBFE002070BDC12070BD324AD26D002174
:10510C0005E0537B5268834214BFFF28491C002AD8
:10511C00F7D1C8B2704710B92A48C06D00E040689A
:10512C0038B1437B8B42FAD11AB103689B7B5B0786
:10513C00F5D470472349C96D00E0496821B10A7B59
:10514C008242FAD108467047002070477B49C96DEE
:10515C0000E0496861B10A6813888342F9D1126A88
:10516C001378527803EB0222D205F2D4084670472A
:10517C0000207047F8B50446002620000D460AD0E2
:10518C006E48C76D00E07F682FB129463846A047AE
:10519C000128F8D13E463046F2BD0020704710B5CC
:1051AC006649CA6D1346002401E01C465B683BB19E
:1051BC008342FAD15868934201D1C86510BD606032
:1051CC0010BD0000BC02002010B5040011D0FFF788
:1051DC00E6FF2068006AFAF738FF2068FAF735FF17
:1051EC00606908B1FAF731FF2046BDE81040FAF7C4
:1051FC002CBF10BD38B50168504A0988D26D002308
:10520C00002409E0557B052D01BF641C15682D8811
:10521C008D42526808BF5B1C002AF3D1DFF8382C92
:10522C0012491278DBB293423FBFDFF8AC2C1278F4
:10523C00E4B294422CBF01220A8A02814FF6FF731A
:10524C0005224273428942F400624281006802885E
:10525C009A4204D0898C0AF040FA1A2804D1BDE88D
:10526C00324001200AF03DBA31BD000094410020CB
:10527C0010B548B1A0F10C010A68002A04BF8A7A63
:10528C00FF2A03D007F000FD052010BD2B4C227A1D
:10529C008A72DFF8BC1C0A78014604F1600007F042
:1052AC0004FE012806D1207A4FF4005107F01CFEB1
:1052BC00002010BD042010BD70B5DFF8980C1F4DF8
:1052CC00006880472E6E04468EB156F80C1C287A66
:1052DC0000294FF4005102D007F006FE01E007F060
:1052EC0053FE0022314605F1600007F0C4FDDFF8E3
:1052FC00681C096820468847304670BD70B5044666
:10530C000E48C66D002511E030680088A0420CD113
:10531C0000203081B07A400744BF307B03F0A2FB01
:10532C0002F0B0FEFEF79DFC6D1C7668002EEBD1F2
:10533C00E8B270BD6A040020AC410020BC02002021
:10534C002DE9F04395B00446FFF7B4FD0025002687
:10535C004FF6FE790028C84640F0DA80207FB8B1BD
:10536C00DFF8F80B0078410141EA80002077FF203C
:10537C006188FCF777FA50B1E08A40F00400E082D3
:10538C000125207F40F001004FF6FF782077402662
:10539C00608800F0F3FE08B100206076A07E18B99A
:1053AC00DFF8EC0C0078A0762078DFF8E87C0106BA
:1053BC0003D500F00300207006E0E07E20B93878B9
:1053CC00E0763878401C3870207E01280BD1DFF84D
:1053DC00C80C007828B1F87A002804BF207800287F
:1053EC0001D100202076B87B800715D555B960888F
:1053FC0000F0C4FE80B1207820B12069007800F064
:10540C008BFE48B1E18AA07E4A066FD501286DD18A
:10541C004FF6FB700840E0822078012802BF20691B
:10542C000078022803D1E08A40F04000E082A07DA1
:10543C00400633D495BBB87B80072FD56188607E3E
:10544C003346A21D03F08AFC28B100206076E08A66
:10545C0040F02000E082A07970B1618804F108006E
:10546C0000F08AF980466088804504BF0020A07156
:10547C00E08A40F04000E0822078012804D0A18826
:10548C006088324603F0A6F8A1886088324602F0A4
:10549C00F9FA18B1E08A40F02000E08204A9204615
:1054AC0000F0CEF8C845054608BFB4F802808DB3AD
:1054BC0020789DF810308DF8140006944146608DCC
:1054CC00ADF8160005A8039094F82C000290E08A21
:1054DC000190607D00902846FA8A00F055F8044649
:1054EC00102C18D12846FAF7B0FD14E08DF82E00D8
:1054FC006088ADF82600A088ADF82800E07E8DF815
:10550C002F00627DA18807A803F0F8F9002883D149
:10551C00112001E01024204615B0BDE8F08310B531
:10552C008EB0044601A83421FAF7CEFDA11C02A8C6
:10553C004A8802810988C18004F110010A79027637
:10554C000A6842620A7B42700A8B82810A7A8270F4
:10555C004A7A8DF808204A8B42850022087F8DF804
:10556C00340000A900F00AF84FF0FF308DF802006B
:10557C0001A8FDF79DFF00200EB010BDFF208DF897
:10558C0000008DF8010070472DE9F043054687B007
:10559C000C469046994624201026FAF749FD00281F
:1055AC00009049D0242201F026FC2046FDF780F91A
:1055BC00002701000F9808D00979012918BF032989
:1055CC0003D1410658BF40F48060009A4105DFF8D2
:1055DC00C41A898C518148BF0127009AADF81880F4
:1055EC0002211173009A117200990C80009981F8B4
:1055FC001F9000990E9C4C7300990D62ADF80A0037
:10560C008DF80C4039461198D0E9002310988DF88C
:10561C001A00CDE9042300A8FFF761FC012808D18A
:10562C002FB12046FFF786FD08B1FFF7E3FD0026FA
:10563C0002E00098FAF709FD304607B0BDE8F083A8
:10564C00F8B50E4604460820617F01B11020A17FF9
:10565C0001B10830217F01B1401CA17919B1217A27
:10566C004900891C08186070207E6178DFF8247A64
:10567C00002814BF0E250025002084F83400207D5E
:10568C00081828183070207E28B1387B09F007FFE5
:10569C0031784018307030787528A8BF002662DA4F
:1056AC00FAF7C6FC06005ED02078B97C40EA81008F
:1056BC00617E01F0030140EA8110217F09B14FF4B2
:1056CC0080710843217E40EA4120617F40EAC1207D
:1056DC00A17F40EA0130A17940EA812094F834108E
:1056EC0040EA413080B230700827000A7070608840
:1056FC00B0706088000AF070A0883071A088000A31
:10570C007071A07EB071E07EF071607F28B1216A6B
:10571C0006F10800FAF764FF1027A07F28B1616A30
:10572C00B819FAF75DFF0837FFB2A07980B1207A7B
:10573C00B855781CC0B2617A8155471C207AE16853
:10574C00FFB24200B81907F036FA207A07EB40078F
:10575C00207F08B1FFB2B8556078227D216980198D
:10576C00281807F028FA3046F2BD0000190800206E
:10577C0060AC01001047002030B583B004460D46E4
:10578C0001AA00A9284602F0FCFDA0B99DF8000072
:10579C002070019860609DF8000048B1401E607058
:1057AC009DF80010019800EB410030F8020C3EBD52
:1057BC00607028463EBD4FF6FE703EBD2DE9F843A5
:1057CC0004460F46154634220021284607F00BFAF2
:1057DC000126082F62DB2F702078627800EB022004
:1057EC00294680B200F072F800B10026A078E1786A
:1057FC0000EB012068816179207900EB0120A88100
:10580C00A079A874E079E87408206870E87918B178
:10581C0004F1080000F0DDF8287A20B1687800194E
:10582C00A86100F0D7F8002005F1240785F82000C6
:10583C003860687920B16878015D6971401C6870C6
:10584C00687F38B36878411C6970005D85F820006A
:10585C00481CC9B2687095F82020095D85F82110A4
:10586C00914215D2DFF88C1BDFF8FC9C0978914231
:10587C0038BF0C22C0B24FEA4208011942464846D2
:10588C0007F099F9C7F8009068784044687001E017
:10589C000020687768782978814201D2002010E0D6
:1058AC0002197A60081AA979287749B10E38287735
:1058BC0002F10E00786000F091F8297F081A287721
:1058CC003046BDE8F28300001E0800208A1C00F060
:1058DC0003031370C0F38303537003069B0F937081
:1058EC00430A03F001031371030A03F00103D3709D
:1058FC00830A03F00103D376C30A03F00103537147
:10590C00030B03F001039371420B02F0010281F8C7
:10591C003120800B704710B5DFF878278479D37A63
:10592C0000212CB1002B04BF8078002807D105E0A2
:10593C00002B1EBF4089D28A904200D0012108461C
:10594C0010BDF8B506460C4630781546727800EB5B
:10595C000220294680B2FFF7B9FFB078F17800EB4E
:10596C00012068817179307900EB0120A881B07930
:10597C00A874F079E87408206870E87918B106F119
