:10000000104A0020A178010001CA011001CA0110A4
:1000100001CA011001CA011001CA011001CA011070
:1000200001CA011001CA011001CA011001CA011060
:0C00300001CA011001CA01103FCA0110F2
:10003C00E0B50821ADF800100190042100F00FF894
:10004C0008B100200EBD02980EBD00B583B008218A
:10005C00ADF800100190052100F001F807BDADF8D6
:10006C00021000A801490968084700006007002039
:10007C0080B50820ADF80000102009490968ADF8DA
:10008C00020000A8884702BD80B501208DF8000051
:10009C00FFF7EEFF9DF800000028FBD101BD00002A
:1000AC006007002062F30F2262F31F4200B500BF0D
:1000BC00130096469446103928BFA0E80C50FAD885
:1000CC005FEA417C28BF0CC048BF40F8042BC9072D
:1000DC0028BF20F8022B48BF00F8012B00BD000000
:0600EC007047012070477F
:100100003C0000000000000000000000340100007E
:1001100000000000000000000100000000000000DE
:1001200000000000000000000000000001000000CE
:0C013000000000000800000000000000BB
:10013C003400000000000000000000006801000016
:10014C0000000000000000000100000000000000A2
:10015C00010000000000000000000000080000008A
:04016C00000000008F
:1001700030000000000000000000000098010000B6
:10018000040000000000000001000000FFFFFFFF6E
:10019000FF00000001000000080000000000000057
:1001A0002C0000000000000000000000C40100005E
:1001B000040000000000000001000000FFFFFFFF3E
:0C01C000FFFFFFFF08000000000000002F
:1001CC0034050000E401000099A1011095A701106D
:1001DC00A5C2011009B2011045B8011000000000C1
:0801EC00000000002E000000DD
:1001F40028000000000000000000000014020000BD
:100204000000000000000000FFFFFFFF00000000EE
:080214000800000000000000DA
:10021C00300500003002000069C201106DC10110F0
:10022C001FC2011095BA0110000000000000000070
:04023C00300000008E
:10024000300500005402000075C20110A9B601106B
:100250009DBF011049B60110000000000000000021
:040260003100000069
:1002640024000000000000000000000080020000E4
:100274000000000000000000000000000800000072
:040284000000000076
:10028800240000000000000000000000A40200009C
:10029800000000000000000000000000080000004E
:0402A8000000000052
:1002AC00240000000000000000000000C802000054
:1002BC000000000001000000000000000800000029
:0402CC00000000002E
:1002D000000000008C070020040000000000000067
:1002E000000000002000000070010000300000004D
:1002F0001C02000094070020040000000000000021
:10030000000000000C000000300400001800000095
:10031000400200009C0700200400000000000000D4
:100320000000000024000000480400001800000045
:1003300000000000A40700200400000000000000EE
:100340000000000010000000A00100002C000000D0
:10035000CC010000AC0700200400000000000000F9
:1003600000000000200000006402000024000000E3
:10037000FFFFFFFFB40700200400000000000000A2
:100380000000000028000000880200002400000097
:10039000FFFFFFFFBC07002004000000000000007A
:1003A00000000000580000003C0100003400000084
:1003B000FFFFFFFFC4070020040000000000000052
:1003C00000000000100000006004000018000000A1
:1003D000FFFFFFFFCC07002004000000000000002A
:1003E000000000001C000000AC020000240000001F
:1003F000FFFFFFFFD4070020040000000000000002
:100400000000000038000000F40100002800000097
:10041000FFFFFFFFDC0700200400000000000000D9
:100420000000000054000000000100003C0000003B
:100430001800000000000000000000004004000060
:080440000800000000000000AC
:100448001800000000000000000000005804000030
:08045800080000000000000094
:100460001800000000000000000000007004000000
:0804700008000000000000007C
:08047800010000000C790100F5
:040480000000000078
:040484000100000073
:0404880000000C0064
:04048C0000000D005F
:040490003200000036
:040494000100000063
:040498002807002011
:04049C00000200005A
:0404A0000000000058
:0404A40001CA011078
:0404A8000000000050
:0404AC00000000004C
:0404B0000800000040
:0404B4000000200024
:0404B800000600201A
:0404BC00010000003B
:0404C00040070020D1
:0404C400080000002C
:0404C8000000000030
:0404CC00000000002C
:0404D0000000000028
:0404D4000000000024
:0404D8000000000020
:0404DC00010000001B
:0404E00038060020BA
:0404E400060000000E
:0404E800010000000F
:0404EC00E804002000
:0404F0000000000008
:0404F4000000000004
:0404F80000020000FE
:0404FC0000000000FC
:020500000000F9
:020502002A00CD
:020504000100F4
:020506002500CE
:020508003000C1
:02050A003100BE
:02050C002E00BF
:02050E000100EA
:0105100001E9
:0805140004000000CC78010096
:08051C000000000000000000D7
:0405240000000100D2
:0405280000000300CC
:04052C0087C401106F
:04053000380500008A
:040534003805000086
:0405380000000000BF
:04053C00800000003B
:040540008000000037
:0405440000000000B3
:040548004007002048
:04054C007B330100FC
:040550002000000087
:04055400B878010072
:04055800A076010088
:04055C000DC30110BA
:04056000412B01002A
:04056400432B010024
:0405680099C801101D
:04056C009BC8011017
:040570000000000087
:0405740092C300002E
:040578001C750100ED
:04057C0034750100D1
:0405800004750100FD
:0205840008006D
:0205860009006A
:02058800010070
:02058A0000006F
:01058C00016D
:040590000000000067
:040594000000000063
:04059800000000005F
:04059C00000000005B
:0405A000252A010007
:0405A400692A0100BF
:0405A8000D29010018
:0405AC00972A010089
:0405B00075290100A8
:0405B40029290100F0
:0405B800B529010060
:0405BC00D92A010037
:0405C000F93201000B
:0405C400F734010007
:0405C800FB340100FF
:0405CC000800000023
:0405D0002400000003
:0405D400180000000B
:0405D80028000000F7
:0405DC0020000000FB
:0405E0003C000000DB
:0405E4000C00000007
:0405E80034000000DB
:1005EC00DFF800F0F93A0110DFF800F0C93A011019
:1005FC00DFF8242C808913880021984208D2526895
:10060C000C2303FB00200F220078104218BF01219D
:10061C000846704710B5DFF8002C838952680C240B
:10062C00012904FB032402D1408860800DE00229DB
:10063C0007D141886180001D00F055F828B9207061
:10064C0003E0011D201D00F047F8207840F08000E9
:10065C002070BDE8104006F064BAF8B500F032F92D
:10066C00A0810020217809B30025DFF8AC6B19E0DC
:10067C0071680C2202FB05170F223978114210D138
:10068C0020783870211D60887880381D00F024F89F
:10069C00A581387840F08000387006F042FA358831
:1006AC0001206D1C3188ADB28D42E1D3F2BD38B55D
:1006BC00DFF8644B208068B10C2101FB00F5A8B277
:1006CC00FFF7B6FC606030B1AAB2BDE8384000213B
:1006DC0008F075BC606031BD002918BFFFF780BF02
:1006EC00082208F06CBC002140B10022135C0BB155
:1006FC0001210822521CD2B2082AF7DB08467047A7
:10070C00024601208A4206D022B100291CBF1046A5
:10071C00FFF76ABF002070471FB50C460021ADF8EB
:10072C0002008DF8001000A800F055F801A9204631
:10073C00FFF7D2FF2046FFF7D6FF04B010BD1FB560
:10074C000C4600218DF80010014601A8FFF7C4FFEC
:10075C0000A800F06CF8BDF80200208002F09BFFAE
:10076C0014BF0120002004B010BD38B50546FFF7BA
:10077C003FFF0446012C0BD100F025F82A780178B4
:10078C0082F0FF02114041F08001017006F0C9F9BE
:10079C00204632BD38B505460024287888B1284655
:1007AC00FFF726FF0446012C0BD100F00CF829783A
:1007BC0002780A4205D141F080011143017006F024
:1007CC00B0F9204632BDDFF8500AA98940680C22E6
:1007DC0002FB01007047F8B5044600F077F8628818
:1007EC0000204FF6FE718A42A1811FD00025DFF850
:1007FC00286A17E00C21726869430F278B5C3B4217
:10080C000FD08F1861887A8891420AD1381DFFF772
:10081C006AFF012802D1391D00F059F8A581012089
:10082C0035886D1C3188ADB28D42E3D3F2BD2DE914
:10083C00F04100F047F86080A0814FF00008201DC7
:10084C00FFF751FF01281BD10026DFF8CC7913E00C
:10085C000C20796870430F23425C1A420BD0451868
:10086C00291D201DFFF7C0FE28B16888A681608075
:10087C004FF001083E88761C3888B6B28642E7D322
:10088C004046BDE8F08170B500F01CF8608000F0C7
:10089C001DF82046FFF7ACFE0546012D10D1DFF800
:1008AC007809A18940680C2202FB010670886080DF
:1008BC00301DFFF718FF012802D1311D00F007F899
:1008CC00284670BD04464FF6FE7070470021201D6F
:1008DC0002E72DE9F041044688B04FF6FE75A5817C
:1008EC0000268DF80060211D01A8FFF7F5FE00A879
:1008FC00FFF79DFF002701284FF0010808D1BDF834
:10090C000C006188A081BDF8020088423DD000AE89
:10091C008DF810706088ADF8120004A8FFF75BFF2B
:10092C00012808BF04AF3EB1B089A0810121204647
:10093C00FFF770FE4FB30BE0C7B1B889A081381D2B
:10094C00FFF7D1FE012807D12046FFF786FE80462F
:10095C007D800221384606E0201DFFF7C4FE0128E9
:10096C0013D103212046FFF755FE0EE06088A84204
:10097C0007D1201DFFF7B7FE012818BF4FF0000864
:10098C0003D12046FFF769FE80462046FFF702FFA1
:10099C00404602F02FB970B582B000F049F80DE076
:1009AC0068680C2101FB0406009600F02BF808F097
:1009BC000AFF10B93078C0433070641CA4B2288888
:1009CC008442EDD373BD30B585B000F031F812E040
:1009DC0068680C2101FB040001780A060AD511F0A5
:1009EC007F01017002D100F03AF801A800F009F87B
:1009FC0008F0BAFE641C2888A4B28442E8D305B07F
:100A0C0030BD00900C23002221460120704738B5E0
:100A1C0000F00EF806E000230C222146012008F01D
:100A2C005BFE641C2888A4B28442F4D3002032BD3F
:100A3C000024DFF8E457704730B585B000F00FF8AC
:100A4C00FFF7F6FF05E001A8FFF7DBFF08F08CFECF
:100A5C00641C2888A4B28442F5D305B030BD0C22A6
:100A6C00FF2101A808F0ABBA80B508F037FFDFF81A
:100A7C00D00C0FF27911C1610FF2A91101620FF2C2
:100A8C00492141620FF26121816201BD10B5DFF88D
:100A9C00B04C00216170207004F17400DFF8041D6B
:100AAC00FFF79EFDDFF8000D0078A070DFF81C0D3D
:100ABC00A06110BD2DE9F04F0D46280485B0DFF87C
:100ACC00806C4CD5307808F039FB5FEA000B43D0D2
:100ADC000BF114040BF10209A07A002804BFE08981
:100AEC00132815D1B9F800A0F06B002702E0FFF72E
:100AFC00ACFA404660B102884168524505D1002FDE
:100B0C00884614BF7960F163F1E707460846F1E7C0
:100B1C00617F484600F0E5FAD8B99BF8000001283F
:100B2C0012D1607903900BF11003206802904946B2
:100B3C0099F811000190207900900BF11C00B9F884
:100B4C000A200AF06CF804E0022804BF584601F0B1
:100B5C00DCFC584608F084FA85F4004014E0A80741
:100B6C0004D50120F07085F002000DE028070AD5AD
:100B7C0000F070FA20B93064082130780AF076FD64
:100B8C0085F0080000E0002005B0BDE8F08F38B516
:100B9C0004466068007D1030C0B208F04FFA0500C2
:100BAC0022D0022028700020687020886881A078EC
:100BBC0028736068007D287205F110006860606819
:100BCC00007810F0200118BF012169726068027D65
:100BDC000169686808F0DBF92946BDE83440DFF8A4
:100BEC00600B007808F04BBA31BD000038B50C46EC
:100BFC0011461A4608F053FF050011D0214608F0A3
:100C0C000FFF68B12146284608F01BFF30B96C88ED
:100C1C00284608F0FEFE204608F0DDFF002032BD1D
:100C2C00B42032BD2DE9FE4381460D46B3264FF06C
:100C3C000008002700E07F1CDFF8F40C0078FFB2FE
:100C4C0087423ED2384609F074F80400F3D060793C
:100C5C0040445FFA80F8C145EDDA1822002128469D
:100C6C0008F0ADF96179A9EB08000818C0B204EBE3
:100C7C004000C088688103F0F5FD01462846FFF767
:100C8C00AFFC6078012802D12875608813E0608879
:100C9C0000A908F0D2FF78B19DF8080028759DF8DE
:100CAC000800032805D100A905F10C00FFF798FCFA
:100CBC0002E0BDF80000A881207828720026207977
:100CCC00A8753046BDE8FE83428913070BD5920701
:100CDC0008D5427B062A18BFE92903D0CD2918BFB5
:100CEC00F02900D135E170472DE9FD4F0E46F18812
:100CFC00F07884B008F035FF5FEA00084FF0000B85
:100D0C0072D0317DC0B204F0A6FB04006CD0F18827
:100D1C00F078002208F03EFF0546F0786071D94665
:100D2C00F088E080B07D608184F808B0327D316954
:100D3C00E06808F02CF91398608214982075DDF89F
:100D4C0044A034E0688808F08BFF788028793871EB
:100D5C003178490603D5B97941F00201B971BBF17B
:100D6C00000F01BF7988DFF8CC2BD28A914214D1C5
:100D7C00B07000200390CDF804A01298059B049944
:100D8C00029000200090DFF8AC0B828C304601F012
:100D9C00EEFCB87940F00500B87109F10107F18853
:100DAC00F078FAB208F0F6FE05465FFA87F97DB1E5
:100DBC00C1450DDA04EBC90000F1160700203870AC
:100DCC0068780128BED138704FF0010B6888BCE7F9
:100DDC00204604F055FB0094109A9DF818105346C9
:100DEC00304600F013F80FE0F0788DF80300B8F1FE
:100DFC00000FB07D8DF804000CBFB92010208DF8C9
:100E0C00050000A801F0AEFC04F081BC2DE9FE4FFA
:100E1C0086B00446129D284604F0E8FA0646284699
:100E2C0004F002FB002E00F08B804FF00008DFF87E
:100E3C00049B01E008F10108287C5FFA88F88045E2
:100E4C007AD2F6B2002E77D005EBC80000F1160767
:100E5C00B879C007EED49DF820004FF0000B4FF08E
:100E6C00080A08B14FF0200B0C22002100A808F052
:100E7C00A6F83878A8B199F868107888012908D1B3
:100E8C00ADF800004BF0080BFF2041F2080A387156
:100E9C0011E0A0804BF00C0B4FF00C0A4FF6FF70DA
:100EAC0007E09DF8180018B14BF0400B4FF00A0A00
:100EBC007888ADF800008DF802B0207D00F042F883
:100ECC0001F043FB9DF8140048BB0398407D7871FA
:100EDC000398A0F816A09DF81C104176387818B12C
:100EEC00039999F8680008770398698920F8281FF6
:100EFC00698A4180297D01710399687981F83A00EA
:100F0C000399387900F000FE0398A1888187227D2F
:100F1C002169406C08F03BF800A801F07DFBB87922
:100F2C0040F00100B8719DF8141000290EBF761E18
:100F3C0040F00800B8717DE70021284600F04BF81E
:100F4C0004F0E2BB8DF8040001208DF8050000A828
:100F5C007047F0B5044689B0207B0F4604F0E1FAE7
:100F6C00060023D065691FBB217B042204F0EFFA35
:100F7C00E5B1A888ADF80E00E888ADF81000287A25
:100F8C008DF81C00F068069000208DF81D0020687C
:100F9C00006A00788209287800F0200300F04001F4
:100FAC0008BF0422009602A8FFF730FF09B0F0BD7D
:100FBC00217B082204F0CBFA0028D9D0002DF5D0E3
:100FCC0001977189C9B20091037942880178A87898
:100FDC0009F007FECDE77CB501220123002402E0D5
:100FEC000023641CE4B2057CAC420BDA00EBC405B4
:100FFC002D7FEE07F4D50C263542F1D06D07F0D5D8
:10100C000022EEE7047A7CB90BB901290CD101213D
:10101C00017241798DF8031040898DF804008DF828
:10102C00052000A801F09EFB73BD0121D3E7DFF87A
:10103C0010170B7820B10022CA700221024603E07F
:10104C000120C870022102E018460AF0E4BA1846E2
:10105C000AF00CBB2DE9F843DFF8D808DFF8E0669E
:10106C00807B00250024F76B00074FF0010920D48A
:10107C000AF0A3FB316C421ADFF8281D0B889A4248
:10108C0038BF01202BD3DFF8201D0978B2FBF3F811
:10109C001FFA88F8414534BF89465FFA88F903FB8B
:1010AC00182189B2401A306403E03846FEF7CDFFB0
:1010BC0047469FB1F8788145B4BFA0EB09000020EA
:1010CC00F870F978786829B9002C804614BF6060F4
:1010DC00F063EAE73C466D1C0746EAE7A8B2BDE8B8
:1010EC00F283F8B5DFF85846027AE56B0E46022A11
:1010FC00294646D1078800E0496859B10888B842AA
:10110C0004BF8878B042F7D1DFF89C0C0078C87027
:10111C000120F2BD002035B1012001E0401C0D463C
:10112C0069680029FAD1DFF8E81C098880B2884286
:10113C0027D20820FEF77CFF18B307808670DFF8F3
:10114C00681CDFF8F0670978C17000214160E16B21
:10115C0009B1686006E0E063B07B000702D40AF0D6
:10116C002CFB2064B07B00070BD5207808210AF0FB
:10117C0093FA30B9DFF82C0C0288207808210AF099
:10118C0059FA0020F2BDDFF8B81508710FF28D0086
:10119C0008630FF2692048630FF2ED4088637047D3
:1011AC0038B504000D4608BFFEF76EFFDFF890055A
:1011BC00416C11B9446404E00146C8680028FBD1B5
:1011CC00CC600020E060A57131BD10B5DFF8703542
:1011DC005B6C00E0DB684BB1DC79844201BF9C881E
:1011EC008C429C799442F5D1184610BD002010BD5C
:1011FC0010B5DFF84C154C6CA04203D1E4684C647C
:10120C0006E00C4624B1E1688142FAD1C168E16084
:10121C00FEF71BFF204610BDC0440020FEB506465D
:10122C00307A002818BF01280BD0308803F09EFDBF
:10123C0038B9307A032806D101A9304600F038FEBF
:10124C0020B90220FEBD3088ADF80400708A44300D
:10125C0080B2FEF7EDFE04005ED04422002107F0C0
:10126C00AEFEB07ADFF8D85400A909F024FF04F1DF
:10127C0034079DF80000B87101219DF801007871C8
:10128C002046FFF78DFF2422314604F1100007F0B1
:10129C007EFE04F14400F860708A3881728A7169AC
:1012AC00F86807F074FEBDF80400A0806878E0715F
:1012BC00401C68700AF081FA2080FF2097F9051015
:1012CC008840F870F878B87000208DF80800307EEF
:1012DC0010F0010118BF01218DF8091002A809F0C6
:1012EC00A6FE801E38703978388990FBF1F0207298
:1012FC003978388990FBF1F201FB120010B1207A99
:10130C00401C20720121208D40F008002085287996
:10131C0007F0D6FF0020FEBD1020FEBD70B50446C0
:10132C000AF04BFA208004F12A03DFF8D01C987BDA
:10133C000978884258D2197BFF2903D1401C987335
:10134C00587B1873D97A1A7B002001E0401CC0B27C
:10135C00DD7BA8420BDA82F0FF0525FA00F6F507D3
:10136C00F4D54118012505FA00F0104318739D7A45
:10137C00588AC9B205FB110292B2AA420ED3187B4D
:10138C00FF282A460CD0187C6080208D91B940F043
:10139C0020002085207A1871206C14E0FF2018732F
:1013AC00DFF89005DFF8585C00792D7868436425E8
:1013BC006843E9E74FF6DF75284020851971206CEA
:1013CC009D7A05FB01006062D2B2E079D87062842C
:1013DC00DB48826C100002D00846904768B904F1D3
:1013EC001000BDE87040E1E31978A07EE92209F015
:1013FC00E5FB2046BDE87040FAE670BDF8B5044642
:10140C001646607D0122FFF7E0FE050036D0002E67
:10141C0001BFE07D05F12A06F17A88422ED1AF1C7E
:10142C00F37BBA79217E181890420ADBFF2908D188
:10143C003178387E002209F0C1FB2846BDE8F24025
:10144C00D6E6FF290BD1FF2098403073307BF17B1F
:10145C007073F07A0818F0720020B07302E07173A8
:10146C00207E30730AF0A9F928800121307C388065
:10147C00BDE8F440B248007907F022BFF1BD2DE978
:10148C00F047044682B0A078884691469A4609F007
:10149C00B2FD05005FD01C20FEF7CAFD070059D035
:1014AC001C22002107F08BFDA07800A909F003FE97
:1014BC009DF80100387502213846FFF771FEB8F827
:1014CC00000097F91410B880607DF871FF208840F7
:1014DC007874686800783874207DB874E17D48436E
:1014EC00303080B207F0AAFD0500BD612ED01A2065
:1014FC002870AE1C0020687030804146E0887080F7
:10150C00A81D09F0C8FDE0787073DFF82804808C02
:10151C00F08105F11C00618B018261893182A17817
:10152C00B174217BF17499F80010317599F80110A0
:10153C00717599F80210B17586F817A00A990160B7
:10154C0005F13001C160A17D017203E03846FFF75F
:10155C004FFE00273846BDE8F6872DE9F84FDFF837
:10156C00E0B188460546DBF84810EC7D0027080002
:10157C0091469A4604D020468847002840F0828045
:10158C00B8F80010687D0222FFF71FFE060012D18A
:10159C006878C00776D50A98009053464A4641466B
:1015AC002846FFF76CFF06006CD0347201219BF8C3
:1015BC00040007F085FE307A401E8442307C08BF60
:1015CC000127FF284BD06878F17CC007307D48BFDD
:1015DC000024421894424FF0FF0904DB4118F174C7
:1015EC0009FA00F07074B069B37C806A2A7D2969AD
:1015FC0003FB040007F0CBFC307D727C94FBF0F114
:10160C00012300FB114C03FA0CF31A437274AFB1B3
:10161C0000FB1140401C09FA00F010437074B169D2
:10162C00B07C2A7D04FB0020C884707CFF2805D187
:10163C00307C07F024FD86F8109010E00AF0BDF81D
:10164C003080DFF8BC19BB48097800794843DFF8D3
:10165C00AC19097801FB0000642148437080F07CD0
:10166C00317D0918491E8C421CBF717CFF2900D0AA
:10167C0047B1E8752946707C2876B8F80000BDE8BB
:10168C00F44FFFE1BDE8F18F01462D48007907F0DA
:10169C00F6BCF8B50C462004294D19D4E0074DD5FD
:1016AC006E6C0AF08AF84FF6FF7180B20A461FE0A2
:1016BC003078012809D17069009006F11002F37C92
:1016CC00B11C06F11C00FFF748FF304607F0C8FCC0
:1016DC00287907F033FD0600EAD184F40040F2BD0E
:1016EC00A7EB0C039342F668BCBFA7EB0C0292B2BB
:1016FC00DEB133887788C31A1FFA83FCBC45EFDB55
:10170C00B079022809D1307CFF281CBFB06907F0E2
:10171C00A7FC3046FFF76CFD02E03046FFF7FEFDFC
:10172C002879012107F0CCFD05E08A4203D0287905
:10173C00012109F070FF84F00100F2BD0020F2BD20
:10174C00BC02002070B50D460446298800F02EF826
:10175C0008B1B82070BD00F09DF8DFF8581C09786E
:10176C00884201D3B22070BD1820FEF761FC060040
:10177C0001D1102070BD0020306034711222294636
:10178C00B01D07F004FCDFF8300C016811B90660DD
:10179C0004E0014608680028FBD10E6000F09DF8BB
:1017AC00002070BD7844002021080020DFF8082CB0
:1017BC00126842B11379834212BFFF28D3888B423F
:1017CC00F6D1901D70470020704700007044002037
:1017DC0010B5DFF8E42B1468FE290CBF012300239D
:1017EC0003E0914208BF012324683CB1E2888242A5
:1017FC00FAD12279002BF4D0104610BDFE2010BD7A
:10180C0010B50022DFF8B03B07E01C79844204D10C
:10181C00DC88D2B221F81240521C1B68002BF4D188
:10182C00D0B210BD38B5DFF8903B1A68002401E047
:10183C00144612688AB11579854204BFD5888D4249
:10184C00F6D11068002C0CBF186020601046FEF713
:10185C00FCFB00F042F8012032BD002032BDF8B58F
:10186C00DFF8545B04462868002603E00768FEF79F
:10187C00ECFB384658B102790168A24204D1002E23
:10188C000CBF29603160F1E706460846F2E7BDE877
:10189C00F14022E00020DFF8201B00E0401C09682A
:1018AC000029FBD1C0B2704710B5DFF8080B0078E7
:1018BC0014214843811C002289B2422007F037FFD3
:1018CC00040018BF00F002F8204610BD80B501F0EE
:1018DC00C3F8422007F071FF01BD10B586B000209F
:1018EC00ADF80000DFF8D00A046815E020798DF817
:1018FC0004001222A11D0DF1060007F048FBBDF8F3
:10190C00000014225043811C01AB89B2422007F025
:10191C0054FF01F0A8F82468002CE7D100AB022298
:10192C000021422007F049FF06B010BD0000000066
:10193C00EC750100D43F002030B587B000AB02221B
:10194C000021422007F086FF0024C8B9002512E0D0
:10195C0014206843811C01AB142289B2422007F089
:10196C0079FF38B99DF804000DF10601FFF7EAFE86
:10197C0000B9641C6D1CBDF80000ADB28542E7D304
:10198C00A0B207B030BD10B500228A70CA70002317
:10199C00027F0A75826A4B738B80838D4B83C3895C
:1019AC004B8112F8013B0B7003F00304032C65DA36
:1019BC00002C18BF022C33D103F00C040C2C08D0D3
:1019CC00DB065CBF12F8013B8B70082C08BF0123AF
:1019DC0000D000230C2C0B7306D11378547803EB36
:1019EC0004238B80921C0AE0437903F00303012B40
:1019FC0005D10B7843F00C030B7043898B800B786B
:101A0C00DB060DD41378547803EB0423CB8012F847
:101A1C00023F547803EB04230B819378CB70D21CD8
:101A2C0012F8013B4B750B781B0618D512F8013BCD
:101A3C004B70FC24234221D103F00304032C1DD052
:101A4C00032423420DD012F8013BCB750B7803F025
:101A5C000303022B05D112F8013B0B7601E00023A6
:101A6C004B700A610B7D9A1A836A9A180A75037F68
:101A7C009B1A4B73D2B2007F904202D20020487363
:101A8C00087510BD70B50C4686B00546207800F080
:101A9C000C01020648BF41F0800141F0020600F043
:101AAC000301012908BF46F01006800648BF46F026
:101ABC0020060C22002100A807F081FA8DF80260A4
:101ACC0060788DF80300ADF80050FFF73DFA00F098
:101ADC003CFD9DF81400A8B90399012048760399A0
:101AEC00A07881F83A000399E07800F00DF803999A
:101AFC00207E81F84C000399E07D81F84B0000A812
:101B0C0000F08AFD06B070BD81F83B000398E188B7
:101B1C0020F83E1F21894180617DC17270470246C9
:101B2C000020537B042B00D0704730B5137CDBB9FD
:101B3C005269CAB113780324234201BF4B68547B0A
:101B4C005D7DAC4210D1548909888C4202BF9188CA
:101B5C00DC88A14208D191789A7891421DBF1978FE
:101B6C0001F00C010429012030BD1CB503460846C8
:101B7C0003224178114208D0DFF8981A4C6B2100EF
:101B8C0013D000221946A04713BD0190ADF80030C8
:101B9C0000A9DFF8F00A02F022FB30B106214173F4
:101BAC0000210068407B01F07AFD13BD2DE9F04364
:101BBC000446DFF8608AE57A98F8030087B008B924
:101BCC00BA20ECE000F045FC01278DF805700026EA
:101BDC00207E400709D59DF8020040F040008DF8AA
:101BEC000200207E000758BF0327208BC10648BF88
:101BFC0047F04007000710D59DF8020040F0C000E8
:101C0C008DF80200217E9DF8030089064CBF40F040
:101C1C00010040F002008DF80300208B217ADFF8E0
:101C2C00689A00F4C070B0F5C07F08BF47F0080791
:101C3C0051B9B9F81600ADF800009DF8020040F05B
:101C4C0004008DF8020031E09DF802200F2942F0CB
:101C5C00080347F0040006D18DF8023007462188AE
:101C6C00ADF8001022E0022902D100F00FFD1DE0BA
:101C7C00032904D100A9204600F01AF916E0012925
:101C8C0014D199F8681039B18DF8023047F48057A7
:101C9C0000F0FCFCFF2508E042F00C018DF802106E
:101CAC0007464FF6FD71ADF800102688207EC00760
:101CBC001DD59DF802000C2108420BD1208806F09E
:101CCC0000FE08B9BB206AE09DF8020040F020003D
:101CDC008DF80200207EC00709D59DF8020000F0A7
:101CEC000C01042904BF40F020008DF80200608A2A
:101CFC008DF8040000A800F028FC9DF814000028C2
:101D0C004BD10398C782E17E41760399207F887678
:101D1C00207A012803D1039999F868000877039871
:101D2C00A17E20F8281F218B4180E17F0171208B3F
:101D3C0000F4C070B0F5C07F05D10398417D94F8D4
:101D4C00200003F019FC0399A07A81F83A0003985B
:101D5C0080F83B50039820F83C6FE1894180218A40
:101D6C008180A17E81730399A07F81F84B00039938
:101D7C00607F81F849000398628A6169406C07F0C2
:101D8C0006F9207E400605D5D8F84C1008001CBF7B
:101D9C0000A8884700A800F03FFC9DF8140007B08D
:101DAC00BDE8F0830E0800202308002010B5007851
:101DBC00632420B1052009F079FFC0F15604DFF847
:101DCC00C808007B20B109F071FF201AA0F10E04A5
:101DDC00E0B210BD13B511461A46DFF840391C6845
:101DEC00230008D001AB00930123A04708B10020C9
:101DFC0016BDB22016BDB62016BD38B5DFF8144896
:101E0C00E469250001D0A04732BDB62032BD0000E8
:101E1C001008002038B50346B5200C46A22B1546F9
:101E2C00DFF8F0170CD0A32B02D0AB2B10D032BDA7
:101E3C00DFF8001909680A000FD0884728800BE0EA
:101E4C000A6A110009D029462046BDE838401047DF
:101E5C0089692846FEF7C4FB002032BD0146B52037
:101E6C00AB2900D0704780B5DFF8A8078069114610
:101E7C00FEF7B6FB002002BD38B50C46DFF808189B
:101E8C00CA8A0125824206D102F0ECFC01462046AA
:101E9C00FEF7A6FB0AE0498B814203D1204602F0F3
:101EAC00F5FC03E02146FEF737FC0546284632BD1B
:101EBC0070B504460D4602F0D5FC01462046FEF7EF
:101ECC0093FB012618B102F0F3FF288004E02946A9
:101EDC002046FEF734FC0646304670BD10B504466D
:101EEC000E20FEF7A5F8A8B104F138010A780270AB
:101EFC004A7842708A788270CA78C270CA888280A6
:101F0C000A89C2808A7A02728A7C02736288428150
:101F1C00497C417310BD10B50C4682B0217F052958
:101F2C0004D104F10801FFF7A7FF38B300A904F1AD
:101F3C00080006F0EEFCBDF80000E8B1207801289E
:101F4C0015D1BDF80010DFF800080C2202FB0100CF
:101F5C00DFF8B4180818A1690268914205D3BDF8DE
:101F6C0000206282491C016004E0A22016BDBDF86D
:101F7C0000006082002016BDA12016BDC82016BD31
:101F8C0038B505460C4600206082A06910F1010F9F
:101F9C0032D0207C012810D1DFF8EC16CA7AB3209D
:101FAC00002A04BF91F84110012926D1207D09F0A7
:101FBC0077FD6082F0B1002032BD48B92846FFF7AA
:101FCC00AAFFD0B1616809780322114206D132BD53
:101FDC00022809D12846FFF79EFF70B121462846FA
:101FEC00BDE8344006F0E1BD032803D12846BDE826
:101FFC00344090E7A12032BDA32032BD1F08002041
:10200C00200800203EB5044600202569688201A9FD
:10201C002088FFF731FF90B300A901A806F079FCE6
:10202C00BDF8000058B3BDF80020DFF81C17DFF82E
:10203C00DC370C2000FB02129A1800232B74BDF81D
:10204C0000306B821368AB614FF47A7513685B1CBC
:10205C0013604FF47A72B3FBF2F205FB123272B9D1
:10206C00BDF8002000FB0210DFF8A41701220A546F
:10207C004FF40061DFF89C07007807F021F9206924
:10208C0000F108012088FFF7F7FE2069418AD9B9D1
:10209C00DFF88055A9690830FEF7A6FA48B902F0B6
:1020AC00E1FB0146A869FEF79FFA10B900F044FB6A
:1020BC0050B12169208806F0C1FD10B121690020C2
:1020CC0048820020216908742569688A30BBDFF8D2
:1020DC00B805C17A002904BF90F84100012818D135
:1020EC003A230DF102020121002003F067F970B9C7
:1020FC00012028749DF8020028753A206882DFF8C8
:10210C00C8070168A9610168491C016001E0002051
:10211C0068822069408A08B9A120207537BD10B5A6
:10212C0004462020FDF784FF0028206133D0204690
:10213C00FFF768FF2069418A41B3017C012902D174
:10214C000E21017710E0A16849B9DFF8C81489693C
:10215C000830FEF749FA10B900F0EEFA08B10D207C
:10216C0000E0052021690877A178206901F00301BE
:10217C0001290EBF0521DFF81015097B417020697C
:10218C00407809F093FD2169487710BDFDF75DFF9C
:10219C000020206110BD1020207510BDF8B505463B
:1021AC000E462020FDF744FF040040D0DFF8D87421
:1021BC00708BF98A88420CBF022001202070717B41
:1021CC003069401A6060707BA070204609F009FBF2
:1021DC00307800F0030001280CBF0520387B6070BC
:1021EC00607809F063FD6077217F306908183061F1
:1021FC00217F307D401A617F401A3075E070214696
:10220C002846FFF7BDFE05462078022806D102F0CD
:10221C0029FB014604F10800FEF7E2F91DB920463E
:10222C0009F032FB05462046FDF70FFF00E01025B4
:10223C002846F2BD10B50446E06810F8381F01F0CE
:10224C000301012902BF21690A7C002A02BFC06870
:10225C000278052A06D14078012816BF06280220EC
:10226C0003200874002021690870E068216990F847
:10227C0048008870E068216990F84200C870E068F6
:10228C0021690069486002F0EDFA014620690830C6
:10229C00FEF7A6F9206909F0F7FA207510BD0120A8
:1022AC007047DFF83006DFF830160160DFF82C16C7
:1022BC004160DFF82C168160DFF82816C16070478A
:1022CC0070B5C26892F83810126911F0030418BF87
:1022DC00022C02F8011B39D111F00C0318BF082B8A
:1022EC0001F0100504D0042B07D1022C00D18DB9BC
:1022FC00C66896F83B6002F8016B0C2B08D1C668D7
:10230C00B68F02F8016BC668B68F360A02F8016BFD
:10231C00022C00D1D5B9C468E48F02F8014BC46813
:10232C00E48F240A00F04AF800F048F8240A002B45
:10233C0018BF082B02F8014B03D00C2B18BF042B31
:10234C0004D1C36893F83A3002F8013B0326C36802
:10235C0003F12A0401F00203E57B354208BF002B90
:10236C0002D125782D0603D5E47F02F8014B08E055
:10237C00DFF8A0526E78E6776C7802F8014B641C9B
:10238C006C70090614D5C16891F8391002F8011B5C
:10239C000325C16811F8394F2C421EBF897C02F805
:1023AC00011B002B04D0C06890F84C0002F8010B04
:1023BC0070BD0000ED7501000845002002F8014BCE
:1023CC00C468B4F84040704730B50268917801F0A9
:1023DC0003030124002B18BF022B20D111F00C0594
:1023EC000BD0082D08BF02240BD0042D06D1022BD4
:1023FC0001D1CB0607D4062410E002240C2D08BF13
:10240C00A41C022B01D1CB0609D4241D002D18BF0E
:10241C00082D03D00C2D18BF042D00D1641C0B0605
:10242C0004710CD503795B1C03710324D27822420E
:10243C0005D05A1C0271890744BF511C01710179E6
:10244C00491C017130BD0069002818BFFDF7FDBDA6
:10245C0070470C22002100A806F0B1BD00B585B074
:10246C0000F03BF8416849788DF802104168891CEE
:10247C0001919DF80210042905D141681231029195
:10248C0040681A300CE0012918BF06290AD14168AE
:10249C00897C8DF8031041681331029140681B3020
:1024AC00039008E0002102914168123103914068C9
:1024BC00807E8DF81000029850B1FEF714F90128B7
:1024CC0006D102F0CFF901460298FEF78DF810B153
:1024DC0000A800F0A1F905B000BD4189ADF80010CD
:1024EC00704780B5FFF7F9FF406840788DF802001F
:1024FC0000A800F0BCF901BD41680978052902D09B
:10250C00092901D07047A9E7EBE7DFF84015DFF8A0
:10251C00402509781278114304BF417A002905D16E
:10252C0041680978062918BF07290DD0017B39B9F4
:10253C004168097805291CBF4FF49A7007F04ABF0F
:10254C00DFF8101509680847704710B584B00446C9
:10255C0001940020E060019908610199087501A8B7
:10256C00FFF732FF019848490088C98A884211D088
:10257C000198807880060DD5DFF85813019809680A
:10258C0088470198006928B901980199807800F072
:10259C00DF008870207D00283AD150208DF8000093
:1025AC009DF80810207908188DF8010060798DF8D5
:1025BC000200206938B1027F407F9DF8011080181D
:1025CC0040188DF8010000A800F089FAD8B12188D4
:1025DC004180012200F110014A7200F13802A37807
:1025EC001370E37853702379937209689DF808305F
:1025FC0013745918D160216919B1D368097FC918AE
:10260C00D160E0601FBD2046FFF71DFF1020207534
:10261C001FBD0000BC02002010B50446207D88B907
:10262C002046FFF74DFE206908B100F00FF8E06876
:10263C00217D19B900F026FA207503E0FDF705FDA0
:10264C000020E0602046BDE81040FCE6DFF8841274
:10265C0049682046084738B50D460B49C98A0446D7
:10266C00688B884205D0204606F02BF908B901206A
:10267C0032BD29462046BDE83840DFF85822D268E2
:10268C00104700002B1B0000D43F00202088ADF821
:10269C00000070479DF8140006B010BD10B586B050
:1026AC0000F032F86078012818BF042822D10220EB
:1026BC008DF804009DF81400D8B92078ADF800000E
:1026CC0021208DF80200FEF73FFCFFF73EFF9DF83E
:1026DC00140070B90398406C082101706178417046
:1026EC006178022903D16168801CFDF779FF00F045
:1026FC0009F8CFE7022808BF0A20D9D0B3208DF8FB
:10270C001400F6E700A887E7044600208DF81400B3
:10271C000C22002100A806F052BC0000C842002088
:10272C0080B5FFF7BEFDDFF82C13DFF8440408601A
:10273C0001BD0000CC420020DFF83804806908227B
:10274C00FF2106F0A8BF000078420020406940B18C
:10275C00427803231A4204D10A46017B807808F0A0
:10276C002DBA704742790179C07808F027BA2DE963
:10277C00F04105468846287D383017461E46C0B2C3
:10278C0006F05CFC04003DD0012020701C22294680
:10279C0004F11C0006F0FBFB0A224146A01C06F0CB
:1027AC00F6FBA78130782074B078A07470786074D0
:1027BC000798E0740020E062089860610698207623
:1027CC006889E08109986076287D30B104F1380081
:1027DC00E0622A7D296906F0DAFB617FDFF8940359
:1027EC00032211420AD0816B080020461CBFBDE8B1
:1027FC00F0410847BDE8F04106F032BC2146BDE887
:10280C00F04131E0BDE8F081F8E7FFFFF4E7FFFFAE
:10281C00FCE7FFFF4804002038B50446202006F0F2
:10282C000DFC050016D0042028701022208868802A
:10283C00A0782871E0786871A81D00F00DF8E168A7
:10284C0005F11600FDF748FF207CA8772946607C2F
:10285C00E87705E031BD281D616806F098BB294674
:10286C00BDE83440DFF88803007806F008BC10B5EA
:10287C000446062006F0E2FB68B1082101702188AD
:10288C004180A17801710146DFF864030078BDE84E
:10289C00104006F0F4BB10BD30B5002200232425F7
:1028AC0009E0DFF8684305FB03442479844224BF24
:1028BC00A142521C5B1CDFF850432478A342F0DB8E
:1028CC00D0B230BD00000000A44400200221012041
:1028DC00E2E70000044400202B210000412200000C
:1028EC00AB220000A9210000F0B504460D464FF6BE
:1028FC00F870854285B000DB1CB3002708E04FF66A
:10290C00FF70854202D03088854218D07F1CFFB200
:10291C0001F04EFA874214DA00F0ABF801FB07061F
:10292C003079FF28F2D0002CE9D000F086F800288E
:10293C00ECD001A92046FDF757FE0028E6D0304622
:10294C0000E0002005B0F0BDF0B5DFF8BC22DFF8E8
:10295C00BC52137824244FF6FE72904208BF002616
:10296C0019D0002600E03E469E4214DA771C6643DE
:10297C0006EB050CFFB29CF804C0BCF1FF0FF2D0C3
:10298C00765B8642EFD13E4605E0012818BF03284E
:10299C000DD0761CF6B29E420BDA04FB06F77819C2
:1029AC0000290079F1D00028F3D00528F1DA785B02
:1029BC00F0BD1046F0BD0121C6E72DE9F0410446FB
:1029CC000421FFF784FF050013D0680080B2FDF7E7
:1029DC002FFB06000BD04FF6FE7837464046FFF72C
:1029EC00EAFF404518BF27F8020BF8D102E000259A
:1029FC0000E00026257001F024BB002201E0401EFF
:102A0C00521CDFF804120978D2B28A420CD2DFF8D9
:102A1C00FC11242303FB02110B79052BF0DA80B295
:102A2C000028ECD1084670470020704705B0BDE87F
:102A3C00F08301208DF80000704701208DF8000014
:102A4C007088ADF80C0000A8FDF71DBF240800200D
:102A5C001D4500200C4500200020ADF8000000AB07
:102A6C00022200217047BDF80000401CADF80000A8
:102A7C007047664824217047DFF83018DFF83008BB
:102A8C00C860704738B50446DFF8500A017C082945
:102A9C0018BF042908D0217801F00301012902BFD5
:102AAC0021690978062913D161884FF6FE7291428B
:102ABC000ED00088814204BF207F002803D020461E
:102ACC0001F016FC02E0204601F09EFC054600E0F9
:102ADC00C2252046FDF7B9FA284632BD000038B5AC
:102AEC00044620786178081880B2FDF7A1FA050039
:102AFC0013D02278002106F062FA4FF6FE7068803F
:102B0C0002F0D6F9A88020784019286160782875E1
:102B1C0001F0C0FE6875A0782876284632BD70B5E5
:102B2C00DFF83447054694F82600042814BF08281B
:102B3C00C22088B00E4618D004F1280005608671BA
:102B4C0000F01AF801208DF8040000208DF8070021
:102B5C00022084F826000020DFF8A01300950870EE
:102B6C008DF8056000A809F034F908B070BD0000BC
:102B7C0005250000BC0200201C22002100A806F044
:102B8C001EBA30B5DFF8D0560446686F87B0F0B97E
:102B9C000820FDF74DFA6867B8B1216801601C2266
:102BAC0021790171696F60794871696FA0798871B9
:102BBC00FFF7E3FF2068009020798DF8050060791D
:102BCC008DF8040000F019F802E0102000E001205C
:102BDC0007B030BD10B5DFF88046606F18B1FDF757
:102BEC0034FA00206067BDE8104001F01DB9000008
:102BFC004804002008B0BDE8F08100208DF80700E3
:102C0C0000A809F0E6B8000098750100A02C00207F
:102C1C00F0B50F46DFF84016012689B0044681F85E
:102C2C0026601C22002101A806F0C9F9002503200A
:102C3C0001948DF809708DF808008DF80B50344212
:102C4C0018BF6D1C7600FAD100A95A2009F09CF827
:102C5C009DF80000EDB268434FF4904148434FF4A7
:102C6C007A71B0FBF1F4DFF8380BDFF89C5A00886E
:102C7C00E8814FF48061287A08F0F8FC287A224623
:102C8C004FF4806108F0C7FC01A809F0A2F809B064
:102C9C00F0BD0000012200E000222DE9F843DFF82E
:102CAC00B89509F10E060C469046F18A0546224667
:102CBC0001F084F8070008BFCA2079D0388900F0E9
:102CCC00EAFC08BFC32073D03189884208BFC220F8
:102CDC006ED03888F18A814218BFF082F08A02F0F7
:102CEC0052FAF87A401C89F83800294609F1390063
:102CFC00FDF776FC02208DF8010000A802F013F815
:102D0C0005004ED0286906210170317841700120F0
:102D1C00A87701F0A7FD68620120A8764020E88220
:102D2C003889688085F818802846FFF7ABFE5FEA83
:102D3C00000838D10920307609F11A013889DFF8FA
:102D4C000C5BB081B07AA04218BFB4724B2009F072
:102D5C002AF809F12401502009F025F809F118018D
:102D6C00E12009F020F809F11601532009F01BF8B5
:102D7C00DFF82C0ADFF890490188E18101212A88CB
:102D8C000280207A08F056FC207A4FF4806108F01B
:102D9C006DFC28888200207A4FF4806108F03BFC9F
:102DAC0001E04FF01008DFF8A81A00200870404628
:102DBC00BDE8F2832DE9F241DFF89C4404F10E05E5
:102DCC008046287E042814BF0828C22087B01646E7
:102DDC001F4646D0BDF8380000F05DFC08BFC3208C
:102DEC003FD0FFF7C9FE0320287607A9502008F032
:102DFC00DAFF0EA94B2008F0D6FFBDF81C00E882C4
:102E0C00AE724146BDF83800A8812F7004F139002C
:102E1C00FDF7E6FB07F0CE0040F080008DF81A00BD
:102E2C008DF80B6002208DF8160004F12D01BDF811
:102E3C003800ADF80E00BDF81C00ADF818000020ED
:102E4C008DF808000F20E877542008F0ACFF0F2015
:102E5C00A87704F12C01472008F0A5FF00A808F082
:102E6C00B1FFC7E610B584B041798DF80810002485
:102E7C0001798DF80A1001218DF80B10006810B142
:102E8C00FDF731FC90B98DF8094001F0EBFC019095
:102E9C00DFF8C009017B04290CBF00884FF6FD70D8
:102EAC00ADF8000000A801F05DFE0446204604B019
:102EBC0010BDDFF8A41310B5044691F826100020BD
:102ECC00082918BF042984B015D14FF6FD70ADF850
:102EDC00000001F0C7FC019000208DF8090060781B
:102EEC008DF8080020788DF80A0000208DF80B0072
:102EFC0000A801F037FE04B010BD000018450020FA
:102F0C00F8B504462568002D75D0DFF8FC67726AA9
:102F1C00100002D0217928469047687B022838D1CE
:102F2C00A87A800735D52079E9281CBFCD28F02850
:102F3C002FD0A87C00060CD5A87E50B1A8732868A9
:102F4C00008801F013FF48B94FF4987007F042FA6B
:102F5C0004E0DFF8580C0078401CA873207950B9B5
:102F6C00002704E04FF49B7007F034FA7F1C607963
:102F7C00FFB28742F6D3A87B401EA873A876202107
:102F8C0004206873DFF8780C00882881307A06F00A
:102F9C0097F9687B022818BF06282CD1A87AC0079D
:102FAC0029D521792846FFF7D1FB68894FF6FE71A8
:102FBC00084068812868008801F0D8FE0028207934
:102FCC0012D170B940F22F1007F004FA0025607985
:102FDC00EDB285420FD24FF49B7007F0FBF96D1CDC
:102FEC00F5E740F2311002E028B940F22D10BDE8AF
:102FFC00F24007F0EFB9F1BD2DE9F04F9BB08B46D5
:10300C008046924605A9FEF7BEFC9DF821000026DD
:10301C000027002804BF9DF82800002809D09DF83F
:10302C001400400608F1040406D5E08801F09EFE69
:10303C0010B140F2351064E09DF81400864D00F09C
:10304C000C0004289DF814000CBF4FF00109B14688
:10305C00800616D50127B9F1000F12D12189EA8A11
:10306C00608D914205D100060BD5E088ADF82E108D
:10307C0002E0000605D4084605A9FFF7ECFA002883
:10308C003DD1618D080612D49DF8140040060ED572
:10309C009DF815000322104209D19DF8140000F090
:1030AC000C020C2A1EBF00F00C00082801269DF80B
:1030BC00140000F00300022804D1208905A9FEF7B2
:1030CC0054FD9DE0012812D12EB1080603D42089AD
:1030DC0005A9FEF7D7FC05A80D902089ADF83000A6
:1030EC00A0788DF832000CA8FDF751FD88E000287F
:1030FC00FCD1E87A012804BFA078002804D14FF451
:10310C009A7007F067F97BE002208DF86400208943
:10311C00ADF85C0008F1300094F82A1009063CD593
:10312C0002218DF84010E188ADF838109DF8171089
:10313C008DF842109DF816108DF84310A98CADF83F
:10314C004410BDF81A10ADF84610BDF81C10ADF8BF
:10315C0048109DF82810ADF84A1009991391618D0B
:10316C00ADF85010A1898DF8521021788DF85310BC
:10317C00A17B8DF854109DF829108DF855109DF8F1
:10318C002B108DF8561001788DF8571080788DF82B
:10319C0058000EA8FEF70AFD32E0B9F1000F1DD061
:1031AC00A1898DF82A10DFF86015D1F828805FEA24
:1031BC00080125D0BDF85C10EA8A914220D1007834
:1031CC0004903346608D0390CDF808A001975A46C1
:1031DC002078009005A917A8C04711E01EB12089DE
:1031EC0005A9FEF74FFCA07B0390CDF808A0019732
:1031FC005B46E07B009017A9AA8C05A8FFF7B7FAED
:10320C001BB0BDE8F08F03F0D1BB03F06BBC10B565
:10321C0004461148807B000707D4DFF89409016C41
:10322C0019B10078082106F04BF82046BDE8104093
:10323C0003F074BC10B5012904460BD1002102F037
:10324C00D2FBDFF85C0B02782046BDE81040002171
:10325C0002F0A6B910BD0000D43F002003F05FBC03
:10326C0010B5DFF8A414DFF83C4B0872002084F88A
:10327C002600DFF8340B0068400406D4DFF82C0B72
:10328C00006810B1012180F82A1006F0BBFD7434DF
:10329C000020A060606001F001FF06F0B6FD002088
:1032AC002060BDE8104008F0F1BD0000F0060020E1
:1032BC00113C00002DE9F043DFF8F458287A0C4655
:1032CC0021048FB01CD505F039FF050015D0002066
:1032DC000FF20C2100E0401CC0B2024611F8323053
:1032EC00FF2B07D02E78B342F5D101EBC201284653
:1032FC0049688847284605F0B3FE84F40040EAE0AC
:10330C00A1040BD500F0CFFF050004D000F0A4FA07
:10331C00284605F0A5FE84F40050DCE0E107DFF858
:10332C00982A0ED5107D0F2808D1002000F0F9F84E
:10333C0020B1DFF8D80A006800F0D3F984F001005E
:10334C00C9E061041AD5DFF8D80A017806290AD138
:10335C000B210170DFF8CC0A017892F900200120D2
:10336C009040FFF755FCDFF8DC0A0268287A4FF42E
:10337C00804108F05FF984F48040ACE0A10640F194
:10338C009E80202108F088F9296D084308BF01268A
:10339C000BD008F012FA296D002621B1884234BFF7
:1033AC004FF0FF36461A760858D000F0B5F80746AD
:1033BC000DF114082FE001F056F801AA4FF0FF3080
:1033CC008DF802003868C17F006A01F035F90128D8
:1033DC001BD1788A40F08000A8F81E00B97B8DF8CC
:1033EC003410B97A090706D540F48070A8F81E008D
:1033FC000DA9387B8870786910B1007BADF814008A
:10340C00002200A901A8FFF7F7FD06207873387B8E
:10341C0000F01AFE4F460FB300220421384600F08C
:10342C00C1FE81463889B0422CBF801B00203881F8
:10343C0038890028EED1B87B01280AD1B87A400728
:10344C00B9D406207873B7213868407B00F027F98F
:10345C00E0E70028AFD101207873DBE700F051FDE5
:10346C0000220121002000F09DFE18B1287A2021B5
:10347C0005F026FF00F050F8E8B1078903E0018958
:10348C008F4288BF0F460022042100F08BFE0028DB
:10349C00F5D1B6B2287ABE4202D2BF1BBFB227B951
:1034AC00202105F00DFF002005E07A00202108F016
:1034BC00B2F808F082F9286584F020000BE0600572
:1034CC0008D501F046FB01219089FFF79CFE84F49E
:1034DC00806000E000200FB0BDE8F083EA3F0020E0
:1034EC000A000000B73E000002000000EF3A0000A6
:1034FC0005000000ED3C000007000000C13B00008F
:10350C000C000000193700000D00000065380000A9
:10351C00FF0000000000000000220421002000F049
:10352C0041BE00B587B0182200F0D6FB00F004F8BD
:10353C0008F073FC07B000BD02208DF80800DFF81E
:10354C006408418B808CADF80A00ADF800100020A7
:10355C008DF8140000A8704710B50C008EB012D076
:10356C00014600AA204601F067F89DF8060050B10C
:10357C009DF81C309DF801202146002008F08DFBA1
:10358C0008B1A42000E000200EB010BD70B50446B8
:10359C008EB0A07ADFF80C5840064FF6FF7609D5AE
:1035AC002068008801F0E2FB08B1304606E0206894
:1035BC00008800E0688B00F06EF862D0216808800B
:1035CC0001F0D4FB014620684A1E9241D20FC28101
:1035DC00DFF880190A68DFF8D01709684B044BD460
:1035EC0057208DF80000722300A843706F2383705E
:1035FC0002736E238DF80330017467238DF8043049
:10360C0043238DF8053068238DF8063069238DF837
:10361C00073070230372130E8DF80930130C83726C
:10362C00130A0A0E42738DF80B300A0C827305A82C
:10363C000A0A8DF80F200021242205F0C0FC02207C
:10364C008DF81C00ADF814600021A88CADF81E009C
:10365C0002208DF8200011208DF8330000A80D9069
:10366C0005A808F0E1FB05000DD02068407B294639
:10367C0000F015F838B10BE0DFF8641A08F0D4FB51
:10368C00F1E7CD25F1E71CB10121204600F064FCE7
:10369C0028460EB070BD4FF6FE718842704738B5A3
:1036AC0004460D46142005F0C9FC60B10C210170D4
:1036BC008470002181734570014600F060FD05F0B7
:1036CC00DEFC002032BD204600F07CFD38B1062126
:1036DC004173007B02F0D6F9204600F0B5FC1020B7
:1036EC0032BDDFF8001A8A790F2A0CD158B109784B
:1036FC00082918BF042906D10246DFF8B404007A61
:10370C00012107F088BF7047BC0200203EB504467B
:10371C00A07800F057FD05003BD06078E873607826
:10372C00F12818BFCD2804D01A281CBFE928E1289D
:10373C000BD10021284600F00FFC30B16A8961786A
:10374C00288906F0C7FB28811BE060788DF80800FB
:10375C000195A07B8DF80900287C002801A802D1D6
:10376C00FFF7CEFB01E001F097FA9DF80830E92B4A
:10377C0007D12868012100914189E27B008801F082
:10378C0098F8687B022804BF06206873A07800F0C4
:10379C005BFC00F0B6FB02480088FFF7A2FF37BDC8
:1037AC0004080020F8B5851C0024E97891B129891A
:1037BC00FF20FDF7FBFF082420B1E87840F0010062
:1037CC002C24E870E87800F0030001283CD144F088
:1037DC00110439E000F12406E87EDFF8C87578B1F1
:1037EC00E97F002918BFFF2905D12889F98A884269
:1037FC002AD1222428E03268A87F02F0CFF823E0F7
:10380C00288901F0B3FA02282889F98A08BF012413
:10381C00884208BF44F0020434B1297800290CBF57
:10382C0044F0200444F0400401F0A0FA0128287868
:10383C0008BF44F0010438B17068007801F06AFAEE
:10384C00012818BF04F0FE042046F2BD0608002033
:10385C0047040020EE3F00202DE9F04F82460AF18C
:10386C0004048FB0207900281FBFDFF89C09008862
:10387C000028FFF736FF2179206801AA00F0DCFE52
:10388C0000286CD00DF10507012079780229F97810
:10389C00A8BF00200229BDF80E10A8BF00204FF6CB
:1038AC00F87291421CBF4FF6F972914257D04FF605
:1038BC00FA7291421CBF4FF6FB7291424FD0DFF867
:1038CC00E4B4B9780BF10B06F279914247D1002898
:1038DC0045D00BA8417A002941D1218B81800DF173
:1038EC000E05608CA880787938B1AB7C9DF80520EA
:1038FC002168012008F0D1F9B0B901A8FFF752FFF7
:10390C008146787990B9307800281CBF09F02200E4
:10391C0022280BD009F04200422805D10B980178DF
:10392C00062918BF072901D0CF2019E05FEA4960AA
:10393C0019D50B980178032918BF042904D007293D
:10394C001CBF0A290C290AD1032904BF40780D2871
:10395C0009D001A801F0B4FA012804D194E0D320D5
:10396C0006F038FD90E00BF12408A08EB8F800109A
:10397C0088420AF13A0607D1002000903278618E15
:10398C00208B002300F095FF7879E8B1618E208BB5
:10399C0001F012FC07003ED020689DF805100818B5
:1039AC00F978407B814202D0F87000207860206862
:1039BC009DF8052010180421401C05F010FB7968B7
:1039CC00884261D3401C786098F80200042818BF24
:1039DC00092859D15FEA896032D530788DF800001A
:1039EC0070788DF80100B0788DF80200287A0128E3
:1039FC0002BF6888218B884207D1BDF80E0001F008
:103A0C00B5F9022804BF00202872E26A00A901A8B7
:103A1C00FFF7F2FA38E09BF86C000128D4D10B9830
:103A2C000078062802D15FEA4960CDD4A8884FF609
:103A3C00FF71884228D0514601A800F028F823E0F5
:103A4C005FEA496020D50B980078042807D1A87C40
:103A5C00022819D101A9002001F0CBF814E00728A5
:103A6C0006D1A87C04280FD101A801F041F80BE085
:103A7C00032804D1002101A801F064FA04E00C2809
:103A8C0004BF01A801F0B7FA0FB0BDE8F08F38B54C
:103A9C000D460446DFF854186089097841B1DFF807
:103AAC000413C98A884204BFBDE8314001F006BE48
:103ABC00002102F014F800281EBF8079182108425A
:103ACC0008D0E88C0090AB8B627F6189A08902F0F2
:103ADC0089F831BD6189A089BDE83840002201F028
:103AEC0019BEFEB5DFF8BC4204F10E050746287E70
:103AFC0003281CBF0128092857D17978DFF82063E7
:103B0C00002939D1022006F0E4F978882881B91C03
:103B1C00532008F048F9287E09281CBFE88A01F0D8
:103B2C0032FBFEF786FF00A9422008F03CF9042086
:103B3C00287601A94A2008F027F901A904F11C00F4
:103B4C00FCF74EFD30780B2802D10620307003E0D4
:103B5C00E88A0021FFF757FB2989032006F0B9F901
:103B6C00A989042006F0B5F9287800F09BFF08F02D
:103B7C001AF900F0BAF916E041F2030006F0A9F9BF
:103B8C003078DFF878180B2804BF0A20307000203A
:103B9C00087000F0F2FA07F069FD7978E88AFFF70F
:103BAC0032FB0020287600F03FF9F7BD1F080020FB
:103BBC00BC0200207B49DFF848384A6FA2B991F863
:103BCC002610012904D0052906D0062908D00BE0BF
:103BDC00D9680A0013D0084759680A000FD0084763
:103BEC0099680A000BD00847002A19BF917901295E
:103BFC00407802F0B9BD59690A0018BF08477047F0
:103C0C00080800202DE9F043DFF8F857DFF894811D
:103C1C000446287A83B04FF4806107F027FD01A990
:103C2C00502008F0B1F8102005F008FA060008F151
:103C3C0016074FF6FF7908D0607830B9F8894845F7
:103C4C001CBFBDF80410814215D0EA2060703946C3
:103C5C00532008F0A8F808F11A014B2008F0A3F83B
:103C6C0008F12401502008F09EF808F11801E12019
:103C7C0008F099F86EB302203070F88948451CBFE3
:103C8C00BDF8041081421CD1BDF80400F8813946FE
:103C9C00532008F079F83888708008F11A014B200D
:103CAC0008F072F808F11801E12008F06DF8002016
:103CBC0000900023DFF838080278F989B88800F002
:103CCC00F8FD60787070314603203874287A05F05E
:103CDC00D6F9BDE8F7831C22002100A805F06FB9C6
:103CEC0030B505468DB06C68297C686907AA00F070
:103CFC00ABF89DF81C00002850D1287C0B284DDB1C
:103D0C00207A022804BF207BFF2847D1254890F851
:103D1C002610406F022918BF062905D000283DD077
:103D2C00807901283AD107E030B90090627C618932
:103D3C002088002300F0BDFD2088ADF80400082287
:103D4C006089ADF806000DF12301A07B8DF8080009
:103D5C00A089C00B8DF809009DF820008DF80A0091
:103D6C009DF822008DF80B009DF81D008DF80D00BC
:103D7C009DF81E008DF80C00607C8DF80E009DF8EF
:103D8C0021008DF80F009DF82E008DF810000DF11C
:103D9C00110005F0FCF801A802F07EFD0DB030BD5D
:103DAC00A9750100D43F002094120050004400205B
:103DBC00DFF8CC0A00787047EC3F00202DE9FC417D
:103DCC000D4690460FF2480104460CC900A8214646
:103DDC000CC000A8FCF708FC002700B90127DFF88D
:103DEC006409866F06E0214606F10C00FCF7FCFB2B
:103DFC0030B9B6693EB1002FF5D13088A842F8D160
:103E0C00B0784045F5D13046BDE8F6811C0700205E
:103E1C00FFFFFFFFFFFFFFFFDFF82809806F7047F0
:103E2C004A0400201608002038B5DFF81849A06FA6
:103E3C00002803E08569FCF708F92800FAD1002076
:103E4C00A06731BDD844002070B50646144616F85C
:103E5C00010B20700D46307800F00F0060700822C6
:103E6C0016F8010B0009A070307800F00300E07028
:103E7C003078C0F3800020713078C0F3C3006071DB
:103E8C0016F8010BC009A0713146E01D05F07FF852
:103E9C0008360322314604F10F0005F078F80F2D97
:103EAC00ACBFF0780020A07470BD10B5044682B091
:103EBC006078FFF7ACF96078EB2818BFE12803D0E5
:103ECC00F12818BF1A2801D10020607000F00DF8FD
:103EDC00DFF87008012100910022818C6378408BFF
:103EEC0000F0E7FCBDE813400BE0DFF8DC0A0068EB
:103EFC00FFF7F7BB0100DFF8D40A18BF01210170EE
:103F0C007047DFF8C80A007800B1704780B500220E
:103F1C00012100F047F930B1016800291CBFBDE850
:103F2C000240FFF733BB01BD80B5042000F02BF934
:103F3C00DFF89C1A0978814207D3FF2000F023F99F
:103F4C00DFF8901A0978814201D2012002BD0020CD
:103F5C0002BD0000181300502DE9F04107468846B9
:103F6C00387B00F02FF900240546012625BB7A8901
:103F7C00397B386800F0B8F8050061D02C81012439
:103F8C00387C2874788A688207F1100000F014FFDE
:103F9C0068614FF67F41388B2883B87EA876688994
:103FAC000840688141074FBF40F08000DFF8281AB5
:103FBC00097840EAC11068816889C109B8F1000F1D
:103FCC0001F0070112D002226A732A68927B520711
:103FDC0003D5DFF87027128A2A8119B34FF67F4276
:103FEC001040491E40EAC11068811BE009B9002647
:103FFC0018E0810605D505F010F800F07F005F3061
:10400C0008E0C00605D505F008F800F00F000A30EE
:10401C0000E00120288120210420687300F0AFF813
:10402C0005F04EF96CB12A89697B284600F06FF8CF
:10403C0038B1686908B1FCF708F82846FCF705F8B0
:10404C0000263046BDE8F0813EB500F0BBF80024F8
:10405C0098B3417B062930D101684489097A8DF8DF
:10406C00081001680988ADF8001000F0E2F820058E
:10407C0022D5BDF80010002000F021F8E0B9DFF8DF
:10408C00C446A18C00A807F008FF002100200CE01A
:10409C00286801884FF6FF7291420DD0A18C07F071
:1040AC00FAFE1A2808D00021284600F008F805006E
:1040BC00EED1002007F0F3FE012420463EBD18B9D6
:1040CC00DFF88006C06F00E0406840B142891205FD
:1040DC00FAD500291EBF026812888A42F4D17047B3
:1040EC0065350000FA3F002070B504460D461646B3
:1040FC001C20FBF79DFF48B10021417305734681DD
:10410C0001818173C17304604161416070BD70B500
:10411C0004000D4616462ED0012D284607D100F07E
:10412C0032F8DFF8C819097881420DD208E0042D65
:10413C0008D100F028F8DFF898180978814203D2EA
:10414C00112070BD022D16D1002060606573268190
:10415C00DFF8F005C16F31B100E001464868002876
:10416C00FBD14C6000E0C46700F009F8202105F099
:10417C00A7F8002070BDC12070BD4FF48041DFF85E
:10418C008402007A7047DFF8BC25D26F002105E06D
:10419C00537B5268834214BFFF28491C002AF7D175
:1041AC00C8B2704718B9DFF89C05C06F00E04068D2
:1041BC0038B1437B8B42FAD11AB103689B7B5B0706
:1041CC00F5D47047DFF87C15C96F00E0496821B160
:1041DC000A7B8242FAD10846704700207047F8B536
:1041EC000446002620000D460BD0DFF85805C76F9B
:1041FC0000E07F682FB129463846A0470128F8D146
:10420C003E463046F2BD0000BA02002010B5DFF881
:10421C003415CA6F1346002401E01C465B683BB1A1
:10422C008342FAD15868934201D1C86710BD6060CF
:10423C0010BD10B5040011D0FFF7E8FF2068006A2C
:10424C00FBF703FF2068FBF700FF606908B1FBF781
:10425C00FCFE2046BDE81040FBF7F7BE10BD10B5C4
:10426C0048B1A0F10C010A68002A04BF8A7AFF2A1F
:10427C0003D004F0F5FE052010BD624C227A8A7240
:10428C00DFF8CC1A0A78014604F1540004F0F9FF67
:10429C00012806D1207A4FF4005105F011F80020C6
:1042AC0010BD042010BD70B5DFF8E809554D00684D
:1042BC0080476E6D04468EB156F80C1C287A002986
:1042CC004FF4005102D004F0FBFF01E005F048F878
:1042DC000022314605F1540004F0B9FFDFF8CC1A86
:1042EC00096820468847304670BD0000160700203C
:1042FC002DE9F04188B004464FF6FE78FFF714FE26
:10430C00454608B1112076E0207FA8B1DFF8A00A5D
:10431C000078410141EA80002077FF206188FDF799
:10432C0045FA48B1E08A40F00400E0824FF6FF7590
:10433C00207F40F001002077608800F017FD08B165
:10434C0000206076A07E18B9DFF8680A0078A076A5
:10435C002078DFF8F063010603D500F0030020702D
:10436C0006E0E07E20B93078E0763078401C307082
:10437C00207E01280BD1DFF8BC0A007828B1F07A36
:10438C00002804BF2078002801D100202076207856
:10439C00012802BF20690078022803D1E08A40F08E
:1043AC004000E08204A9204600F0A4F845450746E9
:1043BC0008BF6588EFB120789DF81030F28A8DF82F
:1043CC00140006942946608DADF8160005A80390DC
:1043DC0094F82C000290E08A0190607D00903846A1
:1043EC0000F047F80446102C04D13846FBF72DFE9C
:1043FC0000E010242046FEF7FDBB0000184500200D
:10440C00F0060020BC02002010B58EB0044601A8B6
:10441C00342107F06FFDA11C02A84A88028109888B
:10442C00C18004F110010A7902760A6842620A7BA3
:10443C0042700A8B82810A7A82704A7A8DF808203F
:10444C004A8B42850022087F8DF8340000A900F0C9
:10445C000AF84FF0FF308DF8020001A8FEF7CCFDF2
:10446C0000200EB010BDFF208DF800008DF801006B
:10447C0070472DE9F041054688B00E4690461F4620
:10448C002420FBF7D5FD1024009068B3242200F003
:10449C0002FEAC480099808C4881ADF8188002204F
:1044AC000099087300990872009806800098C777E5
:1044BC0000980E994173009805628DF80C1000213C
:1044CC000F98ADF80A001198D0E9002310988DF8D8
:1044DC001A00CDE9042300A8FFF73EFD01280EBF0A
:1044EC0000240098FBF7B1FD2046FEF783BB0000CB
:1044FC00F3070020F8B50E4604460820617F01B191
:10450C001020A17F01B10830217F01B1401CA1799D
:10451C0019B1217A4900891C08186070207E002886
:10452C00DFF89409007814BF0E250025012808D166
:10453C002078012805D0DFF88409007810B101201B
:10454C0000E0002084F834006178207D7D4F08184D
:10455C0028183070207E28B1387B07F0A7FB317803
:10456C004018307030787528A8BF002662DAFBF747
:10457C005FFD06005ED02078B97C40EA8100617E48
:10458C0001F0030140EA8110217F09B14FF48071E1
:10459C000843217E40EA4120617F40EAC120A17F8F
:1045AC0040EA0130A17940EA812094F8341040EAC5
:1045BC00413080B230700827000A70706088B0708B
:1045CC006088000AF070A0883071A088000A7071B1
:1045DC00A07EB071E07EF071607F28B1216A06F197
:1045EC000800FBF7FDFF1027A07F28B1616AB819FE
:1045FC00FBF7F6FF0837FFB2A07980B1207AB855E7
:10460C00781CC0B2617A8155471C207AE168FFB2F0
:10461C004200B81904F0BBFC207A07EB4007207F5E
:10462C0008B1FFB2B8556078227D2169801928182D
:10463C0004F0ADFC3046F2BD2DE9F84304460F46BC
:10464C00154634220021284604F0B9FC0126082F17
:10465C0062DB2F702078627800EB0220294680B252
:10466C0000F072F800B10026A078E17800EB012090
:10467C0068816179207900EB0120A881A079A87468
:10468C00E079E87408206870E87918B104F1080042
:10469C0000F0DEF8287A20B168780019A86100F0E3
:1046AC00D8F8002005F1240785F8200038606879D7
:1046BC0020B16878015D6971401C6870687F38B3FF
:1046CC006878411C6970005D85F82000481CC9B2EF
:1046DC00687095F82020095D85F82110914215D25B
:1046EC00DFF8B418DFF8B4980978914238BF0C227F
:1046FC00C0B24FEA420801194246484604F047FC52
:10470C00C7F8009068784044687001E00020687732
:10471C0068782978814201D2002010E002197A6071
:10472C00081AA979287749B10E38287702F10E00BA
:10473C00786000F092F8297F081A28773046BDE897
:10474C00F2830000D43F00208A1C00F00303137096
:10475C00C0F38303537003069B0F9370430A03F05B
:10476C0001031371030A03F00103D370830A03F0EE
:10477C000103D376C30A03F001035371030B03F057
:10478C0001039371420B02F0010281F83120800B7E
:10479C00704710B5DFF84C288479D37A00212CB1FE
:1047AC00002B04BF8078002807D105E0002B1EBF2A
:1047BC004089D28A904200D00121084610BD0000E9
:1047CC00F8B506460C4630781546727800EB022098
:1047DC00294680B2FFF7B8FFB078F17800EB0120E2
:1047EC0068817179307900EB0120A881B079A874C7
:1047FC00F079E87408206870E87918B106F10800BF
:10480C0000F026F8287A20B168788019A86100F0A9
:10481C0020F8687920B16878815D6971401C6870F6
:10482C002846FFF7B6FF070010D16878AA798119DE
:10483C0012B9A962201A08E001F10E00A86200F07A
:10484C000CF86978611A0E39081A28773846F2BDC7
:10485C0068616878083068707047DFF88807007BFB
:10486C0007F024BA10B5DFF8F0472146E22007F034
:10487C008BFA204610BDDFF86C07C08A7047000029
:10488C0098750100DFF85C07408B704701464A20A1
:10489C0007F07ABA38B5DFF8C4472578681C207061
:1048AC002846FFF78FFC0028F7D1002DF5D02846BD
:1048BC0032BDF8B504460E4617461D4600F07CFC8A
:1048CC00069938B9A9B93A4631462046BDE8F840B0
:1048DC0000F025BD19B165B90022027009E045B997
:1048EC008278BA181204520C827082780AB90122AA
:1048FC0082700129DFF86867F07A01D115B90020C0
:10490C00F072F1BDDFF85C170978401CC0B2884228
:10491C00F6D30020F072DFF85007408B844209D1A7
:10492C0021460120FEF771FC307ABDE8F4400121EC
:10493C0006F09CBEF1BDDFF828170B7A012803D1D5
:10494C000121184604F0BCBC1F49086020B1024686
:10495C000121184606F05FBE0121184606F086BEFE
:10496C00DFF8081708807047DFF8041708807047D5
:10497C0010B5DFF870267421212004F0D8FE04460F
:10498C00FCF745F80443DFF8EC060068010001D0A1
:10499C0080470443FCF788FF044303F0F2FF2043F5
:1049AC0010BD80B505F031FA00F099F8FCF744F829
:1049BC00DFF8C4060068010018BF8047FCF786FFCB
:1049CC00BDE8014004F080B81C0700202145002000
:1049DC009A7501009B7501001408002070B5DFF872
:1049EC00045682B02A467421212004F0A0FE002433
:1049FC0000284BD12B4674220021212004F02AFFE1
:104A0C00002843D105F10E064FF6FE71308988421D
:104A1C003CD0307E0124082818BF042833D18DF8EF
:104A2C00004000A9422007F0BEF905F12F014320F8
:104A3C0007F0B9F905F12C01472007F0B4F905F19D
:104A4C001C014A2007F0AFF905F11A014B2007F0C1
:104A5C00AAF905F12401502007F0A5F905F116017A
:104A6C00532007F0A0F905F12D01542007F09BF914
:104A7C0005F11801E12007F096F9307800F012F8F2
:104A8C0007F091F902E005F0C0F90024FBF783FF71
:104A9C00DFF8E8050068010018BF8047FCF74CFF01
:104AAC00204676BDC00800F001008DF8000000A97A
:104ABC005220704710B50446E00701D500F00FF8FE
:104ACC00200748BFFBF77FFF600707D5DFF8B0056D
:104ADC00006801001CBFBDE81040004710BDDFF8A6
:104AEC00883574220021212004F067BE99750100DD
:104AFC0070B5DFF86C550446287A4FF4806106F0E7
:104B0C00B5FD00F026F80920DFF85C1581F82600C9
:104B1C00FFF7A8FE01466069FBF766FDC0B11020E7
:104B2C0004F08CFA060013D002203070A06A417891
:104B3C00827801EB02217180C07870704A20A169E3
:104B4C0007F031F9287A3146BDE8704004F097BA85
:104B5C0070BDE889DFF818150880288ADFF80C1575
:104B6C000880704738B5044602208DF8010000A873
:104B7C0000F0D9F805003AD0286904210170002111
:104B8C004170217A012904BF20214170617A0129E9
:104B9C0003D1417841F040014170A17A012904D13F
:104BAC00417841F08001417001E00120A876607AE3
:104BBC00012805D1606808B1012068776068286217
:104BCC00E07A012808BFE882208800F0CFF818B1FD
:104BDC00E88A40F00400E8820120A877FFF742FE43
:104BEC006862208868802846FDF74CFF32BD102093
:104BFC0032BD7FB504460D4600F087F8A86A4078B0
:104C0C00002610F01F0103D000F0C3F900203FE094
:104C1C00810644BF01218DF80C10010644BF01210F
:104C2C008DF80B10400603D501208DF80A0003E027
:104C3C009DF80A00012803D1E87950B16E6902E0B1
:104C4C00287A30B1AE6926B131460DF10200FBF77E
:104C5C00C7FCA889ADF800009DF80A00012813D103
:104C6C00688900F083F8002801BFA889DFF8F813E1
:104C7C00498B88420BD13EB1FFF7F4FD01460DF193
:104C8C000200FBF7B1FC10B100A801F0F5FE2046C4
:104C9C0004B070BD5807002010B5044692B02068CF
:104CAC004189CA072FD54FF6FE721140418104AAE3
:104CBC000068C17F006AFFF783FD002802BF0E98D1
:104CCC00007804281FD100F020F8BDF81A00ADF8C8
:104CDC0000000E984078810644BF01218DF80B101E
:104CEC00010644BF01218DF80A1040064CBF0999FA
:104CFC000A990DF10200FBF773FC20798DF80C007A
:104D0C0000A801F09DFE12B010BD0E22002100A8DB
:104D1C0004F055B9002104281CBF0A28032800D12F
:104D2C0001210846704710B53821017001218170AE
:104D3C00FDF7D5FE040005D001202070A077FFF709
:104D4C0091FD6062204610BDDFF81C03807C70472B
:104D5C00A17501000121020748BF03218007DFF87C
:104D6C00F00348BF41F00401017070474FF6F8732F
:104D7C0000210022C01A03280BD9001F05D0401EA9
:104D8C0005D0801E06D1012204E0042202E002229A
:104D9C0000E00822DFF8B8030078104218BF0221A7
:104DAC0001D102B101210846704700005C070020C8
:104DBC0022080020AA750100017821B9406800285A
:104DCC0018BFFDF78BB80020704710B50021DFF835
:104DDC00E42302EB81035B88834203D100F023F8C8
:104DEC00C52010BD491CC9B20329F2DB00214FF6C6
:104DFC00FE7402EB81035B88A34207D0491CC9B245
:104E0C000329F6DB002112F8213033B902EB8103C0
:104E1C00588000F008F8002010BD491CC9B20329C5
:104E2C00F1DBC72010BDDFF8F403007802F8210095
:104E3C0070470000180800207FB504460D46122666
:104E4C00A4B300F035F8844209D1FFF70BFD0146FD
:104E5C002846FBF7C9FB00F0010080F0010600209A
:104E6C008DF80000ADF8024000A8FBF7B4FC58B177
:104E7C0001A8FBF738FC012806D101A92846FBF74D
:104E8C00B3FB012600B100262946204600F09AF912
:104E9C000A2808BF012608D0A02806D1294620469A
:104EAC0000F00DFA204600F056FA304604B070BD02
:104EBC00DFF8B401C08A70471A450020184500205D
:104ECC0010B50446207A38B1A169A089FFF7B4FF68
:104EDC00012808BFA08908D0E07950B161696089C8
:104EEC00FFF7AAFF012804D16089FFF76EFF0120AC
:104EFC0010BD002010BD2DE9F04182B00446042005
:104F0C008DF801000D4616461F4600F068F84FF06C
:104F1C000108A0B147B1002181778580017841F06B
:104F2C00800101700021C176032201690A702A0AEE
:104F3C004E708D70CA704480FDF7A4FD80464046CB
:104F4C00BDE8F68138B504460D46A06A227F41784B
:104F5C00042A02D000F01DF819E08278C0780E29DE
:104F6C0002EB0022608988BF002592B2FEF776F929
:104F7C006089FFF7FBFE50B1A07C022807DBDFF84D
:104F8C00E810A089C98A884201D0284632BD002089
:104F9C0032BDD32005F01EBAA07501005C43002081
:104FAC002DE9F84300F020F8994600F018F8012795
:104FBC00060012D030690B21017080F8018080F856
:104FCC000290B777FFF74EFC70627777356274808A
:104FDC00B7763046FDF756FD074600F092BB00A8A9
:104FEC00A1E60000D43F0020044603208DF8010008
:104FFC000D469046704710B5806A401C4478007886
:10500C0048BB012C18BF022C25D1DFF8D433012268
:10501C001C700021512004F0D0FB022C1BD1DFF8B6
:10502C00C403DFF8B823007800280FBF106852F8CB
:10503C0020003C22504303224FF47A71B0FBF2F073
:10504C0048430246DFF8A0130860FFF796F8BDE866
:10505C00104006F0EFBA10BDC844002023450020D4
:10506C00BC02002015080020D43F0020BA0200200A
:10507C0004080020D4420020D8420020DC4200204A
:10508C00E0420020DFF830060078401C00EBD070C6
:10509C00401070471C22002103F091BF38B500244A
:1050AC00DFF87C5305E01C2000FB045000F05FF897
:1050BC00641C00F01FF98442F5DB00203D4901EB34
:1050CC0080034FF6FE725A80002201F82020401C0B
:1050DC000328F4DB31BD30B50023DFF8444301E095
:1050EC005B1CDBB2DFF83C23127893420EDA1C22F5
:1050FC005A43155B8542F3D1121955898D421CBF59
:10510C004FF6FF75A942EBD1104630BD002030BDE3
:10511C0038B54FF6FF714FF6FE70FFF7DCFFB0B9F4
:10512C0000240FE0DFF8F8121C2202FB0415A97C06
:10513C0000291CBF697C002903D1288800F076FD6A
:10514C002846641CDFF8DC1209788C42EADB32BD9D
:10515C002245002038B504460D4603E000F007F860
:10516C0029462046FFF7B7FF0028F7D131BD10B50F
:10517C00040007D0FFF78EFF4FF6FE7020804FF62D
:10518C00FF70608110BD38B5044600250AE0DFF8D9
:10519C0090021C2101FB05004189A14218BFFFF7B9
:1051AC00E6FF6D1CDFF87C0200788542EFDB31BD39
:1051BC00000000006444002080B5FFF78CFF00B1B4
:1051CC00103002BD2DE9F04704468A460026002720
:1051DC00DFF84C8217E01C2000FB07F909EB0805EF
:1051EC00A81CFBF780FA60B139F80800A04208BF90
:1051FC0046F00A065146A81CFBF7F6F908B146F032
:10520C00A0067F1CFFB200F075F8874202DAF0B2FC
:10521C000028E0D0F0B2BDE8F0870000A5750100D1
:10522C002DE9F047054689464FF6FE789246002454
:10523C00002001214646DFF8E87109E003F0EDFE9D
:10524C00C0B290FBF4F104FB1100C0B200240021A9
:10525C00002202E0DE5B521CD2B2DFF8C8311B78B0
:10526C009A421FDA1C23534333F807C0C44518BFB6
:10527C00AC45F0D0CC451FBFD44503EB070C9CF8D4
:10528C0011C0BCF1000FE6D0BCF1080FE3DABCF1A1
:10529C00070FDFD0641C0029DDD1E4B28442DADBD5
:1052AC00D85B0AE0E4B224B118B9012CC6D10120B4
:1052BC00CCE7464514BF30464046BDE8F0872DE9A3
:1052CC00F041044688460027DFF8546100E07F1C5B
:1052DC0000F010F8FFB287420AD21C2000FB07F541
:1052EC00A8194146801CFBF77FF90028EFD0AC537E
:1052FC00BDE8F081DFF82C010078704707210D28FC
:10530C00A8BF012109DA0728A8BF032105DA032861
:10531C00A8BF052101DA00B9002108467047F8B58D
:10532C0005460E461746FFF7F3FE040012D0FFF7B2
:10533C00B1FE2580668107B90127DFF8E000A7746C
:10534C0090F86C0001280CBF002007206074FFF758
:10535C0099FE2074F1BDF8B504460025DFF8C06055
:10536C0015E01C206843815BA14207D04FF6FF7209
:10537C0094420BD14FF6FE72914207D08719B81C9C
:10538C00FBF7B1F910B93846FFF7F1FE6D1C00F0D0
:10539C0002F8E6DBF1BDDFF88C000078854270473F
:1053AC00000000B583B000A9002200230CC100A9A5
:1053BC00FBF71AF9401E8041C00F0EBD10B53A2BF9
:1053CC0018BF3B2B1C4607D113460A460146204604
:1053DC00BDE8104004F03EBA0A2010BDAC750100C7
:1053EC00184500201E080020D8440020DFF8841344
:1053FC000978002208E000EBC2031B7F03F00D03C9
:10540C00012B08BF491E521C037CD2B29A4202D215
:10541C00C9B20029EFD1C8B270470000D43F0020B8
:10542C00544000209F750100DFF848134978002292
:10543C0008E000EBC2031B7F03F08D03812B08BF38
:10544C00491E521C037CD2B29A4202D2C9B2002924
:10545C00EFD1C8B2704770B50446E00000F11805F2
:10546C00ADB2481980B2FAF7E3FD060006D02A4621
:10547C00002103F0A4FDA8193474F060304670BD0F
:10548C0038B5044600F012F8DFF8E4522978884267
:10549C0024BF686800F016F868782071401C6870AA
:1054AC00204600F02EF8207932BD0000DFF8C01243
:1054BC004968002001E00968401C0029FBD1C0B2FA
:1054CC007047000010B504001EBFDFF8A40241684D
:1054DC00002915D00A460023A24204D013461268B4
:1054EC00002AF9D110BD22688C420CBF42601A60B0
:1054FC002046FBF79AFD2046BDE81040FAF7A5BD03
:10550C0010BDDFF86C124A6822B100E01A4613682D
:10551C00002BFBD1002303600AB110607047486078
:10552C007047DFF84C12496800E0096869B1002245
:10553C0000E0521C0B7CD2B29A42F6D201EBC203B1
:10554C00DB7E8342F5D1084670470020704730B5AA
:10555C00002301E05B1CDBB2047CA3420ADA00EB03
:10556C00C304E57E8D42F5D1207F1043207704F1F2
:10557C00160030BD002030BD38B504460D46FFF78F
:10558C00D0FF60B1002107E000EBC102D37EA34243
:10559C0008BFD576491CC9B2027C9142F4DB31BDFF
:1055AC002DE9F04380460D46E80785B09146DFF8BB
:1055BC00E44308D5A8074FF6FC7854BF45F008051E
:1055CC0045F0100530E0404600F0F5FAE18A8842DB
:1055DC0005D02A460221404600F0BAFA08B900204C
:1055EC0068E02B4602224FF6FE71404600F0C4F8EC
:1055FC0000285ED105F0DF05680615D402A94046E7
:10560C00FBF78AF845F0200768B9A18C4046FFF7F4
:10561C0062FD060008D0B01CFBF765F820B1B11C88
:10562C0002A8FAF7DDFF3D46DFF86C63E38A3778B2
:10563C000120009000223946184600F0EBF9791C45
:10564C003170B0BBA8064CBF0E2006208DF80500AB
:10565C0001A8FFF768FB040029D00120A077FFF711
:10566C0001F9606201212069017005F07801417037
:10567C0087704FEA1821017180F803800021417175
:10568C00A90603D502A9801DFAF7AAFF4FF6FD70F3
:10569C00B9F1000F608006D0DFF834030078814543
:1056AC0038BF84F81A902046FDF7ECF902E0102080
:1056BC0000E0C720FDF7BAB9A275010010B5DFF8FC
:1056CC00D042207A4FF4805105F0E6FF10B1012052
:1056DC00A07210BDDFF8FC020278DFF8FC02007843
:1056EC0001280CBF012103210020FFF759FFDFF82F
:1056FC00EC020288207ABDE810404FF4805105F08E
:10570C008ABF3846BDE8F28309B0BDE8F08F07B018
:10571C00BDE8F08FF8B5DFF87C520746E88A012621
:10572C0087420C4604D000233846FFF7E4FB0646BC
:10573C000021384600F03FFAE98A884214D1002152
:10574C00204600F0CCF900281EBF817918221142A6
:10575C0006D000F041FAE98A008800F043FA03E031
:10576C0001212046FDF766FD3046F2BD0000000029
:10577C00E4070020F10700202DE9F84F07464FF60B
:10578C00FC7087420C4615461E4653D00021384605
:10579C0000F011FADFF8FC718046F88A804501D1DF
:1057AC00700678D53146404600F099F90100DFF8D3
:1057BC00FC02DFF8F4A290F800904FF6FE7B16D1B5
:1057CC000021584600F08BF9010010D118210E422F
:1057DC002AD00022182301E0521CD2B24A450AEB0F
:1057EC00C20102DA88791842F6D14A451CDAA1F8CE
:1057FC0000805C4518BF4C80F00748BF46F004069B
:10580C00DFF80C028E71012D007811D101224A7142
:10581C0018238A791A4209D008712046B98CFFF7EF
:10582C00CBFC002837D110E0022035E0387DF3E7BF
:10583C004A79012A2FD08A7918231A4208BFF87C9A
:10584C0008714D7127E0401CC0B2DFF8881309784D
:10585C00884220DADFF808241C23002103FB0025F2
:10586C0006E00AEBC1022B8852889A42EBD0491C05
:10587C00C9B24945F5D3E6D11C220021284603F0D4
:10588C009EFB2C80B88C6881AA20A87401206874B7
:10589C00FFF7F8FB28740020BDE8F28F2DE9F843E0
:1058AC000446DFF8C00300780D468542904628BFB9
:1058BC00052038D2204600F03AF83449DFF8C89079
:1058CC000E78B0424FF6FE7713D1384600F02FF821
:1058DC00B0420ED199F800100020012206E019F810
:1058EC0032308B423CBF19461046521CB242F6DB9A
:1058FC00C0B209EBC0067780706818B1FAF7A5FB47
:10590C000020706045B16800FAF792FB706060B1DE
:10591C006A00414603F03BFB74807570DFF8480366
:10592C00007830700020BDE8F2830120FBE738B529
:10593C001649154A0978002401E0641CE4B28C4233
:10594C0004DA02EBC4035B888342F6D18C4204BFB9
:10595C004FF6FE73984213D1002401E0641CE4B2AC
:10596C008C4202EBC40502DA28780028F6D18C426E
:10597C0006DA68686B8018B1FAF767FB002068607C
