:10000000104A0020D100000001CA011001CA0110ED
:1000100001CA011001CA011001CA011001CA011070
:1000200001CA011001CA011001CA011001CA011060
:0C00300001CA011001CA01103FCA0110F2
:10003C00E0B50821ADF800100190042100F00FF894
:10004C0008B100200EBD02980EBD00B583B008218A
:10005C00ADF800100190052100F001F807BDADF8D6
:10006C00021000A801490968084700006007002039
:10007C0080B50820ADF80000102009490968ADF8DA
:10008C00020000A8884702BD80B501208DF8000051
:10009C00FFF7EEFF9DF800000028FBD101BD00002A
:1000AC006007002070470000EFF3108072B67047B5
:1000BC00EFF3108062B670470138FDD1704770477E
:1000CC000120704744F61020C2F20000854646F627
:0A00DC00DF60C0F201008047FEE77C
:100100003C0000000000000000000000340100007E
:1001100000000000000000000100000000000000DE
:1001200000000000000000000000000001000000CE
:0C013000000000000800000000000000BB
:10013C003400000000000000000000006801000016
:10014C0000000000000000000100000000000000A2
:10015C00010000000000000000000000080000008A
:04016C00000000008F
:1001700030000000000000000000000098010000B6
:10018000040000000000000001000000FFFFFFFF6E
:10019000FF00000001000000080000000000000057
:1001A0002C0000000000000000000000C40100005E
:1001B000040000000000000001000000FFFFFFFF3E
:0C01C000FFFFFFFF08000000000000002F
:1001CC0034050000E401000099A1011095A701106D
:1001DC00A5C2011009B2011045B8011000000000C1
:0801EC00000000002E000000DD
:1001F40028000000000000000000000014020000BD
:100204000000000000000000FFFFFFFF00000000EE
:080214000800000000000000DA
:10021C00300500003002000069C201106DC10110F0
:10022C001FC2011095BA0110000000000000000070
:04023C00300000008E
:10024000300500005402000075C20110A9B601106B
:100250009DBF011049B60110000000000000000021
:040260003100000069
:1002640024000000000000000000000080020000E4
:100274000000000000000000000000000800000072
:040284000000000076
:10028800240000000000000000000000A40200009C
:10029800000000000000000000000000080000004E
:0402A8000000000052
:1002AC00240000000000000000000000C802000054
:1002BC000000000001000000000000000800000029
:0402CC00000000002E
:1002D000000000008C070020040000000000000067
:1002E000000000002000000070010000300000004D
:1002F0001C02000094070020040000000000000021
:10030000000000000C000000300400001800000095
:10031000400200009C0700200400000000000000D4
:100320000000000024000000480400001800000045
:1003300000000000A40700200400000000000000EE
:100340000000000010000000A00100002C000000D0
:10035000CC010000AC0700200400000000000000F9
:1003600000000000200000006402000024000000E3
:10037000FFFFFFFFB40700200400000000000000A2
:100380000000000028000000880200002400000097
:10039000FFFFFFFFBC07002004000000000000007A
:1003A00000000000580000003C0100003400000084
:1003B000FFFFFFFFC4070020040000000000000052
:1003C00000000000100000006004000018000000A1
:1003D000FFFFFFFFCC07002004000000000000002A
:1003E000000000001C000000AC020000240000001F
:1003F000FFFFFFFFD4070020040000000000000002
:100400000000000038000000F40100002800000097
:10041000FFFFFFFFDC0700200400000000000000D9
:100420000000000054000000000100003C0000003B
:100430001800000000000000000000004004000060
:080440000800000000000000AC
:100448001800000000000000000000005804000030
:08045800080000000000000094
:100460001800000000000000000000007004000000
:0804700008000000000000007C
:0804780001000000486F0100C3
:040480000000000078
:040484000100000073
:0404880000000C0064
:04048C0000000D005F
:040490003200000036
:040494000100000063
:040498002807002011
:04049C00000200005A
:0404A0000000000058
:0404A40001CA011078
:0404A8000000000050
:0404AC00000000004C
:0404B0000800000040
:0404B4000000200024
:0404B800000600201A
:0404BC00010000003B
:0404C00040070020D1
:0404C400080000002C
:0404C8000000000030
:0404CC00000000002C
:0404D0000000000028
:0404D4000000000024
:0404D8000000000020
:0404DC00010000001B
:0404E00038060020BA
:0404E400060000000E
:0404E800010000000F
:0404EC00E804002000
:0404F0000000000008
:0404F4000000000004
:0404F80000020000FE
:0404FC0000000000FC
:020500000000F9
:020502002A00CD
:020504000100F4
:020506002500CE
:020508003000C1
:02050A003100BE
:02050C002E00BF
:02050E000100EA
:0105100001E9
:0805140004000000086F010063
:08051C000000000000000000D7
:0405240000000100D2
:0405280000000300CC
:04052C0087C401106F
:04053000380500008A
:040534003805000086
:0405380000000000BF
:04053C00800000003B
:040540008000000037
:0405440000000000B3
:040548004007002048
:04054C00CF290100B2
:040550002000000087
:04055400F46E010040
:04055800F46C01003E
:04055C000DC30110BA
:0405600095210100E0
:0405640097210100DA
:0405680099C801101D
:04056C009BC8011017
:040570000000000087
:040574005EBB00006A
:04057800706B0100A3
:04057C00886B010087
:04058000586B0100B3
:0205840008006D
:0205860009006A
:02058800010070
:02058A0000006F
:01058C00016D
:040590000000000067
:040594000000000063
:04059800000000005F
:04059C00000000005B
:0405A00079200100BD
:0405A400BD20010075
:0405A800611F0100CE
:0405AC00EB2001003F
:0405B000C91F01005E
:0405B4007D1F0100A6
:0405B8000920010015
:0405BC002D210100EC
:0405C0004D290100C0
:0405C4004B2B0100BC
:0405C8004F2B0100B4
:0405CC000800000023
:0405D0002400000003
:0405D400180000000B
:0405D80028000000F7
:0405DC0020000000FB
:0405E0003C000000DB
:0405E4000C00000007
:0405E80034000000DB
:1005EC00DFF800F0F93A0110DFF800F0C93A011019
:1005FC00DFF80C2C808913880021984208D25268AD
:10060C000C2303FB00200F220078104218BF01219D
:10061C000846704710B5DFF8E82B838952680C2424
:10062C00012904FB032402D1408860800DE00229DB
:10063C0007D141886180001D00F055F828B9207061
:10064C0003E0011D201D00F047F8207840F08000E9
:10065C002070BDE8104006F076B8F8B500F026F929
:10066C00A0810020217809B30025DFF8946B19E0F4
:10067C0071680C2202FB05170F223978114210D138
:10068C0020783870211D60887880381D00F024F89F
:10069C00A581387840F08000387006F054F8358821
:1006AC0001206D1C3188ADB28D42E1D3F2BD38B55D
:1006BC00DFF84C4B208068B10C2101FB00F5A8B28F
:1006CC00FFF7B6FC606030B1AAB2BDE8384000213B
:1006DC0008F013B9606031BD002918BFFFF780BF67
:1006EC00082208F00AB9002140B10022135C0BB1BA
:1006FC0001210822521CD2B2082AF7DB08467047A7
:10070C001FB50C460021ADF802008DF8001000A8B2
:10071C0000F055F801A92046FFF7DEFF2046FFF751
:10072C00E2FF04B010BD1FB50C4600218DF800107F
:10073C00014601A8FFF7D0FF00A800F06CF8BDF847
:10074C000200208002F0B7FD14BF0120002004B08D
:10075C0010BD38B50546FFF74BFF0446012C0BD1F5
:10076C0000F025F82A78017882F0FF02114041F060
:10077C008001017005F0E7FF204632BD38B5054613
:10078C000024287888B12846FFF732FF0446012C54
:10079C000BD100F00CF8297802780A4205D141F00F
:1007AC0080011143017005F0CEFF204632BDDFF809
:1007BC00500AA98940680C2202FB01007047F8B569
:1007CC00044600F077F8628800204FF6FE718A42EA
:1007DC00A1811FD00025DFF8286A17E00C21726870
:1007EC0069430F278B5C3B420FD08F1861887A8846
:1007FC0091420AD1381DFFF776FF012802D1391D2D
:10080C0000F059F8A581012035886D1C3188ADB2F6
:10081C008D42E3D3F2BD2DE9F04100F047F8608042
:10082C00A0814FF00008201DFFF75DFF01281BD1B0
:10083C000026DFF8CC7913E00C20796870430F2385
:10084C00425C1A420BD04518291D201DFFF7CCFE27
:10085C0028B16888A68160804FF001083E88761C1C
:10086C003888B6B28642E7D34046BDE8F08170B511
:10087C0000F01CF8608000F01DF82046FFF7B8FE71
:10088C000546012D10D1DFF87809A18940680C22AA
:10089C0002FB010670886080301DFFF724FF0128E1
:1008AC0002D1311D00F007F8284670BD04464FF602
:1008BC00FE7070470021201D0EE72DE9F041044623
:1008CC0088B04FF6FE75A58100268DF80060211DBD
:1008DC0001A8FFF701FF00A8FFF79DFF00270128E3
:1008EC004FF0010808D1BDF80C006188A081BDF85B
:1008FC00020088423DD000AE8DF810706088ADF8D3
:10090C00120004A8FFF75BFF012808BF04AF3EB13B
:10091C00B089A08101212046FFF77CFE4FB30BE08C
:10092C00C7B1B889A081381DFFF7DDFE012807D1BA
:10093C002046FFF792FE80467D800221384606E075
:10094C00201DFFF7D0FE012813D103212046FFF70D
:10095C0061FE0EE06088A84207D1201DFFF7C3FEA0
:10096C00012818BF4FF0000803D12046FFF775FE91
:10097C0080462046FFF702FF404601F04BBF70B5A2
:10098C0082B000F049F80DE068680C2101FB040608
:10099C00009600F02BF808F0B4FB10B93078C04387
:1009AC003070641CA4B228888442EDD373BD30B57A
:1009BC0085B000F031F812E068680C2101FB0400EE
:1009CC0001780A060AD511F07F01017002D100F0FE
:1009DC003AF801A800F009F808F064FB641C2888B8
:1009EC00A4B28442E8D305B030BD00900C230022A1
:1009FC0021460120704738B500F00EF806E00023C0
:100A0C000C222146012008F005FB641C2888A4B2A6
:100A1C008442F4D3002032BD0024DFF8E457704741
:100A2C0030B585B000F00FF8FFF7F6FF05E001A830
:100A3C00FFF7DBFF08F036FB641C2888A4B2844265
:100A4C00F5D305B030BD0C22FF2101A807F055BF2E
:100A5C0080B508F0E1FBDFF8D00C0FF27911C16121
:100A6C000FF2A91101620FF2492141620FF26121CB
:100A7C00816201BD10B5DFF8B04C002161702070AF
:100A8C0004F17400DFF8041DFFF7AAFDDFF8000D78
:100A9C000078A070DFF81C0DA06110BD2DE9F04F9F
:100AAC000D46280485B0DFF8806C4CD5307807F003
:100ABC00E3FF5FEA000B43D00BF114040BF10209C6
:100ACC00A07A002804BFE089132815D1B9F800A03A
:100ADC00F06B002702E0FFF7B8FA404660B10288DD
:100AEC004168524505D1002F884614BF7960F163E7
:100AFC00F1E707460846F1E7617F484600F0E5FA62
:100B0C00D8B99BF80000012812D1607903900BF141
:100B1C00100320680290494699F811000190207941
:100B2C0000900BF11C00B9F80A2009F016FD04E046
:100B3C00022804BF584601F008FB584607F02EFF68
:100B4C0085F4004014E0A80704D50120F07085F06E
:100B5C0002000DE028070AD500F070FA20B93064C5
:100B6C00082130780AF020FA85F0080000E0002017
:100B7C0005B0BDE8F08F38B504466068007D1030D4
:100B8C00C0B207F0F9FE050022D002202870002028
:100B9C00687020886881A07828736068007D28724E
:100BAC0005F1100068606068007810F0200118BF33
:100BBC00012169726068027D0169686807F085FE31
:100BCC002946BDE83440DFF8600B007807F0F5BE2D
:100BDC0031BD000038B50C4611461A4608F0FDFB35
:100BEC00050011D0214608F0B9FB68B12146284612
:100BFC0008F0C5FB30B96C88284608F0A8FB2046E5
:100C0C0008F087FC002032BDB42032BD2DE9FE4334
:100C1C0081460D46B3264FF00008002700E07F1CEC
:100C2C00DFF8F40C0078FFB287423ED2384608F069
:100C3C001EFD0400F3D0607940445FFA80F8C14592
:100C4C00EDDA18220021284607F057FE6179A9EB4E
:100C5C0008000818C0B204EB4000C088688103F09B
:100C6C0011FC01462846FFF7BBFC6078012802D135
:100C7C002875608813E0608800A908F07CFC78B1C6
:100C8C009DF8080028759DF80800032805D100A9D7
:100C9C0005F10C00FFF7A4FC02E0BDF80000A881F0
:100CAC002078287200262079A8753046BDE8FE838E
:100CBC00428913070BD5920708D5427B062A18BF29
:100CCC00E92903D0CD2918BFF02900D135E17047AF
:100CDC002DE9FD4F0E46F188F07884B008F0DFFB6B
:100CEC005FEA00084FF0000B72D0317DC0B204F007
:100CFC00C2F904006CD0F188F078002208F0E8FB0F
:100D0C000546F0786071D946F088E080B07D60814E
:100D1C0084F808B0327D3169E06807F0D6FD13988D
:100D2C00608214982075DDF844A034E0688808F0DF
:100D3C0035FC7880287938713178490603D5B97932
:100D4C0041F00201B971BBF1000F01BF7988DFF8E6
:100D5C00CC2BD28A914214D1B07000200390CDF8E4
:100D6C0004A01298059B0499029000200090DFF8D3
:100D7C00AC0B828C304601F016FBB87940F00500C4
:100D8C00B87109F10107F188F078FAB208F0A0FB0C
:100D9C0005465FFA87F97DB1C1450DDA04EBC90050
:100DAC0000F116070020387068780128BED1387021
:100DBC004FF0010B6888BCE7204604F071F90094F1
:100DCC00109A9DF818105346304600F013F80FE0B7
:100DDC00F0788DF80300B8F1000FB07D8DF80400A9
:100DEC000CBFB92010208DF8050000A801F0D6FA30
:100DFC0004F09DBA2DE9FE4F86B00446129D28469C
:100E0C0004F004F90646284604F01EF9002E00F002
:100E1C008B804FF00008DFF8049B01E008F101081B
:100E2C00287C5FFA88F880457AD2F6B2002E77D00B
:100E3C0005EBC80000F11607B879C007EED49DF891
:100E4C0020004FF0000B4FF0080A08B14FF0200BB8
:100E5C000C22002100A807F050FD3878A8B199F8B1
:100E6C0068107888012908D1ADF800004BF0080B08
:100E7C00FF2041F2080A387111E0A0804BF00C0BF6
:100E8C004FF00C0A4FF6FF7007E09DF8180018B1F0
:100E9C004BF0400B4FF00A0A7888ADF800008DF843
:100EAC0002B0207D00F042F801F06FF99DF81400BB
:100EBC0048BB0398407D78710398A0F816A09DF864
:100ECC001C104176387818B1039999F868000877A6
:100EDC000398698920F8281F698A4180297D01714E
:100EEC000399687981F83A000399387900F000FE8B
:100EFC000398A1888187227D2169406C07F0E5FC6D
:100F0C0000A801F0A9F9B87940F00100B8719DF87A
:100F1C00141000290EBF761E40F00800B8717DE752
:100F2C000021284600F04BF804F0FEB98DF80400BF
:100F3C0001208DF8050000A87047F0B5044689B073
:100F4C00207B0F4604F0FDF8060023D065691FBB1B
:100F5C00217B042204F00BF9E5B1A888ADF80E0052
:100F6C00E888ADF81000287A8DF81C00F06806901F
:100F7C0000208DF81D002068006A0078820928780E
:100F8C0000F0200300F0400108BF0422009602A8E4
:100F9C00FFF730FF09B0F0BD217B082204F0E7F821
:100FAC000028D9D0002DF5D001977189C9B20091D4
:100FBC00037942880178A87809F0B1FACDE77CB5BD
:100FCC0001220123002402E00023641CE4B2057C0E
:100FDC00AC420BDA00EBC4052D7FEE07F4D50C26E2
:100FEC003542F1D06D07F0D50022EEE7047A7CB9DA
:100FFC000BB901290CD10121017241798DF8031033
:10100C0040898DF804008DF8052000A801F0C6F980
:10101C0073BD0121D3E7DFF810170B7820B1002244
:10102C00CA700221024603E00120C870022102E0CE
:10103C00184609F08EBF184609F0B6BF2DE9F843E3
:10104C00DFF8D808DFF8E066807B00250024F76B1A
:10105C0000074FF0010920D40AF04DF8316C421A08
:10106C00DFF8281D0B889A4238BF01202BD3DFF8FC
:10107C00201D0978B2FBF3F81FFA88F8414534BFFC
:10108C0089465FFA88F903FB182189B2401A30644B
:10109C0003E03846FEF7D9FF47469FB1F878814503
:1010AC00B4BFA0EB09000020F870F978786829B972
:1010BC00002C804614BF6060F063EAE73C466D1C70
:1010CC000746EAE7A8B2BDE8F283F8B5DFF8584660
:1010DC00027AE56B0E46022A294646D1078800E0C3
:1010EC00496859B10888B84204BF8878B042F7D132
:1010FC00DFF89C0C0078C8700120F2BD002035B1DF
:10110C00012001E0401C0D4669680029FAD1DFF886
:10111C00E81C098880B2884227D20820FEF788FF95
:10112C0018B307808670DFF8681CDFF8F067097861
:10113C00C17000214160E16B09B1686006E0E063B9
:10114C00B07B000702D409F0D6FF2064B07B000707
:10115C000BD52078082109F03DFF30B9DFF82C0CB5
:10116C0002882078082109F003FF0020F2BDDFF887
:10117C00B81508710FF28D0008630FF269204863EF
:10118C000FF2ED408863704738B504000D4608BF78
:10119C00FEF77AFFDFF89005416C11B9446404E066
:1011AC000146C8680028FBD1CC600020E060A57126
:1011BC0031BD10B5DFF870355B6C00E0DB684BB10E
:1011CC00DC79844201BF9C888C429C799442F5D195
:1011DC00184610BD002010BD10B5DFF84C154C6C36
:1011EC00A04203D1E4684C6406E00C4624B1E168EB
:1011FC008142FAD1C168E160FEF727FF204610BD9D
:10120C00C0440020FEB50646307A002818BF0128DD
:10121C000BD0308803F0BAFB38B9307A032806D1EA
:10122C0001A9304600F01CFE20B90220FEBD30881A
:10123C00ADF80400708A443080B2FEF7F9FE040069
:10124C005ED04422002107F058FBB07ADFF8D85466
:10125C0000A909F0CEFB04F134079DF80000B87129
:10126C0001219DF8010078712046FFF78DFF2422A3
:10127C00314604F1100007F028FB04F14400F8603B
:10128C00708A3881728A7169F86807F01EFBBDF8A4
:10129C000400A0806878E071401C687009F02BFF96
:1012AC002080FF2097F905108840F870F878B87006
:1012BC0000208DF80800307E10F0010118BF0121CC
:1012CC008DF8091002A809F050FB801E387039788F
:1012DC00388990FBF1F020723978388990FBF1F263
:1012EC0001FB120010B1207A401C20720121208DCC
:1012FC0040F008002085287907F080FC0020FEBD16
:10130C001020FEBD70B5044609F0F5FE208004F1F6
:10131C002A03DFF8B41B987B0978884258D2197BD2
:10132C00FF2903D1401C9873587B1873D97A1A7B08
:10133C00002001E0401CC0B2DD7BA8420BDA82F039
:10134C00FF0525FA00F6F507F4D54118012505FA35
:10135C0000F0104318739D7A588AC9B205FB11022C
:10136C0092B2AA420ED3187BFF282A460CD0187CC6
:10137C006080208D91B940F020002085207A187172
:10138C00206C14E0FF201873DFF89005DFF83C5B4D
:10139C0000792D78684364256843E9E74FF6DF75DB
:1013AC00284020851971206C9D7A05FB0100606234
:1013BC00D2B2E079D8706284DB48826C100002D023
:1013CC000846904768B904F11000BDE87040E1E3AD
:1013DC001978A07EE92209F08FF82046BDE870400C
:1013EC00FAE670BDF8B504461646607D0122FFF79B
:1013FC00E0FE050036D0002E01BFE07D05F12A0687
:10140C00F17A88422ED1AF1CF37BBA79217E181861
:10141C0090420ADBFF2908D13178387E002209F08E
:10142C006BF82846BDE8F240D6E6FF290BD1FF2029
:10143C0098403073307BF17B7073F07A0818F0723F
:10144C000020B07302E07173207E307309F053FEFC
:10145C0028800121307C3880BDE8F440B248007906
:10146C0007F0CCBBF1BD2DE9F047044682B0A07863
:10147C00884691469A4609F05CFA05005FD01C201C
:10148C00FEF7D6FD070059D01C22002107F035FAD3
:10149C00A07800A909F0ADFA9DF801003875022179
:1014AC003846FFF771FEB8F8000097F91410B880B1
:1014BC00607DF871FF208840787468680078387413
:1014CC00207DB874E17D4843303080B207F054FA87
:1014DC000500BD612ED01A202870AE1C002068704B
:1014EC0030804146E0887080A81D09F072FAE078DF
:1014FC007073DFF82804808CF08105F11C00618B7F
:10150C00018261893182A178B174217BF17499F8DF
:10151C000010317599F80110717599F80210B175B8
:10152C0086F817A00A99016005F13001C160A17D10
:10153C00017203E03846FFF74FFE00273846BDE83E
:10154C00F6872DE9F84FDFF8E0B188460546DBF861
:10155C004810EC7D0027080091469A4604D020469E
:10156C008847002840F08280B8F80010687D02227D
:10157C00FFF71FFE060012D16878C00776D50A98CF
:10158C00009053464A4641462846FFF76CFF06003A
:10159C006CD0347201219BF8040007F02FFB307AD9
:1015AC00401E8442307C08BF0127FF284BD068784E
:1015BC00F17CC007307D48BF0024421894424FF0A4
:1015CC00FF0904DB4118F17409FA00F07074B0697A
:1015DC00B37C806A2A7D296903FB040007F075F946
:1015EC00307D727C94FBF0F1012300FB114C03FA6B
:1015FC000CF31A437274AFB100FB1140401C09FA92
:10160C0000F010437074B169B07C2A7D04FB00209B
:10161C00C884707CFF2805D1307C07F0CEF986F8A1
:10162C00109010E009F067FD3080DFF8A018BB487F
:10163C00097800794843DFF89018097801FB00001D
:10164C00642148437080F07C317D0918491E8C421E
:10165C001CBF717CFF2900D047B1E8752946707C0E
:10166C002876B8F80000BDE8F44FFFE1BDE8F18F33
:10167C0001462D48007907F0A0B9F8B50C462004B6
:10168C00294D19D4E0074DD56E6C09F034FD4FF699
:10169C00FF7180B20A461FE03078012809D17069C9
:1016AC00009006F11002F37CB11C06F11C00FFF750
:1016BC0048FF304607F072F9287907F0DDF906008B
:1016CC00EAD184F40040F2BDA7EB0C039342F66818
:1016DC00BCBFA7EB0C0292B2DEB133887788C31A79
:1016EC001FFA83FCBC45EFDBB079022809D1307CB2
:1016FC00FF281CBFB06907F051F93046FFF76CFDAD
:10170C0002E03046FFF7FEFD2879012107F076FA5A
:10171C0005E08A4203D02879012109F01AFC84F0F3
:10172C000100F2BD0020F2BDBC02002070B50D46D8
:10173C000446298800F02EF808B1B82070BD00F0DE
:10174C009DF8DFF8B0180978884201D3B22070BD3B
:10175C001820FEF76DFC060001D1102070BD002092
:10176C003060347112222946B01D07F0AEF8DFF854
:10177C008808016811B9066004E001460868002871
:10178C00FBD10E6000F09DF8002070BD7844002065
:10179C0021080020DFF86028126842B113798342D7
:1017AC0012BFFF28D3888B42F6D1901D70470020C2
:1017BC00704700007044002010B5DFF83C28146816
:1017CC00FE290CBF0123002303E0914208BF012333
:1017DC0024683CB1E2888242FAD12279002BF4D001
:1017EC00104610BDFE2010BD10B50022DFF80838E1
:1017FC0007E01C79844204D1DC88D2B221F8124073
:10180C00521C1B68002BF4D1D0B210BD38B5DFF8D8
:10181C00E8371A68002401E0144612688AB1157979
:10182C00854204BFD5888D42F6D11068002C0CBFC0
:10183C00186020601046FEF708FC00F042F801200A
:10184C0032BD002032BDF8B5DFF8AC57044628682D
:10185C00002603E00768FEF7F8FB384658B102791A
:10186C000168A24204D1002E0CBF29603160F1E75F
:10187C0006460846F2E7BDE8F14022E00020DFF81A
:10188C00781700E0401C09680029FBD1C0B27047F2
:10189C0010B5DFF86007007814214843811C002242
:1018AC0089B2422007F0E1FB040018BF00F002F8F7
:1018BC00204610BD80B500F0DFFE422007F01BFC77
:1018CC0001BD10B586B00020ADF80000DFF8280788
:1018DC00046815E020798DF804001222A11D0DF189
:1018EC00060006F0F2FFBDF8000014225043811CE4
:1018FC0001AB89B2422007F0FEFB00F0C4FE246865
:10190C00002CE7D100AB02220021422007F0F3FBB0
:10191C0006B010BD00000000406C0100D43F002058
:10192C0030B587B000AB02220021422007F030FC1A
:10193C000024C8B9002512E014206843811C01ABB7
:10194C00142289B2422007F023FC38B99DF8040018
:10195C000DF10601FFF7EAFE00B9641C6D1CBDF821
:10196C000000ADB28542E7D3A0B207B030BD10B5D0
:10197C0000228A70CA700023027F0A75826A4B7338
:10198C008B80838D4B83C3894B8112F8013B0B7089
:10199C0003F00304032C65DA002C18BF022C33D19E
:1019AC0003F00C040C2C08D0DB065CBF12F8013BD6
:1019BC008B70082C08BF012300D000230C2C0B7358
:1019CC0006D11378547803EB04238B80921C0AE025
:1019DC00437903F00303012B05D10B7843F00C037F
:1019EC000B7043898B800B78DB060DD413785478FD
:1019FC0003EB0423CB8012F8023F547803EB04234F
:101A0C000B819378CB70D21C12F8013B4B750B7881
:101A1C001B0618D512F8013B4B70FC24234221D134
:101A2C0003F00304032C1DD0032423420DD012F821
:101A3C00013BCB750B7803F00303022B05D112F895
:101A4C00013B0B7601E000234B700A610B7D9A1A67
:101A5C00836A9A180A75037F9B1A4B73D2B2007F64
:101A6C00904202D200204873087510BD70B50C4628
:101A7C0086B00546207800F00C01020648BF41F004
:101A8C00800141F0020600F00301012908BF46F075
:101A9C001006800648BF46F020060C22002100A844
:101AAC0006F02BFF8DF8026060788DF80300ADF81E
:101ABC000050FFF73DFA00F068FB9DF81400A8B940
:101ACC000399012048760399A07881F83A0003998C
:101ADC00E07800F00DF80399207E81F84C00039912
:101AEC00E07D81F84B0000A800F0B6FB06B070BD9D
:101AFC0081F83B000398E18820F83E1F2189418042
:101B0C00617DC172704702460020537B042B00D0CC
:101B1C00704730B5137CDBB95269CAB11378032412
:101B2C00234201BF4B68547B5D7DAC4210D154897C
:101B3C0009888C4202BF9188DC88A14208D1917837
:101B4C009A7891421DBF197801F00C0104290120EB
:101B5C0030BD1CB50346084603224178114208D01B
:101B6C00DFF8F0164C6B210013D000221946A04769
:101B7C0013BD0190ADF8003000A9DFF8480702F062
:101B8C003EF930B10621417300210068407B01F021
:101B9C0096FB13BD2DE9F0430446DFF8B886E57AD1
:101BAC0098F8030087B008B9BA20ECE000F071FA9D
:101BBC0001278DF805700026207E400709D59DF879
:101BCC00020040F040008DF80200207E000758BF54
:101BDC000327208BC10648BF47F04007000710D5EC
:101BEC009DF8020040F0C0008DF80200217E9DF8A7
:101BFC00030089064CBF40F0010040F002008DF854
:101C0C000300208B217ADFF8C09600F4C070B0F589
:101C1C00C07F08BF47F0080751B9B9F81600ADF8F6
:101C2C0000009DF8020040F004008DF8020031E045
:101C3C009DF802200F2942F0080347F0040006D15A
:101C4C008DF8023007462188ADF8001022E00229F9
:101C5C0002D100F03BFB1DE0032904D100A9204672
:101C6C0000F0FEF816E0012914D199F8681039B18A
:101C7C008DF8023047F4805700F028FBFF2508E070
:101C8C0042F00C018DF8021007464FF6FD71ADF8CD
:101C9C0000102688207EC0071DD59DF802000C215F
:101CAC0008420BD1208806F0C0FB08B9BB206AE0C3
:101CBC009DF8020040F020008DF80200207EC00745
:101CCC0009D59DF8020000F00C01042904BF40F076
:101CDC0020008DF80200608A8DF8040000A800F046
:101CEC0054FA9DF8140000284BD10398C782E17E6A
:101CFC0041760399207F8876207A012803D10399B5
:101D0C0099F8680008770398A17E20F8281F218B8A
:101D1C004180E17F0171208B00F4C070B0F5C07F71
:101D2C0005D10398417D94F8200003F035FA03990E
:101D3C00A07A81F83A00039880F83B50039820F879
:101D4C003C6FE1894180218A8180A17E8173039956
:101D5C00A07F81F84B000399607F81F849000398BC
:101D6C00628A6169406C06F0B0FD207E400605D5A4
:101D7C00D8F84C1008001CBF00A8884700A800F039
:101D8C006BFA9DF8140007B0BDE8F0830E08002034
:101D9C002308002010B50078632420B1052009F039
:101DAC006BFBC0F15604DFF82005007B20B109F075
:101DBC0063FB201AA0F10E04E0B210BD13B511465E
:101DCC001A46DFF8A8351C68230008D001AB009335
:101DDC000123A04708B1002016BDB22016BDB620C5
:101DEC0016BD38B5DFF86C44E469250001D0A04776
:101DFC0032BDB62032BD00001008002038B50346B5
:101E0C00B5200C46A22B1546DFF848140CD0A32B9A
:101E1C0002D0AB2B10D032BDDFF8541509680A0084
:101E2C000FD0884728800BE00A6A110009D0294698
:101E3C002046BDE83840104789692846FEF7D0FB9C
:101E4C00002032BD0146B520AB2900D0704780B5CB
:101E5C00DFF8000480691146FEF7C2FB002002BDCA
:101E6C0070B504460D4602F00DFB01462046FEF708
:101E7C00BBFB012618B102F02BFE288004E029469A
:101E8C002046FEF750FC0646304670BD10B50446A1
:101E9C000E20FEF7CDF8A8B104F138010A780270D3
:101EAC004A7842708A788270CA78C270CA888280F6
:101EBC000A89C2808A7A02728A7C027362884281A1
:101ECC00497C417310BD00001F0800202008002031
:101EDC000021017570470120704701210175704781
:101EEC0001207047DFF80C06DFF80C160160DFF8F4
:101EFC000C164160DFF808168160DFF80816C16027
:101F0C00704770B5C26892F83810126911F003046A
:101F1C0018BF022C02F8011B39D111F00C0318BFA9
:101F2C00082B01F0100504D0042B07D1022C00D192
:101F3C008DB9C66896F83B6002F8016B0C2B08D182
:101F4C00C668B68F02F8016BC668B68F360A02F8FF
:101F5C00016B022C00D1D5B9C468E48F02F8014B97
:101F6C00C468E48F240A00F049F800F047F8240A0A
:101F7C00002B18BF082B02F8014B03D00C2B18BFF9
:101F8C00042B04D1C36893F83A3002F8013B0326C2
:101F9C00C36803F12A0401F00203E57B354208BF54
:101FAC00002B02D125782D0603D5E47F02F8014BD6
:101FBC0008E0DFF8A0526E78E6776C7802F8014BF7
:101FCC00641C6C70090614D5C16891F8391002F8BC
:101FDC00011B0325C16811F8394F2C421EBF897CA7
:101FEC0002F8011B002B04D0C06890F84C0002F8DA
:101FFC00010B70BD416C01000845002002F8014B3B
:10200C00C468B4F84040704730B50268917801F06C
:10201C0003030124002B18BF022B20D111F00C0557
:10202C000BD0082D08BF02240BD0042D06D1022B97
:10203C0001D1CB0607D4062410E002240C2D08BFD6
:10204C00A41C022B01D1CB0609D4241D002D18BFD2
:10205C00082D03D00C2D18BF042D00D1641C0B06C9
:10206C0004710CD503795B1C03710324D2782242D2
:10207C0005D05A1C0271890744BF511C01710179AA
:10208C00491C017130BD0069002818BFFDF7DDBF88
:10209C0070470C22002100A806F02FBC00B585B0BB
:1020AC0000F03BF8416849788DF802104168891CB2
:1020BC0001919DF80210042905D141681231029159
:1020CC0040681A300CE0012918BF06290AD1416872
:1020DC00897C8DF8031041681331029140681B30E4
:1020EC00039008E00021029141681231039140688D
:1020FC00807E8DF81000029850B1FEF7F4FA01289A
:10210C0006D102F0BFF901460298FEF76DFA10B144
:10211C0000A800F095F905B000BD4189ADF800109C
:10212C00704780B5FFF7F9FF406840788DF80200E2
:10213C0000A800F0B0F901BD41680978052902D06A
:10214C00092901D07047A9E7EBE7DFF82015DFF884
:10215C00202509781278114304BF417A002905D152
:10216C0041680978062918BF07290DD0017B39B9B8
:10217C004168097805291CBF4FF49A7007F0C8BD57
:10218C00DFF8F01409680847704710B584B00446AE
:10219C0001940020E060019908610199087501A87B
:1021AC00FFF732FF019848490088C98A884211D04C
:1021BC000198807880060DD5DFF8381301980968EE
:1021CC0088470198006928B901980199807800F036
:1021DC00DF008870207D00283AD150208DF8000057
:1021EC009DF80810207908188DF8010060798DF899
:1021FC000200206938B1027F407F9DF801108018E1
:10220C0040188DF8010000A800F07CFAD8B12188A4
:10221C004180012200F110014A7200F13802A378CA
:10222C001370E37853702379937209689DF8083022
:10223C0013745918D160216919B1D368097FC91871
:10224C00D160E0601FBD2046FFF71DFF10202075F8
:10225C001FBD0000BC02002010B50446207D88B9CB
:10226C002046FFF74EFE206908B100F00FF8E06839
:10227C00217D19B900F016FA207503E0FDF7E5FE93
:10228C000020E0602046BDE81040FCE6DFF8641258
:10229C0049682046084738B50D460B49C98A04469B
:1022AC00688B884205D0204606F0BFF808B901209B
:1022BC0032BD29462046BDE83840DFF83822D268C6
:1022CC0010470000131B0000D43F00202088ADF8FD
:1022DC00000070479DF8140006B010BD10B586B014
:1022EC0000F032F86078012818BF042822D10220AF
:1022FC008DF804009DF81400D8B92078ADF80000D2
:10230C0021208DF80200FEF713FEFFF73EFF9DF82B
:10231C00140070B90398406C082101706178417009
:10232C006178022903D16168801CFEF759F900F02D
:10233C0009F8CFE7022808BF0A20D9D0B3208DF8BE
:10234C001400F6E700A887E7044600208DF8140077
:10235C000C22002100A806F0D0BA80B5FFF7C2FD10
:10236C00DFF81013DFF89803086001BDC8420020A5
:10237C00CC420020DFF81C0480690822FF2106F003
:10238C0028BE0000406940B1427803231A4204D1B0
:10239C000A46017B807808F0AFB870474279017922
:1023AC00C07808F0A9B82DE9F04105468846287D8B
:1023BC00383017461E46C0B206F0DEFA04003DD097
:1023CC00012020701C22294604F11C0006F07DFA25
:1023DC000A224146A01C06F078FAA78130782074B6
:1023EC00B078A074707860740798E0740020E06294
:1023FC0008986061069820766889E0810998607673
:10240C00287D30B104F13800E0622A7D296906F09C
:10241C005CFA617FDFF87C03032211420AD0816BE6
:10242C00080020461CBFBDE8F0410847BDE8F0415C
:10243C0006F0B4BA2146BDE8F04129E0BDE8F081D0
:10244C0038B50446202006F097FA050016D0042073
:10245C002870102220886880A0782871E078687134
:10246C00A81D00F00DF8E16805F11600FEF734F92F
:10247C00207CA8772946607CE87705E031BD281DD3
:10248C00616806F022BA2946BDE83440DFF88003C3
:10249C00007806F092BA10B50446062006F06CFAE5
:1024AC0068B10821017021884180A1780171014631
:1024BC00DFF85C030078BDE8104006F07EBA10BD72
:1024CC0030B500220023242509E0DFF8604305FB2A
:1024DC0003442479844224BFA142521C5B1CDFF8C4
:1024EC0048432478A342F0DBD0B230BD0000022177
:1024FC000120E5E704440020DD1E0000E71E00007B
:10250C00ED1E0000E31E0000F0B504460D464FF62C
:10251C00F870854285B000DB1CB3002708E04FF64D
:10252C00FF70854202D03088854218D07F1CFFB2E4
:10253C0001F04EFA874214DA00F0ABF801FB070603
:10254C003079FF28F2D0002CE9D000F086F8002872
:10255C00ECD001A92046FEF747F80028E6D030461B
:10256C0000E0002005B0F0BDF0B5DFF8BC22DFF8CC
:10257C00BC52137824244FF6FE72904208BF0026FA
:10258C0019D0002600E03E469E4214DA771C6643C2
:10259C0006EB050CFFB29CF804C0BCF1FF0FF2D0A7
:1025AC00765B8642EFD13E4605E0012818BF032832
:1025BC000DD0761CF6B29E420BDA04FB06F77819A6
:1025CC0000290079F1D00028F3D00528F1DA785BE6
:1025DC00F0BD1046F0BD0121C6E72DE9F0410446DF
:1025EC000421FFF785FF050013D0680080B2FDF7CA
:1025FC001FFD06000BD04FF6FE7837464046FFF71E
:10260C00EAFF404518BF27F8020BF8D102E000257D
:10261C0000E00026257001F024BB002201E0401EE2
:10262C00521CDFF804120978D2B28A420CD2DFF8BD
:10263C00FC11242303FB02110B79052BF0DA80B279
:10264C000028ECD1084670470020704705B0BDE863
:10265C00F08301208DF80000704701208DF80000F8
:10266C007088ADF80C0000A8FEF701B92408002012
:10267C001D4500200C4500200020ADF8000000ABEB
:10268C00022200217047BDF80000401CADF800008C
:10269C007047664824217047DFF83018DFF830089F
:1026AC00C860704738B50446DFF8500A017C082929
:1026BC0018BF042908D0217801F00301012902BFB9
:1026CC0021690978062913D161884FF6FE7291426F
:1026DC000ED00088814204BF207F002803D0204602
:1026EC0001F016FC02E0204601F09EFC054600E0DD
:1026FC00C2252046FDF7A9FC284632BD000000008B
:10270C004521000038B5044620786178081880B25D
:10271C00FDF78EFC050013D02278002106F0EDF8B1
:10272C004FF6FE70688002F0D3F9A880207840192B
:10273C0028616078287501F0BDFE6875A078287650
:10274C00284632BD70B5DFF83047054694F82600B0
:10275C00042814BF0828C22088B00E4618D004F1F3
:10276C0028000560867100F017F801208DF8040030
:10277C0000208DF80700022084F826000020DFF8E6
:10278C009C13009508708DF8056000A808F007FFF1
:10279C0008B070BDBC0200201C22002100A806F06D
:1027AC00ACB830B5DFF8D0560446686F87B0F0B9D6
:1027BC000820FDF73DFC6867B8B1216801601C2258
:1027CC0021790171696F60794871696FA07988719D
:1027DC00FFF7E3FF2068009020798DF80500607901
:1027EC008DF8040000F019F802E0102000E0012040
:1027FC0007B030BD10B5DFF88046606F18B1FDF73B
:10280C0024FC00206067BDE8104001F01DB90000F9
:10281C004804002008B0BDE8F08100208DF80700C6
:10282C0000A808F0BCBE0000EC6B0100A02C00203E
:10283C00F0B50F46DFF84016012689B0044681F842
:10284C0026601C22002101A806F057F80025032061
:10285C0001948DF809708DF808008DF80B503442F6
:10286C0018BF6D1C7600FAD100A95A2008F072FE30
:10287C009DF80000EDB268434FF4904148434FF48B
:10288C007A71B0FBF1F4DFF8380BDFF89C5A008852
:10289C00E8814FF48061287A08F086FB287A22467A
:1028AC004FF4806108F055FB01A808F078FE09B0E0
:1028BC00F0BD0000012200E000222DE9F843DFF812
:1028CC00B89509F10E060C469046F18A054622464B
:1028DC0001F084F8070008BFCA2079D0388900F0CD
:1028EC00EAFC08BFC32073D03189884208BFC220DC
:1028FC006ED03888F18A814218BFF082F08A02F0DB
:10290C0052FAF87A401C89F83800294609F1390046
:10291C00FDF766FE02208DF8010000A802F013F806
:10292C0005004ED0286906210170317841700120D4
:10293C00A87701F0A7FD68620120A8764020E88204
:10294C003889688085F818802846FFF7ABFE5FEA67
:10295C00000838D10920307609F11A013889DFF8DE
:10296C000C5BB081B07AA04218BFB4724B2008F057
:10297C0000FE09F12401502008F0FBFD09F11801BB
:10298C00E12008F0F6FD09F11601532008F0F1FDE5
:10299C00DFF82C0ADFF890490188E18101212A88AF
:1029AC000280207A08F0E4FA207A4FF4806108F073
:1029BC00FBFA28888200207A4FF4806108F0C9FA6B
:1029CC0001E04FF01008DFF8A81A0020087040460C
:1029DC00BDE8F2832DE9F241DFF89C4404F10E05C9
:1029EC008046287E042814BF0828C22087B01646CB
:1029FC001F4646D0BDF8380000F05DFC08BFC32070
:102A0C003FD0FFF7C9FE0320287607A9502008F015
:102A1C00B0FD0EA94B2008F0ACFDBDF81C00E882FF
:102A2C00AE724146BDF83800A8812F7004F1390010
:102A3C00FDF7D6FD07F0CE0040F080008DF81A00AF
:102A4C008DF80B6002208DF8160004F12D01BDF8F5
:102A5C003800ADF80E00BDF81C00ADF818000020D1
:102A6C008DF808000F20E877542008F082FD0F2025
:102A7C00A87704F12C01472008F07BFD00A808F092
:102A8C0087FDC7E610B584B041798DF80810002495
:102A9C0001798DF80A1001218DF80B10006810B126
:102AAC00FDF721FE90B98DF8094001F0EBFC019087
:102ABC00DFF8C009017B04290CBF00884FF6FD70BC
:102ACC00ADF8000000A801F05DFE0446204604B0FD
:102ADC0010BDDFF8A41310B5044691F826100020A1
:102AEC00082918BF042984B015D14FF6FD70ADF834
:102AFC00000001F0C7FC019000208DF809006078FF
:102B0C008DF8080020788DF80A0000208DF80B0055
:102B1C0000A801F037FE04B010BD000018450020DD
:102B2C00F8B504462568002D75D0DFF8FC67726A8D
:102B3C00100002D0217928469047687B022838D1B2
:102B4C00A87A800735D52079E9281CBFCD28F02834
:102B5C002FD0A87C00060CD5A87E50B1A87328688D
:102B6C00008801F013FF48B94FF4987007F0D0F8C3
:102B7C0004E0DFF8580C0078401CA873207950B999
:102B8C00002704E04FF49B7007F0C2F87F1C6079BB
:102B9C00FFB28742F6D3A87B401EA873A8762021EB
:102BAC0004206873DFF8780C00882881307A06F0EE
:102BBC0025F8687B022818BF06282CD1A87AC007F4
:102BCC0029D521792846FFF7DDFB68894FF6FE7180
:102BDC00084068812868008801F0D8FE0028207918
:102BEC0012D170B940F22F1007F092F800256079DD
:102BFC00EDB285420FD24FF49B7007F089F86D1C33
:102C0C00F5E740F2311002E028B940F22D10BDE892
:102C1C00F24007F07DB8F1BD2DE9F04F9BB08B462B
:102C2C008046924605A9FEF7A2FE9DF821000026DB
:102C3C000027002804BF9DF82800002809D09DF823
:102C4C001400400608F1040406D5E08801F09EFE4D
:102C5C0010B140F2351064E09DF81400864D00F080
:102C6C000C0004289DF814000CBF4FF00109B1466C
:102C7C00800616D50127B9F1000F12D12189EA8AF5
:102C8C00608D914205D100060BD5E088ADF82E1071
:102C9C0002E0000605D4084605A9FFF7FCFA002857
:102CAC003DD1618D080612D49DF8140040060ED556
:102CBC009DF815000322104209D19DF8140000F074
:102CCC000C020C2A1EBF00F00C00082801269DF8EF
:102CDC00140000F00300022804D1208905A9FEF796
:102CEC0038FF9DE0012812D12EB1080603D42089AB
:102CFC0005A9FEF7BBFE05A80D902089ADF83000A4
:102D0C00A0788DF832000CA8FDF735FF88E000287C
:102D1C00FCD1E87A012804BFA078002804D14FF434
:102D2C009A7006F0F5FF7BE002208DF86400208994
:102D3C00ADF85C0008F1300094F82A1009063CD577
:102D4C0002218DF84010E188ADF838109DF817106D
:102D5C008DF842109DF816108DF84310A98CADF823
:102D6C004410BDF81A10ADF84610BDF81C10ADF8A3
:102D7C0048109DF82810ADF84A1009991391618DEF
:102D8C00ADF85010A1898DF8521021788DF85310A0
:102D9C00A17B8DF854109DF829108DF855109DF8D5
:102DAC002B108DF8561001788DF8571080788DF80F
:102DBC0058000EA8FEF7EEFE32E0B9F1000F1DD060
:102DCC00A1898DF82A10DFF86015D1F828805FEA08
:102DDC00080125D0BDF85C10EA8A914220D1007818
:102DEC0004903346608D0390CDF808A001975A46A5
:102DFC002078009005A917A8C04711E01EB12089C2
:102E0C0005A9FEF733FEA07B0390CDF808A001972F
:102E1C005B46E07B009017A9AA8C05A8FFF7C3FAC4
:102E2C001BB0BDE8F08F03F0D3BB03F06DBC10B545
:102E3C0004461148807B000707D4DFF89409016C25
:102E4C0019B10078082105F0D9FE2046BDE81040E4
:102E5C0003F076BC10B5012904460BD1002102F019
:102E6C00D2FBDFF85C0B02782046BDE81040002155
:102E7C0002F0A6B910BD0000D43F002003F061BCE5
:102E8C0010B5DFF8A414DFF83C4B0872002084F86E
:102E9C002600DFF8340B0068400406D4DFF82C0B56
:102EAC00006810B1012180F82A1006F049FC743436
:102EBC000020A060606001F001FF06F044FC0020DF
:102ECC002060BDE8104008F0C7BB0000F0060020F1
:102EDC00313800002DE9F043DFF8F458287A0C461D
:102EEC0021048FB01CD505F0C7FD050015D00020BE
:102EFC000FF20C2100E0401CC0B2024611F8323037
:102F0C00FF2B07D02E78B342F5D101EBC201284636
:102F1C0049688847284605F041FD84F40040EAE002
:102F2C00A1040BD500F0CFFF050004D000F0A4FAEB
:102F3C00284605F033FD84F40050DCE0E107DFF8AF
:102F4C00982A0ED5107D0F2808D1002000F0F9F832
:102F5C0020B1DFF8D80A006800F0D3F984F0010042
:102F6C00C9E061041AD5DFF8D80A017806290AD11C
:102F7C000B210170DFF8CC0A017892F900200120B6
:102F8C009040FFF755FCDFF8DC0A0268287A4FF412
:102F9C00804107F0EDFF84F48040ACE0A10640F1E5
:102FAC009E80202108F016F8296D084308BF0126E1
:102FBC000BD008F0A0F8296D002621B1884234BF4F
:102FCC004FF0FF36461A760858D000F0B5F8074691
:102FDC000DF114082FE001F056F801AA4FF0FF3064
:102FEC008DF802003868C17F006A01F035F90128BC
:102FFC001BD1788A40F08000A8F81E00B97B8DF8B0
:10300C003410B97A090706D540F48070A8F81E0070
:10301C000DA9387B8870786910B1007BADF814006D
:10302C00002200A901A8FFF7F7FD06207873387B72
:10303C0000F01AFE4F460FB300220421384600F070
:10304C00C1FE81463889B0422CBF801B00203881DC
:10305C0038890028EED1B87B01280AD1B87A40070C
:10306C00B9D406207873B7213868407B00F027F973
:10307C00E0E70028AFD101207873DBE700F051FDC9
:10308C0000220121002000F09DFE18B1287A202199
:10309C0005F0B4FD00F050F8E8B1078903E00189B0
:1030AC008F4288BF0F460022042100F08BFE0028BF
:1030BC00F5D1B6B2287ABE4202D2BF1BBFB227B935
:1030CC00202105F09BFD002005E07A00202107F06F
:1030DC0040FF08F010F8286584F020000BE0600534
:1030EC0008D501F046FB01219089FFF79CFE84F482
:1030FC00806000E000200FB0BDE8F083EA3F0020C4
:10310C000A000000D73A0000020000000F37000050
:10311C00050000000D39000007000000E137000039
:10312C000C000000393300000D0000008534000055
:10313C00FF0000000000000000220421002000F02D
:10314C0041BE00B587B0182200F0D6FB00F004F8A1
:10315C0008F049FA07B000BD02208DF80800DFF82E
:10316C006408418B808CADF80A00ADF8001000208B
:10317C008DF8140000A8704710B50C008EB012D05A
:10318C00014600AA204601F067F89DF8060050B1F0
:10319C009DF81C309DF801202146002008F063F9B1
:1031AC0008B1A42000E000200EB010BD70B504469C
:1031BC008EB0A07ADFF80C5840064FF6FF7609D592
:1031CC002068008801F0E2FB08B1304606E0206878
:1031DC00008800E0688B00F06EF862D021680880EF
:1031EC0001F0D4FB014620684A1E9241D20FC281E5
:1031FC00DFF880190A68DFF8D01709684B044BD444
:10320C0057208DF80000722300A843706F23837041
:10321C0002736E238DF80330017467238DF804302C
:10322C0043238DF8053068238DF8063069238DF81B
:10323C00073070230372130E8DF80930130C837250
:10324C00130A0A0E42738DF80B300A0C827305A810
:10325C000A0A8DF80F200021242205F04EFB0220D3
:10326C008DF81C00ADF814600021A88CADF81E0080
:10327C0002208DF8200011208DF8330000A80D904D
:10328C0005A808F0B7F905000DD02068407B294649
:10329C0000F015F838B10BE0DFF8641A08F0AAF961
:1032AC00F1E7CD25F1E71CB10121204600F064FCCB
:1032BC0028460EB070BD4FF6FE718842704738B587
:1032CC0004460D46142005F057FB60B10C2101702B
:1032DC008470002181734570014600F060FD05F09B
:1032EC006CFB002032BD204600F07CFD38B106217D
:1032FC004173007B02F0D6F9204600F0B5FC10209B
:10330C0032BDDFF8001A8A790F2A0CD158B109782E
:10331C00082918BF042906D10246DFF8B404007A44
:10332C00012107F016BE7047BC0200203EB50446D2
:10333C00A07800F057FD05003BD06078E87360780A
:10334C00F12818BFCD2804D01A281CBFE928E12881
:10335C000BD10021284600F00FFC30B16A8961784E
:10336C00288906F055FA28811BE060788DF8080052
:10337C000195A07B8DF80900287C002801A802D1BA
:10338C00FFF7CEFB01E001F097FA9DF80830E92B2E
:10339C0007D12868012100914189E27B008801F066
:1033AC0098F8687B022804BF06206873A07800F0A8
:1033BC005BFC00F0B6FB02480088FFF7A2FF37BDAC
:1033CC0004080020F8B5851C0024E97891B12989FE
:1033DC00FF20FEF7DFF9082420B1E87840F0010067
:1033EC002C24E870E87800F0030001283CD144F06C
:1033FC00110439E000F12406E87EDFF8C87578B1D5
:10340C00E97F002918BFFF2905D12889F98A88424C
:10341C002AD1222428E03268A87F02F0CFF823E0DA
:10342C00288901F0B3FA02282889F98A08BF0124F7
:10343C00884208BF44F0020434B1297800290CBF3B
:10344C0044F0200444F0400401F0A0FA012828784C
:10345C0008BF44F0010438B17068007801F06AFAD2
:10346C00012818BF04F0FE042046F2BD0608002017
:10347C0047040020EE3F00202DE9F04F82460AF170
:10348C0004048FB0207900281FBFDFF89C09008846
:10349C000028FFF736FF2179206801AA00F0DCFE36
:1034AC0000286CD00DF10507012079780229F978F4
:1034BC00A8BF00200229BDF80E10A8BF00204FF6AF
:1034CC00F87291421CBF4FF6F972914257D04FF6E9
:1034DC00FA7291421CBF4FF6FB7291424FD0DFF84B
:1034EC00E4B4B9780BF10B06F279914247D100287C
:1034FC0045D00BA8417A002941D1218B81800DF157
:10350C000E05608CA880787938B1AB7C9DF80520CD
:10351C002168012007F0A7FFB0B901A8FFF752FFFF
:10352C008146787990B9307800281CBF09F02200C8
:10353C0022280BD009F04200422805D10B980178C3
:10354C00062918BF072901D0CF2019E05FEA49608E
:10355C0019D50B980178032918BF042904D0072921
:10356C001CBF0A290C290AD1032904BF40780D2855
:10357C0009D001A801F0B4FA012804D194E0D320B9
:10358C0006F0C6FB90E00BF12408A08EB8F80010F2
:10359C0088420AF13A0607D1002000903278618EF9
:1035AC00208B002300F095FF7879E8B1618E208B99
:1035BC0001F012FC07003ED020689DF80510081899
:1035CC00F978407B814202D0F87000207860206846
:1035DC009DF8052010180421401C05F09EF979680F
:1035EC00884261D3401C786098F80200042818BF08
:1035FC00092859D15FEA896032D530788DF80000FE
:10360C0070788DF80100B0788DF80200287A0128C6
:10361C0002BF6888218B884207D1BDF80E0001F0EB
:10362C00B5F9022804BF00202872E26A00A901A89B
:10363C00FFF7F2FA38E09BF86C000128D4D10B9814
:10364C000078062802D15FEA4960CDD4A8884FF6ED
:10365C00FF71884228D0514601A800F028F823E0D9
:10366C005FEA496020D50B980078042807D1A87C24
:10367C00022819D101A9002001F0CBF814E0072889
:10368C0006D1A87C04280FD101A801F041F80BE069
:10369C00032804D1002101A801F064FA04E00C28ED
:1036AC0004BF01A801F0B7FA0FB0BDE8F08F38B530
:1036BC000D460446DFF854186089097841B1DFF8EB
:1036CC000413C98A884204BFBDE8314001F006BE2C
:1036DC00002102F014F800281EBF8079182108423E
:1036EC0008D0E88C0090AB8B627F6189A08902F0D6
:1036FC0089F831BD6189A089BDE83840002201F00C
:10370C0019BEFEB5DFF8BC4204F10E050746287E53
:10371C0003281CBF0128092857D17978DFF82063CA
:10372C00002939D1022006F072F878882881B91C5A
:10373C00532007F01EFF287E09281CBFE88A01F0E1
:10374C0032FBFEF786FF00A9422007F012FF04208F
:10375C00287601A94A2007F0FDFE01A904F11C00FE
:10376C00FCF73EFF30780B2802D10620307003E0C6
:10377C00E88A0021FFF757FB2989032006F047F858
:10378C00A989042006F043F8287800F09BFF07F085
:10379C00F0FE00F0BAF916E041F2030006F037F83B
:1037AC003078DFF878180B2804BF0A20307000201E
:1037BC00087000F0F2FA07F0F7FB7978E88AFFF767
:1037CC0032FB0020287600F03FF9F7BD1F080020DF
:1037DC00BC0200207B49DFF848384A6FA2B991F847
:1037EC002610012904D0052906D0062908D00BE0A3
:1037FC00D9680A0013D0084759680A000FD0084747
:10380C0099680A000BD00847002A19BF9179012941
:10381C00407802F0BBBD59690A0018BF08477047D1
:10382C00080800202DE9F043DFF8F857DFF8948101
:10383C000446287A83B04FF4806107F0B5FB01A9E8
:10384C00502007F087FE102005F096F8060008F1CE
:10385C0016074FF6FF7908D0607830B9F8894845DB
:10386C001CBFBDF80410814215D0EA2060703946A7
:10387C00532007F07EFE08F11A014B2007F079FE69
:10388C0008F12401502007F074FE08F11801E12022
:10389C0007F06FFE6EB302203070F88948451CBFEC
:1038AC00BDF8041081421CD1BDF80400F8813946E2
:1038BC00532007F04FFE3888708008F11A014B2016
:1038CC0007F048FE08F11801E12007F043FE002044
:1038DC0000900023DFF838080278F989B88800F0E6
:1038EC00F8FD60787070314603203874287A05F042
:1038FC0064F8BDE8F7831C22002100A804F0FDBF8A
:10390C0030B505468DB06C68297C686907AA00F053
:10391C00ABF89DF81C00002850D1287C0B284DDBFF
:10392C00207A022804BF207BFF2847D1254890F835
:10393C002610406F022918BF062905D000283DD05B
:10394C00807901283AD107E030B90090627C618916
:10395C002088002300F0BDFD2088ADF8040008226B
:10396C006089ADF806000DF12301A07B8DF80800ED
:10397C00A089C00B8DF809009DF820008DF80A0075
:10398C009DF822008DF80B009DF81D008DF80D00A0
:10399C009DF81E008DF80C00607C8DF80E009DF8D3
:1039AC0021008DF80F009DF82E008DF810000DF100
:1039BC00110004F08AFF01A802F080FD0DB030BDAB
:1039CC00FD6B0100D43F00209412005000440020F5
:1039DC00DFF8CC0A00787047EC3F00202DE9FC4161
:1039EC000D4690460FF2480104460CC900A821462A
:1039FC000CC000A8FCF7F8FD002700B90127DFF880
:103A0C006409866F06E0214606F10C00FCF7ECFD1C
:103A1C0030B9B6693EB1002FF5D13088A842F8D143
:103A2C00B0784045F5D13046BDE8F6811C07002042
:103A3C00FFFFFFFFFFFFFFFFDFF82809806F7047D4
:103A4C004A0400201608002038B5DFF81849A06F8A
:103A5C00002803E08569FCF7F8FA2800FAD1002069
:103A6C00A06731BDD844002070B50646144616F840
:103A7C00010B20700D46307800F00F0060700822AA
:103A8C0016F8010B0009A070307800F00300E0700C
:103A9C003078C0F3800020713078C0F3C3006071BF
:103AAC0016F8010BC009A0713146E01D04F00DFFA2
:103ABC0008360322314604F10F0004F006FF0F2DE7
:103ACC00ACBFF0780020A07470BD10B5044682B075
:103ADC006078FFF7ACF96078EB2818BFE12803D0C9
:103AEC00F12818BF1A2801D10020607000F00DF8E1
:103AFC00DFF87008012100910022818C6378408BE3
:103B0C0000F0E7FCBDE813400BE0DFF8DC0A0068CE
:103B1C00FFF7F7BB0100DFF8D40A18BF01210170D1
:103B2C007047DFF8C80A007800B1704780B50022F2
:103B3C00012100F047F930B1016800291CBFBDE834
:103B4C000240FFF733BB01BD80B5042000F02BF918
:103B5C00DFF89C1A0978814207D3FF2000F023F983
:103B6C00DFF8901A0978814201D2012002BD0020B1
:103B7C0002BD0000181300502DE9F041074688469D
:103B8C00387B00F02FF900240546012625BB7A89E5
:103B9C00397B386800F0B8F8050061D02C8101241D
:103BAC00387C2874788A688207F1100000F014FFC2
:103BBC0068614FF67F41388B2883B87EA876688978
:103BCC000840688141074FBF40F08000DFF8281A99
:103BDC00097840EAC11068816889C109B8F1000F01
:103BEC0001F0070112D002226A732A68927B5207F5
:103BFC0003D5DFF87027128A2A8119B34FF67F425A
:103C0C001040491E40EAC11068811BE009B900262A
:103C1C0018E0810605D504F09EFE00F07F005F30B1
:103C2C0008E0C00605D504F096FE00F00F000A303F
:103C3C0000E00120288120210420687300F0AFF8F7
:103C4C0004F0DCFF6CB12A89697B284600F06FF820
:103C5C0038B1686908B1FCF7F8F92846FCF7F5F9B2
:103C6C0000263046BDE8F0813EB500F0BBF80024DC
:103C7C0098B3417B062930D101684489097A8DF8C3
:103C8C00081001680988ADF8001000F0E2F8200572
:103C9C0022D5BDF80010002000F021F8E0B9DFF8C3
:103CAC00C446A18C00A807F0DEFC002100200CE02B
:103CBC00286801884FF6FF7291420DD0A18C07F055
:103CCC00D0FC1A2808D00021284600F008F805007E
:103CDC00EED1002007F0C9FC012420463EBD18B9E6
:103CEC00DFF88006C06F00E0406840B142891205E1
:103CFC00FAD500291EBF026812888A42F4D1704797
:103D0C0085310000FA3F002070B504460D4616467A
:103D1C001C20FCF78DF948B10021417305734681D5
:103D2C0001818173C17304604161416070BD70B5E4
:103D3C0004000D4616462ED0012D284607D100F062
:103D4C0032F8DFF8C819097881420DD208E0042D49
:103D5C0008D100F028F8DFF898180978814203D2CE
:103D6C00112070BD022D16D1002060606573268174
:103D7C00DFF8F005C16F31B100E00146486800285A
:103D8C00FBD14C6000E0C46700F009F8202104F07E
:103D9C0035FF002070BDC12070BD4FF48041DFF8AD
:103DAC008402007A7047DFF8BC25D26F002105E051
:103DBC00537B5268834214BFFF28491C002AF7D159
:103DCC00C8B2704718B9DFF89C05C06F00E04068B6
:103DDC0038B1437B8B42FAD11AB103689B7B5B07EA
:103DEC00F5D47047DFF87C15C96F00E0496821B144
:103DFC000A7B8242FAD10846704700207047F8B51A
:103E0C000446002620000D460BD0DFF85805C76F7E
:103E1C0000E07F682FB129463846A0470128F8D129
:103E2C003E463046F2BD0000BA02002010B5DFF865
:103E3C003415CA6F1346002401E01C465B683BB185
:103E4C008342FAD15868934201D1C86710BD6060B3
:103E5C0010BD10B5040011D0FFF7E8FF2068006A10
:103E6C00FCF7F3F82068FCF7F0F8606908B1FCF790
:103E7C00ECF82046BDE81040FCF7E7B810BD10B5D3
:103E8C0048B1A0F10C010A68002A04BF8A7AFF2A03
:103E9C0003D004F083FD052010BD624C227A8A7297
:103EAC00DFF8CC1A0A78014604F1540004F087FEBE
:103EBC00012806D1207A4FF4005104F09FFE002017
:103ECC0010BD042010BD70B5DFF8E809554D006831
:103EDC0080476E6D04468EB156F80C1C287A00296A
:103EEC004FF4005102D004F089FE01E004F0D6FE3C
:103EFC000022314605F1540004F047FEDFF8CC1ADD
:103F0C00096820468847304670BD0000160700201F
:103F1C002DE9F04188B004464FF6FE78FFF714FE09
:103F2C00454608B1112076E0207FA8B1DFF8A00A41
:103F3C000078410141EA80002077FF206188FDF77D
:103F4C0029FC48B1E08A40F00400E0824FF6FF758E
:103F5C00207F40F001002077608800F017FD08B149
:103F6C0000206076A07E18B9DFF8680A0078A07689
:103F7C002078DFF8F063010603D500F00300207011
:103F8C0006E0E07E20B93078E0763078401C307066
:103F9C00207E01280BD1DFF8BC0A007828B1F07A1A
:103FAC00002804BF2078002801D10020207620783A
:103FBC00012802BF20690078022803D1E08A40F072
:103FCC004000E08204A9204600F0A4F845450746CD
:103FDC0008BF6588EFB120789DF81030F28A8DF813
:103FEC00140006942946608DADF8160005A80390C0
:103FFC0094F82C000290E08A0190607D0090384685
:10400C0000F047F80446102C04D13846FCF71DF894
:10401C0000E010242046FEF7FDBB000018450020F0
:10402C00F0060020BC02002010B58EB0044601A89A
:10403C00342107F045FBA11C02A84A88028109889B
:10404C00C18004F110010A7902760A6842620A7B87
:10405C0042700A8B82810A7A82704A7A8DF8082023
:10406C004A8B42850022087F8DF8340000A900F0AD
:10407C000AF84FF0FF308DF8020001A8FEF7CCFDD6
:10408C0000200EB010BDFF208DF800008DF801004F
:10409C0070472DE9F041054688B00E4690461F4604
:1040AC002420FBF7C5FF1024009068B3242200F0F5
:1040BC0002FEAC480099808C4881ADF81880022033
:1040CC000099087300990872009806800098C777C9
:1040DC0000980E994173009805628DF80C10002120
:1040EC000F98ADF80A001198D0E9002310988DF8BC
:1040FC001A00CDE9042300A8FFF73EFD01280EBFEE
:10410C0000240098FBF7A1FF2046FEF783BB0000BC
:10411C00F3070020F8B50E4604460820617F01B174
:10412C001020A17F01B10830217F01B1401CA17981
:10413C0019B1217A4900891C08186070207E00286A
:10414C00DFF89409007814BF0E250025012808D14A
:10415C002078012805D0DFF88409007810B10120FF
:10416C0000E0002084F834006178207D7D4F081831
:10417C0028183070207E28B1387B07F07DF9317813
:10418C004018307030787528A8BF002662DAFBF72B
:10419C004FFF06005ED02078B97C40EA8100617E3A
:1041AC0001F0030140EA8110217F09B14FF48071C5
:1041BC000843217E40EA4120617F40EAC120A17F73
:1041CC0040EA0130A17940EA812094F8341040EAA9
:1041DC00413080B230700827000A70706088B0706F
:1041EC006088000AF070A0883071A088000A707195
:1041FC00A07EB071E07EF071607F28B1216A06F17B
:10420C000800FCF7EDF91027A07F28B1616AB819F6
:10421C00FCF7E6F90837FFB2A07980B1207AB855DF
:10422C00781CC0B2617A8155471C207AE168FFB2D4
:10423C004200B81904F049FB207A07EB4007207FB5
:10424C0008B1FFB2B8556078227D21698019281811
:10425C0004F03BFB3046F2BD2DE9F84304460F4613
:10426C00154634220021284604F047FB0126082F6E
:10427C0062DB2F702078627800EB0220294680B236
:10428C0000F072F800B10026A078E17800EB012074
:10429C0068816179207900EB0120A881A079A8744C
:1042AC00E079E87408206870E87918B104F1080026
:1042BC0000F0DEF8287A20B168780019A86100F0C7
:1042CC00D8F8002005F1240785F8200038606879BB
:1042DC0020B16878015D6971401C6870687F38B3E3
:1042EC006878411C6970005D85F82000481CC9B2D3
:1042FC00687095F82020095D85F82110914215D23F
:10430C00DFF8B418DFF8B4980978914238BF0C2262
:10431C00C0B24FEA420801194246484604F0D5FAA9
:10432C00C7F8009068784044687001E00020687716
:10433C0068782978814201D2002010E002197A6055
:10434C00081AA979287749B10E38287702F10E009E
:10435C00786000F092F8297F081A28773046BDE87B
:10436C00F2830000D43F00208A1C00F0030313707A
:10437C00C0F38303537003069B0F9370430A03F03F
:10438C0001031371030A03F00103D370830A03F0D2
:10439C000103D376C30A03F001035371030B03F03B
:1043AC0001039371420B02F0010281F83120800B62
:1043BC00704710B5DFF84C288479D37A00212CB1E2
:1043CC00002B04BF8078002807D105E0002B1EBF0E
:1043DC004089D28A904200D00121084610BD0000CD
:1043EC00F8B506460C4630781546727800EB02207C
:1043FC00294680B2FFF7B8FFB078F17800EB0120C6
:10440C0068817179307900EB0120A881B079A874AA
:10441C00F079E87408206870E87918B106F10800A2
:10442C0000F026F8287A20B168788019A86100F08D
:10443C0020F8687920B16878815D6971401C6870DA
:10444C002846FFF7B6FF070010D16878AA798119C2
:10445C0012B9A962201A08E001F10E00A86200F05E
:10446C000CF86978611A0E39081A28773846F2BDAB
:10447C0068616878083068707047DFF88807007BDF
:10448C0006F0FABF10B5DFF8F0472146E22007F03E
:10449C0061F8204610BDDFF86C07C08A7047000039
:1044AC00EC6B0100DFF85C07408B704701464A203B
:1044BC0007F050B838B5DFF8C4472578681C207071
:1044CC002846FFF78FFC0028F7D1002DF5D02846A1
:1044DC0032BDF8B504460E4617461D4600F07CFC6E
:1044EC00069938B9A9B93A4631462046BDE8F84094
:1044FC0000F025BD19B165B90022027009E045B97B
:10450C008278BA181204520C827082780AB901228D
:10451C0082700129DFF86867F07A01D115B90020A3
:10452C00F072F1BDDFF85C170978401CC0B288420C
:10453C00F6D30020F072DFF85007408B844209D18B
:10454C0021460120FEF771FC307ABDE8F4400121D0
:10455C0006F02ABDF1BDDFF828170B7A012803D12C
:10456C000121184604F04ABB1F49086020B10246DD
:10457C000121184606F0EDBC0121184606F014BDC9
:10458C00DFF8081708807047DFF8041708807047B9
:10459C0010B5DFF870267421212004F066FD044666
:1045AC00FCF729FA0443DFF8EC060068010001D09F
:1045BC0080470443FDF76CF9044303F06AFF204382
:1045CC0010BD80B505F0BFF800F099F8FCF728FA9B
:1045DC00DFF8C4060068010018BF8047FDF76AF9D0
:1045EC00BDE8014003F0A8BF1C07002021450020B6
:1045FC00EE6B0100EF6B01001408002070B5DFF8C2
:10460C00045682B02A467421212004F02EFD002489
:10461C0000284BD12B4674220021212004F0B8FD38
:10462C00002843D105F10E064FF6FE713089884201
:10463C003CD0307E0124082818BF042833D18DF8D3
:10464C00004000A9422006F094FF05F12F01432001
:10465C0006F08FFF05F12C01472006F08AFF05F1CB
:10466C001C014A2006F085FF05F11A014B2006F0CB
:10467C0080FF05F12401502006F07BFF05F11601A7
:10468C00532006F076FF05F12D01542006F071FF42
:10469C0005F11801E12006F06CFF307800F012F8FB
:1046AC0006F067FF02E005F04EF80024FCF767F90E
:1046BC00DFF8E8050068010018BF8047FDF730F906
:1046CC00204676BDC00800F001008DF8000000A95E
:1046DC005220704710B50446E00701D500F00FF8E2
:1046EC00200748BFFCF763F9600707D5DFF8B00572
:1046FC00006801001CBFBDE81040004710BDDFF88A
:10470C00883574220021212004F0F5BCED6B0100EA
:10471C0070B5DFF86C550446287A4FF4806106F0CA
:10472C0043FC00F026F80920DFF85C1581F8260020
:10473C00FFF7A8FE01466069FBF756FFC0B11020D9
:10474C0004F01AF9060013D002203070A06A4178E8
:10475C00827801EB02217180C07870704A20A169C7
:10476C0006F007FF287A3146BDE8704004F025B901
:10477C0070BDE889DFF818150880288ADFF80C1559
:10478C000880704738B5044602208DF8010000A857
:10479C0000F0D9F805003AD02869042101700021F5
:1047AC004170217A012904BF20214170617A0129CD
:1047BC0003D1417841F040014170A17A012904D123
:1047CC00417841F08001417001E00120A876607AC7
:1047DC00012805D1606808B10120687760682862FB
:1047EC00E07A012808BFE882208800F0CFF818B1E1
:1047FC00E88A40F00400E8820120A877FFF742FE27
:10480C006862208868802846FDF74CFF32BD102076
:10481C0032BD7FB504460D4600F087F8A86A407893
:10482C00002610F01F0103D000F0C3F900203FE078
:10483C00810644BF01218DF80C10010644BF0121F3
:10484C008DF80B10400603D501208DF80A0003E00B
:10485C009DF80A00012803D1E87950B16E6902E095
:10486C00287A30B1AE6926B131460DF10200FBF762
:10487C00B7FEA889ADF800009DF80A00012813D1F5
:10488C00688900F083F8002801BFA889DFF8F813C5
:10489C00498B88420BD13EB1FFF7F4FD01460DF177
:1048AC000200FBF7A1FE10B100A801F0F7FE2046B4
:1048BC0004B070BD5807002010B5044692B02068B3
:1048CC004189CA072FD54FF6FE721140418104AAC7
:1048DC000068C17F006AFFF783FD002802BF0E98B5
:1048EC00007804281FD100F020F8BDF81A00ADF8AC
:1048FC0000000E984078810644BF01218DF80B1002
:10490C00010644BF01218DF80A1040064CBF0999DD
:10491C000A990DF10200FBF763FE20798DF80C006B
:10492C0000A801F09FFE12B010BD0E22002100A8BD
:10493C0003F0E3BF002104281CBF0A28032800D180
:10494C0001210846704710B5382101700121817092
:10495C00FDF7D8FE040005D001202070A077FFF7EA
:10496C0091FD6062204610BDDFF81C03807C70470F
:10497C00F56B01000121020748BF03218007DFF816
:10498C00F00348BF41F00401017070474FF6F87313
:10499C0000210022C01A03280BD9001F05D0401E8D
:1049AC0005D0801E06D1012204E0042202E002227E
:1049BC0000E00822DFF8B8030078104218BF02218B
:1049CC0001D102B101210846704700005C070020AC
:1049DC0022080020FE6B0100017821B940680028F4
:1049EC0018BFFDF753BA0020704710B50021DFF84F
:1049FC00E42302EB81035B88834203D100F023F8AC
:104A0C00C52010BD491CC9B20329F2DB00214FF6A9
:104A1C00FE7402EB81035B88A34207D0491CC9B228
:104A2C000329F6DB002112F8213033B902EB8103A4
:104A3C00588000F008F8002010BD491CC9B20329A9
:104A4C00F1DBC72010BDDFF8F403007802F8210079
:104A5C0070470000180800207FB504460D4612264A
:104A6C00A4B300F035F8844209D1FFF70BFD0146E1
:104A7C002846FBF7B9FD00F0010080F0010600208C
:104A8C008DF80000ADF8024000A8FBF798FE58B175
:104A9C0001A8FBF728FE012806D101A92846FBF73F
:104AAC00A3FD012600B100262946204600F09AF904
:104ABC000A2808BF012608D0A02806D1294620467E
:104ACC0000F00DFA204600F056FA304604B070BDE6
:104ADC00DFF8B401C08A70471A4500201845002041
:104AEC0010B50446207A38B1A169A089FFF7B4FF4C
:104AFC00012808BFA08908D0E07950B161696089AC
:104B0C00FFF7AAFF012804D16089FFF76EFF01208F
:104B1C0010BD002010BD2DE9F04182B004460420E8
:104B2C008DF801000D4616461F4600F068F84FF050
:104B3C000108A0B147B1002181778580017841F04F
:104B4C00800101700021C176032201690A702A0AD2
:104B5C004E708D70CA704480FDF7A4FD80464046AF
:104B6C00BDE8F68138B504460D46A06A227F41782F
:104B7C00042A02D000F01DF819E08278C0780E29C2
:104B8C0002EB0022608988BF002592B2FEF776F90D
:104B9C006089FFF7FBFE50B1A07C022807DBDFF831
:104BAC00E810A089C98A884201D0284632BD00206D
:104BBC0032BDD32005F0ACB8F46B01005C4300208F
:104BCC002DE9F84300F020F8994600F018F8012779
:104BDC00060012D030690B21017080F8018080F83A
:104BEC000290B777FFF74EFC70627777356274806E
:104BFC00B7763046FDF756FD074600F092BB00A88D
:104C0C00A1E60000D43F0020044603208DF80100EB
:104C1C000D469046704710B5806A401C4478007869
:104C2C0048BB012C18BF022C25D1DFF8D43301224C
:104C3C001C700021512004F05EFA022C1BD1DFF80D
:104C4C00C403DFF8B823007800280FBF106852F8AF
:104C5C0020003C22504303224FF47A71B0FBF2F057
:104C6C0048430246DFF8A0130860FFF796F8BDE84A
:104C7C00104006F07DB910BDC8440020234500202B
:104C8C00BC02002015080020D43F0020BA020020EE
:104C9C0004080020D4420020D8420020DC4200202E
:104CAC00E0420020DFF830060078401C00EBD070AA
:104CBC00401070471C22002103F01FBE38B50024A1
:104CCC00DFF87C5305E01C2000FB045000F05FF87B
:104CDC00641C00F01FF98442F5DB00203D4901EB18
:104CEC0080034FF6FE725A80002201F82020401CEF
:104CFC000328F4DB31BD30B50023DFF8444301E079
:104D0C005B1CDBB2DFF83C23127893420EDA1C22D8
:104D1C005A43155B8542F3D1121955898D421CBF3C
:104D2C004FF6FF75A942EBD1104630BD002030BDC7
:104D3C0038B54FF6FF714FF6FE70FFF7DCFFB0B9D8
:104D4C0000240FE0DFF8F8121C2202FB0415A97CEA
:104D5C0000291CBF697C002903D1288800F076FD4E
:104D6C002846641CDFF8DC1209788C42EADB32BD81
:104D7C002245002038B504460D4603E000F007F844
:104D8C0029462046FFF7B7FF0028F7D131BD10B5F3
:104D9C00040007D0FFF78EFF4FF6FE7020804FF611
:104DAC00FF70608110BD38B5044600250AE0DFF8BD
:104DBC0090021C2101FB05004189A14218BFFFF79D
:104DCC00E6FF6D1CDFF87C0200788542EFDB31BD1D
:104DDC00000000006444002080B5FFF78CFF00B198
:104DEC00103002BD2DE9F04704468A460026002704
:104DFC00DFF84C8217E01C2000FB07F909EB0805D3
:104E0C00A81CFBF770FC60B139F80800A04208BF81
:104E1C0046F00A065146A81CFBF7E6FB08B146F023
:104E2C00A0067F1CFFB200F075F8874202DAF0B2E0
:104E3C000028E0D0F0B2BDE8F0870000F96B01006B
:104E4C002DE9F047054689464FF6FE789246002438
:104E5C00002001214646DFF8E87109E003F07BFDF4
:104E6C00C0B290FBF4F104FB1100C0B2002400218D
:104E7C00002202E0DE5B521CD2B2DFF8C8311B7894
:104E8C009A421FDA1C23534333F807C0C44518BF9A
:104E9C00AC45F0D0CC451FBFD44503EB070C9CF8B8
:104EAC0011C0BCF1000FE6D0BCF1080FE3DABCF185
:104EBC00070FDFD0641C0029DDD1E4B28442DADBB9
:104ECC00D85B0AE0E4B224B118B9012CC6D1012098
:104EDC00CCE7464514BF30464046BDE8F0872DE987
:104EEC00F041044688460027DFF8546100E07F1C3F
:104EFC0000F010F8FFB287420AD21C2000FB07F525
:104F0C00A8194146801CFBF76FFB0028EFD0AC536F
:104F1C00BDE8F081DFF82C010078704707210D28DF
:104F2C00A8BF012109DA0728A8BF032105DA032845
:104F3C00A8BF052101DA00B9002108467047F8B571
:104F4C0005460E461746FFF7F3FE040012D0FFF796
:104F5C00B1FE2580668107B90127DFF8E000A77450
:104F6C0090F86C0001280CBF002007206074FFF73C
:104F7C0099FE2074F1BDF8B504460025DFF8C06039
:104F8C0015E01C206843815BA14207D04FF6FF72ED
:104F9C0094420BD14FF6FE72914207D08719B81C80
:104FAC00FBF7A1FB10B93846FFF7F1FE6D1C00F0C2
:104FBC0002F8E6DBF1BDDFF88C0000788542704723
:104FCC00000000B583B000A9002200230CC100A989
:104FDC00FBF70AFB401E8041C00F0EBD10B53A2BEB
:104FEC0018BF3B2B1C4607D113460A4601462046E8
:104FFC00BDE8104004F0CCB80A2010BD006C0100D4
:10500C00184500201E080020D8440020DFF8841327
:10501C000978002208E000EBC2031B7F03F00D03AC
:10502C00012B08BF491E521C037CD2B29A4202D2F9
:10503C00C9B20029EFD1C8B270470000D43F00209C
:10504C0054400020F36B0100DFF84813497800222C
:10505C0008E000EBC2031B7F03F08D03812B08BF1C
:10506C00491E521C037CD2B29A4202D2C9B2002908
:10507C00EFD1C8B2704770B50446E00000F11805D6
:10508C00ADB2481980B2FAF7D3FF060006D02A4613
:10509C00002103F032FCA8193474F060304670BD66
:1050AC0038B5044600F012F8DFF8E452297888424B
:1050BC0024BF686800F016F868782071401C68708E
:1050CC00204600F02EF8207932BD0000DFF8C01227
:1050DC004968002001E00968401C0029FBD1C0B2DE
:1050EC007047000010B504001EBFDFF8A402416831
:1050FC00002915D00A460023A24204D01346126898
:10510C00002AF9D110BD22688C420CBF42601A6093
:10511C002046FBF77EFF2046BDE81040FAF795BF0E
:10512C0010BDDFF86C124A6822B100E01A46136811
:10513C00002BFBD1002303600AB11060704748605C
:10514C007047DFF84C12496800E0096869B1002229
:10515C0000E0521C0B7CD2B29A42F6D201EBC20395
:10516C00DB7E8342F5D1084670470020704730B58E
:10517C00002301E05B1CDBB2047CA3420ADA00EBE7
:10518C00C304E57E8D42F5D1207F1043207704F1D6
:10519C00160030BD002030BD38B504460D46FFF773
:1051AC00D0FF60B1002107E000EBC102D37EA34227
:1051BC0008BFD576491CC9B2027C9142F4DB31BDE3
:1051CC002DE9F04380460D46E80785B09146DFF89F
:1051DC00E44308D5A8074FF6FC7854BF45F0080502
:1051EC0045F0100530E0404600F0F5FAE18A8842BF
:1051FC0005D02A460221404600F0BAFA08B9002030
:10520C0068E02B4602224FF6FE71404600F0C4F8CF
:10521C0000285ED105F0DF05680615D402A94046CA
:10522C00FBF76EFA45F0200768B9A18C4046FFF7F2
:10523C0062FD060008D0B01CFBF755FA20B1B11C7A
:10524C0002A8FBF7CDF93D46DFF86C63E38A3778AB
:10525C000120009000223946184600F0EBF9791C29
:10526C003170B0BBA8064CBF0E2006208DF805008F
:10527C0001A8FFF768FB040029D00120A077FFF7F5
:10528C0001F9606201212069017005F0780141701B
:10529C0087704FEA1821017180F803800021417159
:1052AC00A90603D502A9801DFBF79AF94FF6FD70EC
:1052BC00B9F1000F608006D0DFF834030078814527
:1052CC0038BF84F81A902046FDF7ECF902E0102064
:1052DC0000E0C720FDF7BAB9F66B010010B5DFF896
:1052EC00D042207A4FF4805105F074FE10B10120A9
:1052FC00A07210BDDFF8FC020278DFF8FC02007827
:10530C0001280CBF012103210020FFF759FFDFF812
:10531C00EC020288207ABDE810404FF4805105F071
:10532C0018BE3846BDE8F28309B0BDE8F08F07B06F
:10533C00BDE8F08FF8B5DFF87C520746E88A012605
:10534C0087420C4604D000233846FFF7E4FB0646A0
:10535C000021384600F03FFAE98A884214D1002136
:10536C00204600F0CCF900281EBF8179182211428A
:10537C0006D000F041FAE98A008800F043FA03E015
:10538C0001212046FDF766FD3046F2BD000000000D
:10539C00E4070020F10700202DE9F84F07464FF6EF
:1053AC00FC7087420C4615461E4653D000213846E9
:1053BC0000F011FADFF8FC718046F88A804501D1C3
:1053CC00700678D53146404600F099F90100DFF8B7
:1053DC00FC02DFF8F4A290F800904FF6FE7B16D199
:1053EC000021584600F08BF9010010D118210E4213
:1053FC002AD00022182301E0521CD2B24A450AEBF3
:10540C00C20102DA88791842F6D14A451CDAA1F8B1
:10541C0000805C4518BF4C80F00748BF46F004067E
:10542C00DFF80C028E71012D007811D101224A7126
:10543C0018238A791A4209D008712046B98CFFF7D3
:10544C00CBFC002837D110E0022035E0387DF3E7A3
:10545C004A79012A2FD08A7918231A4208BFF87C7E
:10546C0008714D7127E0401CC0B2DFF88813097831
:10547C00884220DADFF808241C23002103FB0025D6
:10548C0006E00AEBC1022B8852889A42EBD0491CE9
:10549C00C9B24945F5D3E6D11C220021284603F0B8
:1054AC002CFA2C80B88C6881AA20A874012068740E
:1054BC00FFF7F8FB28740020BDE8F28F2DE9F843C4
:1054CC000446DFF8C00300780D468542904628BF9D
:1054DC00052038D2204600F03AF83449DFF8C8905D
:1054EC000E78B0424FF6FE7713D1384600F02FF805
:1054FC00B0420ED199F800100020012206E019F8F4
:10550C0032308B423CBF19461046521CB242F6DB7D
:10551C00C0B209EBC0067780706818B1FAF795FD38
:10552C000020706045B16800FAF782FD706060B1D0
:10553C006A00414603F0C9F974807570DFF84803BE
:10554C00007830700020BDE8F2830120FBE738B50D
:10555C001649154A0978002401E0641CE4B28C4217
:10556C0004DA02EBC4035B888342F6D18C4204BF9D
:10557C004FF6FE73984213D1002401E0641CE4B290
:10558C008C4202EBC40502DA28780028F6D18C4252
:10559C0006DA68686B8018B1FAF757FD002068606E
:1055AC00204632BD00000000C4400020F16B010019
:1055BC00BC020020D43F00202445002070B5DFF849
:1055CC00C4321B78984210D2DFF8FC42E68A0023E2
:1055DC0000E05B1CDBB2834203D232F81350B542BD
:1055EC00F7D18B4201D1012070BD002070BD0000AD
:1055FC00FE6B01001807002016450020FA6B010015
:10560C0000212046E7E010B50C46002100F0E3F83D
:10561C00214600F074F848B14FF6FE7101804180CC
:10562C000021017141718171002010BD042010BD59
:10563C00FC6B01002DE9F84F0746884615461E46BF
:10564C0000F046F8DFF8841291F800900A9CDFF81D
:10565C0080B248454FF00A0A0ADA0AFB00B0C17959
:10566C008D4203D2DCB1C571868018E0032017E0AF
:10567C0000214FF6FE7000F02BF8484508BF0220C1
:10568C000ED064B1FF210AFB00B081714780868087
:10569C00C57180F80080DFF83012C97C01720020DF
:1056AC00BDE8F28F0021DFF8302200E0491CDFF862
:1056BC0024321B78C9B2994204D28B5C8342F5D157
:1056CC00002088547047000020390020F06B010046
:1056DC0030B50022DFF8F83101E0521CD2B2DFF80D
:1056EC00EC412478A24208DA0A245443E5186D8868
:1056FC00854204BFE45C8C42EFD1104630BDF8B556
:10570C00DFF8D821DFF8D861157801F040010024CA
:10571C004FF6FE7308E006EBC407BF7907F04007AD
:10572C008F421ED0641CE4B2AC4205DA36F83470F9
:10573C008742F7D19842EED1AC4208BF984210D1C3
:10574C00002401E0641CE4B2AC4204DA06EBC400B1
:10575C0000790028F6D1AC42BCBF36F83400FFF714
:10576C0052FFAC4202DA06EBC400F2BD0020F2BDDF
:10577C00F8B50446DFF86C0106780D46012D174686
:10578C0004D13146204600F081F8E8B9FFF738FF24
:10579C003946FFF7B4FF012D04D0C8B14079A842B7
:1057AC0016D111E020B14179A94208BF458802D039
:1057BC0078060DD425464FF6FE70854208D031464A
:1057CC00284600F063F808B10020F2BDA542F1D1E3
:1057DC000120F2BD0000490600D4704780B5014697
:1057EC00FF20FBF7D7FF10B1FFF772F902BD4FF6A0
:1057FC00FE7002BDF36B01004FF6FE7100910022AA
:10580C0043887047F8B504460D461E4612B1002376
:10581C000B2215E000212846FFF771FF070014D07A
:10582C00B879C00711D5069822463146FFF708FB18
:10583C00FDF741FD09D0788000230C222146284633
:10584C0001B0BDE8F040FFF766B9F1BD2449002274
:10585C000FE08B79DB070AD44B88834204BF4B796A
:10586C00012B04D103234B714FF6FE734B80521C5A
:10587C0008311A4B1B78D2B29A42EAD37047000017
:10588C0054400020F46B01001B08002070B50E4D35
:10589C000C46A98CFFF7A0FA060011D0B078FFF7E0
:1058AC003DFB7178002918BF002809D06A7B012ABA
:1058BC0002D1814238BF01468C4201D3012070BD18
:1058CC00002070BD00000000D43F0020F26B0100EE
:1058DC007C410020F86B010034440020F06B010087
:1058EC0020390020F76B010038B5DFF8B04BDFF83A
:1058FC00B05B2075022028724FF6FE702880FEF7F0
:10590C00C1FD01F0EBF805F11C0004F0C2FD00F044
:10591C00BBF9A07D18B1002000F0E7F80AE04FF6C3
:10592C00FF7000F0E2F84FF4FA73322200210820E5
:10593C0005F007FF00F0A2FF00F0D4FABDE83140FB
:10594C0000F0C7BF30B585B0044605F0DFFBFCF7AF
:10595C0004FD04B3DFF83C1B00200860DFF8380BB3
:10596C0090F84100002802BFDFF8380B00780128BE
:10597C0011D1DFF8340B007868B100A9622002F075
:10598C0079FE002100A805F0D5FB002005F0E9FB0D
