:10000000104A0020D100000001CA011001CA0110ED
:1000100001CA011001CA011001CA011001CA011070
:1000200001CA011001CA011001CA011001CA011060
:0C00300001CA011001CA01103FCA0110F2
:10003C00E0B50821ADF800100190042100F00FF894
:10004C0008B100200EBD02980EBD00B583B008218A
:10005C00ADF800100190052100F001F807BDADF8D6
:10006C00021000A801490968084700005C0700203D
:10007C0080B50820ADF80000102009490968ADF8DA
:10008C00020000A8884702BD80B501208DF8000051
:10009C00FFF7EEFF9DF800000028FBD101BD00002A
:1000AC005C0700200448016841F0010101604168CF
:1000BC0041F00301416070478047024070470120C6
:1000CC007047000044F61020C2F20000854646F24C
:0A00DC00F730C0F201008047FEE794
:100100003C0000000000000000000000340100007E
:1001100000000000000000000100000000000000DE
:1001200000000000000000000000000001000000CE
:0C013000000000000800000000000000BB
:10013C003400000000000000000000006801000016
:10014C0000000000000000000100000000000000A2
:10015C00010000000000000000000000080000008A
:04016C00000000008F
:1001700030000000000000000000000098010000B6
:10018000040000000000000001000000FFFFFFFF6E
:10019000FF00000001000000080000000000000057
:1001A0002C0000000000000000000000C40100005E
:1001B000040000000000000001000000FFFFFFFF3E
:0C01C000FFFFFFFF08000000000000002F
:1001CC0034050000E401000099A1011095A701106D
:1001DC00A5C2011009B2011045B8011000000000C1
:0801EC00000000002E000000DD
:1001F40028000000000000000000000014020000BD
:100204000000000000000000FFFFFFFF00000000EE
:080214000800000000000000DA
:10021C00300500003002000069C201106DC10110F0
:10022C001FC2011095BA0110000000000000000070
:04023C00300000008E
:10024000300500005402000075C20110A9B601106B
:100250009DBF011049B60110000000000000000021
:040260003100000069
:1002640024000000000000000000000080020000E4
:100274000000000000000000000000000800000072
:040284000000000076
:10028800240000000000000000000000A40200009C
:10029800000000000000000000000000080000004E
:0402A8000000000052
:1002AC00240000000000000000000000C802000054
:1002BC000000000001000000000000000800000029
:0402CC00000000002E
:1002D000000000008807002004000000000000006B
:1002E000000000002000000070010000300000004D
:1002F0001C02000090070020040000000000000025
:10030000000000000C000000300400001800000095
:1003100040020000980700200400000000000000D8
:100320000000000024000000480400001800000045
:1003300000000000A00700200400000000000000F2
:100340000000000010000000A00100002C000000D0
:10035000CC010000A80700200400000000000000FD
:1003600000000000200000006402000024000000E3
:10037000FFFFFFFFB00700200400000000000000A6
:100380000000000028000000880200002400000097
:10039000FFFFFFFFB807002004000000000000007E
:1003A00000000000580000003C0100003400000084
:1003B000FFFFFFFFC0070020040000000000000056
:1003C00000000000100000006004000018000000A1
:1003D000FFFFFFFFC807002004000000000000002E
:1003E000000000001C000000AC020000240000001F
:1003F000FFFFFFFFD0070020040000000000000006
:100400000000000038000000F40100002800000097
:10041000FFFFFFFFD80700200400000000000000DD
:100420000000000054000000000100003C0000003B
:100430001800000000000000000000004004000060
:080440000800000000000000AC
:100448001800000000000000000000005804000030
:08045800080000000000000094
:100460001800000000000000000000007004000000
:0804700008000000000000007C
:080478000100000060640100B6
:040480000000000078
:040484000100000073
:0404880000000C0064
:04048C0000000D005F
:040490003200000036
:040494000100000063
:040498002407002015
:04049C00000200005A
:0404A0000000000058
:0404A40001CA011078
:0404A8000000000050
:0404AC00000000004C
:0404B0000800000040
:0404B4000000200024
:0404B800FC0500201F
:0404BC00010000003B
:0404C0003C070020D5
:0404C400080000002C
:0404C8000000000030
:0404CC00000000002C
:0404D0000000000028
:0404D4000000000024
:0404D8000000000020
:0404DC00010000001B
:0404E00034060020BE
:0404E400060000000E
:0404E800010000000F
:0404EC00E404002004
:0404F0000000000008
:0404F4000000000004
:0404F80000020000FE
:0404FC0000000000FC
:020500000000F9
:020502002A00CD
:020504000100F4
:020506002500CE
:020508003000C1
:02050A003100BE
:02050C002E00BF
:02050E000100EA
:0105100001E9
:0105110000E9
:08051400040000002064010056
:08051C000000000000000000D7
:0405240000000100D2
:0405280000000300CC
:04052C0087C401106F
:04053000380500008A
:040534003805000086
:0405380000000000BF
:04053C00800000003B
:040540008000000037
:0405440000000000B3
:040548003C0700204C
:04054C007F19010012
:040550002000000087
:040554000C64010032
:040558000C62010030
:04055C000DC30110BA
:040560004511010040
:04056400471101003A
:0405680099C801101D
:04056C009BC8011017
:040570000000000087
:04057400110500006D
:040578007C600100A2
:04057C009460010086
:0405800064600100B2
:0205840008006D
:0205860009006A
:02058800010070
:02058A0000006F
:01058C00016D
:040590000000000067
:040594000000000063
:04059800000000005F
:04059C00000000005B
:0405A000291001001D
:0405A4006D100100D5
:0405A800110F01002E
:0405AC009B1001009F
:0405B000790F0100BE
:0405B4002D0F010006
:0405B800B90F010076
:0405BC00DD1001004D
:0405C000FD18010021
:0405C400FB1A01001D
:0405C800FF1A010015
:0405CC000800000023
:0405D0002400000003
:0405D400180000000B
:0405D80028000000F7
:0405DC0020000000FB
:0405E0003C000000DB
:0405E4000C00000007
:0405E80034000000DB
:1005EC00DFF800F0F93A0110DFF800F0C93A011019
:1005FC00DFF80C2C808913880021984208D25268AD
:10060C000C2303FB00200F220078104218BF01219D
:10061C000846704710B5DFF8E82B838952680C2424
:10062C00012904FB032402D1408860800DE00229DB
:10063C0007D141886180001D00F055F828B9207061
:10064C0003E0011D201D00F047F8207840F08000E9
:10065C002070BDE8104005F0DABEF8B500F026F9C0
:10066C00A0810020217809B30025DFF8946B19E0F4
:10067C0071680C2202FB05170F223978114210D138
:10068C0020783870211D60887880381D00F024F89F
:10069C00A581387840F08000387005F0B8FE3588B8
:1006AC0001206D1C3188ADB28D42E1D3F2BD38B55D
:1006BC00DFF84C4B208068B10C2101FB00F5A8B28F
:1006CC00FFF7B6FC606030B1AAB2BDE8384000213B
:1006DC0007F0E9BD606031BD002918BFFFF780BF8E
:1006EC00082207F0E0BD002140B10022135C0BB1E1
:1006FC0001210822521CD2B2082AF7DB08467047A7
:10070C001FB50C460021ADF802008DF8001000A8B2
:10071C0000F055F801A92046FFF7DEFF2046FFF751
:10072C00E2FF04B010BD1FB50C4600218DF800107F
:10073C00014601A8FFF7D0FF00A800F06CF8BDF847
:10074C000200208002F00BFD14BF0120002004B039
:10075C0010BD38B50546FFF74BFF0446012C0BD1F5
:10076C0000F025F82A78017882F0FF02114041F060
:10077C008001017005F04BFE204632BD38B50546B0
:10078C000024287888B12846FFF732FF0446012C54
:10079C000BD100F00CF8297802780A4205D141F00F
:1007AC0080011143017005F032FE204632BDDFF8A6
:1007BC00500AA98940680C2202FB01007047F8B569
:1007CC00044600F077F8628800204FF6FE718A42EA
:1007DC00A1811FD00025DFF8286A17E00C21726870
:1007EC0069430F278B5C3B420FD08F1861887A8846
:1007FC0091420AD1381DFFF776FF012802D1391D2D
:10080C0000F059F8A581012035886D1C3188ADB2F6
:10081C008D42E3D3F2BD2DE9F04100F047F8608042
:10082C00A0814FF00008201DFFF75DFF01281BD1B0
:10083C000026DFF8CC7913E00C20796870430F2385
:10084C00425C1A420BD04518291D201DFFF7CCFE27
:10085C0028B16888A68160804FF001083E88761C1C
:10086C003888B6B28642E7D34046BDE8F08170B511
:10087C0000F01CF8608000F01DF82046FFF7B8FE71
:10088C000546012D10D1DFF87809A18940680C22AA
:10089C0002FB010670886080301DFFF724FF0128E1
:1008AC0002D1311D00F007F8284670BD04464FF602
:1008BC00FE7070470021201D0EE72DE9F041044623
:1008CC0088B04FF6FE75A58100268DF80060211DBD
:1008DC0001A8FFF701FF00A8FFF79DFF00270128E3
:1008EC004FF0010808D1BDF80C006188A081BDF85B
:1008FC00020088423DD000AE8DF810706088ADF8D3
:10090C00120004A8FFF75BFF012808BF04AF3EB13B
:10091C00B089A08101212046FFF77CFE4FB30BE08C
:10092C00C7B1B889A081381DFFF7DDFE012807D1BA
:10093C002046FFF792FE80467D800221384606E075
:10094C00201DFFF7D0FE012813D103212046FFF70D
:10095C0061FE0EE06088A84207D1201DFFF7C3FEA0
:10096C00012818BF4FF0000803D12046FFF775FE91
:10097C0080462046FFF702FF404601F0A1BE70B54D
:10098C0082B000F049F80DE068680C2101FB040608
:10099C00009600F02BF808F07CF810B93078C043C2
:1009AC003070641CA4B228888442EDD373BD30B57A
:1009BC0085B000F031F812E068680C2101FB0400EE
:1009CC0001780A060AD511F07F01017002D100F0FE
:1009DC003AF801A800F009F808F02CF8641C2888F3
:1009EC00A4B28442E8D305B030BD00900C230022A1
:1009FC0021460120704738B500F00EF806E00023C0
:100A0C000C222146012007F0CDFF641C2888A4B2DB
:100A1C008442F4D3002032BD0024DFF8E457704741
:100A2C0030B585B000F00FF8FFF7F6FF05E001A830
:100A3C00FFF7DBFF07F0FEFF641C2888A4B284429A
:100A4C00F5D305B030BD0C22FF2101A807F02BBC5B
:100A5C0080B508F0A9F8DFF8D00C0FF27911C1615C
:100A6C000FF2A91101620FF2492141620FF26121CB
:100A7C00816201BD10B5DFF8B04C002161702070AF
:100A8C0004F17400DFF8041DFFF7AAFDDFF8000D78
:100A9C000078A070DFF81C0DA06110BD2DE9F04F9F
:100AAC000D46280485B0DFF8806C4CD5307807F003
:100ABC00B9FC5FEA000B43D00BF114040BF10209F3
:100ACC00A07A002804BFE089132815D1B9F800A03A
:100ADC00F06B002702E0FFF7B8FA404660B10288DD
:100AEC004168524505D1002F884614BF7960F163E7
:100AFC00F1E707460846F1E7617F484600F0E5FA62
:100B0C00D8B99BF80000012812D1607903900BF141
:100B1C00100320680290494699F811000190207941
:100B2C0000900BF11C00B9F80A2009F0BAF904E0A6
:100B3C00022804BF584601F0A4FA584607F004FCFA
:100B4C0085F4004014E0A80704D50120F07085F06E
:100B5C0002000DE028070AD500F070FA20B93064C5
:100B6C000821307809F0C4FE85F0080000E0002070
:100B7C0005B0BDE8F08F38B504466068007D1030D4
:100B8C00C0B207F0CFFB050022D002202870002055
:100B9C00687020886881A07828736068007D28724E
:100BAC0005F1100068606068007810F0200118BF33
:100BBC00012169726068027D0169686807F05BFB5E
:100BCC002946BDE83440DFF8600B007807F0CBBB5A
:100BDC0031BD000038B50C4611461A4608F0C5F870
:100BEC00050011D0214608F081F868B1214628464D
:100BFC0008F08DF830B96C88284608F070F820465B
:100C0C0008F04FF9002032BDB42032BD2DE9FE436F
:100C1C0081460D46B3264FF00008002700E07F1CEC
:100C2C00DFF8F40C0078FFB287423ED2384608F069
:100C3C00E6F90400F3D0607940445FFA80F8C145CE
:100C4C00EDDA18220021284607F02DFB6179A9EB7B
:100C5C0008000818C0B204EB4000C088688103F09B
:100C6C0065FB01462846FFF7BBFC6078012802D1E2
:100C7C002875608813E0608800A908F044F978B101
:100C8C009DF8080028759DF80800032805D100A9D7
:100C9C0005F10C00FFF7A4FC02E0BDF80000A881F0
:100CAC002078287200262079A8753046BDE8FE838E
:100CBC00428913070BD5920708D5427B062A18BF29
:100CCC00E92903D0CD2918BFF02900D135E17047AF
:100CDC002DE9FD4F0E46F188F07884B008F0A7F8A6
:100CEC005FEA00084FF0000B72D0317DC0B204F007
:100CFC0006F904006CD0F188F078002208F0B0F806
:100D0C000546F0786071D946F088E080B07D60814E
:100D1C0084F808B0327D3169E06807F0ACFA1398BA
:100D2C00608214982075DDF844A034E0688808F0DF
:100D3C00FDF87880287938713178490603D5B9796E
:100D4C0041F00201B971BBF1000F01BF7988DFF8E6
:100D5C00CC2BD28A914214D1B07000200390CDF8E4
:100D6C0004A01298059B0499029000200090DFF8D3
:100D7C00AC0B828C304601F0AAFAB87940F0050031
:100D8C00B87109F10107F188F078FAB208F068F847
:100D9C0005465FFA87F97DB1C1450DDA04EBC90050
:100DAC0000F116070020387068780128BED1387021
:100DBC004FF0010B6888BCE7204604F0B5F80094AE
:100DCC00109A9DF818105346304600F013F80FE0B7
:100DDC00F0788DF80300B8F1000FB07D8DF80400A9
:100DEC000CBFB92010208DF8050000A801F06AFA9C
:100DFC0004F0E1B92DE9FE4F86B00446129D284659
:100E0C0004F048F80646284604F062F8002E00F07C
:100E1C008B804FF00008DFF8049B01E008F101081B
:100E2C00287C5FFA88F880457AD2F6B2002E77D00B
:100E3C0005EBC80000F11607B879C007EED49DF891
:100E4C0020004FF0000B4FF0080A08B14FF0200BB8
:100E5C000C22002100A807F026FA3878A8B199F8DE
:100E6C0068107888012908D1ADF800004BF0080B08
:100E7C00FF2041F2080A387111E0A0804BF00C0BF6
:100E8C004FF00C0A4FF6FF7007E09DF8180018B1F0
:100E9C004BF0400B4FF00A0A7888ADF800008DF843
:100EAC0002B0207D00F042F801F00BF99DF814001F
:100EBC0048BB0398407D78710398A0F816A09DF864
:100ECC001C104176387818B1039999F868000877A6
:100EDC000398698920F8281F698A4180297D01714E
:100EEC000399687981F83A000399387900F000FE8B
:100EFC000398A1888187227D2169406C07F0BBF99A
:100F0C0000A801F045F9B87940F00100B8719DF8DE
:100F1C00141000290EBF761E40F00800B8717DE752
:100F2C000021284600F04BF804F042B98DF804007B
:100F3C0001208DF8050000A87047F0B5044689B073
:100F4C00207B0F4604F041F8060023D065691FBBD7
:100F5C00217B042204F04FF8E5B1A888ADF80E000F
:100F6C00E888ADF81000287A8DF81C00F06806901F
:100F7C0000208DF81D002068006A0078820928780E
:100F8C0000F0200300F0400108BF0422009602A8E4
:100F9C00FFF730FF09B0F0BD217B082204F02BF8DD
:100FAC000028D9D0002DF5D001977189C9B20091D4
:100FBC00037942880178A87808F055FFCDE77CB515
:100FCC0001220123002402E00023641CE4B2057C0E
:100FDC00AC420BDA00EBC4052D7FEE07F4D50C26E2
:100FEC003542F1D06D07F0D50022EEE7047A7CB9DA
:100FFC000BB901290CD10121017241798DF8031033
:10100C0040898DF804008DF8052000A801F05AF9EC
:10101C0073BD0121D3E7DFF810170B7820B1002244
:10102C00CA700221024603E00120C870022102E0CE
:10103C00184609F032BC184609F05ABC2DE9F843A1
:10104C00DFF8D808DFF8E066807B00250024F76B1A
:10105C0000074FF0010920D409F0F1FC316C421A61
:10106C00DFF8281D0B889A4238BF01202BD3DFF8FC
:10107C00201D0978B2FBF3F81FFA88F8414534BFFC
:10108C0089465FFA88F903FB182189B2401A30644B
:10109C0003E03846FEF7D9FF47469FB1F878814503
:1010AC00B4BFA0EB09000020F870F978786829B972
:1010BC00002C804614BF6060F063EAE73C466D1C70
:1010CC000746EAE7A8B2BDE8F283F8B5DFF8584660
:1010DC00027AE56B0E46022A294646D1078800E0C3
:1010EC00496859B10888B84204BF8878B042F7D132
:1010FC00DFF89C0C0078C8700120F2BD002035B1DF
:10110C00012001E0401C0D4669680029FAD1DFF886
:10111C00E81C098880B2884227D20820FEF788FF95
:10112C0018B307808670DFF8681CDFF8F067097861
:10113C00C17000214160E16B09B1686006E0E063B9
:10114C00B07B000702D409F07AFC2064B07B000766
:10115C000BD52078082109F0E1FB30B9DFF82C0C15
:10116C0002882078082109F0A7FB0020F2BDDFF8E7
:10117C00B81508710FF28D0008630FF269204863EF
:10118C000FF2ED408863704738B504000D4608BF78
:10119C00FEF77AFFDFF89005416C11B9446404E066
:1011AC000146C8680028FBD1CC600020E060A57126
:1011BC0031BD10B5DFF870355B6C00E0DB684BB10E
:1011CC00DC79844201BF9C888C429C799442F5D195
:1011DC00184610BD002010BD10B5DFF84C154C6C36
:1011EC00A04203D1E4684C6406E00C4624B1E168EB
:1011FC008142FAD1C168E160FEF727FF204610BD9D
:10120C00AC440020FEB50646307A002818BF0128F1
:10121C000BD0308803F00EFB38B9307A032806D196
:10122C0001A9304600F00EFE20B90220FEBD308828
:10123C00ADF80400708A443080B2FEF7F9FE040069
:10124C005ED04422002107F02EF8B07ADFF8D85493
:10125C0000A909F072F804F134079DF80000B87188
:10126C0001219DF8010078712046FFF78DFF2422A3
:10127C00314604F1100006F0FEFF04F14400F86062
:10128C00708A3881728A7169F86806F0F4FFBDF8CB
:10129C000400A0806878E071401C687009F0CFFBF6
:1012AC002080FF2097F905108840F870F878B87006
:1012BC0000208DF80800307E10F0010118BF0121CC
:1012CC008DF8091002A808F0F4FF801E38703978E8
:1012DC00388990FBF1F020723978388990FBF1F263
:1012EC0001FB120010B1207A401C20720121208DCC
:1012FC0040F008002085287907F056F90020FEBD43
:10130C001020FEBD70B5044609F099FB208004F155
:10131C002A03DFF8981B987B0978884258D2197BEE
:10132C00FF2903D1401C9873587B1873D97A1A7B08
:10133C00002001E0401CC0B2DD7BA8420BDA82F039
:10134C00FF0525FA00F6F507F4D54118012505FA35
:10135C0000F0104318739D7A588AC9B205FB11022C
:10136C0092B2AA420ED3187BFF282A460CD0187CC6
:10137C006080208D91B940F020002085207A187172
:10138C00206C14E0FF201873DFF89005DFF8205B69
:10139C0000792D78684364256843E9E74FF6DF75DB
:1013AC00284020851971206C9D7A05FB0100606234
:1013BC00D2B2E079D8706284DB48826C100002D023
:1013CC000846904768B904F11000BDE87040E1E3AD
:1013DC001978A07EE92208F033FD2046BDE8704064
:1013EC00FAE670BDF8B504461646607D0122FFF79B
:1013FC00E0FE050036D0002E01BFE07D05F12A0687
:10140C00F17A88422ED1AF1CF37BBA79217E181861
:10141C0090420ADBFF2908D13178387E002208F08F
:10142C000FFD2846BDE8F240D6E6FF290BD1FF2080
:10143C0098403073307BF17B7073F07A0818F0723F
:10144C000020B07302E07173207E307309F0F7FA5C
:10145C0028800121307C3880BDE8F440B248007906
:10146C0007F0A2B8F1BD2DE9F047044682B0A07890
:10147C00884691469A4608F000FF05005FD01C2074
:10148C00FEF7D6FD070059D01C22002106F00BFFF9
:10149C00A07800A908F051FF9DF8010038750221D1
:1014AC003846FFF771FEB8F8000097F91410B880B1
:1014BC00607DF871FF208840787468680078387413
:1014CC00207DB874E17D4843303080B206F02AFFAD
:1014DC000500BD612ED01A202870AE1C002068704B
:1014EC0030804146E0887080A81D08F016FFE07837
:1014FC007073DFF82804808CF08105F11C00618B7F
:10150C00018261893182A178B174217BF17499F8DF
:10151C000010317599F80110717599F80210B175B8
:10152C0086F817A00A99016005F13001C160A17D10
:10153C00017203E03846FFF74FFE00273846BDE83E
:10154C00F6872DE9F84FDFF8E0B188460546DBF861
:10155C004810EC7D0027080091469A4604D020469E
:10156C008847002840F08280B8F80010687D02227D
:10157C00FFF71FFE060012D16878C00776D50A98CF
:10158C00009053464A4641462846FFF76CFF06003A
:10159C006CD0347201219BF8040007F005F8307A06
:1015AC00401E8442307C08BF0127FF284BD068784E
:1015BC00F17CC007307D48BF0024421894424FF0A4
:1015CC00FF0904DB4118F17409FA00F07074B0697A
:1015DC00B37C806A2A7D296903FB040006F04BFE6C
:1015EC00307D727C94FBF0F1012300FB114C03FA6B
:1015FC000CF31A437274AFB100FB1140401C09FA92
:10160C0000F010437074B169B07C2A7D04FB00209B
:10161C00C884707CFF2805D1307C06F0A4FE86F8C7
:10162C00109010E009F00BFA3080DFF88418BB48FA
:10163C00097800794843DFF87418097801FB000039
:10164C00642148437080F07C317D0918491E8C421E
:10165C001CBF717CFF2900D047B1E8752946707C0E
:10166C002876B8F80000BDE8F44FFFE1BDE8F18F33
:10167C0001462D48007906F076BEF8B50C462004DC
:10168C00294D19D4E0074DD56E6C09F0D8F94FF6F9
:10169C00FF7180B20A461FE03078012809D17069C9
:1016AC00009006F11002F37CB11C06F11C00FFF750
:1016BC0048FF304606F048FE287906F0B3FE0600D7
:1016CC00EAD184F40040F2BDA7EB0C039342F66818
:1016DC00BCBFA7EB0C0292B2DEB133887788C31A79
:1016EC001FFA83FCBC45EFDBB079022809D1307CB2
:1016FC00FF281CBFB06906F027FE3046FFF76CFDD3
:10170C0002E03046FFF7FEFD2879012106F04CFF80
:10171C0005E08A4203D02879012109F0BEF884F053
:10172C000100F2BD0020F2BDBC02002070B50D46D8
:10173C000446298800F02EF808B1B82070BD00F0DE
:10174C009DF8DFF894180978884201D3B22070BD57
:10175C001820FEF76DFC060001D1102070BD002092
:10176C003060347112222946B01D06F084FDDFF87A
:10177C006C08016811B9066004E00146086800288D
:10178C00FBD10E6000F09DF8002070BD6444002079
:10179C001C080020DFF84428126842B113798342F8
:1017AC0012BFFF28D3888B42F6D1901D70470020C2
:1017BC00704700005C44002010B5DFF82028146846
:1017CC00FE290CBF0123002303E0914208BF012333
:1017DC0024683CB1E2888242FAD12279002BF4D001
:1017EC00104610BDFE2010BD10B50022DFF8EC37FE
:1017FC0007E01C79844204D1DC88D2B221F8124073
:10180C00521C1B68002BF4D1D0B210BD38B5DFF8D8
:10181C00CC371A68002401E0144612688AB1157995
:10182C00854204BFD5888D42F6D11068002C0CBFC0
:10183C00186020601046FEF708FC00F042F801200A
:10184C0032BD002032BDF8B5DFF890570446286849
:10185C00002603E00768FEF7F8FB384658B102791A
:10186C000168A24204D1002E0CBF29603160F1E75F
:10187C0006460846F2E7BDE8F14022E00020DFF81A
:10188C005C1700E0401C09680029FBD1C0B270470E
:10189C0010B5DFF84407007814214843811C00225E
:1018AC0089B2422007F0A9F8040018BF00F002F832
:1018BC00204610BD80B500F037FE422007F0E3F85B
:1018CC0001BD10B586B00020ADF80000DFF80C07A4
:1018DC00046815E020798DF804001222A11D0DF189
:1018EC00060006F0C8FCBDF8000014225043811C11
:1018FC0001AB89B2422007F0C6F800F01CFE246848
:10190C00002CE7D100AB02220021422007F0BBF8EB
:10191C0006B010BD0000000048610100CC3F002063
:10192C0030B587B000AB02220021422007F0F8F856
:10193C000024C8B9002512E014206843811C01ABB7
:10194C00142289B2422007F0EBF838B99DF8040054
:10195C000DF10601FFF7EAFE00B9641C6D1CBDF821
:10196C000000ADB28542E7D3A0B207B030BD10B5D0
:10197C0000228A70CA700023027F0A75826A4B7338
:10198C008B80838D4B83C3894B8112F8013B0B7089
:10199C0003F00304032C65DA002C18BF022C33D19E
:1019AC0003F00C040C2C08D0DB065CBF12F8013BD6
:1019BC008B70082C08BF012300D000230C2C0B7358
:1019CC0006D11378547803EB04238B80921C0AE025
:1019DC00437903F00303012B05D10B7843F00C037F
:1019EC000B7043898B800B78DB060DD413785478FD
:1019FC0003EB0423CB8012F8023F547803EB04234F
:101A0C000B819378CB70D21C12F8013B4B750B7881
:101A1C001B0618D512F8013B4B70FC24234221D134
:101A2C0003F00304032C1DD0032423420DD012F821
:101A3C00013BCB750B7803F00303022B05D112F895
:101A4C00013B0B7601E000234B700A610B7D9A1A67
:101A5C00836A9A180A75037F9B1A4B73D2B2007F64
:101A6C00904202D200204873087510BD70B50C4628
:101A7C0086B00546207800F00C01020648BF41F004
:101A8C00800141F0020600F00301012908BF46F075
:101A9C001006800648BF46F020060C22002100A844
:101AAC0006F001FC8DF8026060788DF80300ADF84B
:101ABC000050FFF73DFA00F004FB9DF81400A8B9A4
:101ACC000399012048760399A07881F83A0003998C
:101ADC00E07800F00DF80399207E81F84C00039912
:101AEC00E07D81F84B0000A800F052FB06B070BD01
:101AFC0081F83B000398E18820F83E1F2189418042
:101B0C00617DC172704702460020537B042B00D0CC
:101B1C00704730B5137CDBB95269CAB11378032412
:101B2C00234201BF4B68547B5D7DAC4210D154897C
:101B3C0009888C4202BF9188DC88A14208D1917837
:101B4C009A7891421DBF197801F00C0104290120EB
:101B5C0030BD1CB50346084603224178114208D01B
:101B6C00DFF828164C6B210013D000221946A04731
:101B7C0013BD0190ADF8003000A9DFF8800602F02B
:101B8C0092F830B10621417300210068407B01F0CE
:101B9C00EAFA13BD2DE9F0430446DFF8F085E57A47
:101BAC0098F8030087B008B9BA20ECE000F063FAAB
:101BBC0001278DF805700026207E400709D59DF879
:101BCC00020040F040008DF80200207E000758BF54
:101BDC000327208BC10648BF47F04007000710D5EC
:101BEC009DF8020040F0C0008DF80200217E9DF8A7
:101BFC00030089064CBF40F0010040F002008DF854
:101C0C000300208B217ADFF8F89500F4C070B0F552
:101C1C00C07F08BF47F0080751B9B9F81600ADF8F6
:101C2C0000009DF8020040F004008DF8020031E045
:101C3C009DF802200F2942F0080347F0040006D15A
:101C4C008DF8023007462188ADF8001022E00229F9
:101C5C0002D100F0D7FA1DE0032904D100A92046D7
:101C6C0000F0F0F816E0012914D199F8681039B198
:101C7C008DF8023047F4805700F0C4FAFF2508E0D5
:101C8C0042F00C018DF8021007464FF6FD71ADF8CD
:101C9C0000102688207EC0071DD59DF802000C215F
:101CAC0008420BD1208806F0BDF908B9BB206AE0C8
:101CBC009DF8020040F020008DF80200207EC00745
:101CCC0009D59DF8020000F00C01042904BF40F076
:101CDC0020008DF80200608A8DF8040000A800F046
:101CEC00F0F99DF8140000284BD10398C782E17ECF
:101CFC0041760399207F8876207A012803D10399B5
:101D0C0099F8680008770398A17E20F8281F218B8A
:101D1C004180E17F0171208B00F4C070B0F5C07F71
:101D2C0005D10398417D94F8200003F079F90399CB
:101D3C00A07A81F83A00039880F83B50039820F879
:101D4C003C6FE1894180218A8180A17E8173039956
:101D5C00A07F81F84B000399607F81F849000398BC
:101D6C00628A6169406C06F086FA207E400605D5D1
:101D7C00D8F84C1008001CBF00A8884700A800F039
:101D8C0007FA9DF8140007B0BDE8F0830A0800209C
:101D9C001E08002010B50078632420B1052008F03F
:101DAC0062FEC0F15604DFF85804007B20B108F045
:101DBC005AFE201AA0F10E04E0B210BD13B5114664
:101DCC001A46DFF8E0341C68230008D001AB0093FE
:101DDC000123A04708B1002016BDB22016BDB620C5
:101DEC0016BD38B5DFF8A443E469250001D0A0473F
:101DFC0032BDB62032BD00000C08002038B50346B9
:101E0C00B5200C46A22B1546DFF880130CD0A32B63
:101E1C0002D0AB2B10D032BDDFF88C1409680A004D
:101E2C000FD0884728800BE00A6A110009D0294698
:101E3C002046BDE83840104789692846FEF7D0FB9C
:101E4C00002032BD70B504460D4602F06FFA014613
:101E5C002046FEF7C9FB012618B102F08DFD288043
:101E6C0004E029462046FEF75EFC0646304670BD6F
:101E7C0010B504460E20FEF7DBF8A8B104F13801CA
:101E8C000A7802704A7842708A788270CA78C27076
:101E9C00CA8882800A89C2808A7A02728A7C02731A
:101EAC0062884281497C417310BD00001A080020F1
:101EBC001B0800200021017570470120704701218B
:101ECC000175704701207047DFF8D804DFF8D8148B
:101EDC000160DFF8D8144160DFF8D4148160DFF8BA
:101EEC00D414C160704770B5C26892F8381012698A
:101EFC0011F0030418BF022C02F8011B39D111F0A8
:101F0C000C0318BF082B01F0100504D0042B07D1CB
:101F1C00022C00D18DB9C66896F83B6002F8016BB3
:101F2C000C2B08D1C668B68F02F8016BC668B68F49
:101F3C00360A02F8016B022C00D1D5B9C468E48FC3
:101F4C0002F8014BC468E48F240A00F049F800F051
:101F5C0047F8240A002B18BF082B02F8014B03D0BA
:101F6C000C2B18BF042B04D1C36893F83A3002F839
:101F7C00013B0326C36803F12A0401F00203E57B4D
:101F8C00354208BF002B02D125782D0603D5E47FFE
:101F9C0002F8014B08E0DFF8F4516E78E6776C78C4
:101FAC0002F8014B641C6C70090614D5C16891F8D9
:101FBC00391002F8011B0325C16811F8394F2C4266
:101FCC001EBF897C02F8011B002B04D0C06890F85E
:101FDC004C0002F8010B70BD49610100F044002077
:101FEC0002F8014BC468B4F84040704730B5026841
:101FFC00917801F003030124002B18BF022B20D190
:10200C0011F00C050BD0082D08BF02240BD0042DA9
:10201C0006D1022B01D1CB0607D4062410E00224F2
:10202C000C2D08BFA41C022B01D1CB0609D4241DF6
:10203C00002D18BF082D03D00C2D18BF042D00D176
:10204C00641C0B0604710CD503795B1C037103240F
:10205C00D278224205D05A1C0271890744BF511C08
:10206C0001710179491C017130BD0069002818BF4C
:10207C00FDF7EBBF70470C22002100A806F013B946
:10208C007047DFF89814DFF8982409781278114318
:10209C0004BF417A002905D141680978062918BF87
:1020AC0007290DD0017B39B94168097805291CBF76
:1020BC004FF49A7007F0F4BADFF86814096808470F
:1020CC00704710B584B0044601940020E06001997B
:1020DC0008610199087501A8FFF788FF0198484924
:1020EC000088C98A884211D00198807880060DD565
:1020FC00DFF8B0120198096888470198006928B97F
:10210C0001980199807800F0DF008870207D00280C
:10211C003AD150208DF800009DF80810207908184D
:10212C008DF8010060798DF80200206938B1027FCA
:10213C00407F9DF80110801840188DF8010000A810
:10214C0000F038FAD8B121884180012200F1100149
:10215C004A7200F13802A3781370E3785370237934
:10216C00937209689DF8083013745918D16021696D
:10217C0019B1D368097FC918D160E0601FBD204632
:10218C00FFF773FF102020751FBD0000BC0200205C
:10219C0010B50446207D88B92046FFF7A4FE2069BF
:1021AC0008B100F00FF8E068217D19B900F0D2F900
:1021BC00207503E0FDF749FF0020E0602046BDE8F4
:1021CC00104052E7DFF8DC1149682046084738B563
:1021DC000D460B49C98A0446688B884205D02046B7
:1021EC0005F020FF08B9012032BD29462046BDE884
:1021FC003840DFF8B021D26810470000131B0000F4
:10220C00CC3F00202088ADF8000070479DF81400EA
:10221C0006B010BD10B586B000F032F86078012819
:10222C0018BF042822D102208DF804009DF8140058
:10223C00D8B92078ADF8000021208DF80200FEF707
:10224C0077FEFFF73EFF9DF8140070B90398406CC1
:10225C0008210170617841706178022903D16168AD
:10226C00801CFEF7BDF900F009F8CFE7022808BF83
:10227C000A20D9D0B3208DF81400F6E700A887E720
:10228C00044600208DF814000C22002100A806F052
:10229C000AB880B5FFF718FEDFF88812DFF81003D4
:1022AC00086001BDC0420020C4420020406940B11A
:1022BC00427803231A4204D10A46017B807807F046
:1022CC00BFBD704742790179C07807F0B9BD2DE9DF
:1022DC00F04105468846287D383017461E46C0B268
:1022EC0006F020F804003DD0012020701C22294665
:1022FC0004F11C0005F0BFFF0A224146A01C05F0AA
:10230C00BAFFA78130782074B078A07470786074AC
:10231C000798E0740020E0620898606106982076C7
:10232C006889E08109986076287D30B104F1380025
:10233C00E0622A7D296905F09EFF617FDFF80403C6
:10234C00032211420AD0816B080020461CBFBDE855
:10235C00F0410847BDE8F04105F0F6BF2146BDE865
:10236C00F04101E0BDE8F081007805F0FCBF30B52C
:10237C0000220023242509E0DFF85C4305FB03441D
:10238C002479844224BFA142521C5B1CDFF84443D5
:10239C002478A342F0DBD0B230BD00000221012032
:1023AC00E5E70000FC430020C11E0000CB1E00002E
:1023BC00D11E0000C71E0000F0B504460D464FF6B6
:1023CC00F870854285B000DB1CB3002708E04FF69F
:1023DC00FF70854202D03088854218D07F1CFFB236
:1023EC0001F04AFA874214DA00F0ABF801FB070659
:1023FC003079FF28F2D0002CE9D000F086F80028C4
:10240C00ECD001A92046FEF7EFF80028E6D03046C4
:10241C0000E0002005B0F0BDF0B5DFF8B822DFF821
:10242C00B852137824244FF6FE72904208BF00264F
:10243C0019D0002600E03E469E4214DA771C664313
:10244C0006EB050CFFB29CF804C0BCF1FF0FF2D0F8
:10245C00765B8642EFD13E4605E0012818BF032883
:10246C000DD0761CF6B29E420BDA04FB06F77819F7
:10247C0000290079F1D00028F3D00528F1DA785B37
:10248C00F0BD1046F0BD0121C6E72DE9F041044630
:10249C000421FFF784FF050013D0680080B2FDF71C
:1024AC00C7FD06000BD04FF6FE7837464046FFF7C7
:1024BC00EAFF404518BF27F8020BF8D102E00025CF
:1024CC0000E00026257001F020BB002201E0401E38
:1024DC00521CDFF800120978D2B28A420CD2DFF813
:1024EC00F811242303FB02110B79052BF0DA80B2CF
:1024FC000028ECD1084670470020704705B0BDE8B5
:10250C00F08301208DF80000704701208DF8000049
:10251C007088ADF80C0000A8FEF7A9B91F080020C0
:10252C0006450020F44400200020ADF8000000AB6C
:10253C00022200217047BDF80000401CADF80000DD
:10254C007047654824217047DFF82818DFF8280801
:10255C00C860704738B50446DFF8480A017C082982
:10256C0018BF042908D0217801F00301012902BF0A
:10257C0021690978062913D161884FF6FE729142C0
:10258C000ED00088814204BF207F002803D0204653
:10259C0001F012FC02E0204601F09AFC054600E036
:1025AC00C2252046FDF751FD284632BD0000000033
:1025BC008D20000038B5044620786178081880B268
:1025CC00FDF736FD050013D02278002105F06BFED7
:1025DC004FF6FE70688002F0CFF9A8802078401981
:1025EC0028616078287501F0B9FE6875A0782876A6
:1025FC00284632BD70B5DFF82847054694F826000A
:10260C00042814BF0828C22088B00E4618D004F144
:10261C0028000560867100F017F801208DF8040081
:10262C0000208DF80700022084F826000020DFF837
:10263C009413009508708DF8056000A808F09BFABB
:10264C0008B070BDBC0200201C22002100A805F0BF
:10265C002ABE30B5DFF8C8560446686F87B0F0B9AB
:10266C000820FDF7E5FC6867B8B1216801601C2201
:10267C0021790171696F60794871696FA0798871EE
:10268C00FFF7E3FF2068009020798DF80500607952
:10269C008DF8040000F017F802E0102000E0012093
:1026AC0007B030BD10B5DFF87846606F18B1FDF794
:1026BC00CCFC00206067BDE8104001F019B90000A7
:1026CC0008B0BDE8F08100208DF8070000A808F0E4
:1026DC0052BA0000F8600100982C0020F0B50F46AB
:1026EC00DFF83C16012689B0044681F826601C22CE
:1026FC00002101A805F0D7FD0025032001948DF8D9
:10270C0009708DF808008DF80B50344218BF6D1C01
:10271C007600FAD100A95A2008F008FA9DF80000BA
:10272C00EDB268434FF4904148434FF47A71B0FBDB
:10273C00F1F4DFF8340BDFF8985A0088E8814FF495
:10274C008061287A08F0D4F8287A22464FF4806108
:10275C0008F0A3F801A808F00EFA09B0F0BD0000CB
:10276C0000222DE9F843DFF8B89509F10E060C4666
:10277C009046F18A0546224601F084F8070008BF0E
:10278C00CA2079D0388900F0EAFC08BFC32073D086
:10279C003189884208BFC2206ED03888F18A8142C4
:1027AC0018BFF082F08A02F052FAF87A401C89F8CD
:1027BC003800294609F13900FDF712FF02208DF887
:1027CC00010000A802F013F805004ED0286906217C
:1027DC000170317841700120A87701F0A7FD686283
:1027EC000120A8764020E8823889688085F8188016
:1027FC002846FFF7AFFE5FEA000838D10920307693
:10280C0009F11A013889DFF80C5BB081B07AA0426B
:10281C0018BFB4724B2008F098F909F1240150202C
:10282C0008F093F909F11801E12008F08EF909F18B
:10283C001601532008F089F9DFF82C0ADFF89049CB
:10284C000188E18101212A880280207A08F034F87D
:10285C00207A4FF4806108F04BF828888200207AA7
:10286C004FF4806108F019F801E04FF01008DFF820
:10287C00A81A002008704046BDE8F2832DE9F24109
:10288C00DFF89C4404F10E058046287E042814BF12
:10289C000828C22087B016461F4646D0BDF838001F
:1028AC0000F05DFC08BFC3203FD0FFF7CDFE032036
:1028BC00287607A9502008F048F90EA94B2008F0FB
:1028CC0044F9BDF81C00E882AE724146BDF83800F0
:1028DC00A8812F7004F13900FDF782FE07F0CE00BD
:1028EC0040F080008DF81A008DF80B6002208DF8F6
:1028FC00160004F12D01BDF83800ADF80E00BDF83E
:10290C001C00ADF8180000208DF808000F20E877A7
:10291C00542008F01AF90F20A87704F12C01472055
:10292C0008F013F900A808F01FF9C9E610B584B037
:10293C0041798DF80810002401798DF80A100121D5
:10294C008DF80B10006810B1FDF7CDFE90B98DF825
:10295C00094001F0EBFC0190DFF8C009017B042970
:10296C000CBF00884FF6FD70ADF8000000A801F018
:10297C005DFE0446204604B010BDDFF8A41310B56C
:10298C00044691F826100020082918BF042984B0A9
:10299C0015D14FF6FD70ADF8000001F0C7FC0190A9
:1029AC0000208DF8090060788DF8080020788DF8EB
:1029BC000A0000208DF80B0000A801F037FE04B0CF
:1029CC0010BD000001450020F8B504462568002D17
:1029DC0075D0DFF8FC67726A100002D021792846A6
:1029EC009047687B022838D1A87A800735D52079A2
:1029FC00E9281CBFCD28F0282FD0A87C00060CD5C8
:102A0C00A87E50B1A8732868008801F013FF48B95C
:102A1C004FF4987006F044FE04E0DFF8580C007890
:102A2C00401CA873207950B9002704E04FF49B7028
:102A3C0006F036FE7F1C6079FFB28742F6D3A87B86
:102A4C00401EA873A876202104206873DFF8780C48
:102A5C0000882881307A05F0A7FD687B022818BF12
:102A6C0006282CD1A87AC00729D521792846FFF74A
:102A7C001DFC68894FF6FE71084068812868008843
:102A8C0001F0D8FE0028207912D170B940F22F1035
:102A9C0006F006FE00256079EDB285420FD24FF4A8
:102AAC009B7006F0FDFD6D1CF5E740F2311002E065
:102ABC0028B940F22D10BDE8F24006F0F1BDF1BD91
:102ACC002DE9F04F9BB08B468046924605A9FEF748
:102ADC004EFF9DF8210000260027002804BF9DF81A
:102AEC002800002809D09DF81400400608F10404C1
:102AFC0006D5E08801F09EFE10B140F2351064E07E
:102B0C009DF81400864D00F00C0004289DF814006C
:102B1C000CBF4FF00109B146800616D50127B9F15B
:102B2C00000F12D12189EA8A608D914205D10006ED
:102B3C000BD5E088ADF82E1002E0000605D408464F
:102B4C0005A9FFF744FB00283DD1618D080612D47E
:102B5C009DF8140040060ED59DF815000322104276
:102B6C0009D19DF8140000F00C020C2A1EBF00F0D5
:102B7C000C00082801269DF8140000F00300022820
:102B8C0004D1208905A9FEF7E4FF9DE0012812D1AC
:102B9C002EB1080603D4208905A9FEF767FF05A806
:102BAC000D902089ADF83000A0788DF832000CA87B
:102BBC00FDF7E1FF88E00028FCD1E87A012804BF8A
:102BCC00A078002804D14FF49A7006F069FD7BE0E0
:102BDC0002208DF864002089ADF85C0008F130000B
:102BEC0094F82A1009063CD502218DF84010E18892
:102BFC00ADF838109DF817108DF842109DF816108E
:102C0C008DF84310A98CADF84410BDF81A10ADF82E
:102C1C004610BDF81C10ADF848109DF82810ADF802
:102C2C004A1009991391618DADF85010A1898DF856
:102C3C00521021788DF85310A17B8DF854109DF80B
:102C4C0029108DF855109DF82B108DF85610017821
:102C5C008DF8571080788DF858000EA8FEF79AFF63
:102C6C0032E0B9F1000F1DD0A1898DF82A10DFF8E0
:102C7C006015D1F828805FEA080125D0BDF85C10FA
:102C8C00EA8A914220D1007804903346608D0390FB
:102C9C00CDF808A001975A462078009005A917A8EE
:102CAC00C04711E01EB1208905A9FEF7DFFEA07B0D
:102CBC000390CDF808A001975B46E07B009017A924
:102CCC00AA8C05A8FFF703FB1BB0BDE8F08F03F03F
:102CDC00E1BA03F07DBB10B504461148807B0007B8
:102CEC0007D4DFF89409016C19B10078082105F0BC
:102CFC005BFC2046BDE8104003F086BB10B50129F3
:102D0C0004460BD1002102F0C2FBDFF85C0B027809
:102D1C002046BDE81040002102F096B910BD00001D
:102D2C00CC3F002003F071BB10B5DFF8A414DFF822
:102D3C003C4B0872002084F82600DFF8340B006846
:102D4C00400406D4DFF82C0B006810B1012180F888
:102D5C002A1006F0BDF974340020A060606001F008
:102D6C0001FF06F0B8F900202060BDE8104007F024
:102D7C005FBF0000EC060020D93600002DE9F043BF
:102D8C00DFF8F458287A0C4621048FB01CD505F0D6
:102D9C0049FB050015D000200FF20C2100E0401C6F
:102DAC00C0B2024611F83230FF2B07D02E78B34256
:102DBC00F5D101EBC201284649688847284605F041
:102DCC00C3FA84F40040EAE0A1040BD500F0CFFF75
:102DDC00050004D000F0A4FA284605F0B5FA84F4F6
:102DEC000050DCE0E107DFF8982A0ED5107D0F28A3
:102DFC0008D1002000F0F9F820B1DFF8D80A0068FB
:102E0C0000F0D3F984F00100C9E061041AD5DFF8B1
:102E1C00D80A017806290AD10B210170DFF8CC0AF7
:102E2C00017892F9002001209040FFF757FCDFF861
:102E3C00DC0A0268287A4FF4804107F03DFD84F4E7
:102E4C008040ACE0A10640F19E80202107F066FD99
:102E5C00296D084308BF01260BD007F0F0FD296D42
:102E6C00002621B1884234BF4FF0FF36461A76084F
:102E7C0058D000F0B5F807460DF114082FE001F01A
:102E8C0056F801AA4FF0FF308DF802003868C17F68
:102E9C00006A01F035F901281BD1788A40F08000D6
:102EAC00A8F81E00B97B8DF83410B97A090706D53D
:102EBC0040F48070A8F81E000DA9387B88707869E2
:102ECC0010B1007BADF81400002200A901A8FFF797
:102EDC00F7FD06207873387B00F01AFE4F460FB3CF
:102EEC0000220421384600F0C1FE81463889B042E8
:102EFC002CBF801B0020388138890028EED1B87B8C
:102F0C0001280AD1B87A4007B9D406207873B721C2
:102F1C003868407B00F027F9E0E70028AFD10120AA
:102F2C007873DBE700F051FD00220121002000F056
:102F3C009DFE18B1287A202105F036FB00F050F8E0
:102F4C00E8B1078903E001898F4288BF0F46002250
:102F5C00042100F08BFE0028F5D1B6B2287ABE42CF
:102F6C0002D2BF1BBFB227B9202105F01DFB0020E8
:102F7C0005E07A00202107F090FC07F060FD286541
:102F8C0084F020000BE0600508D501F046FB012120
:102F9C009089FFF79CFE84F4806000E000200FB065
:102FAC00BDE8F083E23F00200A0000007F390000FA
:102FBC0002000000B735000005000000B537000026
:102FCC0007000000893600000C000000E131000011
:102FDC000D0000002D330000FF0000000000000079
:102FEC0000220421002000F041BE00B587B0182259
:102FFC0000F0D6FB00F004F807F0E1FD07B000BDCF
:10300C0002208DF80800DFF86408418B808CADF845
:10301C000A00ADF8001000208DF8140000A87047CD
:10302C0010B50C008EB012D0014600AA204601F05B
:10303C0067F89DF8060050B19DF81C309DF80120F2
:10304C002146002007F006FD08B1A42000E0002076
:10305C000EB010BD70B504468EB0A07ADFF80C58D7
:10306C0040064FF6FF7609D52068008801F0E2FB98
:10307C0008B1304606E02068008800E0688B00F05C
:10308C006EF862D02168088001F0D4FB01462068FC
:10309C004A1E9241D20FC281DFF880190A68DFF80C
:1030AC00D01709684B044BD457208DF800007223BD
:1030BC0000A843706F23837002736E238DF8033066
:1030CC00017467238DF8043043238DF80530682391
:1030DC008DF8063069238DF8073070230372130EB8
:1030EC008DF80930130C8372130A0A0E42738DF893
:1030FC000B300A0C827305A80A0A8DF80F200021E8
:10310C00242205F0D0F802208DF81C00ADF81460D4
:10311C000021A88CADF81E0002208DF82000112093
:10312C008DF8330000A80D9005A807F04FFD0500A1
:10313C000DD02068407B294600F015F838B10BE023
:10314C00DFF8641A07F042FDF1E7CD25F1E71CB179
:10315C000121204600F064FC28460EB070BD4FF6ED
:10316C00FE718842704738B504460D46142005F0B0
:10317C00D9F860B10C210170847000218173457005
:10318C00014600F060FD05F0EEF8002032BD20464F
:10319C0000F07CFD38B106214173007B02F0C6F9CA
:1031AC00204600F0B5FC102032BDDFF8001A8A79F9
:1031BC000F2A0CD158B10978082918BF042906D157
:1031CC000246DFF8B404007A012107F066BB7047B1
:1031DC00BC0200203EB50446A07800F057FD050067
:1031EC003BD06078E8736078F12818BFCD2804D004
:1031FC001A281CBFE928E1280BD10021284600F031
:10320C000FFC30B16A896178288905F0C9FF2881E3
:10321C001BE060788DF808000195A07B8DF8090003
:10322C00287C002801A802D1FFF7CEFB01E001F0B9
:10323C0097FA9DF80830E92B07D1286801210091F5
:10324C004189E27B008801F098F8687B022804BF72
:10325C0006206873A07800F05BFC00F0B6FB024817
:10326C000088FFF7A2FF37BD00080020F8B5851CC9
:10327C000024E97891B12989FF20FEF78BFA082404
:10328C0020B1E87840F001002C24E870E87800F0D8
:10329C00030001283CD144F0110439E000F124066C
:1032AC00E87EDFF8C87578B1E97F002918BFFF29DF
:1032BC0005D12889F98A88422AD1222428E032684B
:1032CC00A87F02F0BFF823E0288901F0B3FA0228A6
:1032DC002889F98A08BF0124884208BF44F00204F7
:1032EC0034B1297800290CBF44F0200444F0400488
:1032FC0001F0A0FA0128287808BF44F0010438B185
:10330C007068007801F06AFA012818BF04F0FE0416
:10331C002046F2BD020800209F040020E63F00205A
:10332C002DE9F04F82460AF104048FB02079002871
:10333C001FBFDFF89C0900880028FFF736FF2179B2
:10334C00206801AA00F0DCFE00286CD00DF1050706
:10335C00012079780229F978A8BF00200229BDF84C
:10336C000E10A8BF00204FF6F87291421CBF4FF60A
:10337C00F972914257D04FF6FA7291421CBF4FF638
:10338C00FB7291424FD0DFF8E4B4B9780BF10B0625
:10339C00F279914247D1002845D00BA8417A0029F7
:1033AC0041D1218B81800DF10E05608CA88078793C
:1033BC0038B1AB7C9DF805202168012007F04AFB51
:1033CC00B0B901A8FFF752FF8146787990B93078EF
:1033DC0000281CBF09F0220022280BD009F0420063
:1033EC00422805D10B980178062918BF072901D06E
:1033FC00CF2019E05FEA496019D50B9801780329B1
:10340C0018BF042904D007291CBF0A290C290AD18A
:10341C00032904BF40780D2809D001A801F0B4FAA3
:10342C00012804D194E0D32006F03AF990E00BF196
:10343C002408A08EB8F8001088420AF13A0607D189
:10344C00002000903278618E208B002300F095FFD5
:10345C007879E8B1618E208B01F012FC07003ED028
:10346C0020689DF805100818F978407B814202D03D
:10347C00F8700020786020689DF805201018042151
:10348C00401C04F020FF7968884261D3401C7860AE
:10349C0098F80200042818BF092859D15FEA8960FE
:1034AC0032D530788DF8000070788DF80100B07846
:1034BC008DF80200287A012802BF6888218B884287
:1034CC0007D1BDF80E0001F0B5F9022804BF0020A9
:1034DC002872E26A00A901A8FFF7F2FA38E09BF81B
:1034EC006C000128D4D10B980078062802D15FEA31
:1034FC004960CDD4A8884FF6FF71884228D0514638
:10350C0001A800F028F823E05FEA496020D50B9869
:10351C000078042807D1A87C022819D101A9002021
:10352C0001F0CBF814E0072806D1A87C04280FD1B1
:10353C0001A801F041F80BE0032804D1002101A8F7
:10354C0001F064FA04E00C2804BF01A801F0B7FAFA
:10355C000FB0BDE8F08F38B50D460446DFF85418AF
:10356C006089097841B1DFF80413C98A884204BF25
:10357C00BDE8314001F0F6BD002102F004F800284E
:10358C001EBF80791821084208D0E88C0090AB8BC4
:10359C00627F6189A08902F079F831BD6189A089C7
:1035AC00BDE83840002201F009BEFEB5DFF8BC4290
:1035BC0004F10E050746287E03281CBF01280928A4
:1035CC0057D17978DFF82063002939D1022005F032
:1035DC00E6FD78882881B91C532007F0B6FA287EBE
:1035EC0009281CBFE88A01F032FBFEF78AFF00A90C
:1035FC00422007F0AAFA0420287601A94A2007F0F5
:10360C0095FA01A904F11C00FCF7EAFF30780B28AD
:10361C0002D10620307003E0E88A0021FFF757FB47
:10362C002989032005F0BBFDA989042005F0B7FD0D
:10363C00287800F09BFF07F088FA00F0BAF916E042
:10364C0041F2030005F0ABFD3078DFF878180B2859
:10365C0004BF0A2030700020087000F0F2FA07F066
:10366C0047F97978E88AFFF732FB0020287600F0DA
:10367C003FF9F7BD1A080020BC0200207B49DFF897
:10368C0048384A6FA2B991F82610012904D00529AF
:10369C0006D0062908D00BE0D9680A0013D00847D9
:1036AC0059680A000FD0084799680A000BD00847E0
:1036BC00002A19BF91790129407802F0D4BC5969CC
:1036CC000A0018BF08477047040800202DE9F04392
:1036DC00DFF8F857DFF894810446287A83B04FF46A
:1036EC00806107F005F901A9502007F01FFA10209E
:1036FC0004F018FE060008F116074FF6FF7908D003
:10370C00607830B9F88948451CBFBDF80410814277
:10371C0015D0EA2060703946532007F016FA08F1EC
:10372C001A014B2007F011FA08F12401502007F080
:10373C000CFA08F11801E12007F007FA6EB3022029
:10374C003070F88948451CBFBDF8041081421CD16B
:10375C00BDF80400F8813946532007F0E7F93888A2
:10376C00708008F11A014B2007F0E0F908F11801FC
:10377C00E12007F0DBF9002000900023DFF8380887
:10378C000278F989B88800F0F8FD607870703146DD
:10379C0003203874287A04F0E6FDBDE8F7831C2278
:1037AC00002100A804F07FBD30B505468DB06C68D3
:1037BC00297C686907AA00F0ABF89DF81C0000286A
:1037CC0050D1287C0B284DDB207A022804BF207BAB
:1037DC00FF2847D1254890F82610406F022918BFC2
:1037EC00062905D000283DD0807901283AD107E080
:1037FC0030B90090627C61892088002300F0BDFD07
:10380C002088ADF8040008226089ADF806000DF19F
:10381C002301A07B8DF80800A089C00B8DF809004E
:10382C009DF820008DF80A009DF822008DF80B0001
:10383C009DF81D008DF80D009DF81E008DF80C00F4
:10384C00607C8DF80E009DF821008DF80F009DF81E
:10385C002E008DF810000DF1110004F00CFD01A8E4
:10386C0002F085FC0DB030BD09610100CC3F002099
:10387C0094120050F8430020DFF8CC0A007870470F
:10388C00E43F00202DE9FC410D4690460FF2480123
:10389C0004460CC900A821460CC000A8FCF7A4FEE5
:1038AC00002700B90127DFF86409866F06E021467E
:1038BC0006F10C00FCF798FE30B9B6693EB1002F4A
:1038CC00F5D13088A842F8D1B0784045F5D13046D2
:1038DC00BDE8F68118070020FFFFFFFFFFFFFFFF89
:1038EC00DFF82809806F7047A2040020120800201E
:1038FC0038B5DFF81849A06F002803E08569FCF79C
:10390C00A4FB2800FAD10020A06731BDC4440020DC
:10391C0070B50646144616F8010B20700D4630782B
:10392C0000F00F006070082216F8010B0009A0705F
:10393C00307800F00300E0703078C0F38000207124
:10394C003078C0F3C300607116F8010BC009A07188
:10395C003146E01D04F08FFC08360322314604F199
:10396C000F0004F088FC0F2DACBFF0780020A07481
:10397C0070BD10B5044682B06078FFF7ACF9607882
:10398C00EB2818BFE12803D0F12818BF1A2801D161
:10399C000020607000F00DF8DFF870080121009134
:1039AC000022818C6378408B00F0E7FCBDE813406B
:1039BC000BE0DFF8DC0A0068FFF7F7BB0100DFF86B
:1039CC00D40A18BF012101707047DFF8C80A0078CB
:1039DC0000B1704780B50022012100F047F930B1E9
:1039EC00016800291CBFBDE80240FFF733BB01BDD5
:1039FC0080B5042000F02BF9DFF89C1A097881427D
:103A0C0007D3FF2000F023F9DFF8901A09788142E0
:103A1C0001D2012002BD002002BD0000181300508D
:103A2C002DE9F04107468846387B00F02FF9002439
:103A3C000546012625BB7A89397B386800F0B8F831
:103A4C00050061D02C810124387C2874788A688226
:103A5C0007F1100000F014FF68614FF67F41388BBE
:103A6C002883B87EA87668890840688141074FBFD3
:103A7C0040F08000DFF8281A097840EAC11068810C
:103A8C006889C109B8F1000F01F0070112D00222B8
:103A9C006A732A68927B520703D5DFF87027128A63
:103AAC002A8119B34FF67F421040491E40EAC110DB
:103ABC0068811BE009B9002618E0810605D504F0E1
:103ACC0020FC00F07F005F3008E0C00605D504F054
:103ADC0018FC00F00F000A3000E0012028812021A2
:103AEC000420687300F0AFF804F05EFD6CB12A8915
:103AFC00697B284600F06FF838B1686908B1FCF7AB
:103B0C00A4FA2846FCF7A1FA00263046BDE8F0815D
:103B1C003EB500F0BBF8002498B3417B062930D1A8
:103B2C0001684489097A8DF8081001680988ADF894
:103B3C00001000F0E2F8200522D5BDF8001000209E
:103B4C0000F021F8E0B9DFF8C446A18C00A807F01A
:103B5C0076F8002100200CE0286801884FF6FF72EF
:103B6C0091420DD0A18C07F068F81A2808D00021DA
:103B7C00284600F008F80500EED1002007F061F8A7
:103B8C00012420463EBD18B9DFF88006C06F00E066
:103B9C00406840B142891205FAD500291EBF02685F
:103BAC0012888A42F4D170472D300000F23F002079
:103BBC0070B504460D4616461C20FCF739FA48B180
:103BCC00002141730573468101818173C1730460C7
:103BDC004161416070BD70B504000D4616462ED093
:103BEC00012D284607D100F032F8DFF8C819097802
:103BFC0081420DD208E0042D08D100F028F8DFF83E
:103C0C0098180978814203D2112070BD022D16D16B
:103C1C000020606065732681DFF8F005C16F31B15B
:103C2C0000E0014648680028FBD14C6000E0C46706
:103C3C0000F009F8202104F0B7FC002070BDC12071
:103C4C0070BD4FF48041DFF88402007A7047DFF8D2
:103C5C00BC25D26F002105E0537B5268834214BF10
:103C6C00FF28491C002AF7D1C8B2704718B9DFF8F1
:103C7C009C05C06F00E0406838B1437B8B42FAD1A1
:103C8C001AB103689B7B5B07F5D47047DFF87C1592
:103C9C00C96F00E0496821B10A7B8242FAD108461B
:103CAC00704700207047F8B50446002620000D46EA
:103CBC000BD0DFF85805C76F00E07F682FB129469D
:103CCC003846A0470128F8D13E463046F2BD0000E8
:103CDC00BA02002010B5DFF83415CA6F1346002461
:103CEC0001E01C465B683BB18342FAD158689342B1
:103CFC0001D1C86710BD606010BD10B5040011D0B3
:103D0C00FFF7E8FF2068006AFCF79FF92068FCF7D2
:103D1C009CF9606908B1FCF798F92046BDE81040A1
:103D2C00FCF793B910BD10B548B1A0F10C010A68AD
:103D3C00002A04BF8A7AFF2A03D004F005FB052071
:103D4C0010BD624C227A8A72DFF8CC1A0A780146CE
:103D5C0004F1540004F009FC012806D1207A4FF438
:103D6C00005104F021FC002010BD042010BD70B5E2
:103D7C00DFF8E809554D006880476E6D04468EB13A
:103D8C0056F80C1C287A00294FF4005102D004F08C
:103D9C000BFC01E004F058FC0022314605F1540004
:103DAC0004F0C9FBDFF8CC1A096820468847304676
:103DBC0070BD0000120700202DE9F04188B00446C8
:103DCC004FF6FE78FFF714FE454608B1112076E059
:103DDC00207FA8B1DFF8A00A0078410141EA8000F9
:103DEC002077FF206188FDF7D5FC48B1E08A40F0D0
:103DFC000400E0824FF6FF75207F40F00100207731
:103E0C00608800F017FD08B100206076A07E18B91C
:103E1C00DFF8680A0078A0762078DFF8F0630106F6
:103E2C0003D500F00300207006E0E07E20B9307866
:103E3C00E0763078401C3070207E01280BD1DFF802
:103E4C00BC0A007828B1F07A002804BF207800283A
:103E5C0001D1002020762078012802BF206900784B
:103E6C00022803D1E08A40F04000E08204A92046F9
:103E7C0000F0A4F84545074608BF6588EFB12078E7
:103E8C009DF81030F28A8DF8140006942946608D46
:103E9C00ADF8160005A8039094F82C000290E08A67
:103EAC000190607D0090384600F047F80446102CD5
:103EBC0004D13846FCF7C9F800E010242046FEF780
:103ECC00FFBB000001450020EC060020BC020020D6
:103EDC0010B58EB0044601A8342106F0DDFEA11CFD
:103EEC0002A84A8802810988C18004F110010A796C
:103EFC0002760A6842620A7B42700A8B82810A7AD5
:103F0C0082704A7A8DF808204A8B42850022087FFD
:103F1C008DF8340000A900F00AF84FF0FF308DF84E
:103F2C00020001A8FEF7CCFD00200EB010BDFF2052
:103F3C008DF800008DF8010070472DE9F041054621
:103F4C0088B00E4690461F462420FCF771F81024CA
:103F5C00009068B3242200F002FEAC480099808CDB
:103F6C004881ADF8188002200099087300990872F6
:103F7C00009806800098C77700980E9941730098B6
:103F8C0005628DF80C1000210F98ADF80A001198FD
:103F9C00D0E9002310988DF81A00CDE9042300A86D
:103FAC00FFF73EFD01280EBF00240098FCF74DF8EA
:103FBC002046FEF785BB0000EF070020F8B50E4643
:103FCC0004460820617F01B11020A17F01B10830A7
:103FDC00217F01B1401CA17919B1217A4900891CBA
:103FEC0008186070207E0028DFF89409007814BF50
:103FFC000E250025012808D12078012805D0DFF8EE
:10400C008409007810B1012000E0002084F834000D
:10401C006178207D7D4F081828183070207E28B1DB
:10402C00387B06F020FD31784018307030787528D8
:10403C00A8BF002662DAFBF7FBFF06005ED02078F3
:10404C00B97C40EA8100617E01F0030140EA8110F5
:10405C00217F09B14FF480710843217E40EA412051
:10406C00617F40EAC120A17F40EA0130A17940EA9A
:10407C00812094F8341040EA413080B23070082727
:10408C00000A70706088B0706088000AF070A088B8
:10409C003071A088000A7071A07EB071E07EF07162
:1040AC00607F28B1216A06F10800FCF799FA102705
:1040BC00A07F28B1616AB819FCF792FA0837FFB2F1
:1040CC00A07980B1207AB855781CC0B2617A81553C
:1040DC00471C207AE168FFB24200B81904F0CBF813
:1040EC00207A07EB4007207F08B1FFB2B855607803
:1040FC00227D21698019281804F0BDF83046F2BDE4
:10410C002DE9F84304460F46154634220021284673
:10411C0004F0C9F80126082F62DB2F702078627832
:10412C0000EB0220294680B200F072F800B10026A4
:10413C00A078E17800EB012068816179207900EBAF
:10414C000120A881A079A874E079E874082068702F
:10415C00E87918B104F1080000F0DEF8287A20B1F3
:10416C0068780019A86100F0D8F8002005F1240740
:10417C0085F820003860687920B16878015D697134
:10418C00401C6870687F38B36878411C6970005DAA
:10419C0085F82000481CC9B2687095F82020095D8C
:1041AC0085F82110914215D2DFF8B418DFF8B498D5
:1041BC000978914238BF0C22C0B24FEA420801196B
:1041CC004246484604F057F8C7F8009068784044D7
:1041DC00687001E00020687768782978814201D204
:1041EC00002010E002197A60081AA979287749B1E1
:1041FC000E38287702F10E00786000F092F8297FD3
:10420C00081A28773046BDE8F2830000CC3F002026
:10421C008A1C00F003031370C0F38303537003066E
:10422C009B0F9370430A03F001031371030A03F00D
:10423C000103D370830A03F00103D376C30A03F09E
:10424C0001035371030B03F001039371420B02F052
:10425C00010281F83120800B704710B5DFF84C2833
:10426C008479D37A00212CB1002B04BF80780028EC
:10427C0007D105E0002B1EBF4089D28A904200D0A6
:10428C000121084610BD0000F8B506460C463078F2
:10429C001546727800EB0220294680B2FFF7B8FF72
:1042AC00B078F17800EB012068817179307900EBFE
:1042BC000120A881B079A874F079E874082068709E
:1042CC00E87918B106F1080000F026F8287A20B138
:1042DC0068788019A86100F020F8687920B16878B6
:1042EC00815D6971401C68702846FFF7B6FF0700B6
:1042FC0010D16878AA79811912B9A962201A08E03C
:10430C0001F10E00A86200F00CF86978611A0E3900
:10431C00081A28773846F2BD6861687808306870EA
:10432C007047DFF88807007B06F09DBB10B5DFF8FF
:10433C00F0472146E22006F0F9FB204610BDDFF8DD
:10434C006C07C08A70470000F8600100DFF85C075A
:10435C00408B704701464A2006F0E8BB38B5DFF8C1
:10436C00C4472578681C20702846FFF78FFC00286E
:10437C00F7D1002DF5D0284632BDF8B504460E46CF
:10438C0017461D4600F07CFC069938B9A9B93A4687
:10439C0031462046BDE8F84000F025BD19B165B99D
:1043AC000022027009E045B98278BA181204520C46
:1043BC00827082780AB9012282700129DFF868675D
:1043CC00F07A01D115B90020F072F1BDDFF85C175D
:1043DC000978401CC0B28842F6D30020F072DFF896
:1043EC005007408B844209D121460120FEF771FC15
:1043FC00307ABDE8F440012106F07ABAF1BDDFF85D
:10440C0028170B7A012803D10121184604F0CCB8E7
:10441C001F49086020B102460121184606F03DBA3A
:10442C000121184606F064BADFF8081708807047B7
:10443C00DFF804170880704710B5DFF87026742178
:10444C00212004F0DAFA0446FCF7D5FA0443DFF82D
:10445C00EC060068010001D080470443FDF718FA10
:10446C00044303F013FE204310BD80B504F033FE6B
:10447C0000F099F8FCF7D4FADFF8C40600680100E4
:10448C0018BF8047FDF716FABDE8014003F04BBE9C
:10449C00180700200A450020FA600100FB600100AB
:1044AC001008002070B5DFF8045682B02A4674213B
:1044BC00212004F0A2FA002400284BD12B467422B0
:1044CC000021212004F02CFB002843D105F10E061D
:1044DC004FF6FE71308988423CD0307E012408288A
:1044EC0018BF042833D18DF8004000A9422006F0F3
:1044FC002CFB05F12F01432006F027FB05F12C01C5
:10450C00472006F022FB05F11C014A2006F01DFB9A
:10451C0005F11A014B2006F018FB05F1240150207F
:10452C0006F013FB05F11601532006F00EFB05F106
:10453C002D01542006F009FB05F11801E12006F0CD
:10454C0004FB307800F012F806F0FFFA02E004F0F9
:10455C00C2FD0024FCF713FADFF8E805006801003F
:10456C0018BF8047FDF7DCF9204676BDC00800F087
:10457C0001008DF8000000A95220704710B50446C8
:10458C00E00701D500F00FF8200748BFFCF70FFA41
:10459C00600707D5DFF8B005006801001CBFBDE857
:1045AC001040004710BDDFF888357422002121200F
:1045BC0004F069BAF960010070B5DFF86C55044677
:1045CC00287A4FF4806106F093F900F026F8092060
:1045DC00DFF85C1581F82600FFF7A8FE014660693C
:1045EC00FCF702F8C0B1102003F09CFE060013D0BB
:1045FC0002203070A06A4178827801EB0221718030
:10460C00C07870704A20A16906F09FFA287A31466A
:10461C00BDE8704003F0A7BE70BDE889DFF818153F
:10462C000880288ADFF80C150880704738B50446D6
:10463C0002208DF8010000A800F0D9F805003AD04E
:10464C0028690421017000214170217A012904BFDD
:10465C0020214170617A012903D1417841F0400158
:10466C004170A17A012904D1417841F08001417057
:10467C0001E00120A876607A012805D1606808B1B4
:10468C000120687760682862E07A012808BFE88218
:10469C00208800F0CFF818B1E88A40F00400E882D6
:1046AC000120A877FFF742FE6862208868802846C0
:1046BC00FDF750FF32BD102032BD7FB504460D46CC
:1046CC0000F087F8A86A4078002610F01F0103D08C
:1046DC0000F0C3F900203FE0810644BF01218DF8B2
:1046EC000C10010644BF01218DF80B10400603D5B8
:1046FC0001208DF80A0003E09DF80A00012803D17F
:10470C00E87950B16E6902E0287A30B1AE6926B111
:10471C0031460DF10200FBF763FFA889ADF80000EC
:10472C009DF80A00012813D1688900F083F800284D
:10473C0001BFA889DFF8F813498B88420BD13EB131
:10474C00FFF7F4FD01460DF10200FBF74DFF10B130
:10475C0000A801F007FE204604B070BD54070020ED
:10476C0010B5044692B020684189CA072FD54FF680
:10477C00FE721140418104AA0068C17F006AFFF7F4
:10478C0083FD002802BF0E98007804281FD100F08A
:10479C0020F8BDF81A00ADF800000E98407881069C
:1047AC0044BF01218DF80B10010644BF01218DF887
:1047BC000A1040064CBF09990A990DF10200FBF74B
:1047CC000FFF20798DF80C0000A801F0AFFD12B09E
:1047DC0010BD0E22002100A803F065BD00210428A5
:1047EC001CBF0A28032800D101210846704710B5C8
:1047FC003821017001218170FDF7DCFE040005D029
:10480C0001202070A077FFF791FD6062204610BD5B
:10481C00DFF81C03807C7047016101000121020755
:10482C0048BF03218007DFF8F00348BF41F00401C3
:10483C00017070474FF6F87300210022C01A03284C
:10484C000BD9001F05D0401E05D0801E06D10122B9
:10485C0004E0042202E0022200E00822DFF8B803A0
:10486C000078104218BF022101D102B10121084683
:10487C0070470000580700201D0800200A61010045
:10488C00017821B94068002818BFFDF7F1BA002063
:10489C00704710B50021DFF8E42302EB81035B883D
:1048AC00834203D100F023F8C52010BD491CC9B2C6
:1048BC000329F2DB00214FF6FE7402EB81035B88C7
:1048CC00A34207D0491CC9B20329F6DB002112F818
:1048DC00213033B902EB8103588000F008F8002036
:1048EC0010BD491CC9B20329F1DBC72010BDDFF88C
:1048FC00F403007802F8210070470000FE44002009
:10490C007FB504460D461226A4B300F035F8844258
:10491C0009D1FFF70BFD01462846FBF765FE00F0B9
:10492C00010080F0010600208DF80000ADF8024077
:10493C0000A8FBF744FF58B101A8FBF7D4FE0128EF
:10494C0006D101A92846FBF74FFE012600B100262F
:10495C002946204600F09AF90A2808BF012608D0FB
:10496C00A02806D12946204600F00DFA204600F07A
:10497C0056FA304604B070BDDFF8B401C08A7047F7
:10498C00034500200145002010B50446207A38B1BB
:10499C00A169A089FFF7B4FF012808BFA08908D03E
:1049AC00E07950B161696089FFF7AAFF012804D151
:1049BC006089FFF76EFF012010BD002010BD2DE9AE
:1049CC00F04182B0044604208DF801000D461646D5
:1049DC001F4600F068F84FF00108A0B147B1002164
:1049EC0081778580017841F0800101700021C176CA
:1049FC00032201690A702A0A4E708D70CA704480B5
:104A0C00FDF7A8FD80464046BDE8F68138B5044662
:104A1C000D46A06A227F4178042A02D000F01DF8CE
:104A2C0019E08278C0780E2902EB0022608988BFD9
:104A3C00002592B2FEF776F96089FFF7FBFE50B1C4
:104A4C00A07C022807DBDFF8E810A089C98A88421D
:104A5C0001D0284632BD002032BDD32004F020BE48
:104A6C0000610100544300202DE9F84300F020F8C8
:104A7C00994600F018F80127060012D030690B2176
:104A8C00017080F8018080F80290B777FFF74EFC38
:104A9C007062777735627480B7763046FDF75AFDD1
:104AAC00074600F082BB00A8A1E60000CC3F002026
:104ABC00044603208DF801000D469046704710B552
:104ACC00806A401C4478007848BB012C18BF022C2B
:104ADC0025D1DFF8B43301221C700021512003F0E2
:104AEC00D2FF022C1BD1DFF8A403DFF89823007847
:104AFC0000280FBF106852F820003C2250430322BC
:104B0C004FF47A71B0FBF2F048430246DFF88013A1
:104B1C000860FFF796F8BDE8104005F0CDBE10BD5B
:104B2C00B44400200C450020BC02002011080020D9
:104B3C00CC3F0020BA02002000080020CC4200200C
:104B4C00D0420020D4420020D8420020DFF81006CA
:104B5C000078401C00EBD070401070471C220021E4
:104B6C0003F0A1BB38B50024DFF85C5305E01C2032
:104B7C0000FB045000F05FF8641C00F01FF9844245
:104B8C00F5DB00203D4901EB80034FF6FE725A80A5
:104B9C00002201F82020401C0328F4DB31BD30B585
:104BAC000023DFF8244301E05B1CDBB2DFF81C239D
:104BBC00127893420EDA1C225A43155B8542F3D1CC
:104BCC00121955898D421CBF4FF6FF75A942EBD1C6
:104BDC00104630BD002030BD38B54FF6FF714FF692
:104BEC00FE70FFF7DCFFB0B900240FE0DFF8D8123D
:104BFC001C2202FB0415A97C00291CBF697C00291E
:104C0C0003D1288800F066FD2846641CDFF8BC122E
:104C1C0009788C42EADB32BD0B45002038B50446DE
:104C2C000D4603E000F007F829462046FFF7B7FFD2
:104C3C000028F7D131BD10B5040007D0FFF78EFF67
:104C4C004FF6FE7020804FF6FF70608110BD38B5B6
:104C5C00044600250AE0DFF870021C2101FB050068
:104C6C004189A14218BFFFF7E6FF6D1CDFF85C021B
:104C7C0000788542EFDB31BD00000000504400207D
:104C8C0080B5FFF78CFF00B1103002BD2DE9F04765
:104C9C0004468A4600260027DFF82C8217E01C20E9
:104CAC0000FB07F909EB0805A81CFBF71CFD60B11C
:104CBC0039F80800A04208BF46F00A065146A81C65
:104CCC00FBF792FC08B146F0A0067F1CFFB200F087
:104CDC0075F8874202DAF0B20028E0D0F0B2BDE8F5
:104CEC00F0870000056101002DE9F0470546894673
:104CFC004FF6FE7892460024002001214646DFF84C
:104D0C00C87109E003F0FDFAC0B290FBF4F104FBAA
:104D1C001100C0B200240021002202E0DE5B521C14
:104D2C00D2B2DFF8A8311B789A421FDA1C23534306
:104D3C0033F807C0C44518BFAC45F0D0CC451FBFF5
:104D4C00D44503EB070C9CF811C0BCF1000FE6D066
:104D5C00BCF1080FE3DABCF1070FDFD0641C0029AB
:104D6C00DDD1E4B28442DADBD85B0AE0E4B224B1F0
:104D7C0018B9012CC6D10120CCE7464514BF3046EA
:104D8C004046BDE8F0872DE9F041044688460027EF
:104D9C00DFF8346100E07F1C00F010F8FFB28742AE
:104DAC000AD21C2000FB07F5A8194146801CFBF712
:104DBC001BFC0028EFD0AC53BDE8F081DFF80C01F0
:104DCC000078704707210D28A8BF012109DA0728B0
:104DDC00A8BF032105DA0328A8BF052101DA00B911
:104DEC00002108467047F8B505460E461746FFF7F2
:104DFC00F3FE040012D0FFF7B1FE2580668107B9DF
:104E0C000127DFF8C000A77490F86C0001280CBFD4
:104E1C00002007206074FFF799FE2074F1BDF8B5EF
:104E2C0004460025DFF8A06015E01C206843815B78
:104E3C00A14207D04FF6FF7294420BD14FF6FE728F
:104E4C00914207D08719B81CFBF74DFC10B93846B6
:104E5C00FFF7F1FE6D1C00F002F8E6DBF1BDDFF8A8
:104E6C006C00007885427047000000B583B000A943
:104E7C00002200230CC100A9FBF7B6FB401E8041A9
:104E8C00C00F0EBD0C610100014500201908002067
:104E9C00C4440020DFF884130978002208E000EBFA
:104EAC00C2031B7F03F00D03012B08BF491E521CCC
:104EBC00037CD2B29A4202D2C9B20029EFD1C8B255
:104ECC0070470000CC3F00204C400020FF600100E8
:104EDC00DFF848134978002208E000EBC2031B7F7F
:104EEC0003F08D03812B08BF491E521C037CD2B2E8
:104EFC009A4202D2C9B20029EFD1C8B2704770B53C
:104F0C000446E00000F11805ADB2481980B2FBF779
:104F1C008FF8060006D02A46002103F0C4F9A81920
:104F2C003474F060304670BD38B5044600F012F8A9
:104F3C00DFF8E4522978884224BF686800F016F83C
:104F4C0068782071401C6870204600F02EF820799B
:104F5C0032BD0000DFF8C0124968002001E009688A
:104F6C00401C0029FBD1C0B27047000010B50400F2
:104F7C001EBFDFF8A4024168002915D00A460023A1
:104F8C00A24204D013461268002AF9D110BD22683F
:104F9C008C420CBF42601A602046FCF73AF820465F
:104FAC00BDE81040FBF751B810BDDFF86C124A6831
:104FBC0022B100E01A461368002BFBD100230360DA
:104FCC000AB11060704748607047DFF84C124968AE
:104FDC0000E0096869B1002200E0521C0B7CD2B2DF
:104FEC009A42F6D201EBC203DB7E8342F5D108462E
:104FFC0070470020704730B5002301E05B1CDBB22A
:10500C00047CA3420ADA00EBC304E57E8D42F5D1A1
:10501C00207F1043207704F1160030BD002030BDF6
:10502C0038B504460D46FFF7D0FF60B1002107E00C
:10503C0000EBC102D37EA34208BFD576491CC9B28E
:10504C00027C9142F4DB31BD2DE9F04380460D46E4
:10505C00E80785B09146DFF8E44308D5A8074FF67A
:10506C00FC7854BF45F0080545F0100530E040468B
:10507C0000F0F5FAE18A884205D02A460221404622
:10508C0000F0BAFA08B9002068E02B4602224FF66D
:10509C00FE71404600F0C4F800285ED105F0DF0533
:1050AC00680615D402A94046FBF72AFB45F02007F9
:1050BC0068B9A18C4046FFF772FD060008D0B01C01
:1050CC00FBF711FB20B1B11C02A8FBF789FA3D4696
:1050DC00DFF86C63E38A37780120009000223946B0
:1050EC00184600F0EBF9791C3170B0BBA8064CBF28
:1050FC000E2006208DF8050001A8FFF778FB0400B0
:10510C0029D00120A077FFF711F9606201212069F5
:10511C00017005F07801417087704FEA1821017118
:10512C0080F8038000214171A90603D502A9801DD6
:10513C00FBF756FA4FF6FD70B9F1000F608006D000
:10514C00DFF834030078814538BF84F81A90204684
:10515C00FDF700FA02E0102000E0C720FDF7CEB901
:10516C000261010010B5DFF8D042207A4FF4805173
:10517C0005F0D4FB10B10120A07210BDDFF8FC02C9
:10518C000278DFF8FC02007801280CBF0121032112
:10519C000020FFF759FFDFF8EC020288207ABDE807
:1051AC0010404FF4805105F078BB3846BDE8F283CF
:1051BC0009B0BDE8F08F07B0BDE8F08FF8B5DFF8A7
:1051CC007C520746E88A012687420C4604D000230D
:1051DC003846FFF7F4FB06460021384600F03FFA4C
:1051EC00E98A884214D10021204600F0CCF900282D
:1051FC001EBF81791822114206D000F041FAE98ACB
:10520C00008800F043FA03E001212046FDF776FD0B
:10521C003046F2BD00000000E0070020ED07002042
:10522C002DE9F84F07464FF6FC7087420C461546A1
:10523C001E4653D00021384600F011FADFF8FC71FD
:10524C008046F88A804501D1700678D531464046B3
:10525C0000F099F90100DFF8FC02DFF8F4A290F8F5
:10526C0000904FF6FE7B16D10021584600F08BF9CA
:10527C00010010D118210E422AD00022182301E07F
:10528C00521CD2B24A450AEBC20102DA88791842A2
:10529C00F6D14A451CDAA1F800805C4518BF4C8059
:1052AC00F00748BF46F00406DFF80C028E71012DA2
:1052BC00007811D101224A7118238A791A4209D037
:1052CC0008712046B98CFFF7DBFC002837D110E0C1
:1052DC00022035E0387DF3E74A79012A2FD08A790C
:1052EC0018231A4208BFF87C08714D7127E0401C46
:1052FC00C0B2DFF888130978884220DADFF8082476
:10530C001C23002103FB002506E00AEBC1022B88BD
:10531C0052889A42EBD0491CC9B24945F5D3E6D123
:10532C001C220021284602F0BEFF2C80B88C68811C
:10533C00AA20A87401206874FFF708FC28740020C8
:10534C00BDE8F28F2DE9F8430446DFF8C00300787E
:10535C000D468542904628BF052038D2204600F0E5
:10536C003AF83449DFF8C8900E78B0424FF6FE7721
:10537C0013D1384600F02FF8B0420ED199F8001036
:10538C000020012206E019F832308B423CBF19464E
:10539C001046521CB242F6DBC0B209EBC006778055
:1053AC00706818B1FAF751FE0020706045B16800C2
:1053BC00FAF73EFE706060B16A00414602F05BFF96
:1053CC0074807570DFF84803007830700020BDE8F9
:1053DC00F2830120FBE738B51649154A09780024F9
:1053EC0001E0641CE4B28C4204DA02EBC4035B8877
:1053FC008342F6D18C4204BF4FF6FE73984213D110
:10540C00002401E0641CE4B28C4202EBC40502DA15
:10541C0028780028F6D18C4206DA68686B8018B1BF
:10542C00FAF713FE00206860204632BD0000000031
:10543C00BC400020FD600100BC020020CC3F0020DD
:10544C000D45002070B5DFF8C4321B78984210D29D
:10545C00DFF8FC42E68A002300E05B1CDBB28342EF
:10546C0003D232F81350B542F7D18B4201D101204F
:10547C0070BD002070BD00000A61010014070020FF
:10548C00FF4400200661010000212046E7E010B532
:10549C000C46002100F0E3F8214600F074F848B106
:1054AC004FF6FE71018041800021017141718171C3
:1054BC00002010BD042010BD086101002DE9F84F3B
:1054CC000746884615461E4600F046F8DFF884125B
:1054DC0091F800900A9CDFF880B248454FF00A0A18
:1054EC000ADA0AFB00B0C1798D4203D2DCB1C57176
:1054FC00868018E0032017E000214FF6FE7000F0C4
:10550C002BF8484508BF02200ED064B1FF210AFBDE
:10551C0000B0817147808680C57180F80080DFF80B
:10552C003012C97C01720020BDE8F28F0021DFF837
:10553C00302200E0491CDFF824321B78C9B29942B2
:10554C0004D28B5C8342F5D1002088547047000054
:10555C0018390020FC60010030B50022DFF8F8316A
:10556C0001E0521CD2B2DFF8EC412478A24208DAF6
:10557C000A245443E5186D88854204BFE45C8C42D0
:10558C00EFD1104630BDF8B5DFF8D821DFF8D8617F
:10559C00157801F0400100244FF6FE7308E006EB8D
:1055AC00C407BF7907F040078F421ED0641CE4B2D9
:1055BC00AC4205DA36F834708742F7D19842EED116
:1055CC00AC4208BF984210D1002401E0641CE4B244
:1055DC00AC4204DA06EBC40000790028F6D1AC42E8
:1055EC00BCBF36F83400FFF752FFAC4202DA06EBD0
:1055FC00C400F2BD0020F2BDF8B50446DFF86C0122
:10560C0006780D46012D174604D13146204600F090
:10561C0081F8E8B9FFF738FF3946FFF7B4FF012DE1
:10562C0004D0C8B14079A84216D111E020B141791B
:10563C00A94208BF458802D078060DD425464FF6FE
:10564C00FE70854208D03146284600F063F808B158
:10565C000020F2BDA542F1D10120F2BD00004906A7
:10566C0000D4704780B50146FF20FCF793F810B1C9
:10567C00FFF782F902BD4FF6FE7002BDFF6001001C
:10568C004FF6FE710091002243887047F8B504462E
:10569C000D461E4612B100230B2215E000212846B0
:1056AC00FFF771FF070014D0B879C00711D5069821
:1056BC0022463146FFF718FBFDF751FD09D07880E3
:1056CC0000230C222146284601B0BDE8F040FFF72C
:1056DC0076B9F1BD244900220FE08B79DB070AD49F
:1056EC004B88834204BF4B79012B04D103234B71AC
:1056FC004FF6FE734B80521C08311A4B1B78D2B2FA
:10570C009A42EAD3704700004C400020006101002F
:10571C001608002070B50E4D0C46A98CFFF7B0FA98
:10572C00060011D0B078FFF74DFB7178002918BF37
:10573C00002809D06A7B012A02D1814238BF014678
:10574C008C4201D3012070BD002070BD0000000010
:10575C00CC3F0020FE600100744100200461010078
:10576C002C440020FC60010018390020036101006A
:10577C0038B5DFF8FC4ADFF8F05A207502202872A1
:10578C004FF6FE702880FEF7D1FD01F011F805F1FF
:10579C001C0004F022FB00F03CF9A07D18B10020A5
:1057AC0000F08EF80AE04FF6FF7000F089F84FF425
:1057BC00FA7332220021082005F0AFFA00F0C0FE87
:1057CC0000F03BFABDE8314000F0E5BE70B50C4688
:1057DC002004DFF89C5A14D4E0071AD5012000F0FD
:1057EC008BFF2878297E0F230F2200F0070000F092
:1057FC00F1FF84F0010070BD00F028F9304602F092
:10580C00A3FD287D02F00EFE0600F5D184F40040C5
:10581C0070BDA87DA10419D50C2807D1022000F079
:10582C006BFF00F03DFEDFF8440A06E00C2000F0B0
:10583C0063FF00F049FEDFF83C0A0268287D4FF454
:10584C00005105F02AF884F4005070BDE10611D522
:10585C0001F02EF8DFF8200A0078012807D1DFF8D4
:10586C001C0A007864224FF4006105F016F884F0ED
:10587C00100070BD200702D584F0080070BDE00553
:10588C000BD5DFF8FC0990F82600082814BF042873
:10589C0000F093F884F4807070BD600707D5022186
:1058AC00FF2004F06FF9DFF8801A01200860E00493
:1058BC0004D500F0C7FE84F4805070BD002070BD8C
:1058CC002DE9F041DFF8A8798046B87D0125002646
:1058DC0008B904F00BF900F026FF00F03FFFDFF8E9
:1058EC00A049B878A073B87E022828D1BE76FEF7FE
:1058FC00A3FDFEF7BAFD02F057FC012D0CD100F010
:10590C0034F802F0FEFC00F07F00404400F1640625
:10591C00DFF8440A00687864FCF7BBFC4FF6FF70B4
:10592C00804506D00120B87500F0D4FAB0B200F072
:10593C008EFDB878FEF772FF2846BDE8F08100F0C6
:10594C000BF80500D3D100F042F8054694F9181075
:10595C00012088407864D0E710B5002404F000F9E9
:10596C00800748BF0124204610BD10B5DFF8004960
:10597C00DFF8E8192078097800F0F80011B9022155
:10598C00207013E0012908BF40F0010003D0022968
